{"contracts/CeloStakingPool.sol":{"CeloStakingPool":{"abi":[{"inputs":[{"internalType":"address","name":"_stakingToken","type":"address"}],"stateMutability":"nonpayable","type":"constructor"},{"anonymous":false,"inputs":[{"indexed":true,"internalType":"address","name":"previousOwner","type":"address"},{"indexed":true,"internalType":"address","name":"newOwner","type":"address"}],"name":"OwnershipTransferred","type":"event"},{"anonymous":false,"inputs":[{"indexed":true,"internalType":"address","name":"by","type":"address"}],"name":"Paused","type":"event"},{"anonymous":false,"inputs":[{"indexed":true,"internalType":"address","name":"user","type":"address"},{"indexed":false,"internalType":"uint256","name":"reward","type":"uint256"}],"name":"RewardPaid","type":"event"},{"anonymous":false,"inputs":[{"indexed":true,"internalType":"address","name":"user","type":"address"},{"indexed":false,"internalType":"uint256","name":"amount","type":"uint256"}],"name":"Staked","type":"event"},{"anonymous":false,"inputs":[{"indexed":true,"internalType":"address","name":"by","type":"address"}],"name":"Unpaused","type":"event"},{"anonymous":false,"inputs":[{"indexed":true,"internalType":"address","name":"user","type":"address"},{"indexed":false,"internalType":"uint256","name":"amount","type":"uint256"}],"name":"Withdrawn","type":"event"},{"inputs":[{"internalType":"address","name":"account","type":"address"}],"name":"balanceOf","outputs":[{"internalType":"uint256","name":"","type":"uint256"}],"stateMutability":"view","type":"function"},{"inputs":[{"internalType":"address","name":"account","type":"address"}],"name":"earned","outputs":[{"internalType":"uint256","name":"","type":"uint256"}],"stateMutability":"view","type":"function"},{"inputs":[],"name":"emergencyWithdraw","outputs":[],"stateMutability":"nonpayable","type":"function"},{"inputs":[{"internalType":"uint256","name":"amount","type":"uint256"}],"name":"fundRewards","outputs":[],"stateMutability":"nonpayable","type":"function"},{"inputs":[],"name":"getReward","outputs":[],"stateMutability":"nonpayable","type":"function"},{"inputs":[],"name":"lastUpdateTime","outputs":[{"internalType":"uint256","name":"","type":"uint256"}],"stateMutability":"view","type":"function"},{"inputs":[],"name":"lockPeriod","outputs":[{"internalType":"uint256","name":"","type":"uint256"}],"stateMutability":"view","type":"function"},{"inputs":[],"name":"owner","outputs":[{"internalType":"address","name":"","type":"address"}],"stateMutability":"view","type":"function"},{"inputs":[],"name":"pause","outputs":[],"stateMutability":"nonpayable","type":"function"},{"inputs":[],"name":"paused","outputs":[{"internalType":"bool","name":"","type":"bool"}],"stateMutability":"view","type":"function"},{"inputs":[],"name":"renounceOwnership","outputs":[],"stateMutability":"nonpayable","type":"function"},{"inputs":[],"name":"rewardPerToken","outputs":[{"internalType":"uint256","name":"","type":"uint256"}],"stateMutability":"view","type":"function"},{"inputs":[],"name":"rewardPerTokenStored","outputs":[{"internalType":"uint256","name":"","type":"uint256"}],"stateMutability":"view","type":"function"},{"inputs":[],"name":"rewardRate","outputs":[{"internalType":"uint256","name":"","type":"uint256"}],"stateMutability":"view","type":"function"},{"inputs":[{"internalType":"address","name":"","type":"address"}],"name":"rewards","outputs":[{"internalType":"uint256","name":"","type":"uint256"}],"stateMutability":"view","type":"function"},{"inputs":[{"internalType":"uint256","name":"_lockPeriod","type":"uint256"}],"name":"setLockPeriod","outputs":[],"stateMutability":"nonpayable","type":"function"},{"inputs":[{"internalType":"uint256","name":"_rewardRate","type":"uint256"}],"name":"setRewardRate","outputs":[],"stateMutability":"nonpayable","type":"function"},{"inputs":[{"internalType":"uint256","name":"amount","type":"uint256"}],"name":"stake","outputs":[],"stateMutability":"nonpayable","type":"function"},{"inputs":[{"internalType":"address","name":"","type":"address"}],"name":"stakingTime","outputs":[{"internalType":"uint256","name":"","type":"uint256"}],"stateMutability":"view","type":"function"},{"inputs":[],"name":"stakingToken","outputs":[{"internalType":"contract IERC20","name":"","type":"address"}],"stateMutability":"view","type":"function"},{"inputs":[],"name":"totalSupply","outputs":[{"internalType":"uint256","name":"","type":"uint256"}],"stateMutability":"view","type":"function"},{"inputs":[{"internalType":"address","name":"newOwner","type":"address"}],"name":"transferOwnership","outputs":[],"stateMutability":"nonpayable","type":"function"},{"inputs":[],"name":"unpause","outputs":[],"stateMutability":"nonpayable","type":"function"},{"inputs":[{"internalType":"address","name":"","type":"address"}],"name":"userRewardPerTokenPaid","outputs":[{"internalType":"uint256","name":"","type":"uint256"}],"stateMutability":"view","type":"function"},{"inputs":[{"internalType":"uint256","name":"amount","type":"uint256"}],"name":"withdraw","outputs":[],"stateMutability":"nonpayable","type":"function"}],"evm":{"bytecode":{"linkReferences":{},"object":"6080346100cc57601f610fe638819003918201601f19168301916001600160401b038311848410176100d1578084926020946040528339810103126100cc57516001600160a01b0390818116908190036100cc57600160005560015460018060a01b0319903382821617600155604051933391167f8be0079c531659141344cd1fd0a4f28419497f9722a3daafe3b4186f6b6457e0600080a366038d7ea4c6800060035562015180600a5560ff19600c5416600c55600254161760025542600455610efe90816100e88239f35b600080fd5b634e487b7160e01b600052604160045260246000fdfe60406080815260048036101561001457600080fd5b600091823560e01c80628cc26214610c635780630700037d14610c2957806318160ddd14610c0a5780632e1a7d4d14610a175780633d18b912146109155780633f4ba83a146108ca5780633fd8b02f146108ab578063583d42fd146108715780635c975abb1461084d57806370a0823114610813578063715018a6146107b657806372f702f31461078d578063779972da1461076b5780637b0a47ee1461074c5780638456cb59146106fb5780638b876347146106c15780638da5cb5b1461069857806393707a19146105c25780639e447fc614610592578063a694fc3a146103d1578063c8f33c91146103b3578063cd3daf9d1461038f578063db2e21bc1461022a578063df136d65146102075763f2fde38b1461013257600080fd5b34610203576020366003190112610203576001600160a01b038235818116939192908490036101ff57610163610c94565b83156101ad575050600154826bffffffffffffffffffffffff60a01b821617600155167f8be0079c531659141344cd1fd0a4f28419497f9722a3daafe3b4186f6b6457e08380a380f35b906020608492519162461bcd60e51b8352820152602660248201527f4f776e61626c653a206e6577206f776e657220697320746865207a65726f206160448201526564647265737360d01b6064820152fd5b8480fd5b8280fd5b8382346102265781600319360112610226576020906005549051908152f35b5080fd5b509034610203578260031936011261020357610244610c94565b60025482516370a0823160e01b8152308184015260209290916001600160a01b0390811691908484602481865afa938415610385578794610352575b50831561031757600154865163a9059cbb60e01b815291166001600160a01b031691810191825260208201939093528391839182908890829060400103925af191821561030a576102da935084926102dd575b5050610e34565b80f35b6102fc9250803d10610303575b6102f48183610ddf565b810190610e17565b38806102d3565b503d6102ea565b50505051903d90823e3d90fd5b855162461bcd60e51b815280830186905260156024820152744e6f20746f6b656e7320746f20776974686472617760581b6044820152606490fd5b9093508481813d831161037e575b61036a8183610ddf565b8101031261037a57519238610280565b8680fd5b503d610360565b86513d89823e3d90fd5b8382346102265781600319360112610226576020906103ac610d2f565b9051908152f35b50903461020357826003193601126102035760209250549051908152f35b5090346102035760208060031936011261058e578135916103f0610e72565b6103f8610d2f565b6005554281553361056a575b60ff600c541661053457821561050257818361048d9261042682600854610d22565b6008553388526009835286882061043e838254610d22565b905533808952600b845287892042905560025488516323b872dd60e01b81529283019182523060208301526040820193909352909384926001600160a01b03169183918a918391606090910190565b03925af19081156104f8577f9e71bc8eea02a63969f509818f2dafb9254532904319f9dbda79b67bd34a5f3d9394916104cd9187916104db575b50610e34565b519283523392a26001815580f35b6104f29150843d8611610303576102f48183610ddf565b386104c7565b84513d87823e3d90fd5b60649184519162461bcd60e51b8352820152600e60248201526d043616e6e6f74207374616b6520360941b6044820152fd5b60649184519162461bcd60e51b8352820152601260248201527110dbdb9d1c9858dd081a5cc81c185d5cd95960721b6044820152fd5b61057333610d83565b33865260078352848620556005546006835284862055610404565b8380fd5b505034610226576020366003190112610226576105ad610c94565b6105b5610d2f565b6005554281553560035580f35b509034610203576020366003190112610203578035906105e0610c94565b81156106655760025483516323b872dd60e01b815233928101928352306020848101919091526040840194909452929183916001600160a01b03169082908790829060600103925af1908115610659576102da925083916106415750610e34565b6104f2915060203d8111610303576102f48183610ddf565b505051903d90823e3d90fd5b606490602084519162461bcd60e51b8352820152600d60248201526c043616e6e6f742066756e64203609c1b6044820152fd5b83823461022657816003193601126102265760015490516001600160a01b039091168152602090f35b50903461020357602036600319011261020357356001600160a01b0381169081900361020357828291602094526006845220549051908152f35b8334610749578060031936011261074957610714610c94565b600160ff19600c541617600c55337f62e78cea01bee320cd4e420270b5ea74000d11b0c9f74754ebdbfc544b05a2588280a280f35b80fd5b8382346102265781600319360112610226576020906003549051908152f35b50503461022657602036600319011261022657610786610c94565b35600a5580f35b83823461022657816003193601126102265760025490516001600160a01b039091168152602090f35b83346107495780600319360112610749576107cf610c94565b600180546001600160a01b0319811690915581906001600160a01b03167f8be0079c531659141344cd1fd0a4f28419497f9722a3daafe3b4186f6b6457e08280a380f35b50903461020357602036600319011261020357356001600160a01b0381169081900361020357828291602094526009845220549051908152f35b83823461022657816003193601126102265760209060ff600c541690519015158152f35b50903461020357602036600319011261020357356001600160a01b038116908190036102035782829160209452600b845220549051908152f35b838234610226578160031936011261022657602090600a549051908152f35b83346107495780600319360112610749576108e3610c94565b60ff19600c5416600c55337f5db9ee0a495bf2e6ff9c91a7834c1ba4fdd244a5e8aa4e537bd38aeae4b073aa8280a280f35b503461020357826003193601126102035761092e610e72565b610936610d2f565b600555428255336109f1575b3383526007602052808320918383549384610960575b506001815580f35b55600254825163a9059cbb60e01b815233928101928352602080840186905290929091839182900360400190829088906001600160a01b03165af19081156109e757906109b39185916106415750610e34565b519081527fe2403640ba68fed3a2f88b7557551d1993f84b99bb10ff833f0cf8db0c5e048660203392a23880808381610958565b82513d86823e3d90fd5b6109fa33610d83565b338452600760205281842055600554600660205281842055610942565b5090346102035760208060031936011261058e57813591610a36610e72565b610a3e610d2f565b60055542815533610be6575b8215610bb15733855260098252828486205410610b7057818360ff600c541615610b12575b610ad392610a7f82600854610cec565b60085533885260098352868820610a97838254610cec565b9055600254875163a9059cbb60e01b8152339281019283526020830193909352919384926001600160a01b03169183918a918391604090910190565b03925af19081156104f8577f7084f5476618d8e60b11ef0d7d3f06914655adb8793e28ff7f018d4c76d505d59394916104cd9187916104db5750610e34565b5050338552600b8252610b2b84862054600a5490610d22565b4210610b38578183610a6f565b60649184519162461bcd60e51b8352820152601460248201527314dd1a5b1b081a5b881b1bd8dac81c195c9a5bd960621b6044820152fd5b60649184519162461bcd60e51b8352820152601860248201527f4e6f7420656e6f756768207374616b656420746f6b656e7300000000000000006044820152fd5b60649184519162461bcd60e51b83528201526011602482015270043616e6e6f74207769746864726177203607c1b6044820152fd5b610bef33610d83565b33865260078352848620556005546006835284862055610a4a565b8382346102265781600319360112610226576020906008549051908152f35b50903461020357602036600319011261020357356001600160a01b0381169081900361020357828291602094526007845220549051908152f35b5090346102035760203660031901126102035735916001600160a01b038316830361074957506103ac602092610d83565b6001546001600160a01b03163303610ca857565b606460405162461bcd60e51b815260206004820152602060248201527f4f776e61626c653a2063616c6c6572206973206e6f7420746865206f776e65726044820152fd5b91908203918211610cf957565b634e487b7160e01b600052601160045260246000fd5b81810292918115918404141715610cf957565b91908201809211610cf957565b6008548015610d7c57600554610d53610d4a60045442610cec565b60035490610d0f565b91670de0b6b3a764000092838102938185041490151715610cf957610d79920490610d22565b90565b5060055490565b610d799060018060a01b0316604060008281526009602052670de0b6b3a7640000610dce83832054610dc8610db6610d2f565b87865260066020528686205490610cec565b90610d0f565b049281526007602052205490610d22565b90601f8019910116810190811067ffffffffffffffff821117610e0157604052565b634e487b7160e01b600052604160045260246000fd5b90816020910312610e2f57518015158103610e2f5790565b600080fd5b15610e3b57565b60405162461bcd60e51b815260206004820152600f60248201526e151c985b9cd9995c8819985a5b1959608a1b6044820152606490fd5b600260005414610e83576002600055565b60405162461bcd60e51b815260206004820152601f60248201527f5265656e7472616e637947756172643a207265656e7472616e742063616c6c006044820152606490fdfea264697066735822122026a3e9face38db27ad3630a22e10282c0910ad35211d5c1ad7ca6d3e30a4684964736f6c63430008130033","opcodes":"PUSH1 0x80 CALLVALUE PUSH2 0xCC JUMPI PUSH1 0x1F PUSH2 0xFE6 CODESIZE DUP2 SWAP1 SUB SWAP2 DUP3 ADD PUSH1 0x1F NOT AND DUP4 ADD SWAP2 PUSH1 0x1 PUSH1 0x1 PUSH1 0x40 SHL SUB DUP4 GT DUP5 DUP5 LT OR PUSH2 0xD1 JUMPI DUP1 DUP5 SWAP3 PUSH1 0x20 SWAP5 PUSH1 0x40 MSTORE DUP4 CODECOPY DUP2 ADD SUB SLT PUSH2 0xCC JUMPI MLOAD PUSH1 0x1 PUSH1 0x1 PUSH1 0xA0 SHL SUB SWAP1 DUP2 DUP2 AND SWAP1 DUP2 SWAP1 SUB PUSH2 0xCC JUMPI PUSH1 0x1 PUSH1 0x0 SSTORE PUSH1 0x1 SLOAD PUSH1 0x1 DUP1 PUSH1 0xA0 SHL SUB NOT SWAP1 CALLER DUP3 DUP3 AND OR PUSH1 0x1 SSTORE PUSH1 0x40 MLOAD SWAP4 CALLER SWAP2 AND PUSH32 0x8BE0079C531659141344CD1FD0A4F28419497F9722A3DAAFE3B4186F6B6457E0 PUSH1 0x0 DUP1 LOG3 PUSH7 0x38D7EA4C68000 PUSH1 0x3 SSTORE PUSH3 0x15180 PUSH1 0xA SSTORE PUSH1 0xFF NOT PUSH1 0xC SLOAD AND PUSH1 0xC SSTORE PUSH1 0x2 SLOAD AND OR PUSH1 0x2 SSTORE TIMESTAMP PUSH1 0x4 SSTORE PUSH2 0xEFE SWAP1 DUP2 PUSH2 0xE8 DUP3 CODECOPY RETURN JUMPDEST PUSH1 0x0 DUP1 REVERT JUMPDEST PUSH4 0x4E487B71 PUSH1 0xE0 SHL PUSH1 0x0 MSTORE PUSH1 0x41 PUSH1 0x4 MSTORE PUSH1 0x24 PUSH1 0x0 REVERT INVALID PUSH1 0x40 PUSH1 0x80 DUP2 MSTORE PUSH1 0x4 DUP1 CALLDATASIZE LT ISZERO PUSH2 0x14 JUMPI PUSH1 0x0 DUP1 REVERT JUMPDEST PUSH1 0x0 SWAP2 DUP3 CALLDATALOAD PUSH1 0xE0 SHR DUP1 PUSH3 0x8CC262 EQ PUSH2 0xC63 JUMPI DUP1 PUSH4 0x700037D EQ PUSH2 0xC29 JUMPI DUP1 PUSH4 0x18160DDD EQ PUSH2 0xC0A JUMPI DUP1 PUSH4 0x2E1A7D4D EQ PUSH2 0xA17 JUMPI DUP1 PUSH4 0x3D18B912 EQ PUSH2 0x915 JUMPI DUP1 PUSH4 0x3F4BA83A EQ PUSH2 0x8CA JUMPI DUP1 PUSH4 0x3FD8B02F EQ PUSH2 0x8AB JUMPI DUP1 PUSH4 0x583D42FD EQ PUSH2 0x871 JUMPI DUP1 PUSH4 0x5C975ABB EQ PUSH2 0x84D JUMPI DUP1 PUSH4 0x70A08231 EQ PUSH2 0x813 JUMPI DUP1 PUSH4 0x715018A6 EQ PUSH2 0x7B6 JUMPI DUP1 PUSH4 0x72F702F3 EQ PUSH2 0x78D JUMPI DUP1 PUSH4 0x779972DA EQ PUSH2 0x76B JUMPI DUP1 PUSH4 0x7B0A47EE EQ PUSH2 0x74C JUMPI DUP1 PUSH4 0x8456CB59 EQ PUSH2 0x6FB JUMPI DUP1 PUSH4 0x8B876347 EQ PUSH2 0x6C1 JUMPI DUP1 PUSH4 0x8DA5CB5B EQ PUSH2 0x698 JUMPI DUP1 PUSH4 0x93707A19 EQ PUSH2 0x5C2 JUMPI DUP1 PUSH4 0x9E447FC6 EQ PUSH2 0x592 JUMPI DUP1 PUSH4 0xA694FC3A EQ PUSH2 0x3D1 JUMPI DUP1 PUSH4 0xC8F33C91 EQ PUSH2 0x3B3 JUMPI DUP1 PUSH4 0xCD3DAF9D EQ PUSH2 0x38F JUMPI DUP1 PUSH4 0xDB2E21BC EQ PUSH2 0x22A JUMPI DUP1 PUSH4 0xDF136D65 EQ PUSH2 0x207 JUMPI PUSH4 0xF2FDE38B EQ PUSH2 0x132 JUMPI PUSH1 0x0 DUP1 REVERT JUMPDEST CALLVALUE PUSH2 0x203 JUMPI PUSH1 0x20 CALLDATASIZE PUSH1 0x3 NOT ADD SLT PUSH2 0x203 JUMPI PUSH1 0x1 PUSH1 0x1 PUSH1 0xA0 SHL SUB DUP3 CALLDATALOAD DUP2 DUP2 AND SWAP4 SWAP2 SWAP3 SWAP1 DUP5 SWAP1 SUB PUSH2 0x1FF JUMPI PUSH2 0x163 PUSH2 0xC94 JUMP JUMPDEST DUP4 ISZERO PUSH2 0x1AD JUMPI POP POP PUSH1 0x1 SLOAD DUP3 PUSH12 0xFFFFFFFFFFFFFFFFFFFFFFFF PUSH1 0xA0 SHL DUP3 AND OR PUSH1 0x1 SSTORE AND PUSH32 0x8BE0079C531659141344CD1FD0A4F28419497F9722A3DAAFE3B4186F6B6457E0 DUP4 DUP1 LOG3 DUP1 RETURN JUMPDEST SWAP1 PUSH1 0x20 PUSH1 0x84 SWAP3 MLOAD SWAP2 PUSH3 0x461BCD PUSH1 0xE5 SHL DUP4 MSTORE DUP3 ADD MSTORE PUSH1 0x26 PUSH1 0x24 DUP3 ADD MSTORE PUSH32 0x4F776E61626C653A206E6577206F776E657220697320746865207A65726F2061 PUSH1 0x44 DUP3 ADD MSTORE PUSH6 0x646472657373 PUSH1 0xD0 SHL PUSH1 0x64 DUP3 ADD MSTORE REVERT JUMPDEST DUP5 DUP1 REVERT JUMPDEST DUP3 DUP1 REVERT JUMPDEST DUP4 DUP3 CALLVALUE PUSH2 0x226 JUMPI DUP2 PUSH1 0x3 NOT CALLDATASIZE ADD SLT PUSH2 0x226 JUMPI PUSH1 0x20 SWAP1 PUSH1 0x5 SLOAD SWAP1 MLOAD SWAP1 DUP2 MSTORE RETURN JUMPDEST POP DUP1 REVERT JUMPDEST POP SWAP1 CALLVALUE PUSH2 0x203 JUMPI DUP3 PUSH1 0x3 NOT CALLDATASIZE ADD SLT PUSH2 0x203 JUMPI PUSH2 0x244 PUSH2 0xC94 JUMP JUMPDEST PUSH1 0x2 SLOAD DUP3 MLOAD PUSH4 0x70A08231 PUSH1 0xE0 SHL DUP2 MSTORE ADDRESS DUP2 DUP5 ADD MSTORE PUSH1 0x20 SWAP3 SWAP1 SWAP2 PUSH1 0x1 PUSH1 0x1 PUSH1 0xA0 SHL SUB SWAP1 DUP2 AND SWAP2 SWAP1 DUP5 DUP5 PUSH1 0x24 DUP2 DUP7 GAS STATICCALL SWAP4 DUP5 ISZERO PUSH2 0x385 JUMPI DUP8 SWAP5 PUSH2 0x352 JUMPI JUMPDEST POP DUP4 ISZERO PUSH2 0x317 JUMPI PUSH1 0x1 SLOAD DUP7 MLOAD PUSH4 0xA9059CBB PUSH1 0xE0 SHL DUP2 MSTORE SWAP2 AND PUSH1 0x1 PUSH1 0x1 PUSH1 0xA0 SHL SUB AND SWAP2 DUP2 ADD SWAP2 DUP3 MSTORE PUSH1 0x20 DUP3 ADD SWAP4 SWAP1 SWAP4 MSTORE DUP4 SWAP2 DUP4 SWAP2 DUP3 SWAP1 DUP9 SWAP1 DUP3 SWAP1 PUSH1 0x40 ADD SUB SWAP3 GAS CALL SWAP2 DUP3 ISZERO PUSH2 0x30A JUMPI PUSH2 0x2DA SWAP4 POP DUP5 SWAP3 PUSH2 0x2DD JUMPI JUMPDEST POP POP PUSH2 0xE34 JUMP JUMPDEST DUP1 RETURN JUMPDEST PUSH2 0x2FC SWAP3 POP DUP1 RETURNDATASIZE LT PUSH2 0x303 JUMPI JUMPDEST PUSH2 0x2F4 DUP2 DUP4 PUSH2 0xDDF JUMP JUMPDEST DUP2 ADD SWAP1 PUSH2 0xE17 JUMP JUMPDEST CODESIZE DUP1 PUSH2 0x2D3 JUMP JUMPDEST POP RETURNDATASIZE PUSH2 0x2EA JUMP JUMPDEST POP POP POP MLOAD SWAP1 RETURNDATASIZE SWAP1 DUP3 RETURNDATACOPY RETURNDATASIZE SWAP1 REVERT JUMPDEST DUP6 MLOAD PUSH3 0x461BCD PUSH1 0xE5 SHL DUP2 MSTORE DUP1 DUP4 ADD DUP7 SWAP1 MSTORE PUSH1 0x15 PUSH1 0x24 DUP3 ADD MSTORE PUSH21 0x4E6F20746F6B656E7320746F207769746864726177 PUSH1 0x58 SHL PUSH1 0x44 DUP3 ADD MSTORE PUSH1 0x64 SWAP1 REVERT JUMPDEST SWAP1 SWAP4 POP DUP5 DUP2 DUP2 RETURNDATASIZE DUP4 GT PUSH2 0x37E JUMPI JUMPDEST PUSH2 0x36A DUP2 DUP4 PUSH2 0xDDF JUMP JUMPDEST DUP2 ADD SUB SLT PUSH2 0x37A JUMPI MLOAD SWAP3 CODESIZE PUSH2 0x280 JUMP JUMPDEST DUP7 DUP1 REVERT JUMPDEST POP RETURNDATASIZE PUSH2 0x360 JUMP JUMPDEST DUP7 MLOAD RETURNDATASIZE DUP10 DUP3 RETURNDATACOPY RETURNDATASIZE SWAP1 REVERT JUMPDEST DUP4 DUP3 CALLVALUE PUSH2 0x226 JUMPI DUP2 PUSH1 0x3 NOT CALLDATASIZE ADD SLT PUSH2 0x226 JUMPI PUSH1 0x20 SWAP1 PUSH2 0x3AC PUSH2 0xD2F JUMP JUMPDEST SWAP1 MLOAD SWAP1 DUP2 MSTORE RETURN JUMPDEST POP SWAP1 CALLVALUE PUSH2 0x203 JUMPI DUP3 PUSH1 0x3 NOT CALLDATASIZE ADD SLT PUSH2 0x203 JUMPI PUSH1 0x20 SWAP3 POP SLOAD SWAP1 MLOAD SWAP1 DUP2 MSTORE RETURN JUMPDEST POP SWAP1 CALLVALUE PUSH2 0x203 JUMPI PUSH1 0x20 DUP1 PUSH1 0x3 NOT CALLDATASIZE ADD SLT PUSH2 0x58E JUMPI DUP2 CALLDATALOAD SWAP2 PUSH2 0x3F0 PUSH2 0xE72 JUMP JUMPDEST PUSH2 0x3F8 PUSH2 0xD2F JUMP JUMPDEST PUSH1 0x5 SSTORE TIMESTAMP DUP2 SSTORE CALLER PUSH2 0x56A JUMPI JUMPDEST PUSH1 0xFF PUSH1 0xC SLOAD AND PUSH2 0x534 JUMPI DUP3 ISZERO PUSH2 0x502 JUMPI DUP2 DUP4 PUSH2 0x48D SWAP3 PUSH2 0x426 DUP3 PUSH1 0x8 SLOAD PUSH2 0xD22 JUMP JUMPDEST PUSH1 0x8 SSTORE CALLER DUP9 MSTORE PUSH1 0x9 DUP4 MSTORE DUP7 DUP9 KECCAK256 PUSH2 0x43E DUP4 DUP3 SLOAD PUSH2 0xD22 JUMP JUMPDEST SWAP1 SSTORE CALLER DUP1 DUP10 MSTORE PUSH1 0xB DUP5 MSTORE DUP8 DUP10 KECCAK256 TIMESTAMP SWAP1 SSTORE PUSH1 0x2 SLOAD DUP9 MLOAD PUSH4 0x23B872DD PUSH1 0xE0 SHL DUP2 MSTORE SWAP3 DUP4 ADD SWAP2 DUP3 MSTORE ADDRESS PUSH1 0x20 DUP4 ADD MSTORE PUSH1 0x40 DUP3 ADD SWAP4 SWAP1 SWAP4 MSTORE SWAP1 SWAP4 DUP5 SWAP3 PUSH1 0x1 PUSH1 0x1 PUSH1 0xA0 SHL SUB AND SWAP2 DUP4 SWAP2 DUP11 SWAP2 DUP4 SWAP2 PUSH1 0x60 SWAP1 SWAP2 ADD SWAP1 JUMP JUMPDEST SUB SWAP3 GAS CALL SWAP1 DUP2 ISZERO PUSH2 0x4F8 JUMPI PUSH32 0x9E71BC8EEA02A63969F509818F2DAFB9254532904319F9DBDA79B67BD34A5F3D SWAP4 SWAP5 SWAP2 PUSH2 0x4CD SWAP2 DUP8 SWAP2 PUSH2 0x4DB JUMPI JUMPDEST POP PUSH2 0xE34 JUMP JUMPDEST MLOAD SWAP3 DUP4 MSTORE CALLER SWAP3 LOG2 PUSH1 0x1 DUP2 SSTORE DUP1 RETURN JUMPDEST PUSH2 0x4F2 SWAP2 POP DUP5 RETURNDATASIZE DUP7 GT PUSH2 0x303 JUMPI PUSH2 0x2F4 DUP2 DUP4 PUSH2 0xDDF JUMP JUMPDEST CODESIZE PUSH2 0x4C7 JUMP JUMPDEST DUP5 MLOAD RETURNDATASIZE DUP8 DUP3 RETURNDATACOPY RETURNDATASIZE SWAP1 REVERT JUMPDEST PUSH1 0x64 SWAP2 DUP5 MLOAD SWAP2 PUSH3 0x461BCD PUSH1 0xE5 SHL DUP4 MSTORE DUP3 ADD MSTORE PUSH1 0xE PUSH1 0x24 DUP3 ADD MSTORE PUSH14 0x43616E6E6F74207374616B65203 PUSH1 0x94 SHL PUSH1 0x44 DUP3 ADD MSTORE REVERT JUMPDEST PUSH1 0x64 SWAP2 DUP5 MLOAD SWAP2 PUSH3 0x461BCD PUSH1 0xE5 SHL DUP4 MSTORE DUP3 ADD MSTORE PUSH1 0x12 PUSH1 0x24 DUP3 ADD MSTORE PUSH18 0x10DBDB9D1C9858DD081A5CC81C185D5CD959 PUSH1 0x72 SHL PUSH1 0x44 DUP3 ADD MSTORE REVERT JUMPDEST PUSH2 0x573 CALLER PUSH2 0xD83 JUMP JUMPDEST CALLER DUP7 MSTORE PUSH1 0x7 DUP4 MSTORE DUP5 DUP7 KECCAK256 SSTORE PUSH1 0x5 SLOAD PUSH1 0x6 DUP4 MSTORE DUP5 DUP7 KECCAK256 SSTORE PUSH2 0x404 JUMP JUMPDEST DUP4 DUP1 REVERT JUMPDEST POP POP CALLVALUE PUSH2 0x226 JUMPI PUSH1 0x20 CALLDATASIZE PUSH1 0x3 NOT ADD SLT PUSH2 0x226 JUMPI PUSH2 0x5AD PUSH2 0xC94 JUMP JUMPDEST PUSH2 0x5B5 PUSH2 0xD2F JUMP JUMPDEST PUSH1 0x5 SSTORE TIMESTAMP DUP2 SSTORE CALLDATALOAD PUSH1 0x3 SSTORE DUP1 RETURN JUMPDEST POP SWAP1 CALLVALUE PUSH2 0x203 JUMPI PUSH1 0x20 CALLDATASIZE PUSH1 0x3 NOT ADD SLT PUSH2 0x203 JUMPI DUP1 CALLDATALOAD SWAP1 PUSH2 0x5E0 PUSH2 0xC94 JUMP JUMPDEST DUP2 ISZERO PUSH2 0x665 JUMPI PUSH1 0x2 SLOAD DUP4 MLOAD PUSH4 0x23B872DD PUSH1 0xE0 SHL DUP2 MSTORE CALLER SWAP3 DUP2 ADD SWAP3 DUP4 MSTORE ADDRESS PUSH1 0x20 DUP5 DUP2 ADD SWAP2 SWAP1 SWAP2 MSTORE PUSH1 0x40 DUP5 ADD SWAP5 SWAP1 SWAP5 MSTORE SWAP3 SWAP2 DUP4 SWAP2 PUSH1 0x1 PUSH1 0x1 PUSH1 0xA0 SHL SUB AND SWAP1 DUP3 SWAP1 DUP8 SWAP1 DUP3 SWAP1 PUSH1 0x60 ADD SUB SWAP3 GAS CALL SWAP1 DUP2 ISZERO PUSH2 0x659 JUMPI PUSH2 0x2DA SWAP3 POP DUP4 SWAP2 PUSH2 0x641 JUMPI POP PUSH2 0xE34 JUMP JUMPDEST PUSH2 0x4F2 SWAP2 POP PUSH1 0x20 RETURNDATASIZE DUP2 GT PUSH2 0x303 JUMPI PUSH2 0x2F4 DUP2 DUP4 PUSH2 0xDDF JUMP JUMPDEST POP POP MLOAD SWAP1 RETURNDATASIZE SWAP1 DUP3 RETURNDATACOPY RETURNDATASIZE SWAP1 REVERT JUMPDEST PUSH1 0x64 SWAP1 PUSH1 0x20 DUP5 MLOAD SWAP2 PUSH3 0x461BCD PUSH1 0xE5 SHL DUP4 MSTORE DUP3 ADD MSTORE PUSH1 0xD PUSH1 0x24 DUP3 ADD MSTORE PUSH13 0x43616E6E6F742066756E64203 PUSH1 0x9C SHL PUSH1 0x44 DUP3 ADD MSTORE REVERT JUMPDEST DUP4 DUP3 CALLVALUE PUSH2 0x226 JUMPI DUP2 PUSH1 0x3 NOT CALLDATASIZE ADD SLT PUSH2 0x226 JUMPI PUSH1 0x1 SLOAD SWAP1 MLOAD PUSH1 0x1 PUSH1 0x1 PUSH1 0xA0 SHL SUB SWAP1 SWAP2 AND DUP2 MSTORE PUSH1 0x20 SWAP1 RETURN JUMPDEST POP SWAP1 CALLVALUE PUSH2 0x203 JUMPI PUSH1 0x20 CALLDATASIZE PUSH1 0x3 NOT ADD SLT PUSH2 0x203 JUMPI CALLDATALOAD PUSH1 0x1 PUSH1 0x1 PUSH1 0xA0 SHL SUB DUP2 AND SWAP1 DUP2 SWAP1 SUB PUSH2 0x203 JUMPI DUP3 DUP3 SWAP2 PUSH1 0x20 SWAP5 MSTORE PUSH1 0x6 DUP5 MSTORE KECCAK256 SLOAD SWAP1 MLOAD SWAP1 DUP2 MSTORE RETURN JUMPDEST DUP4 CALLVALUE PUSH2 0x749 JUMPI DUP1 PUSH1 0x3 NOT CALLDATASIZE ADD SLT PUSH2 0x749 JUMPI PUSH2 0x714 PUSH2 0xC94 JUMP JUMPDEST PUSH1 0x1 PUSH1 0xFF NOT PUSH1 0xC SLOAD AND OR PUSH1 0xC SSTORE CALLER PUSH32 0x62E78CEA01BEE320CD4E420270B5EA74000D11B0C9F74754EBDBFC544B05A258 DUP3 DUP1 LOG2 DUP1 RETURN JUMPDEST DUP1 REVERT JUMPDEST DUP4 DUP3 CALLVALUE PUSH2 0x226 JUMPI DUP2 PUSH1 0x3 NOT CALLDATASIZE ADD SLT PUSH2 0x226 JUMPI PUSH1 0x20 SWAP1 PUSH1 0x3 SLOAD SWAP1 MLOAD SWAP1 DUP2 MSTORE RETURN JUMPDEST POP POP CALLVALUE PUSH2 0x226 JUMPI PUSH1 0x20 CALLDATASIZE PUSH1 0x3 NOT ADD SLT PUSH2 0x226 JUMPI PUSH2 0x786 PUSH2 0xC94 JUMP JUMPDEST CALLDATALOAD PUSH1 0xA SSTORE DUP1 RETURN JUMPDEST DUP4 DUP3 CALLVALUE PUSH2 0x226 JUMPI DUP2 PUSH1 0x3 NOT CALLDATASIZE ADD SLT PUSH2 0x226 JUMPI PUSH1 0x2 SLOAD SWAP1 MLOAD PUSH1 0x1 PUSH1 0x1 PUSH1 0xA0 SHL SUB SWAP1 SWAP2 AND DUP2 MSTORE PUSH1 0x20 SWAP1 RETURN JUMPDEST DUP4 CALLVALUE PUSH2 0x749 JUMPI DUP1 PUSH1 0x3 NOT CALLDATASIZE ADD SLT PUSH2 0x749 JUMPI PUSH2 0x7CF PUSH2 0xC94 JUMP JUMPDEST PUSH1 0x1 DUP1 SLOAD PUSH1 0x1 PUSH1 0x1 PUSH1 0xA0 SHL SUB NOT DUP2 AND SWAP1 SWAP2 SSTORE DUP2 SWAP1 PUSH1 0x1 PUSH1 0x1 PUSH1 0xA0 SHL SUB AND PUSH32 0x8BE0079C531659141344CD1FD0A4F28419497F9722A3DAAFE3B4186F6B6457E0 DUP3 DUP1 LOG3 DUP1 RETURN JUMPDEST POP SWAP1 CALLVALUE PUSH2 0x203 JUMPI PUSH1 0x20 CALLDATASIZE PUSH1 0x3 NOT ADD SLT PUSH2 0x203 JUMPI CALLDATALOAD PUSH1 0x1 PUSH1 0x1 PUSH1 0xA0 SHL SUB DUP2 AND SWAP1 DUP2 SWAP1 SUB PUSH2 0x203 JUMPI DUP3 DUP3 SWAP2 PUSH1 0x20 SWAP5 MSTORE PUSH1 0x9 DUP5 MSTORE KECCAK256 SLOAD SWAP1 MLOAD SWAP1 DUP2 MSTORE RETURN JUMPDEST DUP4 DUP3 CALLVALUE PUSH2 0x226 JUMPI DUP2 PUSH1 0x3 NOT CALLDATASIZE ADD SLT PUSH2 0x226 JUMPI PUSH1 0x20 SWAP1 PUSH1 0xFF PUSH1 0xC SLOAD AND SWAP1 MLOAD SWAP1 ISZERO ISZERO DUP2 MSTORE RETURN JUMPDEST POP SWAP1 CALLVALUE PUSH2 0x203 JUMPI PUSH1 0x20 CALLDATASIZE PUSH1 0x3 NOT ADD SLT PUSH2 0x203 JUMPI CALLDATALOAD PUSH1 0x1 PUSH1 0x1 PUSH1 0xA0 SHL SUB DUP2 AND SWAP1 DUP2 SWAP1 SUB PUSH2 0x203 JUMPI DUP3 DUP3 SWAP2 PUSH1 0x20 SWAP5 MSTORE PUSH1 0xB DUP5 MSTORE KECCAK256 SLOAD SWAP1 MLOAD SWAP1 DUP2 MSTORE RETURN JUMPDEST DUP4 DUP3 CALLVALUE PUSH2 0x226 JUMPI DUP2 PUSH1 0x3 NOT CALLDATASIZE ADD SLT PUSH2 0x226 JUMPI PUSH1 0x20 SWAP1 PUSH1 0xA SLOAD SWAP1 MLOAD SWAP1 DUP2 MSTORE RETURN JUMPDEST DUP4 CALLVALUE PUSH2 0x749 JUMPI DUP1 PUSH1 0x3 NOT CALLDATASIZE ADD SLT PUSH2 0x749 JUMPI PUSH2 0x8E3 PUSH2 0xC94 JUMP JUMPDEST PUSH1 0xFF NOT PUSH1 0xC SLOAD AND PUSH1 0xC SSTORE CALLER PUSH32 0x5DB9EE0A495BF2E6FF9C91A7834C1BA4FDD244A5E8AA4E537BD38AEAE4B073AA DUP3 DUP1 LOG2 DUP1 RETURN JUMPDEST POP CALLVALUE PUSH2 0x203 JUMPI DUP3 PUSH1 0x3 NOT CALLDATASIZE ADD SLT PUSH2 0x203 JUMPI PUSH2 0x92E PUSH2 0xE72 JUMP JUMPDEST PUSH2 0x936 PUSH2 0xD2F JUMP JUMPDEST PUSH1 0x5 SSTORE TIMESTAMP DUP3 SSTORE CALLER PUSH2 0x9F1 JUMPI JUMPDEST CALLER DUP4 MSTORE PUSH1 0x7 PUSH1 0x20 MSTORE DUP1 DUP4 KECCAK256 SWAP2 DUP4 DUP4 SLOAD SWAP4 DUP5 PUSH2 0x960 JUMPI JUMPDEST POP PUSH1 0x1 DUP2 SSTORE DUP1 RETURN JUMPDEST SSTORE PUSH1 0x2 SLOAD DUP3 MLOAD PUSH4 0xA9059CBB PUSH1 0xE0 SHL DUP2 MSTORE CALLER SWAP3 DUP2 ADD SWAP3 DUP4 MSTORE PUSH1 0x20 DUP1 DUP5 ADD DUP7 SWAP1 MSTORE SWAP1 SWAP3 SWAP1 SWAP2 DUP4 SWAP2 DUP3 SWAP1 SUB PUSH1 0x40 ADD SWAP1 DUP3 SWAP1 DUP9 SWAP1 PUSH1 0x1 PUSH1 0x1 PUSH1 0xA0 SHL SUB AND GAS CALL SWAP1 DUP2 ISZERO PUSH2 0x9E7 JUMPI SWAP1 PUSH2 0x9B3 SWAP2 DUP6 SWAP2 PUSH2 0x641 JUMPI POP PUSH2 0xE34 JUMP JUMPDEST MLOAD SWAP1 DUP2 MSTORE PUSH32 0xE2403640BA68FED3A2F88B7557551D1993F84B99BB10FF833F0CF8DB0C5E0486 PUSH1 0x20 CALLER SWAP3 LOG2 CODESIZE DUP1 DUP1 DUP4 DUP2 PUSH2 0x958 JUMP JUMPDEST DUP3 MLOAD RETURNDATASIZE DUP7 DUP3 RETURNDATACOPY RETURNDATASIZE SWAP1 REVERT JUMPDEST PUSH2 0x9FA CALLER PUSH2 0xD83 JUMP JUMPDEST CALLER DUP5 MSTORE PUSH1 0x7 PUSH1 0x20 MSTORE DUP2 DUP5 KECCAK256 SSTORE PUSH1 0x5 SLOAD PUSH1 0x6 PUSH1 0x20 MSTORE DUP2 DUP5 KECCAK256 SSTORE PUSH2 0x942 JUMP JUMPDEST POP SWAP1 CALLVALUE PUSH2 0x203 JUMPI PUSH1 0x20 DUP1 PUSH1 0x3 NOT CALLDATASIZE ADD SLT PUSH2 0x58E JUMPI DUP2 CALLDATALOAD SWAP2 PUSH2 0xA36 PUSH2 0xE72 JUMP JUMPDEST PUSH2 0xA3E PUSH2 0xD2F JUMP JUMPDEST PUSH1 0x5 SSTORE TIMESTAMP DUP2 SSTORE CALLER PUSH2 0xBE6 JUMPI JUMPDEST DUP3 ISZERO PUSH2 0xBB1 JUMPI CALLER DUP6 MSTORE PUSH1 0x9 DUP3 MSTORE DUP3 DUP5 DUP7 KECCAK256 SLOAD LT PUSH2 0xB70 JUMPI DUP2 DUP4 PUSH1 0xFF PUSH1 0xC SLOAD AND ISZERO PUSH2 0xB12 JUMPI JUMPDEST PUSH2 0xAD3 SWAP3 PUSH2 0xA7F DUP3 PUSH1 0x8 SLOAD PUSH2 0xCEC JUMP JUMPDEST PUSH1 0x8 SSTORE CALLER DUP9 MSTORE PUSH1 0x9 DUP4 MSTORE DUP7 DUP9 KECCAK256 PUSH2 0xA97 DUP4 DUP3 SLOAD PUSH2 0xCEC JUMP JUMPDEST SWAP1 SSTORE PUSH1 0x2 SLOAD DUP8 MLOAD PUSH4 0xA9059CBB PUSH1 0xE0 SHL DUP2 MSTORE CALLER SWAP3 DUP2 ADD SWAP3 DUP4 MSTORE PUSH1 0x20 DUP4 ADD SWAP4 SWAP1 SWAP4 MSTORE SWAP2 SWAP4 DUP5 SWAP3 PUSH1 0x1 PUSH1 0x1 PUSH1 0xA0 SHL SUB AND SWAP2 DUP4 SWAP2 DUP11 SWAP2 DUP4 SWAP2 PUSH1 0x40 SWAP1 SWAP2 ADD SWAP1 JUMP JUMPDEST SUB SWAP3 GAS CALL SWAP1 DUP2 ISZERO PUSH2 0x4F8 JUMPI PUSH32 0x7084F5476618D8E60B11EF0D7D3F06914655ADB8793E28FF7F018D4C76D505D5 SWAP4 SWAP5 SWAP2 PUSH2 0x4CD SWAP2 DUP8 SWAP2 PUSH2 0x4DB JUMPI POP PUSH2 0xE34 JUMP JUMPDEST POP POP CALLER DUP6 MSTORE PUSH1 0xB DUP3 MSTORE PUSH2 0xB2B DUP5 DUP7 KECCAK256 SLOAD PUSH1 0xA SLOAD SWAP1 PUSH2 0xD22 JUMP JUMPDEST TIMESTAMP LT PUSH2 0xB38 JUMPI DUP2 DUP4 PUSH2 0xA6F JUMP JUMPDEST PUSH1 0x64 SWAP2 DUP5 MLOAD SWAP2 PUSH3 0x461BCD PUSH1 0xE5 SHL DUP4 MSTORE DUP3 ADD MSTORE PUSH1 0x14 PUSH1 0x24 DUP3 ADD MSTORE PUSH20 0x14DD1A5B1B081A5B881B1BD8DAC81C195C9A5BD9 PUSH1 0x62 SHL PUSH1 0x44 DUP3 ADD MSTORE REVERT JUMPDEST PUSH1 0x64 SWAP2 DUP5 MLOAD SWAP2 PUSH3 0x461BCD PUSH1 0xE5 SHL DUP4 MSTORE DUP3 ADD MSTORE PUSH1 0x18 PUSH1 0x24 DUP3 ADD MSTORE PUSH32 0x4E6F7420656E6F756768207374616B656420746F6B656E730000000000000000 PUSH1 0x44 DUP3 ADD MSTORE REVERT JUMPDEST PUSH1 0x64 SWAP2 DUP5 MLOAD SWAP2 PUSH3 0x461BCD PUSH1 0xE5 SHL DUP4 MSTORE DUP3 ADD MSTORE PUSH1 0x11 PUSH1 0x24 DUP3 ADD MSTORE PUSH17 0x43616E6E6F74207769746864726177203 PUSH1 0x7C SHL PUSH1 0x44 DUP3 ADD MSTORE REVERT JUMPDEST PUSH2 0xBEF CALLER PUSH2 0xD83 JUMP JUMPDEST CALLER DUP7 MSTORE PUSH1 0x7 DUP4 MSTORE DUP5 DUP7 KECCAK256 SSTORE PUSH1 0x5 SLOAD PUSH1 0x6 DUP4 MSTORE DUP5 DUP7 KECCAK256 SSTORE PUSH2 0xA4A JUMP JUMPDEST DUP4 DUP3 CALLVALUE PUSH2 0x226 JUMPI DUP2 PUSH1 0x3 NOT CALLDATASIZE ADD SLT PUSH2 0x226 JUMPI PUSH1 0x20 SWAP1 PUSH1 0x8 SLOAD SWAP1 MLOAD SWAP1 DUP2 MSTORE RETURN JUMPDEST POP SWAP1 CALLVALUE PUSH2 0x203 JUMPI PUSH1 0x20 CALLDATASIZE PUSH1 0x3 NOT ADD SLT PUSH2 0x203 JUMPI CALLDATALOAD PUSH1 0x1 PUSH1 0x1 PUSH1 0xA0 SHL SUB DUP2 AND SWAP1 DUP2 SWAP1 SUB PUSH2 0x203 JUMPI DUP3 DUP3 SWAP2 PUSH1 0x20 SWAP5 MSTORE PUSH1 0x7 DUP5 MSTORE KECCAK256 SLOAD SWAP1 MLOAD SWAP1 DUP2 MSTORE RETURN JUMPDEST POP SWAP1 CALLVALUE PUSH2 0x203 JUMPI PUSH1 0x20 CALLDATASIZE PUSH1 0x3 NOT ADD SLT PUSH2 0x203 JUMPI CALLDATALOAD SWAP2 PUSH1 0x1 PUSH1 0x1 PUSH1 0xA0 SHL SUB DUP4 AND DUP4 SUB PUSH2 0x749 JUMPI POP PUSH2 0x3AC PUSH1 0x20 SWAP3 PUSH2 0xD83 JUMP JUMPDEST PUSH1 0x1 SLOAD PUSH1 0x1 PUSH1 0x1 PUSH1 0xA0 SHL SUB AND CALLER SUB PUSH2 0xCA8 JUMPI JUMP JUMPDEST PUSH1 0x64 PUSH1 0x40 MLOAD PUSH3 0x461BCD PUSH1 0xE5 SHL DUP2 MSTORE PUSH1 0x20 PUSH1 0x4 DUP3 ADD MSTORE PUSH1 0x20 PUSH1 0x24 DUP3 ADD MSTORE PUSH32 0x4F776E61626C653A2063616C6C6572206973206E6F7420746865206F776E6572 PUSH1 0x44 DUP3 ADD MSTORE REVERT JUMPDEST SWAP2 SWAP1 DUP3 SUB SWAP2 DUP3 GT PUSH2 0xCF9 JUMPI JUMP JUMPDEST PUSH4 0x4E487B71 PUSH1 0xE0 SHL PUSH1 0x0 MSTORE PUSH1 0x11 PUSH1 0x4 MSTORE PUSH1 0x24 PUSH1 0x0 REVERT JUMPDEST DUP2 DUP2 MUL SWAP3 SWAP2 DUP2 ISZERO SWAP2 DUP5 DIV EQ OR ISZERO PUSH2 0xCF9 JUMPI JUMP JUMPDEST SWAP2 SWAP1 DUP3 ADD DUP1 SWAP3 GT PUSH2 0xCF9 JUMPI JUMP JUMPDEST PUSH1 0x8 SLOAD DUP1 ISZERO PUSH2 0xD7C JUMPI PUSH1 0x5 SLOAD PUSH2 0xD53 PUSH2 0xD4A PUSH1 0x4 SLOAD TIMESTAMP PUSH2 0xCEC JUMP JUMPDEST PUSH1 0x3 SLOAD SWAP1 PUSH2 0xD0F JUMP JUMPDEST SWAP2 PUSH8 0xDE0B6B3A7640000 SWAP3 DUP4 DUP2 MUL SWAP4 DUP2 DUP6 DIV EQ SWAP1 ISZERO OR ISZERO PUSH2 0xCF9 JUMPI PUSH2 0xD79 SWAP3 DIV SWAP1 PUSH2 0xD22 JUMP JUMPDEST SWAP1 JUMP JUMPDEST POP PUSH1 0x5 SLOAD SWAP1 JUMP JUMPDEST PUSH2 0xD79 SWAP1 PUSH1 0x1 DUP1 PUSH1 0xA0 SHL SUB AND PUSH1 0x40 PUSH1 0x0 DUP3 DUP2 MSTORE PUSH1 0x9 PUSH1 0x20 MSTORE PUSH8 0xDE0B6B3A7640000 PUSH2 0xDCE DUP4 DUP4 KECCAK256 SLOAD PUSH2 0xDC8 PUSH2 0xDB6 PUSH2 0xD2F JUMP JUMPDEST DUP8 DUP7 MSTORE PUSH1 0x6 PUSH1 0x20 MSTORE DUP7 DUP7 KECCAK256 SLOAD SWAP1 PUSH2 0xCEC JUMP JUMPDEST SWAP1 PUSH2 0xD0F JUMP JUMPDEST DIV SWAP3 DUP2 MSTORE PUSH1 0x7 PUSH1 0x20 MSTORE KECCAK256 SLOAD SWAP1 PUSH2 0xD22 JUMP JUMPDEST SWAP1 PUSH1 0x1F DUP1 NOT SWAP2 ADD AND DUP2 ADD SWAP1 DUP2 LT PUSH8 0xFFFFFFFFFFFFFFFF DUP3 GT OR PUSH2 0xE01 JUMPI PUSH1 0x40 MSTORE JUMP JUMPDEST PUSH4 0x4E487B71 PUSH1 0xE0 SHL PUSH1 0x0 MSTORE PUSH1 0x41 PUSH1 0x4 MSTORE PUSH1 0x24 PUSH1 0x0 REVERT JUMPDEST SWAP1 DUP2 PUSH1 0x20 SWAP2 SUB SLT PUSH2 0xE2F JUMPI MLOAD DUP1 ISZERO ISZERO DUP2 SUB PUSH2 0xE2F JUMPI SWAP1 JUMP JUMPDEST PUSH1 0x0 DUP1 REVERT JUMPDEST ISZERO PUSH2 0xE3B JUMPI JUMP JUMPDEST PUSH1 0x40 MLOAD PUSH3 0x461BCD PUSH1 0xE5 SHL DUP2 MSTORE PUSH1 0x20 PUSH1 0x4 DUP3 ADD MSTORE PUSH1 0xF PUSH1 0x24 DUP3 ADD MSTORE PUSH15 0x151C985B9CD9995C8819985A5B1959 PUSH1 0x8A SHL PUSH1 0x44 DUP3 ADD MSTORE PUSH1 0x64 SWAP1 REVERT JUMPDEST PUSH1 0x2 PUSH1 0x0 SLOAD EQ PUSH2 0xE83 JUMPI PUSH1 0x2 PUSH1 0x0 SSTORE JUMP JUMPDEST PUSH1 0x40 MLOAD PUSH3 0x461BCD PUSH1 0xE5 SHL DUP2 MSTORE PUSH1 0x20 PUSH1 0x4 DUP3 ADD MSTORE PUSH1 0x1F PUSH1 0x24 DUP3 ADD MSTORE PUSH32 0x5265656E7472616E637947756172643A207265656E7472616E742063616C6C00 PUSH1 0x44 DUP3 ADD MSTORE PUSH1 0x64 SWAP1 REVERT INVALID LOG2 PUSH5 0x6970667358 0x22 SLT KECCAK256 0x26 LOG3 0xE9 STATICCALL 0xCE CODESIZE 0xDB 0x27 0xAD CALLDATASIZE ADDRESS LOG2 0x2E LT 0x28 0x2C MULMOD LT 0xAD CALLDATALOAD 0x21 SAR 0x5C BYTE 0xD7 0xCA PUSH14 0x3E30A4684964736F6C6343000813 STOP CALLER "},"methodIdentifiers":{"balanceOf(address)":"70a08231","earned(address)":"008cc262","emergencyWithdraw()":"db2e21bc","fundRewards(uint256)":"93707a19","getReward()":"3d18b912","lastUpdateTime()":"c8f33c91","lockPeriod()":"3fd8b02f","owner()":"8da5cb5b","pause()":"8456cb59","paused()":"5c975abb","renounceOwnership()":"715018a6","rewardPerToken()":"cd3daf9d","rewardPerTokenStored()":"df136d65","rewardRate()":"7b0a47ee","rewards(address)":"0700037d","setLockPeriod(uint256)":"779972da","setRewardRate(uint256)":"9e447fc6","stake(uint256)":"a694fc3a","stakingTime(address)":"583d42fd","stakingToken()":"72f702f3","totalSupply()":"18160ddd","transferOwnership(address)":"f2fde38b","unpause()":"3f4ba83a","userRewardPerTokenPaid(address)":"8b876347","withdraw(uint256)":"2e1a7d4d"}}}}}