{"contracts/PropertyAttestationVerifier.sol":{"PropertyAttestationVerifier":{"abi":[{"inputs":[],"stateMutability":"nonpayable","type":"constructor"},{"anonymous":false,"inputs":[{"indexed":true,"internalType":"address","name":"owner","type":"address"},{"indexed":false,"internalType":"bytes32","name":"dataHash","type":"bytes32"},{"indexed":false,"internalType":"string","name":"deedNumber","type":"string"},{"indexed":false,"internalType":"uint256","name":"timestamp","type":"uint256"},{"indexed":false,"internalType":"uint256","name":"propertyIndex","type":"uint256"}],"name":"PropertyAttested","type":"event"},{"anonymous":false,"inputs":[{"indexed":true,"internalType":"address","name":"owner","type":"address"},{"indexed":false,"internalType":"bytes32","name":"dataHash","type":"bytes32"},{"indexed":false,"internalType":"uint256","name":"timestamp","type":"uint256"},{"indexed":false,"internalType":"uint256","name":"propertyIndex","type":"uint256"}],"name":"PropertyVerified","type":"event"},{"anonymous":false,"inputs":[{"indexed":true,"internalType":"address","name":"owner","type":"address"},{"indexed":false,"internalType":"bytes32","name":"dataHash","type":"bytes32"},{"indexed":false,"internalType":"string","name":"reason","type":"string"},{"indexed":false,"internalType":"uint256","name":"propertyIndex","type":"uint256"}],"name":"VerificationFailed","type":"event"},{"inputs":[{"internalType":"bytes32","name":"dataHash","type":"bytes32"},{"internalType":"string","name":"deedNumber","type":"string"},{"internalType":"string","name":"propertyName","type":"string"},{"internalType":"string","name":"propertyAddress","type":"string"},{"internalType":"string","name":"ownerName","type":"string"},{"internalType":"string","name":"taxId","type":"string"},{"internalType":"string[]","name":"photoHashes","type":"string[]"}],"name":"attestProperty","outputs":[{"internalType":"bool","name":"success","type":"bool"},{"internalType":"uint256","name":"propertyIndex","type":"uint256"}],"stateMutability":"nonpayable","type":"function"},{"inputs":[{"internalType":"address","name":"propertyOwner","type":"address"},{"internalType":"uint256","name":"propertyIndex","type":"uint256"}],"name":"checkAttestationStatus","outputs":[{"internalType":"bool","name":"exists","type":"bool"},{"internalType":"bool","name":"attestationVerified","type":"bool"}],"stateMutability":"view","type":"function"},{"inputs":[{"internalType":"address","name":"propertyOwner","type":"address"},{"internalType":"uint256","name":"propertyIndex","type":"uint256"}],"name":"getAttestationTimestamp","outputs":[{"internalType":"uint256","name":"timestamp","type":"uint256"}],"stateMutability":"view","type":"function"},{"inputs":[{"internalType":"address","name":"propertyOwner","type":"address"}],"name":"getPropertyCount","outputs":[{"internalType":"uint256","name":"count","type":"uint256"}],"stateMutability":"view","type":"function"},{"inputs":[{"internalType":"address","name":"propertyOwner","type":"address"},{"internalType":"uint256","name":"propertyIndex","type":"uint256"}],"name":"getPropertyData","outputs":[{"internalType":"bytes32","name":"dataHash","type":"bytes32"},{"internalType":"string","name":"deedNumber","type":"string"},{"internalType":"string","name":"propertyName","type":"string"},{"internalType":"string","name":"propertyAddress","type":"string"},{"internalType":"string","name":"ownerName","type":"string"},{"internalType":"string","name":"taxId","type":"string"},{"internalType":"uint256","name":"timestamp","type":"uint256"},{"internalType":"bool","name":"verified","type":"bool"},{"internalType":"string[]","name":"photoHashes","type":"string[]"}],"stateMutability":"view","type":"function"},{"inputs":[{"internalType":"bytes32","name":"dataHash","type":"bytes32"}],"name":"isHashVerified","outputs":[{"internalType":"bool","name":"isVerified","type":"bool"}],"stateMutability":"view","type":"function"},{"inputs":[],"name":"owner","outputs":[{"internalType":"address","name":"","type":"address"}],"stateMutability":"view","type":"function"},{"inputs":[{"internalType":"address","name":"","type":"address"},{"internalType":"uint256","name":"","type":"uint256"}],"name":"ownerProperties","outputs":[{"internalType":"bytes32","name":"dataHash","type":"bytes32"},{"internalType":"string","name":"deedNumber","type":"string"},{"internalType":"string","name":"propertyName","type":"string"},{"internalType":"string","name":"propertyAddress","type":"string"},{"internalType":"string","name":"ownerName","type":"string"},{"internalType":"string","name":"taxId","type":"string"},{"internalType":"uint256","name":"timestamp","type":"uint256"},{"internalType":"bool","name":"verified","type":"bool"}],"stateMutability":"view","type":"function"},{"inputs":[{"internalType":"address","name":"","type":"address"}],"name":"ownerPropertyCount","outputs":[{"internalType":"uint256","name":"","type":"uint256"}],"stateMutability":"view","type":"function"},{"inputs":[{"internalType":"address","name":"newOwner","type":"address"}],"name":"transferOwnership","outputs":[],"stateMutability":"nonpayable","type":"function"},{"inputs":[{"internalType":"bytes32","name":"","type":"bytes32"}],"name":"verifiedPropertyHashes","outputs":[{"internalType":"bool","name":"","type":"bool"}],"stateMutability":"view","type":"function"},{"inputs":[{"internalType":"address","name":"propertyOwner","type":"address"},{"internalType":"uint256","name":"propertyIndex","type":"uint256"},{"internalType":"bytes32","name":"verificationDataHash","type":"bytes32"}],"name":"verifyAttestation","outputs":[{"internalType":"bool","name":"verified","type":"bool"}],"stateMutability":"nonpayable","type":"function"}],"evm":{"bytecode":{"linkReferences":{},"object":"6080806040523461002857600080546001600160a01b031916331790556116b6908161002e8239f35b600080fdfe6080604052600436101561001257600080fd5b60003560e01c80630baca8d71461067a5780631a58555c1461064b57806339b57a481461060157806380dbcf6a1461059657806389cb8f6d146105c75780638a3e9d1d146105c75780638b00545b146105965780638da5cb5b1461056d5780638f48bd5b14610465578063dca1ebc9146103f4578063f2fde38b146103655763f3b7873a146100a057600080fd5b34610360576040366003190112610360576100b96112e0565b6001600160a01b039081169060243590338314908115610352575b50156102e757816101099260005260026020526100f760406000205483106114e3565b600052600160205260406000206112f6565b5060086040519161011983611236565b8054835261012960018201611362565b602084015261013a60028201611362565b604084015261014b60038201611362565b606084015261015c60048201611362565b608084015261016d60058201611362565b60a0840152600681015460c084015260ff600782015416151560e084015201805490610198826112c9565b916101a66040519384611252565b80835260208301809260005260206000206000915b8383106102c2575050505061010092828482015280519260208201519460408301516060840151608085015160a08601519160c08701519660e001511515936040519a8b9a8b526101208060208d01528b0161021691611408565b8a810360408c015261022791611408565b89810360608b015261023891611408565b88810360808a015261024991611408565b87810360a089015261025a91611408565b9360c087015260e0860152848303908501525180825260208201918160051b810160200193926000915b8383106102915786860387f35b9193955091936020806102b0600193601f198682030187528951611408565b97019301930190928695949293610284565b6001602081926102d5859a98999a611362565b815201920192019190959493956101bb565b60405162461bcd60e51b815260206004820152603a60248201527f4f6e6c792070726f7065727479206f776e6572206f7220636f6e74726163742060448201527f6f776e65722063616e20616363657373207468697320646174610000000000006064820152608490fd5b9050600054163314386100d4565b600080fd5b346103605760203660031901126103605761037e6112e0565b600054906001600160a01b03906103983383851614611484565b169081156103b0576001600160a01b03191617600055005b606460405162461bcd60e51b815260206004820152602060248201527f4e6577206f776e65722063616e6e6f74206265207a65726f20616464726573736044820152fd5b3461036057604036600319011261036057604061040f6112e0565b6001600160a01b03166000908152600260205281812054602435908110919082610443575b50825191825215156020820152f35b60ff915061045b6007916001602052856000206112f6565b5001541683610434565b346103605760403660031901126103605761047e6112e0565b6001600160a01b03166000908152600160205260409020805460243590811015610360576104ab916112f6565b5080546104ba60018301611362565b916104c760028201611362565b61055c6104d660038401611362565b61054e6104e560048601611362565b6105406104f460058801611362565b9361053260ff600760068b01549a015416976105246040519c8d9c8d5260208d61010091829101528d0190611408565b908b820360408d0152611408565b9089820360608b0152611408565b908782036080890152611408565b9085820360a0870152611408565b9160c0840152151560e08301520390f35b34610360576000366003190112610360576000546040516001600160a01b039091168152602090f35b34610360576020366003190112610360576004356000526003602052602060ff604060002054166040519015158152f35b34610360576020366003190112610360576001600160a01b036105e86112e0565b1660005260026020526020604060002054604051908152f35b3461036057606036600319011261036057602061064161061f6112e0565b61063460018060a01b03600054163314611484565b6044359060243590611528565b6040519015158152f35b346103605760403660031901126103605760206106726106696112e0565b60243590611641565b604051908152f35b346103605760e0366003190112610360576024356001600160401b038111610360576106aa903690600401611273565b604480356001600160401b038111610360576106ca903690600401611273565b9160649081356001600160401b038111610360576106ec903690600401611273565b936084356001600160401b0381116103605761070c903690600401611273565b60a4356001600160401b0381116103605761072b903690600401611273565b60c435916001600160401b0383116103605736602384011215610360578260040135610756816112c9565b936107646040519586611252565b8185526024602086019260051b820101903682116103605760248101925b82841061120757505050508451156111c4578351156111815787511561113e578051156110fb578251156110ac5760005b33600052600260205260406000205481101561084d5760016020526107dc8160406000206112f6565b5054600435146107f4576107ef90611448565b6107b3565b60405162461bcd60e51b815260206004820152602d60248201527f50726f7065727479207769746820746869732064617461206861736820616c72818a01526c1958591e48185d1d195cdd1959609a1b81890152608490fd5b50876040519461085c86611236565b600435865286602087015260408601526060850152608084015260a08301524260c0830152600060e083015261010082015233600052600160205260406000208054600160401b811015610c9a576108b9916001820181556112f6565b929092611096578151835560208201519283516001600160401b038111610c9a576108e76001830154611328565b601f8111611061575b506020601f8211600114610ff2578192939495600092610fe7575b50508160011b916000199060031b1c19161760018201555b60408301519283516001600160401b038111610c9a576109466002840154611328565b601f8111610fb2575b506020601f8211600114610f43578192939495600092610f38575b50508160011b916000199060031b1c19161760028301555b60608101519283516001600160401b038111610c9a576109a56003850154611328565b601f8111610f03575b506020601f8211600114610e94578192939495600092610e89575b50508160011b916000199060031b1c19161760038401555b60808201519283516001600160401b038111610c9a57610a046004830154611328565b601f8111610e54575b506020601f8211600114610de5578192939495600092610dda575b50508160011b916000199060031b1c19161760048201555b60a08301518051906001600160401b038211610c9a57610a636005840154611328565b601f8111610da5575b50602090601f8311600114610d2f5791806101009492600894600092610d24575b50508160011b916000199060031b1c19161760058201555b60c085015160068201556007810160e0860151151560ff8019835416911617905501920151805190600160401b8211610c9a578354828555808310610cb0575b50602001926000526020600020926000905b828210610b7a576040843360005260026020528160002090815491610b1b83611448565b90557f793f6634ffcc5b7950547fa49df1b867d9102cf8646e85668408f9d3ca88bfdc610b5a8451926004358452608060208501526080840190611408565b9142858201528360608201528033930390a2815190600182526020820152f35b80518051906001600160401b038211610c9a57610b978754611328565b601f8111610c5d575b50602090601f8311600114610bed579282600194936020938695600092610be2575b5050600019600383901b1c191690841b1788555b01950191019093610af7565b015190508a80610bc2565b908760005260206000209160005b601f1985168110610c45575083602093600196938796938794601f19811610610c2c575b505050811b018855610bd6565b015160001960f88460031b161c191690558a8080610c1f565b91926020600181928685015181550194019201610bfb565b610c8a90886000526020600020601f850160051c81019160208610610c90575b601f0160051c019061146d565b87610ba0565b9091508190610c7d565b634e487b7160e01b600052604160045260246000fd5b8460005282602060002091820191015b818110610ccd5750610ae5565b80610cda60019254611328565b80610ce7575b5001610cc0565b601f81118314610cfd5750600081555b87610ce0565b600090828252610d1b601f60208420920160051c820185830161146d565b81835555610cf7565b015190508780610a8d565b906005840160005260206000209160005b601f1985168110610d8d575092610100949260019260089583601f19811610610d74575b505050811b016005820155610aa5565b015160001960f88460031b161c19169055878080610d64565b91926020600181928685015181550194019201610d40565b610dd490600585016000526020600020601f850160051c81019160208610610c9057601f0160051c019061146d565b85610a6c565b015190508580610a28565b6004830160005260206000209060005b601f1984168110610e3c575060019394959683601f19811610610e23575b505050811b016004820155610a40565b015160001960f88460031b161c19169055858080610e13565b9091602060018192858b015181550193019101610df5565b610e8390600484016000526020600020601f840160051c81019160208510610c9057601f0160051c019061146d565b85610a0d565b0151905085806109c9565b6003850160005260206000209060005b601f1984168110610eeb575060019394959683601f19811610610ed2575b505050811b0160038401556109e1565b015160001960f88460031b161c19169055858080610ec2565b9091602060018192858b015181550193019101610ea4565b610f3290600386016000526020600020601f840160051c81019160208510610c9057601f0160051c019061146d565b856109ae565b01519050858061096a565b6002840160005260206000209060005b601f1984168110610f9a575060019394959683601f19811610610f81575b505050811b016002830155610982565b015160001960f88460031b161c19169055858080610f71565b9091602060018192858b015181550193019101610f53565b610fe190600285016000526020600020601f840160051c81019160208510610c9057601f0160051c019061146d565b8561094f565b01519050858061090b565b6001830160005260206000209060005b601f1984168110611049575060019394959683601f19811610611030575b505050811b016001820155610923565b015160001960f88460031b161c19169055858080611020565b9091602060018192858b015181550193019101611002565b61109090600184016000526020600020601f840160051c81019160208510610c9057601f0160051c019061146d565b856108f0565b634e487b7160e01b600052600060045260246000fd5b60405162461bcd60e51b8152602060048201526024808201527f4174206c65617374206f6e652070726f70657274792070686f746f207265717581890152631a5c995960e21b81880152608490fd5b60405162461bcd60e51b815260206004820152601a60248201527f4f776e6572206e616d652063616e6e6f7420626520656d707479000000000000818901528690fd5b60405162461bcd60e51b815260206004820181905260248201527f50726f706572747920616464726573732063616e6e6f7420626520656d707479818901528690fd5b60405162461bcd60e51b815260206004820152601d60248201527f50726f7065727479206e616d652063616e6e6f7420626520656d707479000000818901528690fd5b60405162461bcd60e51b815260206004820152601b60248201527f44656564206e756d6265722063616e6e6f7420626520656d7074790000000000818901528690fd5b83356001600160401b0381116103605760209161122b839260243691870101611273565b815201930192610782565b61012081019081106001600160401b03821117610c9a57604052565b90601f801991011681019081106001600160401b03821117610c9a57604052565b81601f82011215610360578035906001600160401b038211610c9a57604051926112a7601f8401601f191660200185611252565b8284526020838301011161036057816000926020809301838601378301015290565b6001600160401b038111610c9a5760051b60200190565b600435906001600160a01b038216820361036057565b8054821015611312576000526009602060002091020190600090565b634e487b7160e01b600052603260045260246000fd5b90600182811c92168015611358575b602083101461134257565b634e487b7160e01b600052602260045260246000fd5b91607f1691611337565b906040519182600082549261137684611328565b9081845260019485811690816000146113e557506001146113a2575b50506113a092500383611252565b565b9093915060005260209081600020936000915b8183106113cd5750506113a093508201013880611392565b855488840185015294850194879450918301916113b5565b9150506113a094506020925060ff191682840152151560051b8201013880611392565b919082519283825260005b848110611434575050826000602080949584010152601f8019910116010190565b602081830181015184830182015201611413565b60001981146114575760010190565b634e487b7160e01b600052601160045260246000fd5b818110611478575050565b6000815560010161146d565b1561148b57565b60405162461bcd60e51b815260206004820152602a60248201527f4f6e6c7920636f6e7472616374206f776e65722063616e2063616c6c207468696044820152693990333ab731ba34b7b760b11b6064820152608490fd5b156114ea57565b60405162461bcd60e51b8152602060048201526016602482015275092dcecc2d8d2c840e0e4dee0cae4e8f240d2dcc8caf60531b6044820152606490fd5b6001600160a01b03166000818152600260205260408082205491949293916115519083106114e3565b8385526001602052611565828287206112f6565b506007810180549160ff8316611634575485036115d757906001837fb177e255d16adb9e27ce591b0484b1498dde64179a25c1c4bf570af04faca1c397986060979695948360ff19809616179055868152600360205220918254161790558051928352426020840152820152a2600190565b50509160a091837f423906957607c633cbb385e7dd878e5cad84b1e8d79aca049e8e43fc6ce654b49451928352606060208401526012606084015271088c2e8c240d0c2e6d040dad2e6dac2e8c6d60731b6080840152820152a290565b5050505050505050600190565b6001600160a01b031660009081526002602052604090205481106116655750600090565b61167a600691600160205260406000206112f6565b5001549056fea2646970667358221220177216b77bf31d7d75c46c6b3916458c4fed8ee6eae0a8caa2c0ff06a4ad4bc064736f6c63430008130033","opcodes":"PUSH1 0x80 DUP1 PUSH1 0x40 MSTORE CALLVALUE PUSH2 0x28 JUMPI PUSH1 0x0 DUP1 SLOAD PUSH1 0x1 PUSH1 0x1 PUSH1 0xA0 SHL SUB NOT AND CALLER OR SWAP1 SSTORE PUSH2 0x16B6 SWAP1 DUP2 PUSH2 0x2E DUP3 CODECOPY RETURN JUMPDEST PUSH1 0x0 DUP1 REVERT INVALID PUSH1 0x80 PUSH1 0x40 MSTORE PUSH1 0x4 CALLDATASIZE LT ISZERO PUSH2 0x12 JUMPI PUSH1 0x0 DUP1 REVERT JUMPDEST PUSH1 0x0 CALLDATALOAD PUSH1 0xE0 SHR DUP1 PUSH4 0xBACA8D7 EQ PUSH2 0x67A JUMPI DUP1 PUSH4 0x1A58555C EQ PUSH2 0x64B JUMPI DUP1 PUSH4 0x39B57A48 EQ PUSH2 0x601 JUMPI DUP1 PUSH4 0x80DBCF6A EQ PUSH2 0x596 JUMPI DUP1 PUSH4 0x89CB8F6D EQ PUSH2 0x5C7 JUMPI DUP1 PUSH4 0x8A3E9D1D EQ PUSH2 0x5C7 JUMPI DUP1 PUSH4 0x8B00545B EQ PUSH2 0x596 JUMPI DUP1 PUSH4 0x8DA5CB5B EQ PUSH2 0x56D JUMPI DUP1 PUSH4 0x8F48BD5B EQ PUSH2 0x465 JUMPI DUP1 PUSH4 0xDCA1EBC9 EQ PUSH2 0x3F4 JUMPI DUP1 PUSH4 0xF2FDE38B EQ PUSH2 0x365 JUMPI PUSH4 0xF3B7873A EQ PUSH2 0xA0 JUMPI PUSH1 0x0 DUP1 REVERT JUMPDEST CALLVALUE PUSH2 0x360 JUMPI PUSH1 0x40 CALLDATASIZE PUSH1 0x3 NOT ADD SLT PUSH2 0x360 JUMPI PUSH2 0xB9 PUSH2 0x12E0 JUMP JUMPDEST PUSH1 0x1 PUSH1 0x1 PUSH1 0xA0 SHL SUB SWAP1 DUP2 AND SWAP1 PUSH1 0x24 CALLDATALOAD SWAP1 CALLER DUP4 EQ SWAP1 DUP2 ISZERO PUSH2 0x352 JUMPI JUMPDEST POP ISZERO PUSH2 0x2E7 JUMPI DUP2 PUSH2 0x109 SWAP3 PUSH1 0x0 MSTORE PUSH1 0x2 PUSH1 0x20 MSTORE PUSH2 0xF7 PUSH1 0x40 PUSH1 0x0 KECCAK256 SLOAD DUP4 LT PUSH2 0x14E3 JUMP JUMPDEST PUSH1 0x0 MSTORE PUSH1 0x1 PUSH1 0x20 MSTORE PUSH1 0x40 PUSH1 0x0 KECCAK256 PUSH2 0x12F6 JUMP JUMPDEST POP PUSH1 0x8 PUSH1 0x40 MLOAD SWAP2 PUSH2 0x119 DUP4 PUSH2 0x1236 JUMP JUMPDEST DUP1 SLOAD DUP4 MSTORE PUSH2 0x129 PUSH1 0x1 DUP3 ADD PUSH2 0x1362 JUMP JUMPDEST PUSH1 0x20 DUP5 ADD MSTORE PUSH2 0x13A PUSH1 0x2 DUP3 ADD PUSH2 0x1362 JUMP JUMPDEST PUSH1 0x40 DUP5 ADD MSTORE PUSH2 0x14B PUSH1 0x3 DUP3 ADD PUSH2 0x1362 JUMP JUMPDEST PUSH1 0x60 DUP5 ADD MSTORE PUSH2 0x15C PUSH1 0x4 DUP3 ADD PUSH2 0x1362 JUMP JUMPDEST PUSH1 0x80 DUP5 ADD MSTORE PUSH2 0x16D PUSH1 0x5 DUP3 ADD PUSH2 0x1362 JUMP JUMPDEST PUSH1 0xA0 DUP5 ADD MSTORE PUSH1 0x6 DUP2 ADD SLOAD PUSH1 0xC0 DUP5 ADD MSTORE PUSH1 0xFF PUSH1 0x7 DUP3 ADD SLOAD AND ISZERO ISZERO PUSH1 0xE0 DUP5 ADD MSTORE ADD DUP1 SLOAD SWAP1 PUSH2 0x198 DUP3 PUSH2 0x12C9 JUMP JUMPDEST SWAP2 PUSH2 0x1A6 PUSH1 0x40 MLOAD SWAP4 DUP5 PUSH2 0x1252 JUMP JUMPDEST DUP1 DUP4 MSTORE PUSH1 0x20 DUP4 ADD DUP1 SWAP3 PUSH1 0x0 MSTORE PUSH1 0x20 PUSH1 0x0 KECCAK256 PUSH1 0x0 SWAP2 JUMPDEST DUP4 DUP4 LT PUSH2 0x2C2 JUMPI POP POP POP POP PUSH2 0x100 SWAP3 DUP3 DUP5 DUP3 ADD MSTORE DUP1 MLOAD SWAP3 PUSH1 0x20 DUP3 ADD MLOAD SWAP5 PUSH1 0x40 DUP4 ADD MLOAD PUSH1 0x60 DUP5 ADD MLOAD PUSH1 0x80 DUP6 ADD MLOAD PUSH1 0xA0 DUP7 ADD MLOAD SWAP2 PUSH1 0xC0 DUP8 ADD MLOAD SWAP7 PUSH1 0xE0 ADD MLOAD ISZERO ISZERO SWAP4 PUSH1 0x40 MLOAD SWAP11 DUP12 SWAP11 DUP12 MSTORE PUSH2 0x120 DUP1 PUSH1 0x20 DUP14 ADD MSTORE DUP12 ADD PUSH2 0x216 SWAP2 PUSH2 0x1408 JUMP JUMPDEST DUP11 DUP2 SUB PUSH1 0x40 DUP13 ADD MSTORE PUSH2 0x227 SWAP2 PUSH2 0x1408 JUMP JUMPDEST DUP10 DUP2 SUB PUSH1 0x60 DUP12 ADD MSTORE PUSH2 0x238 SWAP2 PUSH2 0x1408 JUMP JUMPDEST DUP9 DUP2 SUB PUSH1 0x80 DUP11 ADD MSTORE PUSH2 0x249 SWAP2 PUSH2 0x1408 JUMP JUMPDEST DUP8 DUP2 SUB PUSH1 0xA0 DUP10 ADD MSTORE PUSH2 0x25A SWAP2 PUSH2 0x1408 JUMP JUMPDEST SWAP4 PUSH1 0xC0 DUP8 ADD MSTORE PUSH1 0xE0 DUP7 ADD MSTORE DUP5 DUP4 SUB SWAP1 DUP6 ADD MSTORE MLOAD DUP1 DUP3 MSTORE PUSH1 0x20 DUP3 ADD SWAP2 DUP2 PUSH1 0x5 SHL DUP2 ADD PUSH1 0x20 ADD SWAP4 SWAP3 PUSH1 0x0 SWAP2 JUMPDEST DUP4 DUP4 LT PUSH2 0x291 JUMPI DUP7 DUP7 SUB DUP8 RETURN JUMPDEST SWAP2 SWAP4 SWAP6 POP SWAP2 SWAP4 PUSH1 0x20 DUP1 PUSH2 0x2B0 PUSH1 0x1 SWAP4 PUSH1 0x1F NOT DUP7 DUP3 SUB ADD DUP8 MSTORE DUP10 MLOAD PUSH2 0x1408 JUMP JUMPDEST SWAP8 ADD SWAP4 ADD SWAP4 ADD SWAP1 SWAP3 DUP7 SWAP6 SWAP5 SWAP3 SWAP4 PUSH2 0x284 JUMP JUMPDEST PUSH1 0x1 PUSH1 0x20 DUP2 SWAP3 PUSH2 0x2D5 DUP6 SWAP11 SWAP9 SWAP10 SWAP11 PUSH2 0x1362 JUMP JUMPDEST DUP2 MSTORE ADD SWAP3 ADD SWAP3 ADD SWAP2 SWAP1 SWAP6 SWAP5 SWAP4 SWAP6 PUSH2 0x1BB JUMP JUMPDEST PUSH1 0x40 MLOAD PUSH3 0x461BCD PUSH1 0xE5 SHL DUP2 MSTORE PUSH1 0x20 PUSH1 0x4 DUP3 ADD MSTORE PUSH1 0x3A PUSH1 0x24 DUP3 ADD MSTORE PUSH32 0x4F6E6C792070726F7065727479206F776E6572206F7220636F6E747261637420 PUSH1 0x44 DUP3 ADD MSTORE PUSH32 0x6F776E65722063616E2061636365737320746869732064617461000000000000 PUSH1 0x64 DUP3 ADD MSTORE PUSH1 0x84 SWAP1 REVERT JUMPDEST SWAP1 POP PUSH1 0x0 SLOAD AND CALLER EQ CODESIZE PUSH2 0xD4 JUMP JUMPDEST PUSH1 0x0 DUP1 REVERT JUMPDEST CALLVALUE PUSH2 0x360 JUMPI PUSH1 0x20 CALLDATASIZE PUSH1 0x3 NOT ADD SLT PUSH2 0x360 JUMPI PUSH2 0x37E PUSH2 0x12E0 JUMP JUMPDEST PUSH1 0x0 SLOAD SWAP1 PUSH1 0x1 PUSH1 0x1 PUSH1 0xA0 SHL SUB SWAP1 PUSH2 0x398 CALLER DUP4 DUP6 AND EQ PUSH2 0x1484 JUMP JUMPDEST AND SWAP1 DUP2 ISZERO PUSH2 0x3B0 JUMPI PUSH1 0x1 PUSH1 0x1 PUSH1 0xA0 SHL SUB NOT AND OR PUSH1 0x0 SSTORE STOP JUMPDEST PUSH1 0x64 PUSH1 0x40 MLOAD PUSH3 0x461BCD PUSH1 0xE5 SHL DUP2 MSTORE PUSH1 0x20 PUSH1 0x4 DUP3 ADD MSTORE PUSH1 0x20 PUSH1 0x24 DUP3 ADD MSTORE PUSH32 0x4E6577206F776E65722063616E6E6F74206265207A65726F2061646472657373 PUSH1 0x44 DUP3 ADD MSTORE REVERT JUMPDEST CALLVALUE PUSH2 0x360 JUMPI PUSH1 0x40 CALLDATASIZE PUSH1 0x3 NOT ADD SLT PUSH2 0x360 JUMPI PUSH1 0x40 PUSH2 0x40F PUSH2 0x12E0 JUMP JUMPDEST PUSH1 0x1 PUSH1 0x1 PUSH1 0xA0 SHL SUB AND PUSH1 0x0 SWAP1 DUP2 MSTORE PUSH1 0x2 PUSH1 0x20 MSTORE DUP2 DUP2 KECCAK256 SLOAD PUSH1 0x24 CALLDATALOAD SWAP1 DUP2 LT SWAP2 SWAP1 DUP3 PUSH2 0x443 JUMPI JUMPDEST POP DUP3 MLOAD SWAP2 DUP3 MSTORE ISZERO ISZERO PUSH1 0x20 DUP3 ADD MSTORE RETURN JUMPDEST PUSH1 0xFF SWAP2 POP PUSH2 0x45B PUSH1 0x7 SWAP2 PUSH1 0x1 PUSH1 0x20 MSTORE DUP6 PUSH1 0x0 KECCAK256 PUSH2 0x12F6 JUMP JUMPDEST POP ADD SLOAD AND DUP4 PUSH2 0x434 JUMP JUMPDEST CALLVALUE PUSH2 0x360 JUMPI PUSH1 0x40 CALLDATASIZE PUSH1 0x3 NOT ADD SLT PUSH2 0x360 JUMPI PUSH2 0x47E PUSH2 0x12E0 JUMP JUMPDEST PUSH1 0x1 PUSH1 0x1 PUSH1 0xA0 SHL SUB AND PUSH1 0x0 SWAP1 DUP2 MSTORE PUSH1 0x1 PUSH1 0x20 MSTORE PUSH1 0x40 SWAP1 KECCAK256 DUP1 SLOAD PUSH1 0x24 CALLDATALOAD SWAP1 DUP2 LT ISZERO PUSH2 0x360 JUMPI PUSH2 0x4AB SWAP2 PUSH2 0x12F6 JUMP JUMPDEST POP DUP1 SLOAD PUSH2 0x4BA PUSH1 0x1 DUP4 ADD PUSH2 0x1362 JUMP JUMPDEST SWAP2 PUSH2 0x4C7 PUSH1 0x2 DUP3 ADD PUSH2 0x1362 JUMP JUMPDEST PUSH2 0x55C PUSH2 0x4D6 PUSH1 0x3 DUP5 ADD PUSH2 0x1362 JUMP JUMPDEST PUSH2 0x54E PUSH2 0x4E5 PUSH1 0x4 DUP7 ADD PUSH2 0x1362 JUMP JUMPDEST PUSH2 0x540 PUSH2 0x4F4 PUSH1 0x5 DUP9 ADD PUSH2 0x1362 JUMP JUMPDEST SWAP4 PUSH2 0x532 PUSH1 0xFF PUSH1 0x7 PUSH1 0x6 DUP12 ADD SLOAD SWAP11 ADD SLOAD AND SWAP8 PUSH2 0x524 PUSH1 0x40 MLOAD SWAP13 DUP14 SWAP13 DUP14 MSTORE PUSH1 0x20 DUP14 PUSH2 0x100 SWAP2 DUP3 SWAP2 ADD MSTORE DUP14 ADD SWAP1 PUSH2 0x1408 JUMP JUMPDEST SWAP1 DUP12 DUP3 SUB PUSH1 0x40 DUP14 ADD MSTORE PUSH2 0x1408 JUMP JUMPDEST SWAP1 DUP10 DUP3 SUB PUSH1 0x60 DUP12 ADD MSTORE PUSH2 0x1408 JUMP JUMPDEST SWAP1 DUP8 DUP3 SUB PUSH1 0x80 DUP10 ADD MSTORE PUSH2 0x1408 JUMP JUMPDEST SWAP1 DUP6 DUP3 SUB PUSH1 0xA0 DUP8 ADD MSTORE PUSH2 0x1408 JUMP JUMPDEST SWAP2 PUSH1 0xC0 DUP5 ADD MSTORE ISZERO ISZERO PUSH1 0xE0 DUP4 ADD MSTORE SUB SWAP1 RETURN JUMPDEST CALLVALUE PUSH2 0x360 JUMPI PUSH1 0x0 CALLDATASIZE PUSH1 0x3 NOT ADD SLT PUSH2 0x360 JUMPI PUSH1 0x0 SLOAD PUSH1 0x40 MLOAD PUSH1 0x1 PUSH1 0x1 PUSH1 0xA0 SHL SUB SWAP1 SWAP2 AND DUP2 MSTORE PUSH1 0x20 SWAP1 RETURN JUMPDEST CALLVALUE PUSH2 0x360 JUMPI PUSH1 0x20 CALLDATASIZE PUSH1 0x3 NOT ADD SLT PUSH2 0x360 JUMPI PUSH1 0x4 CALLDATALOAD PUSH1 0x0 MSTORE PUSH1 0x3 PUSH1 0x20 MSTORE PUSH1 0x20 PUSH1 0xFF PUSH1 0x40 PUSH1 0x0 KECCAK256 SLOAD AND PUSH1 0x40 MLOAD SWAP1 ISZERO ISZERO DUP2 MSTORE RETURN JUMPDEST CALLVALUE PUSH2 0x360 JUMPI PUSH1 0x20 CALLDATASIZE PUSH1 0x3 NOT ADD SLT PUSH2 0x360 JUMPI PUSH1 0x1 PUSH1 0x1 PUSH1 0xA0 SHL SUB PUSH2 0x5E8 PUSH2 0x12E0 JUMP JUMPDEST AND PUSH1 0x0 MSTORE PUSH1 0x2 PUSH1 0x20 MSTORE PUSH1 0x20 PUSH1 0x40 PUSH1 0x0 KECCAK256 SLOAD PUSH1 0x40 MLOAD SWAP1 DUP2 MSTORE RETURN JUMPDEST CALLVALUE PUSH2 0x360 JUMPI PUSH1 0x60 CALLDATASIZE PUSH1 0x3 NOT ADD SLT PUSH2 0x360 JUMPI PUSH1 0x20 PUSH2 0x641 PUSH2 0x61F PUSH2 0x12E0 JUMP JUMPDEST PUSH2 0x634 PUSH1 0x1 DUP1 PUSH1 0xA0 SHL SUB PUSH1 0x0 SLOAD AND CALLER EQ PUSH2 0x1484 JUMP JUMPDEST PUSH1 0x44 CALLDATALOAD SWAP1 PUSH1 0x24 CALLDATALOAD SWAP1 PUSH2 0x1528 JUMP JUMPDEST PUSH1 0x40 MLOAD SWAP1 ISZERO ISZERO DUP2 MSTORE RETURN JUMPDEST CALLVALUE PUSH2 0x360 JUMPI PUSH1 0x40 CALLDATASIZE PUSH1 0x3 NOT ADD SLT PUSH2 0x360 JUMPI PUSH1 0x20 PUSH2 0x672 PUSH2 0x669 PUSH2 0x12E0 JUMP JUMPDEST PUSH1 0x24 CALLDATALOAD SWAP1 PUSH2 0x1641 JUMP JUMPDEST PUSH1 0x40 MLOAD SWAP1 DUP2 MSTORE RETURN JUMPDEST CALLVALUE PUSH2 0x360 JUMPI PUSH1 0xE0 CALLDATASIZE PUSH1 0x3 NOT ADD SLT PUSH2 0x360 JUMPI PUSH1 0x24 CALLDATALOAD PUSH1 0x1 PUSH1 0x1 PUSH1 0x40 SHL SUB DUP2 GT PUSH2 0x360 JUMPI PUSH2 0x6AA SWAP1 CALLDATASIZE SWAP1 PUSH1 0x4 ADD PUSH2 0x1273 JUMP JUMPDEST PUSH1 0x44 DUP1 CALLDATALOAD PUSH1 0x1 PUSH1 0x1 PUSH1 0x40 SHL SUB DUP2 GT PUSH2 0x360 JUMPI PUSH2 0x6CA SWAP1 CALLDATASIZE SWAP1 PUSH1 0x4 ADD PUSH2 0x1273 JUMP JUMPDEST SWAP2 PUSH1 0x64 SWAP1 DUP2 CALLDATALOAD PUSH1 0x1 PUSH1 0x1 PUSH1 0x40 SHL SUB DUP2 GT PUSH2 0x360 JUMPI PUSH2 0x6EC SWAP1 CALLDATASIZE SWAP1 PUSH1 0x4 ADD PUSH2 0x1273 JUMP JUMPDEST SWAP4 PUSH1 0x84 CALLDATALOAD PUSH1 0x1 PUSH1 0x1 PUSH1 0x40 SHL SUB DUP2 GT PUSH2 0x360 JUMPI PUSH2 0x70C SWAP1 CALLDATASIZE SWAP1 PUSH1 0x4 ADD PUSH2 0x1273 JUMP JUMPDEST PUSH1 0xA4 CALLDATALOAD PUSH1 0x1 PUSH1 0x1 PUSH1 0x40 SHL SUB DUP2 GT PUSH2 0x360 JUMPI PUSH2 0x72B SWAP1 CALLDATASIZE SWAP1 PUSH1 0x4 ADD PUSH2 0x1273 JUMP JUMPDEST PUSH1 0xC4 CALLDATALOAD SWAP2 PUSH1 0x1 PUSH1 0x1 PUSH1 0x40 SHL SUB DUP4 GT PUSH2 0x360 JUMPI CALLDATASIZE PUSH1 0x23 DUP5 ADD SLT ISZERO PUSH2 0x360 JUMPI DUP3 PUSH1 0x4 ADD CALLDATALOAD PUSH2 0x756 DUP2 PUSH2 0x12C9 JUMP JUMPDEST SWAP4 PUSH2 0x764 PUSH1 0x40 MLOAD SWAP6 DUP7 PUSH2 0x1252 JUMP JUMPDEST DUP2 DUP6 MSTORE PUSH1 0x24 PUSH1 0x20 DUP7 ADD SWAP3 PUSH1 0x5 SHL DUP3 ADD ADD SWAP1 CALLDATASIZE DUP3 GT PUSH2 0x360 JUMPI PUSH1 0x24 DUP2 ADD SWAP3 JUMPDEST DUP3 DUP5 LT PUSH2 0x1207 JUMPI POP POP POP POP DUP5 MLOAD ISZERO PUSH2 0x11C4 JUMPI DUP4 MLOAD ISZERO PUSH2 0x1181 JUMPI DUP8 MLOAD ISZERO PUSH2 0x113E JUMPI DUP1 MLOAD ISZERO PUSH2 0x10FB JUMPI DUP3 MLOAD ISZERO PUSH2 0x10AC JUMPI PUSH1 0x0 JUMPDEST CALLER PUSH1 0x0 MSTORE PUSH1 0x2 PUSH1 0x20 MSTORE PUSH1 0x40 PUSH1 0x0 KECCAK256 SLOAD DUP2 LT ISZERO PUSH2 0x84D JUMPI PUSH1 0x1 PUSH1 0x20 MSTORE PUSH2 0x7DC DUP2 PUSH1 0x40 PUSH1 0x0 KECCAK256 PUSH2 0x12F6 JUMP JUMPDEST POP SLOAD PUSH1 0x4 CALLDATALOAD EQ PUSH2 0x7F4 JUMPI PUSH2 0x7EF SWAP1 PUSH2 0x1448 JUMP JUMPDEST PUSH2 0x7B3 JUMP JUMPDEST PUSH1 0x40 MLOAD PUSH3 0x461BCD PUSH1 0xE5 SHL DUP2 MSTORE PUSH1 0x20 PUSH1 0x4 DUP3 ADD MSTORE PUSH1 0x2D PUSH1 0x24 DUP3 ADD MSTORE PUSH32 0x50726F7065727479207769746820746869732064617461206861736820616C72 DUP2 DUP11 ADD MSTORE PUSH13 0x1958591E48185D1D195CDD1959 PUSH1 0x9A SHL DUP2 DUP10 ADD MSTORE PUSH1 0x84 SWAP1 REVERT JUMPDEST POP DUP8 PUSH1 0x40 MLOAD SWAP5 PUSH2 0x85C DUP7 PUSH2 0x1236 JUMP JUMPDEST PUSH1 0x4 CALLDATALOAD DUP7 MSTORE DUP7 PUSH1 0x20 DUP8 ADD MSTORE PUSH1 0x40 DUP7 ADD MSTORE PUSH1 0x60 DUP6 ADD MSTORE PUSH1 0x80 DUP5 ADD MSTORE PUSH1 0xA0 DUP4 ADD MSTORE TIMESTAMP PUSH1 0xC0 DUP4 ADD MSTORE PUSH1 0x0 PUSH1 0xE0 DUP4 ADD MSTORE PUSH2 0x100 DUP3 ADD MSTORE CALLER PUSH1 0x0 MSTORE PUSH1 0x1 PUSH1 0x20 MSTORE PUSH1 0x40 PUSH1 0x0 KECCAK256 DUP1 SLOAD PUSH1 0x1 PUSH1 0x40 SHL DUP2 LT ISZERO PUSH2 0xC9A JUMPI PUSH2 0x8B9 SWAP2 PUSH1 0x1 DUP3 ADD DUP2 SSTORE PUSH2 0x12F6 JUMP JUMPDEST SWAP3 SWAP1 SWAP3 PUSH2 0x1096 JUMPI DUP2 MLOAD DUP4 SSTORE PUSH1 0x20 DUP3 ADD MLOAD SWAP3 DUP4 MLOAD PUSH1 0x1 PUSH1 0x1 PUSH1 0x40 SHL SUB DUP2 GT PUSH2 0xC9A JUMPI PUSH2 0x8E7 PUSH1 0x1 DUP4 ADD SLOAD PUSH2 0x1328 JUMP JUMPDEST PUSH1 0x1F DUP2 GT PUSH2 0x1061 JUMPI JUMPDEST POP PUSH1 0x20 PUSH1 0x1F DUP3 GT PUSH1 0x1 EQ PUSH2 0xFF2 JUMPI DUP2 SWAP3 SWAP4 SWAP5 SWAP6 PUSH1 0x0 SWAP3 PUSH2 0xFE7 JUMPI JUMPDEST POP POP DUP2 PUSH1 0x1 SHL SWAP2 PUSH1 0x0 NOT SWAP1 PUSH1 0x3 SHL SHR NOT AND OR PUSH1 0x1 DUP3 ADD SSTORE JUMPDEST PUSH1 0x40 DUP4 ADD MLOAD SWAP3 DUP4 MLOAD PUSH1 0x1 PUSH1 0x1 PUSH1 0x40 SHL SUB DUP2 GT PUSH2 0xC9A JUMPI PUSH2 0x946 PUSH1 0x2 DUP5 ADD SLOAD PUSH2 0x1328 JUMP JUMPDEST PUSH1 0x1F DUP2 GT PUSH2 0xFB2 JUMPI JUMPDEST POP PUSH1 0x20 PUSH1 0x1F DUP3 GT PUSH1 0x1 EQ PUSH2 0xF43 JUMPI DUP2 SWAP3 SWAP4 SWAP5 SWAP6 PUSH1 0x0 SWAP3 PUSH2 0xF38 JUMPI JUMPDEST POP POP DUP2 PUSH1 0x1 SHL SWAP2 PUSH1 0x0 NOT SWAP1 PUSH1 0x3 SHL SHR NOT AND OR PUSH1 0x2 DUP4 ADD SSTORE JUMPDEST PUSH1 0x60 DUP2 ADD MLOAD SWAP3 DUP4 MLOAD PUSH1 0x1 PUSH1 0x1 PUSH1 0x40 SHL SUB DUP2 GT PUSH2 0xC9A JUMPI PUSH2 0x9A5 PUSH1 0x3 DUP6 ADD SLOAD PUSH2 0x1328 JUMP JUMPDEST PUSH1 0x1F DUP2 GT PUSH2 0xF03 JUMPI JUMPDEST POP PUSH1 0x20 PUSH1 0x1F DUP3 GT PUSH1 0x1 EQ PUSH2 0xE94 JUMPI DUP2 SWAP3 SWAP4 SWAP5 SWAP6 PUSH1 0x0 SWAP3 PUSH2 0xE89 JUMPI JUMPDEST POP POP DUP2 PUSH1 0x1 SHL SWAP2 PUSH1 0x0 NOT SWAP1 PUSH1 0x3 SHL SHR NOT AND OR PUSH1 0x3 DUP5 ADD SSTORE JUMPDEST PUSH1 0x80 DUP3 ADD MLOAD SWAP3 DUP4 MLOAD PUSH1 0x1 PUSH1 0x1 PUSH1 0x40 SHL SUB DUP2 GT PUSH2 0xC9A JUMPI PUSH2 0xA04 PUSH1 0x4 DUP4 ADD SLOAD PUSH2 0x1328 JUMP JUMPDEST PUSH1 0x1F DUP2 GT PUSH2 0xE54 JUMPI JUMPDEST POP PUSH1 0x20 PUSH1 0x1F DUP3 GT PUSH1 0x1 EQ PUSH2 0xDE5 JUMPI DUP2 SWAP3 SWAP4 SWAP5 SWAP6 PUSH1 0x0 SWAP3 PUSH2 0xDDA JUMPI JUMPDEST POP POP DUP2 PUSH1 0x1 SHL SWAP2 PUSH1 0x0 NOT SWAP1 PUSH1 0x3 SHL SHR NOT AND OR PUSH1 0x4 DUP3 ADD SSTORE JUMPDEST PUSH1 0xA0 DUP4 ADD MLOAD DUP1 MLOAD SWAP1 PUSH1 0x1 PUSH1 0x1 PUSH1 0x40 SHL SUB DUP3 GT PUSH2 0xC9A JUMPI PUSH2 0xA63 PUSH1 0x5 DUP5 ADD SLOAD PUSH2 0x1328 JUMP JUMPDEST PUSH1 0x1F DUP2 GT PUSH2 0xDA5 JUMPI JUMPDEST POP PUSH1 0x20 SWAP1 PUSH1 0x1F DUP4 GT PUSH1 0x1 EQ PUSH2 0xD2F JUMPI SWAP2 DUP1 PUSH2 0x100 SWAP5 SWAP3 PUSH1 0x8 SWAP5 PUSH1 0x0 SWAP3 PUSH2 0xD24 JUMPI JUMPDEST POP POP DUP2 PUSH1 0x1 SHL SWAP2 PUSH1 0x0 NOT SWAP1 PUSH1 0x3 SHL SHR NOT AND OR PUSH1 0x5 DUP3 ADD SSTORE JUMPDEST PUSH1 0xC0 DUP6 ADD MLOAD PUSH1 0x6 DUP3 ADD SSTORE PUSH1 0x7 DUP2 ADD PUSH1 0xE0 DUP7 ADD MLOAD ISZERO ISZERO PUSH1 0xFF DUP1 NOT DUP4 SLOAD AND SWAP2 AND OR SWAP1 SSTORE ADD SWAP3 ADD MLOAD DUP1 MLOAD SWAP1 PUSH1 0x1 PUSH1 0x40 SHL DUP3 GT PUSH2 0xC9A JUMPI DUP4 SLOAD DUP3 DUP6 SSTORE DUP1 DUP4 LT PUSH2 0xCB0 JUMPI JUMPDEST POP PUSH1 0x20 ADD SWAP3 PUSH1 0x0 MSTORE PUSH1 0x20 PUSH1 0x0 KECCAK256 SWAP3 PUSH1 0x0 SWAP1 JUMPDEST DUP3 DUP3 LT PUSH2 0xB7A JUMPI PUSH1 0x40 DUP5 CALLER PUSH1 0x0 MSTORE PUSH1 0x2 PUSH1 0x20 MSTORE DUP2 PUSH1 0x0 KECCAK256 SWAP1 DUP2 SLOAD SWAP2 PUSH2 0xB1B DUP4 PUSH2 0x1448 JUMP JUMPDEST SWAP1 SSTORE PUSH32 0x793F6634FFCC5B7950547FA49DF1B867D9102CF8646E85668408F9D3CA88BFDC PUSH2 0xB5A DUP5 MLOAD SWAP3 PUSH1 0x4 CALLDATALOAD DUP5 MSTORE PUSH1 0x80 PUSH1 0x20 DUP6 ADD MSTORE PUSH1 0x80 DUP5 ADD SWAP1 PUSH2 0x1408 JUMP JUMPDEST SWAP2 TIMESTAMP DUP6 DUP3 ADD MSTORE DUP4 PUSH1 0x60 DUP3 ADD MSTORE DUP1 CALLER SWAP4 SUB SWAP1 LOG2 DUP2 MLOAD SWAP1 PUSH1 0x1 DUP3 MSTORE PUSH1 0x20 DUP3 ADD MSTORE RETURN JUMPDEST DUP1 MLOAD DUP1 MLOAD SWAP1 PUSH1 0x1 PUSH1 0x1 PUSH1 0x40 SHL SUB DUP3 GT PUSH2 0xC9A JUMPI PUSH2 0xB97 DUP8 SLOAD PUSH2 0x1328 JUMP JUMPDEST PUSH1 0x1F DUP2 GT PUSH2 0xC5D JUMPI JUMPDEST POP PUSH1 0x20 SWAP1 PUSH1 0x1F DUP4 GT PUSH1 0x1 EQ PUSH2 0xBED JUMPI SWAP3 DUP3 PUSH1 0x1 SWAP5 SWAP4 PUSH1 0x20 SWAP4 DUP7 SWAP6 PUSH1 0x0 SWAP3 PUSH2 0xBE2 JUMPI JUMPDEST POP POP PUSH1 0x0 NOT PUSH1 0x3 DUP4 SWAP1 SHL SHR NOT AND SWAP1 DUP5 SHL OR DUP9 SSTORE JUMPDEST ADD SWAP6 ADD SWAP2 ADD SWAP1 SWAP4 PUSH2 0xAF7 JUMP JUMPDEST ADD MLOAD SWAP1 POP DUP11 DUP1 PUSH2 0xBC2 JUMP JUMPDEST SWAP1 DUP8 PUSH1 0x0 MSTORE PUSH1 0x20 PUSH1 0x0 KECCAK256 SWAP2 PUSH1 0x0 JUMPDEST PUSH1 0x1F NOT DUP6 AND DUP2 LT PUSH2 0xC45 JUMPI POP DUP4 PUSH1 0x20 SWAP4 PUSH1 0x1 SWAP7 SWAP4 DUP8 SWAP7 SWAP4 DUP8 SWAP5 PUSH1 0x1F NOT DUP2 AND LT PUSH2 0xC2C JUMPI JUMPDEST POP POP POP DUP2 SHL ADD DUP9 SSTORE PUSH2 0xBD6 JUMP JUMPDEST ADD MLOAD PUSH1 0x0 NOT PUSH1 0xF8 DUP5 PUSH1 0x3 SHL AND SHR NOT AND SWAP1 SSTORE DUP11 DUP1 DUP1 PUSH2 0xC1F JUMP JUMPDEST SWAP2 SWAP3 PUSH1 0x20 PUSH1 0x1 DUP2 SWAP3 DUP7 DUP6 ADD MLOAD DUP2 SSTORE ADD SWAP5 ADD SWAP3 ADD PUSH2 0xBFB JUMP JUMPDEST PUSH2 0xC8A SWAP1 DUP9 PUSH1 0x0 MSTORE PUSH1 0x20 PUSH1 0x0 KECCAK256 PUSH1 0x1F DUP6 ADD PUSH1 0x5 SHR DUP2 ADD SWAP2 PUSH1 0x20 DUP7 LT PUSH2 0xC90 JUMPI JUMPDEST PUSH1 0x1F ADD PUSH1 0x5 SHR ADD SWAP1 PUSH2 0x146D JUMP JUMPDEST DUP8 PUSH2 0xBA0 JUMP JUMPDEST SWAP1 SWAP2 POP DUP2 SWAP1 PUSH2 0xC7D JUMP JUMPDEST PUSH4 0x4E487B71 PUSH1 0xE0 SHL PUSH1 0x0 MSTORE PUSH1 0x41 PUSH1 0x4 MSTORE PUSH1 0x24 PUSH1 0x0 REVERT JUMPDEST DUP5 PUSH1 0x0 MSTORE DUP3 PUSH1 0x20 PUSH1 0x0 KECCAK256 SWAP2 DUP3 ADD SWAP2 ADD JUMPDEST DUP2 DUP2 LT PUSH2 0xCCD JUMPI POP PUSH2 0xAE5 JUMP JUMPDEST DUP1 PUSH2 0xCDA PUSH1 0x1 SWAP3 SLOAD PUSH2 0x1328 JUMP JUMPDEST DUP1 PUSH2 0xCE7 JUMPI JUMPDEST POP ADD PUSH2 0xCC0 JUMP JUMPDEST PUSH1 0x1F DUP2 GT DUP4 EQ PUSH2 0xCFD JUMPI POP PUSH1 0x0 DUP2 SSTORE JUMPDEST DUP8 PUSH2 0xCE0 JUMP JUMPDEST PUSH1 0x0 SWAP1 DUP3 DUP3 MSTORE PUSH2 0xD1B PUSH1 0x1F PUSH1 0x20 DUP5 KECCAK256 SWAP3 ADD PUSH1 0x5 SHR DUP3 ADD DUP6 DUP4 ADD PUSH2 0x146D JUMP JUMPDEST DUP2 DUP4 SSTORE SSTORE PUSH2 0xCF7 JUMP JUMPDEST ADD MLOAD SWAP1 POP DUP8 DUP1 PUSH2 0xA8D JUMP JUMPDEST SWAP1 PUSH1 0x5 DUP5 ADD PUSH1 0x0 MSTORE PUSH1 0x20 PUSH1 0x0 KECCAK256 SWAP2 PUSH1 0x0 JUMPDEST PUSH1 0x1F NOT DUP6 AND DUP2 LT PUSH2 0xD8D JUMPI POP SWAP3 PUSH2 0x100 SWAP5 SWAP3 PUSH1 0x1 SWAP3 PUSH1 0x8 SWAP6 DUP4 PUSH1 0x1F NOT DUP2 AND LT PUSH2 0xD74 JUMPI JUMPDEST POP POP POP DUP2 SHL ADD PUSH1 0x5 DUP3 ADD SSTORE PUSH2 0xAA5 JUMP JUMPDEST ADD MLOAD PUSH1 0x0 NOT PUSH1 0xF8 DUP5 PUSH1 0x3 SHL AND SHR NOT AND SWAP1 SSTORE DUP8 DUP1 DUP1 PUSH2 0xD64 JUMP JUMPDEST SWAP2 SWAP3 PUSH1 0x20 PUSH1 0x1 DUP2 SWAP3 DUP7 DUP6 ADD MLOAD DUP2 SSTORE ADD SWAP5 ADD SWAP3 ADD PUSH2 0xD40 JUMP JUMPDEST PUSH2 0xDD4 SWAP1 PUSH1 0x5 DUP6 ADD PUSH1 0x0 MSTORE PUSH1 0x20 PUSH1 0x0 KECCAK256 PUSH1 0x1F DUP6 ADD PUSH1 0x5 SHR DUP2 ADD SWAP2 PUSH1 0x20 DUP7 LT PUSH2 0xC90 JUMPI PUSH1 0x1F ADD PUSH1 0x5 SHR ADD SWAP1 PUSH2 0x146D JUMP JUMPDEST DUP6 PUSH2 0xA6C JUMP JUMPDEST ADD MLOAD SWAP1 POP DUP6 DUP1 PUSH2 0xA28 JUMP JUMPDEST PUSH1 0x4 DUP4 ADD PUSH1 0x0 MSTORE PUSH1 0x20 PUSH1 0x0 KECCAK256 SWAP1 PUSH1 0x0 JUMPDEST PUSH1 0x1F NOT DUP5 AND DUP2 LT PUSH2 0xE3C JUMPI POP PUSH1 0x1 SWAP4 SWAP5 SWAP6 SWAP7 DUP4 PUSH1 0x1F NOT DUP2 AND LT PUSH2 0xE23 JUMPI JUMPDEST POP POP POP DUP2 SHL ADD PUSH1 0x4 DUP3 ADD SSTORE PUSH2 0xA40 JUMP JUMPDEST ADD MLOAD PUSH1 0x0 NOT PUSH1 0xF8 DUP5 PUSH1 0x3 SHL AND SHR NOT AND SWAP1 SSTORE DUP6 DUP1 DUP1 PUSH2 0xE13 JUMP JUMPDEST SWAP1 SWAP2 PUSH1 0x20 PUSH1 0x1 DUP2 SWAP3 DUP6 DUP12 ADD MLOAD DUP2 SSTORE ADD SWAP4 ADD SWAP2 ADD PUSH2 0xDF5 JUMP JUMPDEST PUSH2 0xE83 SWAP1 PUSH1 0x4 DUP5 ADD PUSH1 0x0 MSTORE PUSH1 0x20 PUSH1 0x0 KECCAK256 PUSH1 0x1F DUP5 ADD PUSH1 0x5 SHR DUP2 ADD SWAP2 PUSH1 0x20 DUP6 LT PUSH2 0xC90 JUMPI PUSH1 0x1F ADD PUSH1 0x5 SHR ADD SWAP1 PUSH2 0x146D JUMP JUMPDEST DUP6 PUSH2 0xA0D JUMP JUMPDEST ADD MLOAD SWAP1 POP DUP6 DUP1 PUSH2 0x9C9 JUMP JUMPDEST PUSH1 0x3 DUP6 ADD PUSH1 0x0 MSTORE PUSH1 0x20 PUSH1 0x0 KECCAK256 SWAP1 PUSH1 0x0 JUMPDEST PUSH1 0x1F NOT DUP5 AND DUP2 LT PUSH2 0xEEB JUMPI POP PUSH1 0x1 SWAP4 SWAP5 SWAP6 SWAP7 DUP4 PUSH1 0x1F NOT DUP2 AND LT PUSH2 0xED2 JUMPI JUMPDEST POP POP POP DUP2 SHL ADD PUSH1 0x3 DUP5 ADD SSTORE PUSH2 0x9E1 JUMP JUMPDEST ADD MLOAD PUSH1 0x0 NOT PUSH1 0xF8 DUP5 PUSH1 0x3 SHL AND SHR NOT AND SWAP1 SSTORE DUP6 DUP1 DUP1 PUSH2 0xEC2 JUMP JUMPDEST SWAP1 SWAP2 PUSH1 0x20 PUSH1 0x1 DUP2 SWAP3 DUP6 DUP12 ADD MLOAD DUP2 SSTORE ADD SWAP4 ADD SWAP2 ADD PUSH2 0xEA4 JUMP JUMPDEST PUSH2 0xF32 SWAP1 PUSH1 0x3 DUP7 ADD PUSH1 0x0 MSTORE PUSH1 0x20 PUSH1 0x0 KECCAK256 PUSH1 0x1F DUP5 ADD PUSH1 0x5 SHR DUP2 ADD SWAP2 PUSH1 0x20 DUP6 LT PUSH2 0xC90 JUMPI PUSH1 0x1F ADD PUSH1 0x5 SHR ADD SWAP1 PUSH2 0x146D JUMP JUMPDEST DUP6 PUSH2 0x9AE JUMP JUMPDEST ADD MLOAD SWAP1 POP DUP6 DUP1 PUSH2 0x96A JUMP JUMPDEST PUSH1 0x2 DUP5 ADD PUSH1 0x0 MSTORE PUSH1 0x20 PUSH1 0x0 KECCAK256 SWAP1 PUSH1 0x0 JUMPDEST PUSH1 0x1F NOT DUP5 AND DUP2 LT PUSH2 0xF9A JUMPI POP PUSH1 0x1 SWAP4 SWAP5 SWAP6 SWAP7 DUP4 PUSH1 0x1F NOT DUP2 AND LT PUSH2 0xF81 JUMPI JUMPDEST POP POP POP DUP2 SHL ADD PUSH1 0x2 DUP4 ADD SSTORE PUSH2 0x982 JUMP JUMPDEST ADD MLOAD PUSH1 0x0 NOT PUSH1 0xF8 DUP5 PUSH1 0x3 SHL AND SHR NOT AND SWAP1 SSTORE DUP6 DUP1 DUP1 PUSH2 0xF71 JUMP JUMPDEST SWAP1 SWAP2 PUSH1 0x20 PUSH1 0x1 DUP2 SWAP3 DUP6 DUP12 ADD MLOAD DUP2 SSTORE ADD SWAP4 ADD SWAP2 ADD PUSH2 0xF53 JUMP JUMPDEST PUSH2 0xFE1 SWAP1 PUSH1 0x2 DUP6 ADD PUSH1 0x0 MSTORE PUSH1 0x20 PUSH1 0x0 KECCAK256 PUSH1 0x1F DUP5 ADD PUSH1 0x5 SHR DUP2 ADD SWAP2 PUSH1 0x20 DUP6 LT PUSH2 0xC90 JUMPI PUSH1 0x1F ADD PUSH1 0x5 SHR ADD SWAP1 PUSH2 0x146D JUMP JUMPDEST DUP6 PUSH2 0x94F JUMP JUMPDEST ADD MLOAD SWAP1 POP DUP6 DUP1 PUSH2 0x90B JUMP JUMPDEST PUSH1 0x1 DUP4 ADD PUSH1 0x0 MSTORE PUSH1 0x20 PUSH1 0x0 KECCAK256 SWAP1 PUSH1 0x0 JUMPDEST PUSH1 0x1F NOT DUP5 AND DUP2 LT PUSH2 0x1049 JUMPI POP PUSH1 0x1 SWAP4 SWAP5 SWAP6 SWAP7 DUP4 PUSH1 0x1F NOT DUP2 AND LT PUSH2 0x1030 JUMPI JUMPDEST POP POP POP DUP2 SHL ADD PUSH1 0x1 DUP3 ADD SSTORE PUSH2 0x923 JUMP JUMPDEST ADD MLOAD PUSH1 0x0 NOT PUSH1 0xF8 DUP5 PUSH1 0x3 SHL AND SHR NOT AND SWAP1 SSTORE DUP6 DUP1 DUP1 PUSH2 0x1020 JUMP JUMPDEST SWAP1 SWAP2 PUSH1 0x20 PUSH1 0x1 DUP2 SWAP3 DUP6 DUP12 ADD MLOAD DUP2 SSTORE ADD SWAP4 ADD SWAP2 ADD PUSH2 0x1002 JUMP JUMPDEST PUSH2 0x1090 SWAP1 PUSH1 0x1 DUP5 ADD PUSH1 0x0 MSTORE PUSH1 0x20 PUSH1 0x0 KECCAK256 PUSH1 0x1F DUP5 ADD PUSH1 0x5 SHR DUP2 ADD SWAP2 PUSH1 0x20 DUP6 LT PUSH2 0xC90 JUMPI PUSH1 0x1F ADD PUSH1 0x5 SHR ADD SWAP1 PUSH2 0x146D JUMP JUMPDEST DUP6 PUSH2 0x8F0 JUMP JUMPDEST PUSH4 0x4E487B71 PUSH1 0xE0 SHL PUSH1 0x0 MSTORE PUSH1 0x0 PUSH1 0x4 MSTORE PUSH1 0x24 PUSH1 0x0 REVERT JUMPDEST PUSH1 0x40 MLOAD PUSH3 0x461BCD PUSH1 0xE5 SHL DUP2 MSTORE PUSH1 0x20 PUSH1 0x4 DUP3 ADD MSTORE PUSH1 0x24 DUP1 DUP3 ADD MSTORE PUSH32 0x4174206C65617374206F6E652070726F70657274792070686F746F2072657175 DUP2 DUP10 ADD MSTORE PUSH4 0x1A5C9959 PUSH1 0xE2 SHL DUP2 DUP9 ADD MSTORE PUSH1 0x84 SWAP1 REVERT JUMPDEST PUSH1 0x40 MLOAD PUSH3 0x461BCD PUSH1 0xE5 SHL DUP2 MSTORE PUSH1 0x20 PUSH1 0x4 DUP3 ADD MSTORE PUSH1 0x1A PUSH1 0x24 DUP3 ADD MSTORE PUSH32 0x4F776E6572206E616D652063616E6E6F7420626520656D707479000000000000 DUP2 DUP10 ADD MSTORE DUP7 SWAP1 REVERT JUMPDEST PUSH1 0x40 MLOAD PUSH3 0x461BCD PUSH1 0xE5 SHL DUP2 MSTORE PUSH1 0x20 PUSH1 0x4 DUP3 ADD DUP2 SWAP1 MSTORE PUSH1 0x24 DUP3 ADD MSTORE PUSH32 0x50726F706572747920616464726573732063616E6E6F7420626520656D707479 DUP2 DUP10 ADD MSTORE DUP7 SWAP1 REVERT JUMPDEST PUSH1 0x40 MLOAD PUSH3 0x461BCD PUSH1 0xE5 SHL DUP2 MSTORE PUSH1 0x20 PUSH1 0x4 DUP3 ADD MSTORE PUSH1 0x1D PUSH1 0x24 DUP3 ADD MSTORE PUSH32 0x50726F7065727479206E616D652063616E6E6F7420626520656D707479000000 DUP2 DUP10 ADD MSTORE DUP7 SWAP1 REVERT JUMPDEST PUSH1 0x40 MLOAD PUSH3 0x461BCD PUSH1 0xE5 SHL DUP2 MSTORE PUSH1 0x20 PUSH1 0x4 DUP3 ADD MSTORE PUSH1 0x1B PUSH1 0x24 DUP3 ADD MSTORE PUSH32 0x44656564206E756D6265722063616E6E6F7420626520656D7074790000000000 DUP2 DUP10 ADD MSTORE DUP7 SWAP1 REVERT JUMPDEST DUP4 CALLDATALOAD PUSH1 0x1 PUSH1 0x1 PUSH1 0x40 SHL SUB DUP2 GT PUSH2 0x360 JUMPI PUSH1 0x20 SWAP2 PUSH2 0x122B DUP4 SWAP3 PUSH1 0x24 CALLDATASIZE SWAP2 DUP8 ADD ADD PUSH2 0x1273 JUMP JUMPDEST DUP2 MSTORE ADD SWAP4 ADD SWAP3 PUSH2 0x782 JUMP JUMPDEST PUSH2 0x120 DUP2 ADD SWAP1 DUP2 LT PUSH1 0x1 PUSH1 0x1 PUSH1 0x40 SHL SUB DUP3 GT OR PUSH2 0xC9A JUMPI PUSH1 0x40 MSTORE JUMP JUMPDEST SWAP1 PUSH1 0x1F DUP1 NOT SWAP2 ADD AND DUP2 ADD SWAP1 DUP2 LT PUSH1 0x1 PUSH1 0x1 PUSH1 0x40 SHL SUB DUP3 GT OR PUSH2 0xC9A JUMPI PUSH1 0x40 MSTORE JUMP JUMPDEST DUP2 PUSH1 0x1F DUP3 ADD SLT ISZERO PUSH2 0x360 JUMPI DUP1 CALLDATALOAD SWAP1 PUSH1 0x1 PUSH1 0x1 PUSH1 0x40 SHL SUB DUP3 GT PUSH2 0xC9A JUMPI PUSH1 0x40 MLOAD SWAP3 PUSH2 0x12A7 PUSH1 0x1F DUP5 ADD PUSH1 0x1F NOT AND PUSH1 0x20 ADD DUP6 PUSH2 0x1252 JUMP JUMPDEST DUP3 DUP5 MSTORE PUSH1 0x20 DUP4 DUP4 ADD ADD GT PUSH2 0x360 JUMPI DUP2 PUSH1 0x0 SWAP3 PUSH1 0x20 DUP1 SWAP4 ADD DUP4 DUP7 ADD CALLDATACOPY DUP4 ADD ADD MSTORE SWAP1 JUMP JUMPDEST PUSH1 0x1 PUSH1 0x1 PUSH1 0x40 SHL SUB DUP2 GT PUSH2 0xC9A JUMPI PUSH1 0x5 SHL PUSH1 0x20 ADD SWAP1 JUMP JUMPDEST PUSH1 0x4 CALLDATALOAD SWAP1 PUSH1 0x1 PUSH1 0x1 PUSH1 0xA0 SHL SUB DUP3 AND DUP3 SUB PUSH2 0x360 JUMPI JUMP JUMPDEST DUP1 SLOAD DUP3 LT ISZERO PUSH2 0x1312 JUMPI PUSH1 0x0 MSTORE PUSH1 0x9 PUSH1 0x20 PUSH1 0x0 KECCAK256 SWAP2 MUL ADD SWAP1 PUSH1 0x0 SWAP1 JUMP JUMPDEST PUSH4 0x4E487B71 PUSH1 0xE0 SHL PUSH1 0x0 MSTORE PUSH1 0x32 PUSH1 0x4 MSTORE PUSH1 0x24 PUSH1 0x0 REVERT JUMPDEST SWAP1 PUSH1 0x1 DUP3 DUP2 SHR SWAP3 AND DUP1 ISZERO PUSH2 0x1358 JUMPI JUMPDEST PUSH1 0x20 DUP4 LT EQ PUSH2 0x1342 JUMPI JUMP JUMPDEST PUSH4 0x4E487B71 PUSH1 0xE0 SHL PUSH1 0x0 MSTORE PUSH1 0x22 PUSH1 0x4 MSTORE PUSH1 0x24 PUSH1 0x0 REVERT JUMPDEST SWAP2 PUSH1 0x7F AND SWAP2 PUSH2 0x1337 JUMP JUMPDEST SWAP1 PUSH1 0x40 MLOAD SWAP2 DUP3 PUSH1 0x0 DUP3 SLOAD SWAP3 PUSH2 0x1376 DUP5 PUSH2 0x1328 JUMP JUMPDEST SWAP1 DUP2 DUP5 MSTORE PUSH1 0x1 SWAP5 DUP6 DUP2 AND SWAP1 DUP2 PUSH1 0x0 EQ PUSH2 0x13E5 JUMPI POP PUSH1 0x1 EQ PUSH2 0x13A2 JUMPI JUMPDEST POP POP PUSH2 0x13A0 SWAP3 POP SUB DUP4 PUSH2 0x1252 JUMP JUMPDEST JUMP JUMPDEST SWAP1 SWAP4 SWAP2 POP PUSH1 0x0 MSTORE PUSH1 0x20 SWAP1 DUP2 PUSH1 0x0 KECCAK256 SWAP4 PUSH1 0x0 SWAP2 JUMPDEST DUP2 DUP4 LT PUSH2 0x13CD JUMPI POP POP PUSH2 0x13A0 SWAP4 POP DUP3 ADD ADD CODESIZE DUP1 PUSH2 0x1392 JUMP JUMPDEST DUP6 SLOAD DUP9 DUP5 ADD DUP6 ADD MSTORE SWAP5 DUP6 ADD SWAP5 DUP8 SWAP5 POP SWAP2 DUP4 ADD SWAP2 PUSH2 0x13B5 JUMP JUMPDEST SWAP2 POP POP PUSH2 0x13A0 SWAP5 POP PUSH1 0x20 SWAP3 POP PUSH1 0xFF NOT AND DUP3 DUP5 ADD MSTORE ISZERO ISZERO PUSH1 0x5 SHL DUP3 ADD ADD CODESIZE DUP1 PUSH2 0x1392 JUMP JUMPDEST SWAP2 SWAP1 DUP3 MLOAD SWAP3 DUP4 DUP3 MSTORE PUSH1 0x0 JUMPDEST DUP5 DUP2 LT PUSH2 0x1434 JUMPI POP POP DUP3 PUSH1 0x0 PUSH1 0x20 DUP1 SWAP5 SWAP6 DUP5 ADD ADD MSTORE PUSH1 0x1F DUP1 NOT SWAP2 ADD AND ADD ADD SWAP1 JUMP JUMPDEST PUSH1 0x20 DUP2 DUP4 ADD DUP2 ADD MLOAD DUP5 DUP4 ADD DUP3 ADD MSTORE ADD PUSH2 0x1413 JUMP JUMPDEST PUSH1 0x0 NOT DUP2 EQ PUSH2 0x1457 JUMPI PUSH1 0x1 ADD SWAP1 JUMP JUMPDEST PUSH4 0x4E487B71 PUSH1 0xE0 SHL PUSH1 0x0 MSTORE PUSH1 0x11 PUSH1 0x4 MSTORE PUSH1 0x24 PUSH1 0x0 REVERT JUMPDEST DUP2 DUP2 LT PUSH2 0x1478 JUMPI POP POP JUMP JUMPDEST PUSH1 0x0 DUP2 SSTORE PUSH1 0x1 ADD PUSH2 0x146D JUMP JUMPDEST ISZERO PUSH2 0x148B JUMPI JUMP JUMPDEST PUSH1 0x40 MLOAD PUSH3 0x461BCD PUSH1 0xE5 SHL DUP2 MSTORE PUSH1 0x20 PUSH1 0x4 DUP3 ADD MSTORE PUSH1 0x2A PUSH1 0x24 DUP3 ADD MSTORE PUSH32 0x4F6E6C7920636F6E7472616374206F776E65722063616E2063616C6C20746869 PUSH1 0x44 DUP3 ADD MSTORE PUSH10 0x3990333AB731BA34B7B7 PUSH1 0xB1 SHL PUSH1 0x64 DUP3 ADD MSTORE PUSH1 0x84 SWAP1 REVERT JUMPDEST ISZERO PUSH2 0x14EA JUMPI JUMP JUMPDEST PUSH1 0x40 MLOAD PUSH3 0x461BCD PUSH1 0xE5 SHL DUP2 MSTORE PUSH1 0x20 PUSH1 0x4 DUP3 ADD MSTORE PUSH1 0x16 PUSH1 0x24 DUP3 ADD MSTORE PUSH22 0x92DCECC2D8D2C840E0E4DEE0CAE4E8F240D2DCC8CAF PUSH1 0x53 SHL PUSH1 0x44 DUP3 ADD MSTORE PUSH1 0x64 SWAP1 REVERT JUMPDEST PUSH1 0x1 PUSH1 0x1 PUSH1 0xA0 SHL SUB AND PUSH1 0x0 DUP2 DUP2 MSTORE PUSH1 0x2 PUSH1 0x20 MSTORE PUSH1 0x40 DUP1 DUP3 KECCAK256 SLOAD SWAP2 SWAP5 SWAP3 SWAP4 SWAP2 PUSH2 0x1551 SWAP1 DUP4 LT PUSH2 0x14E3 JUMP JUMPDEST DUP4 DUP6 MSTORE PUSH1 0x1 PUSH1 0x20 MSTORE PUSH2 0x1565 DUP3 DUP3 DUP8 KECCAK256 PUSH2 0x12F6 JUMP JUMPDEST POP PUSH1 0x7 DUP2 ADD DUP1 SLOAD SWAP2 PUSH1 0xFF DUP4 AND PUSH2 0x1634 JUMPI SLOAD DUP6 SUB PUSH2 0x15D7 JUMPI SWAP1 PUSH1 0x1 DUP4 PUSH32 0xB177E255D16ADB9E27CE591B0484B1498DDE64179A25C1C4BF570AF04FACA1C3 SWAP8 SWAP9 PUSH1 0x60 SWAP8 SWAP7 SWAP6 SWAP5 DUP4 PUSH1 0xFF NOT DUP1 SWAP7 AND OR SWAP1 SSTORE DUP7 DUP2 MSTORE PUSH1 0x3 PUSH1 0x20 MSTORE KECCAK256 SWAP2 DUP3 SLOAD AND OR SWAP1 SSTORE DUP1 MLOAD SWAP3 DUP4 MSTORE TIMESTAMP PUSH1 0x20 DUP5 ADD MSTORE DUP3 ADD MSTORE LOG2 PUSH1 0x1 SWAP1 JUMP JUMPDEST POP POP SWAP2 PUSH1 0xA0 SWAP2 DUP4 PUSH32 0x423906957607C633CBB385E7DD878E5CAD84B1E8D79ACA049E8E43FC6CE654B4 SWAP5 MLOAD SWAP3 DUP4 MSTORE PUSH1 0x60 PUSH1 0x20 DUP5 ADD MSTORE PUSH1 0x12 PUSH1 0x60 DUP5 ADD MSTORE PUSH18 0x88C2E8C240D0C2E6D040DAD2E6DAC2E8C6D PUSH1 0x73 SHL PUSH1 0x80 DUP5 ADD MSTORE DUP3 ADD MSTORE LOG2 SWAP1 JUMP JUMPDEST POP POP POP POP POP POP POP POP PUSH1 0x1 SWAP1 JUMP JUMPDEST PUSH1 0x1 PUSH1 0x1 PUSH1 0xA0 SHL SUB AND PUSH1 0x0 SWAP1 DUP2 MSTORE PUSH1 0x2 PUSH1 0x20 MSTORE PUSH1 0x40 SWAP1 KECCAK256 SLOAD DUP2 LT PUSH2 0x1665 JUMPI POP PUSH1 0x0 SWAP1 JUMP JUMPDEST PUSH2 0x167A PUSH1 0x6 SWAP2 PUSH1 0x1 PUSH1 0x20 MSTORE PUSH1 0x40 PUSH1 0x0 KECCAK256 PUSH2 0x12F6 JUMP JUMPDEST POP ADD SLOAD SWAP1 JUMP INVALID LOG2 PUSH5 0x6970667358 0x22 SLT KECCAK256 OR PUSH19 0x16B77BF31D7D75C46C6B3916458C4FED8EE6EA 0xE0 0xA8 0xCA LOG2 0xC0 SELFDESTRUCT MOD LOG4 0xAD 0x4B 0xC0 PUSH5 0x736F6C6343 STOP ADDMOD SGT STOP CALLER "},"methodIdentifiers":{"attestProperty(bytes32,string,string,string,string,string,string[])":"0baca8d7","checkAttestationStatus(address,uint256)":"dca1ebc9","getAttestationTimestamp(address,uint256)":"1a58555c","getPropertyCount(address)":"8a3e9d1d","getPropertyData(address,uint256)":"f3b7873a","isHashVerified(bytes32)":"80dbcf6a","owner()":"8da5cb5b","ownerProperties(address,uint256)":"8f48bd5b","ownerPropertyCount(address)":"89cb8f6d","transferOwnership(address)":"f2fde38b","verifiedPropertyHashes(bytes32)":"8b00545b","verifyAttestation(address,uint256,bytes32)":"39b57a48"}}}}}