{"contracts/VerificationSBT.sol":{"VerificationSBT":{"abi":[{"inputs":[{"internalType":"address","name":"_kycVerifierAddress","type":"address"}],"stateMutability":"nonpayable","type":"constructor"},{"anonymous":false,"inputs":[{"indexed":true,"internalType":"address","name":"owner","type":"address"},{"indexed":true,"internalType":"address","name":"approved","type":"address"},{"indexed":true,"internalType":"uint256","name":"tokenId","type":"uint256"}],"name":"Approval","type":"event"},{"anonymous":false,"inputs":[{"indexed":true,"internalType":"address","name":"owner","type":"address"},{"indexed":true,"internalType":"address","name":"operator","type":"address"},{"indexed":false,"internalType":"bool","name":"approved","type":"bool"}],"name":"ApprovalForAll","type":"event"},{"anonymous":false,"inputs":[{"indexed":false,"internalType":"uint256","name":"_fromTokenId","type":"uint256"},{"indexed":false,"internalType":"uint256","name":"_toTokenId","type":"uint256"}],"name":"BatchMetadataUpdate","type":"event"},{"anonymous":false,"inputs":[{"indexed":false,"internalType":"uint256","name":"tokenId","type":"uint256"}],"name":"Locked","type":"event"},{"anonymous":false,"inputs":[{"indexed":false,"internalType":"uint256","name":"_tokenId","type":"uint256"}],"name":"MetadataUpdate","type":"event"},{"anonymous":false,"inputs":[{"indexed":true,"internalType":"address","name":"previousOwner","type":"address"},{"indexed":true,"internalType":"address","name":"newOwner","type":"address"}],"name":"OwnershipTransferred","type":"event"},{"anonymous":false,"inputs":[{"indexed":true,"internalType":"address","name":"from","type":"address"},{"indexed":true,"internalType":"address","name":"to","type":"address"},{"indexed":true,"internalType":"uint256","name":"tokenId","type":"uint256"}],"name":"Transfer","type":"event"},{"anonymous":false,"inputs":[{"indexed":true,"internalType":"address","name":"to","type":"address"},{"indexed":false,"internalType":"uint256","name":"tokenId","type":"uint256"},{"indexed":false,"internalType":"bytes32","name":"kycHash","type":"bytes32"}],"name":"VerificationTokenMinted","type":"event"},{"inputs":[{"internalType":"address","name":"to","type":"address"},{"internalType":"uint256","name":"tokenId","type":"uint256"}],"name":"approve","outputs":[],"stateMutability":"nonpayable","type":"function"},{"inputs":[{"internalType":"address","name":"owner","type":"address"}],"name":"balanceOf","outputs":[{"internalType":"uint256","name":"","type":"uint256"}],"stateMutability":"view","type":"function"},{"inputs":[{"internalType":"uint256","name":"tokenId","type":"uint256"}],"name":"getApproved","outputs":[{"internalType":"address","name":"","type":"address"}],"stateMutability":"view","type":"function"},{"inputs":[{"internalType":"uint256","name":"tokenId","type":"uint256"}],"name":"getKYCHash","outputs":[{"internalType":"bytes32","name":"","type":"bytes32"}],"stateMutability":"view","type":"function"},{"inputs":[{"internalType":"address","name":"wallet","type":"address"}],"name":"getTokenId","outputs":[{"internalType":"uint256","name":"","type":"uint256"}],"stateMutability":"view","type":"function"},{"inputs":[{"internalType":"address","name":"wallet","type":"address"}],"name":"hasVerificationToken","outputs":[{"internalType":"bool","name":"","type":"bool"}],"stateMutability":"view","type":"function"},{"inputs":[{"internalType":"address","name":"owner","type":"address"},{"internalType":"address","name":"operator","type":"address"}],"name":"isApprovedForAll","outputs":[{"internalType":"bool","name":"","type":"bool"}],"stateMutability":"view","type":"function"},{"inputs":[],"name":"kycVerifierAddress","outputs":[{"internalType":"address","name":"","type":"address"}],"stateMutability":"view","type":"function"},{"inputs":[{"internalType":"uint256","name":"tokenId","type":"uint256"}],"name":"locked","outputs":[{"internalType":"bool","name":"","type":"bool"}],"stateMutability":"view","type":"function"},{"inputs":[{"internalType":"address","name":"to","type":"address"},{"internalType":"bytes32","name":"kycHash","type":"bytes32"},{"internalType":"string","name":"uri","type":"string"}],"name":"mintVerificationToken","outputs":[{"internalType":"uint256","name":"","type":"uint256"}],"stateMutability":"nonpayable","type":"function"},{"inputs":[],"name":"name","outputs":[{"internalType":"string","name":"","type":"string"}],"stateMutability":"view","type":"function"},{"inputs":[],"name":"owner","outputs":[{"internalType":"address","name":"","type":"address"}],"stateMutability":"view","type":"function"},{"inputs":[{"internalType":"uint256","name":"tokenId","type":"uint256"}],"name":"ownerOf","outputs":[{"internalType":"address","name":"","type":"address"}],"stateMutability":"view","type":"function"},{"inputs":[],"name":"renounceOwnership","outputs":[],"stateMutability":"nonpayable","type":"function"},{"inputs":[{"internalType":"address","name":"from","type":"address"},{"internalType":"address","name":"to","type":"address"},{"internalType":"uint256","name":"tokenId","type":"uint256"}],"name":"safeTransferFrom","outputs":[],"stateMutability":"nonpayable","type":"function"},{"inputs":[{"internalType":"address","name":"from","type":"address"},{"internalType":"address","name":"to","type":"address"},{"internalType":"uint256","name":"tokenId","type":"uint256"},{"internalType":"bytes","name":"data","type":"bytes"}],"name":"safeTransferFrom","outputs":[],"stateMutability":"nonpayable","type":"function"},{"inputs":[{"internalType":"address","name":"operator","type":"address"},{"internalType":"bool","name":"approved","type":"bool"}],"name":"setApprovalForAll","outputs":[],"stateMutability":"nonpayable","type":"function"},{"inputs":[{"internalType":"address","name":"_kycVerifierAddress","type":"address"}],"name":"setKYCVerifierAddress","outputs":[],"stateMutability":"nonpayable","type":"function"},{"inputs":[{"internalType":"bytes4","name":"interfaceId","type":"bytes4"}],"name":"supportsInterface","outputs":[{"internalType":"bool","name":"","type":"bool"}],"stateMutability":"view","type":"function"},{"inputs":[],"name":"symbol","outputs":[{"internalType":"string","name":"","type":"string"}],"stateMutability":"view","type":"function"},{"inputs":[{"internalType":"uint256","name":"tokenId","type":"uint256"}],"name":"tokenURI","outputs":[{"internalType":"string","name":"","type":"string"}],"stateMutability":"view","type":"function"},{"inputs":[{"internalType":"address","name":"from","type":"address"},{"internalType":"address","name":"to","type":"address"},{"internalType":"uint256","name":"tokenId","type":"uint256"}],"name":"transferFrom","outputs":[],"stateMutability":"nonpayable","type":"function"},{"inputs":[{"internalType":"address","name":"newOwner","type":"address"}],"name":"transferOwnership","outputs":[],"stateMutability":"nonpayable","type":"function"}],"evm":{"bytecode":{"linkReferences":{},"object":"608034620003b457601f906001600160401b0390601f1990620018953881900385810184168301858111848210176200039e57839282916040528339602092839181010312620003b457516001600160a01b03948582169491859003620003b4576200006a620003b9565b92601684527f4b594320566572696669636174696f6e20546f6b656e00000000000000000000818501526200009e620003b9565b90600582526425aca196ab60d91b818301528451958487116200039e576000968754966001978881811c9116801562000393575b858210146200037f579081878493116200032c575b508490878311600114620002cb578a92620002bf575b5050600019600383901b1c191690871b1787555b8251948511620002ab5785548681811c91168015620002a0575b838210146200028c5790818587969594931162000233575b5081938511600114620001ce5750508592620001c2575b5050600019600383901b1c191690821b1790555b60075460018060a01b03199133838316176007557f8be0079c531659141344cd1fd0a4f28419497f9722a3daafe3b4186f6b6457e0604051953393169180a360095416176009556114bb9081620003da8239f35b0151905038806200015a565b869593929193168588528388209388905b828210620002195750508411620001ff575b505050811b0190556200016e565b015160001960f88460031b161c19169055388080620001f1565b8484015186558897909501949384019390810190620001df565b9091929394508688528288208580880160051c82019285891062000282575b9188978a9297969594930160051c01915b8281106200027357505062000143565b8a815588975089910162000263565b9250819262000252565b634e487b7160e01b88526022600452602488fd5b90607f16906200012b565b634e487b7160e01b87526041600452602487fd5b015190503880620000fd565b90848a9416918b8052868c20928c5b88828210620003155750508411620002fb575b505050811b01875562000111565b015160001960f88460031b161c19169055388080620002ed565b8385015186558d97909501949384019301620002da565b909150898052848a208780850160051c82019287861062000375575b918b91869594930160051c01915b82811062000366575050620000e7565b8c81558594508b910162000356565b9250819262000348565b634e487b7160e01b8a52602260045260248afd5b90607f1690620000d2565b634e487b7160e01b600052604160045260246000fd5b600080fd5b60408051919082016001600160401b038111838210176200039e5760405256fe6080604081815260048036101561001557600080fd5b600092833560e01c90816301ffc9a714610f535750806306fdde0314610eab578063081812fc14610e58578063095ea7b314610ceb57806323b872dd14610cac578063259342d814610cb157806342842e0e14610cac5780636352211e14610c7b57806370a0823114610be5578063715018a614610b885780638da5cb5b14610b5f57806395d89b4114610a7c5780639f87dd5714610a33578063a22cb46514610964578063b45a3c0e1461091f578063b88d4fde146108c4578063c87b56dd146107b1578063c9fb5f2314610788578063cd6f04dd146102c0578063db13455b14610278578063e985e9c51461022a578063f1537686146101ee5763f2fde38b1461012057600080fd5b346101ea5760203660031901126101ea57610139611033565b9061014261113f565b6001600160a01b03918216928315610198575050600754826bffffffffffffffffffffffff60a01b821617600755167f8be0079c531659141344cd1fd0a4f28419497f9722a3daafe3b4186f6b6457e08380a380f35b906020608492519162461bcd60e51b8352820152602660248201527f4f776e61626c653a206e6577206f776e657220697320746865207a65726f206160448201526564647265737360d01b6064820152fd5b8280fd5b5050346102265760203660031901126102265760209181906001600160a01b03610216611033565b168152600a845220549051908152f35b5080fd5b50503461022657806003193601126102265760ff8160209361024a611033565b61025261104e565b6001600160a01b0391821683526005875283832091168252855220549151911615158152f35b83346102bd5760203660031901126102bd57610292611033565b61029a61113f565b60018060a01b03166bffffffffffffffffffffffff60a01b600954161760095580f35b80fd5b50919034610226576060366003190112610226576102dc611033565b916024908135906044359567ffffffffffffffff968781116101ea57366023820112156101ea5761031590369086818501359101611108565b9660018060a01b0380600954163314801561077b575b1561072d57871694858452602098600a8a52878520546106da576001918260085401998a60085589519061035e82611098565b878252891561069a57908b61040e9260028f8e8e61039a61039487600052600260205260018060a01b0360406000205416151590565b15611296565b6000868152600260205260409020546103bd906001600160a01b03161515610394565b8d52600382528c2080548a019055838c52528c8a2080546001600160a01b0319168d179055818c8b7fddf252ad1be2c89b69c2b068fc378daa952ba7f163c4a11628f55a4df523b3ef8180a46112e2565b1561067f5760008a8152600260205260409020546001600160a01b0316156106275789865260068b528886209482519485116106165750509083929161045689969554611209565b601f81116105c1575b508a90601f84116001146105345792808087948a98948a977f4f534b26bdfebdf1fb63078d4156dfc9bd1e1f96202171da5964a5fe795507b99c999694610529575b50501b916000199060031b1c19161790555b7ff8e1a15aba9398e019f0b49df1a4fde98ee17ae345cb5f6b5e2c27f5033e8ce78a83518b8152a1868152600a8a528882822055888152600b8a5220557f032bc66be43dbccb7487781d168eb7bda224628a3b2c3388bdf69b532a3a1611878351888152a181519086825287820152a251908152f35b0151925038806104a1565b8486528b86209293929190601f198416878e5b8282106105a95750509288959285928b99967f4f534b26bdfebdf1fb63078d4156dfc9bd1e1f96202171da5964a5fe795507b99c999610610590575b505050811b0190556104b3565b015160001960f88460031b161c19169055388080610583565b8484015186558d9a509487019493840193018e610547565b909192938581969750528a8620601f850160051c8101918c861061060c575b90601f8b989796959493920160051c01905b8181106105ff575061045f565b8681558a975083016105f2565b90915081906105e0565b634e487b7160e01b87526041905285fd5b84602e6084928d8c519362461bcd60e51b85528401528201527f45524337323155524953746f726167653a2055524920736574206f66206e6f6e60448201526d32bc34b9ba32b73a103a37b5b2b760911b6064820152fd5b885162461bcd60e51b815280610696818801611243565b0390fd5b6064878e85818f519362461bcd60e51b85528401528201527f4552433732313a206d696e7420746f20746865207a65726f20616464726573736044820152fd5b875162461bcd60e51b81528085018b90526028818401527f4164647265737320616c7265616479206861732061207665726966696361746960448201526737b7103a37b5b2b760c11b6064820152608490fd5b865162461bcd60e51b81526020818501526023818801527f4f6e6c79204b5943207665726966696572206f72206f776e65722063616e206d6044820152621a5b9d60ea1b6064820152608490fd5b508060075416331461032b565b50503461022657816003193601126102265760095490516001600160a01b039091168152602090f35b5090346101ea57602091826003193601126108c057356000818152600260205260409020546107ef906001600160a01b03161515611197565b611197565b83526006825280832092815180948290805461080a81611209565b9182855260019188838216918260001461089957505060011461085b575b50505061085793929161083c9103866110ca565b815161084781611098565b5251928284938452830190610ff3565b0390f35b8552868520879350859291905b828410610881575050508201018161083c610857610828565b8054848b018601528995508894909301928101610868565b60ff19168782015293151560051b8601909301935084925061083c91506108579050610828565b8380fd5b838234610226576080366003190112610226576108df611033565b506108e861104e565b5060643567ffffffffffffffff81116101ea57366023820112156101ea576109199250602481369301359101611108565b50611441565b5091346102bd5760203660031901126102bd575061095d61095860209335600052600260205260018060a01b0360406000205416151590565b6113fe565b5160018152f35b5090346101ea57806003193601126101ea5761097e611033565b9060243591821515809303610a2f576001600160a01b0316923384146109ed5750338452600560205280842083855260205280842060ff1981541660ff8416179055519081527f17307eab39ab6107e8899845ad3d59bd9653f200f220920489ca2b5937696c3160203392a380f35b6020606492519162461bcd60e51b8352820152601960248201527f4552433732313a20617070726f766520746f2063616c6c6572000000000000006044820152fd5b8480fd5b50346101ea5760203660031901126101ea57602092829135610a6d61095882600052600260205260018060a01b0360406000205416151590565b8152600b845220549051908152f35b505034610226578160031936011261022657805190826001805491610aa083611209565b80865292828116908115610b375750600114610adb575b505050610ac9826108579403836110ca565b51918291602083526020830190610ff3565b94508085527fb10e2d527612073b26eecdfd717e6a320cf44b4afac2b0732d9fcbe2b7fa0cf65b828610610b1f57505050610ac98260206108579582010194610ab7565b80546020878701810191909152909501948101610b02565b610857975086935060209250610ac994915060ff191682840152151560051b82010194610ab7565b50503461022657816003193601126102265760075490516001600160a01b039091168152602090f35b83346102bd57806003193601126102bd57610ba161113f565b600780546001600160a01b0319811690915581906001600160a01b03167f8be0079c531659141344cd1fd0a4f28419497f9722a3daafe3b4186f6b6457e08280a380f35b50829034610226576020366003190112610226576001600160a01b03610c09611033565b16908115610c265760208480858581526003845220549051908152f35b608490602085519162461bcd60e51b8352820152602960248201527f4552433732313a2061646472657373207a65726f206973206e6f7420612076616044820152683634b21037bbb732b960b91b6064820152fd5b5091346102bd5760203660031901126102bd5750610c9b602092356111e3565b90516001600160a01b039091168152f35b611064565b5050346102265760203660031901126102265760209181906001600160a01b03610cd9611033565b168152600a8452205415159051908152f35b50346101ea57816003193601126101ea57610d04611033565b6024359290916001600160a01b0391908280610d1f876111e3565b16941693808514610e0b57803314908115610dec575b5015610d8457848652602052842080546001600160a01b03191683179055610d5c836111e3565b167f8c5be1e5ebec7d5bd14f71427d1e84f3dd0314c0f7b2291e5b200ac8c7c3b9258480a480f35b6020608492519162461bcd60e51b8352820152603d60248201527f4552433732313a20617070726f76652063616c6c6572206973206e6f7420746f60448201527f6b656e206f776e6572206f7220617070726f76656420666f7220616c6c0000006064820152fd5b90508652600560205281862033875260205260ff828720541638610d35565b506020608492519162461bcd60e51b8352820152602160248201527f4552433732313a20617070726f76616c20746f2063757272656e74206f776e656044820152603960f91b6064820152fd5b50346101ea5760203660031901126101ea57918260209335610e926107ea82600052600260205260018060a01b0360406000205416151590565b825283528190205490516001600160a01b039091168152f35b505034610226578160031936011261022657805190828054610ecc81611209565b80855291600191808316908115610b375750600114610ef757505050610ac9826108579403836110ca565b80809650527f290decd9548b62a8d60345a988386fc84ba6bc95484008f6362f93160ef3e5635b828610610f3b57505050610ac98260206108579582010194610ab7565b80546020878701810191909152909501948101610f1e565b925050346101ea5760203660031901126101ea573563ffffffff60e01b81168091036101ea5760209250635a2d1e0760e11b8114908115610f96575b5015158152f35b632483248360e11b811491508115610fb0575b5038610f8f565b6380ac58cd60e01b811491508115610fe2575b8115610fd1575b5038610fa9565b6301ffc9a760e01b14905038610fca565b635b5e139f60e01b81149150610fc3565b919082519283825260005b84811061101f575050826000602080949584010152601f8019910116010190565b602081830181015184830182015201610ffe565b600435906001600160a01b038216820361104957565b600080fd5b602435906001600160a01b038216820361104957565b34611049576060366003190112611049576001600160a01b0360043581811603611049576024359081161461144157600080fd5b6020810190811067ffffffffffffffff8211176110b457604052565b634e487b7160e01b600052604160045260246000fd5b90601f8019910116810190811067ffffffffffffffff8211176110b457604052565b67ffffffffffffffff81116110b457601f01601f191660200190565b929192611114826110ec565b9161112260405193846110ca565b829481845281830111611049578281602093846000960137010152565b6007546001600160a01b0316330361115357565b606460405162461bcd60e51b815260206004820152602060248201527f4f776e61626c653a2063616c6c6572206973206e6f7420746865206f776e65726044820152fd5b1561119e57565b60405162461bcd60e51b815260206004820152601860248201527f4552433732313a20696e76616c696420746f6b656e20494400000000000000006044820152606490fd5b6000908152600260205260409020546001600160a01b0316611206811515611197565b90565b90600182811c92168015611239575b602083101461122357565b634e487b7160e01b600052602260045260246000fd5b91607f1691611218565b60809060208152603260208201527f4552433732313a207472616e7366657220746f206e6f6e20455243373231526560408201527131b2b4bb32b91034b6b83632b6b2b73a32b960711b60608201520190565b1561129d57565b60405162461bcd60e51b815260206004820152601c60248201527f4552433732313a20746f6b656e20616c7265616479206d696e746564000000006044820152606490fd5b9192600092909190803b156113f457611330946040518092630a85bd0160e11b9485835233600484015287602484015260448301526080606483015281878160209a8b966084830190610ff3565b03926001600160a01b03165af18491816113b4575b506113a3575050503d60001461139b573d61135f816110ec565b9061136d60405192836110ca565b81528091833d92013e5b805191826113985760405162461bcd60e51b81528061069660048201611243565b01fd5b506060611377565b6001600160e01b0319161492509050565b9091508581813d83116113ed575b6113cc81836110ca565b81010312610a2f57516001600160e01b031981168103610a2f579038611345565b503d6113c2565b5050915050600190565b1561140557565b60405162461bcd60e51b8152602060048201526014602482015273151bdad95b88191bd95cc81b9bdd08195e1a5cdd60621b6044820152606490fd5b606460405162461bcd60e51b815260206004820152602060248201527f5342543a20546f6b656e2063616e6e6f74206265207472616e736665727265646044820152fdfea26469706673582212208b9ca9cac268c54ef10d8d0f93bac4643a84c00b61550f5c539b4277c67f9a1f64736f6c63430008130033","opcodes":"PUSH1 0x80 CALLVALUE PUSH3 0x3B4 JUMPI PUSH1 0x1F SWAP1 PUSH1 0x1 PUSH1 0x1 PUSH1 0x40 SHL SUB SWAP1 PUSH1 0x1F NOT SWAP1 PUSH3 0x1895 CODESIZE DUP2 SWAP1 SUB DUP6 DUP2 ADD DUP5 AND DUP4 ADD DUP6 DUP2 GT DUP5 DUP3 LT OR PUSH3 0x39E JUMPI DUP4 SWAP3 DUP3 SWAP2 PUSH1 0x40 MSTORE DUP4 CODECOPY PUSH1 0x20 SWAP3 DUP4 SWAP2 DUP2 ADD SUB SLT PUSH3 0x3B4 JUMPI MLOAD PUSH1 0x1 PUSH1 0x1 PUSH1 0xA0 SHL SUB SWAP5 DUP6 DUP3 AND SWAP5 SWAP2 DUP6 SWAP1 SUB PUSH3 0x3B4 JUMPI PUSH3 0x6A PUSH3 0x3B9 JUMP JUMPDEST SWAP3 PUSH1 0x16 DUP5 MSTORE PUSH32 0x4B594320566572696669636174696F6E20546F6B656E00000000000000000000 DUP2 DUP6 ADD MSTORE PUSH3 0x9E PUSH3 0x3B9 JUMP JUMPDEST SWAP1 PUSH1 0x5 DUP3 MSTORE PUSH5 0x25ACA196AB PUSH1 0xD9 SHL DUP2 DUP4 ADD MSTORE DUP5 MLOAD SWAP6 DUP5 DUP8 GT PUSH3 0x39E JUMPI PUSH1 0x0 SWAP7 DUP8 SLOAD SWAP7 PUSH1 0x1 SWAP8 DUP9 DUP2 DUP2 SHR SWAP2 AND DUP1 ISZERO PUSH3 0x393 JUMPI JUMPDEST DUP6 DUP3 LT EQ PUSH3 0x37F JUMPI SWAP1 DUP2 DUP8 DUP5 SWAP4 GT PUSH3 0x32C JUMPI JUMPDEST POP DUP5 SWAP1 DUP8 DUP4 GT PUSH1 0x1 EQ PUSH3 0x2CB JUMPI DUP11 SWAP3 PUSH3 0x2BF JUMPI JUMPDEST POP POP PUSH1 0x0 NOT PUSH1 0x3 DUP4 SWAP1 SHL SHR NOT AND SWAP1 DUP8 SHL OR DUP8 SSTORE JUMPDEST DUP3 MLOAD SWAP5 DUP6 GT PUSH3 0x2AB JUMPI DUP6 SLOAD DUP7 DUP2 DUP2 SHR SWAP2 AND DUP1 ISZERO PUSH3 0x2A0 JUMPI JUMPDEST DUP4 DUP3 LT EQ PUSH3 0x28C JUMPI SWAP1 DUP2 DUP6 DUP8 SWAP7 SWAP6 SWAP5 SWAP4 GT PUSH3 0x233 JUMPI JUMPDEST POP DUP2 SWAP4 DUP6 GT PUSH1 0x1 EQ PUSH3 0x1CE JUMPI POP POP DUP6 SWAP3 PUSH3 0x1C2 JUMPI JUMPDEST POP POP PUSH1 0x0 NOT PUSH1 0x3 DUP4 SWAP1 SHL SHR NOT AND SWAP1 DUP3 SHL OR SWAP1 SSTORE JUMPDEST PUSH1 0x7 SLOAD PUSH1 0x1 DUP1 PUSH1 0xA0 SHL SUB NOT SWAP2 CALLER DUP4 DUP4 AND OR PUSH1 0x7 SSTORE PUSH32 0x8BE0079C531659141344CD1FD0A4F28419497F9722A3DAAFE3B4186F6B6457E0 PUSH1 0x40 MLOAD SWAP6 CALLER SWAP4 AND SWAP2 DUP1 LOG3 PUSH1 0x9 SLOAD AND OR PUSH1 0x9 SSTORE PUSH2 0x14BB SWAP1 DUP2 PUSH3 0x3DA DUP3 CODECOPY RETURN JUMPDEST ADD MLOAD SWAP1 POP CODESIZE DUP1 PUSH3 0x15A JUMP JUMPDEST DUP7 SWAP6 SWAP4 SWAP3 SWAP2 SWAP4 AND DUP6 DUP9 MSTORE DUP4 DUP9 KECCAK256 SWAP4 DUP9 SWAP1 JUMPDEST DUP3 DUP3 LT PUSH3 0x219 JUMPI POP POP DUP5 GT PUSH3 0x1FF JUMPI JUMPDEST POP POP POP DUP2 SHL ADD SWAP1 SSTORE PUSH3 0x16E JUMP JUMPDEST ADD MLOAD PUSH1 0x0 NOT PUSH1 0xF8 DUP5 PUSH1 0x3 SHL AND SHR NOT AND SWAP1 SSTORE CODESIZE DUP1 DUP1 PUSH3 0x1F1 JUMP JUMPDEST DUP5 DUP5 ADD MLOAD DUP7 SSTORE DUP9 SWAP8 SWAP1 SWAP6 ADD SWAP5 SWAP4 DUP5 ADD SWAP4 SWAP1 DUP2 ADD SWAP1 PUSH3 0x1DF JUMP JUMPDEST SWAP1 SWAP2 SWAP3 SWAP4 SWAP5 POP DUP7 DUP9 MSTORE DUP3 DUP9 KECCAK256 DUP6 DUP1 DUP9 ADD PUSH1 0x5 SHR DUP3 ADD SWAP3 DUP6 DUP10 LT PUSH3 0x282 JUMPI JUMPDEST SWAP2 DUP9 SWAP8 DUP11 SWAP3 SWAP8 SWAP7 SWAP6 SWAP5 SWAP4 ADD PUSH1 0x5 SHR ADD SWAP2 JUMPDEST DUP3 DUP2 LT PUSH3 0x273 JUMPI POP POP PUSH3 0x143 JUMP JUMPDEST DUP11 DUP2 SSTORE DUP9 SWAP8 POP DUP10 SWAP2 ADD PUSH3 0x263 JUMP JUMPDEST SWAP3 POP DUP2 SWAP3 PUSH3 0x252 JUMP JUMPDEST PUSH4 0x4E487B71 PUSH1 0xE0 SHL DUP9 MSTORE PUSH1 0x22 PUSH1 0x4 MSTORE PUSH1 0x24 DUP9 REVERT JUMPDEST SWAP1 PUSH1 0x7F AND SWAP1 PUSH3 0x12B JUMP JUMPDEST PUSH4 0x4E487B71 PUSH1 0xE0 SHL DUP8 MSTORE PUSH1 0x41 PUSH1 0x4 MSTORE PUSH1 0x24 DUP8 REVERT JUMPDEST ADD MLOAD SWAP1 POP CODESIZE DUP1 PUSH3 0xFD JUMP JUMPDEST SWAP1 DUP5 DUP11 SWAP5 AND SWAP2 DUP12 DUP1 MSTORE DUP7 DUP13 KECCAK256 SWAP3 DUP13 JUMPDEST DUP9 DUP3 DUP3 LT PUSH3 0x315 JUMPI POP POP DUP5 GT PUSH3 0x2FB JUMPI JUMPDEST POP POP POP DUP2 SHL ADD DUP8 SSTORE PUSH3 0x111 JUMP JUMPDEST ADD MLOAD PUSH1 0x0 NOT PUSH1 0xF8 DUP5 PUSH1 0x3 SHL AND SHR NOT AND SWAP1 SSTORE CODESIZE DUP1 DUP1 PUSH3 0x2ED JUMP JUMPDEST DUP4 DUP6 ADD MLOAD DUP7 SSTORE DUP14 SWAP8 SWAP1 SWAP6 ADD SWAP5 SWAP4 DUP5 ADD SWAP4 ADD PUSH3 0x2DA JUMP JUMPDEST SWAP1 SWAP2 POP DUP10 DUP1 MSTORE DUP5 DUP11 KECCAK256 DUP8 DUP1 DUP6 ADD PUSH1 0x5 SHR DUP3 ADD SWAP3 DUP8 DUP7 LT PUSH3 0x375 JUMPI JUMPDEST SWAP2 DUP12 SWAP2 DUP7 SWAP6 SWAP5 SWAP4 ADD PUSH1 0x5 SHR ADD SWAP2 JUMPDEST DUP3 DUP2 LT PUSH3 0x366 JUMPI POP POP PUSH3 0xE7 JUMP JUMPDEST DUP13 DUP2 SSTORE DUP6 SWAP5 POP DUP12 SWAP2 ADD PUSH3 0x356 JUMP JUMPDEST SWAP3 POP DUP2 SWAP3 PUSH3 0x348 JUMP JUMPDEST PUSH4 0x4E487B71 PUSH1 0xE0 SHL DUP11 MSTORE PUSH1 0x22 PUSH1 0x4 MSTORE PUSH1 0x24 DUP11 REVERT JUMPDEST SWAP1 PUSH1 0x7F AND SWAP1 PUSH3 0xD2 JUMP JUMPDEST PUSH4 0x4E487B71 PUSH1 0xE0 SHL PUSH1 0x0 MSTORE PUSH1 0x41 PUSH1 0x4 MSTORE PUSH1 0x24 PUSH1 0x0 REVERT JUMPDEST PUSH1 0x0 DUP1 REVERT JUMPDEST PUSH1 0x40 DUP1 MLOAD SWAP2 SWAP1 DUP3 ADD PUSH1 0x1 PUSH1 0x1 PUSH1 0x40 SHL SUB DUP2 GT DUP4 DUP3 LT OR PUSH3 0x39E JUMPI PUSH1 0x40 MSTORE JUMP INVALID PUSH1 0x80 PUSH1 0x40 DUP2 DUP2 MSTORE PUSH1 0x4 DUP1 CALLDATASIZE LT ISZERO PUSH2 0x15 JUMPI PUSH1 0x0 DUP1 REVERT JUMPDEST PUSH1 0x0 SWAP3 DUP4 CALLDATALOAD PUSH1 0xE0 SHR SWAP1 DUP2 PUSH4 0x1FFC9A7 EQ PUSH2 0xF53 JUMPI POP DUP1 PUSH4 0x6FDDE03 EQ PUSH2 0xEAB JUMPI DUP1 PUSH4 0x81812FC EQ PUSH2 0xE58 JUMPI DUP1 PUSH4 0x95EA7B3 EQ PUSH2 0xCEB JUMPI DUP1 PUSH4 0x23B872DD EQ PUSH2 0xCAC JUMPI DUP1 PUSH4 0x259342D8 EQ PUSH2 0xCB1 JUMPI DUP1 PUSH4 0x42842E0E EQ PUSH2 0xCAC JUMPI DUP1 PUSH4 0x6352211E EQ PUSH2 0xC7B JUMPI DUP1 PUSH4 0x70A08231 EQ PUSH2 0xBE5 JUMPI DUP1 PUSH4 0x715018A6 EQ PUSH2 0xB88 JUMPI DUP1 PUSH4 0x8DA5CB5B EQ PUSH2 0xB5F JUMPI DUP1 PUSH4 0x95D89B41 EQ PUSH2 0xA7C JUMPI DUP1 PUSH4 0x9F87DD57 EQ PUSH2 0xA33 JUMPI DUP1 PUSH4 0xA22CB465 EQ PUSH2 0x964 JUMPI DUP1 PUSH4 0xB45A3C0E EQ PUSH2 0x91F JUMPI DUP1 PUSH4 0xB88D4FDE EQ PUSH2 0x8C4 JUMPI DUP1 PUSH4 0xC87B56DD EQ PUSH2 0x7B1 JUMPI DUP1 PUSH4 0xC9FB5F23 EQ PUSH2 0x788 JUMPI DUP1 PUSH4 0xCD6F04DD EQ PUSH2 0x2C0 JUMPI DUP1 PUSH4 0xDB13455B EQ PUSH2 0x278 JUMPI DUP1 PUSH4 0xE985E9C5 EQ PUSH2 0x22A JUMPI DUP1 PUSH4 0xF1537686 EQ PUSH2 0x1EE JUMPI PUSH4 0xF2FDE38B EQ PUSH2 0x120 JUMPI PUSH1 0x0 DUP1 REVERT JUMPDEST CALLVALUE PUSH2 0x1EA JUMPI PUSH1 0x20 CALLDATASIZE PUSH1 0x3 NOT ADD SLT PUSH2 0x1EA JUMPI PUSH2 0x139 PUSH2 0x1033 JUMP JUMPDEST SWAP1 PUSH2 0x142 PUSH2 0x113F JUMP JUMPDEST PUSH1 0x1 PUSH1 0x1 PUSH1 0xA0 SHL SUB SWAP2 DUP3 AND SWAP3 DUP4 ISZERO PUSH2 0x198 JUMPI POP POP PUSH1 0x7 SLOAD DUP3 PUSH12 0xFFFFFFFFFFFFFFFFFFFFFFFF PUSH1 0xA0 SHL DUP3 AND OR PUSH1 0x7 SSTORE AND PUSH32 0x8BE0079C531659141344CD1FD0A4F28419497F9722A3DAAFE3B4186F6B6457E0 DUP4 DUP1 LOG3 DUP1 RETURN JUMPDEST SWAP1 PUSH1 0x20 PUSH1 0x84 SWAP3 MLOAD SWAP2 PUSH3 0x461BCD PUSH1 0xE5 SHL DUP4 MSTORE DUP3 ADD MSTORE PUSH1 0x26 PUSH1 0x24 DUP3 ADD MSTORE PUSH32 0x4F776E61626C653A206E6577206F776E657220697320746865207A65726F2061 PUSH1 0x44 DUP3 ADD MSTORE PUSH6 0x646472657373 PUSH1 0xD0 SHL PUSH1 0x64 DUP3 ADD MSTORE REVERT JUMPDEST DUP3 DUP1 REVERT JUMPDEST POP POP CALLVALUE PUSH2 0x226 JUMPI PUSH1 0x20 CALLDATASIZE PUSH1 0x3 NOT ADD SLT PUSH2 0x226 JUMPI PUSH1 0x20 SWAP2 DUP2 SWAP1 PUSH1 0x1 PUSH1 0x1 PUSH1 0xA0 SHL SUB PUSH2 0x216 PUSH2 0x1033 JUMP JUMPDEST AND DUP2 MSTORE PUSH1 0xA DUP5 MSTORE KECCAK256 SLOAD SWAP1 MLOAD SWAP1 DUP2 MSTORE RETURN JUMPDEST POP DUP1 REVERT JUMPDEST POP POP CALLVALUE PUSH2 0x226 JUMPI DUP1 PUSH1 0x3 NOT CALLDATASIZE ADD SLT PUSH2 0x226 JUMPI PUSH1 0xFF DUP2 PUSH1 0x20 SWAP4 PUSH2 0x24A PUSH2 0x1033 JUMP JUMPDEST PUSH2 0x252 PUSH2 0x104E JUMP JUMPDEST PUSH1 0x1 PUSH1 0x1 PUSH1 0xA0 SHL SUB SWAP2 DUP3 AND DUP4 MSTORE PUSH1 0x5 DUP8 MSTORE DUP4 DUP4 KECCAK256 SWAP2 AND DUP3 MSTORE DUP6 MSTORE KECCAK256 SLOAD SWAP2 MLOAD SWAP2 AND ISZERO ISZERO DUP2 MSTORE RETURN JUMPDEST DUP4 CALLVALUE PUSH2 0x2BD JUMPI PUSH1 0x20 CALLDATASIZE PUSH1 0x3 NOT ADD SLT PUSH2 0x2BD JUMPI PUSH2 0x292 PUSH2 0x1033 JUMP JUMPDEST PUSH2 0x29A PUSH2 0x113F JUMP JUMPDEST PUSH1 0x1 DUP1 PUSH1 0xA0 SHL SUB AND PUSH12 0xFFFFFFFFFFFFFFFFFFFFFFFF PUSH1 0xA0 SHL PUSH1 0x9 SLOAD AND OR PUSH1 0x9 SSTORE DUP1 RETURN JUMPDEST DUP1 REVERT JUMPDEST POP SWAP2 SWAP1 CALLVALUE PUSH2 0x226 JUMPI PUSH1 0x60 CALLDATASIZE PUSH1 0x3 NOT ADD SLT PUSH2 0x226 JUMPI PUSH2 0x2DC PUSH2 0x1033 JUMP JUMPDEST SWAP2 PUSH1 0x24 SWAP1 DUP2 CALLDATALOAD SWAP1 PUSH1 0x44 CALLDATALOAD SWAP6 PUSH8 0xFFFFFFFFFFFFFFFF SWAP7 DUP8 DUP2 GT PUSH2 0x1EA JUMPI CALLDATASIZE PUSH1 0x23 DUP3 ADD SLT ISZERO PUSH2 0x1EA JUMPI PUSH2 0x315 SWAP1 CALLDATASIZE SWAP1 DUP7 DUP2 DUP6 ADD CALLDATALOAD SWAP2 ADD PUSH2 0x1108 JUMP JUMPDEST SWAP7 PUSH1 0x1 DUP1 PUSH1 0xA0 SHL SUB DUP1 PUSH1 0x9 SLOAD AND CALLER EQ DUP1 ISZERO PUSH2 0x77B JUMPI JUMPDEST ISZERO PUSH2 0x72D JUMPI DUP8 AND SWAP5 DUP6 DUP5 MSTORE PUSH1 0x20 SWAP9 PUSH1 0xA DUP11 MSTORE DUP8 DUP6 KECCAK256 SLOAD PUSH2 0x6DA JUMPI PUSH1 0x1 SWAP2 DUP3 PUSH1 0x8 SLOAD ADD SWAP10 DUP11 PUSH1 0x8 SSTORE DUP10 MLOAD SWAP1 PUSH2 0x35E DUP3 PUSH2 0x1098 JUMP JUMPDEST DUP8 DUP3 MSTORE DUP10 ISZERO PUSH2 0x69A JUMPI SWAP1 DUP12 PUSH2 0x40E SWAP3 PUSH1 0x2 DUP16 DUP15 DUP15 PUSH2 0x39A PUSH2 0x394 DUP8 PUSH1 0x0 MSTORE PUSH1 0x2 PUSH1 0x20 MSTORE PUSH1 0x1 DUP1 PUSH1 0xA0 SHL SUB PUSH1 0x40 PUSH1 0x0 KECCAK256 SLOAD AND ISZERO ISZERO SWAP1 JUMP JUMPDEST ISZERO PUSH2 0x1296 JUMP JUMPDEST PUSH1 0x0 DUP7 DUP2 MSTORE PUSH1 0x2 PUSH1 0x20 MSTORE PUSH1 0x40 SWAP1 KECCAK256 SLOAD PUSH2 0x3BD SWAP1 PUSH1 0x1 PUSH1 0x1 PUSH1 0xA0 SHL SUB AND ISZERO ISZERO PUSH2 0x394 JUMP JUMPDEST DUP14 MSTORE PUSH1 0x3 DUP3 MSTORE DUP13 KECCAK256 DUP1 SLOAD DUP11 ADD SWAP1 SSTORE DUP4 DUP13 MSTORE MSTORE DUP13 DUP11 KECCAK256 DUP1 SLOAD PUSH1 0x1 PUSH1 0x1 PUSH1 0xA0 SHL SUB NOT AND DUP14 OR SWAP1 SSTORE DUP2 DUP13 DUP12 PUSH32 0xDDF252AD1BE2C89B69C2B068FC378DAA952BA7F163C4A11628F55A4DF523B3EF DUP2 DUP1 LOG4 PUSH2 0x12E2 JUMP JUMPDEST ISZERO PUSH2 0x67F JUMPI PUSH1 0x0 DUP11 DUP2 MSTORE PUSH1 0x2 PUSH1 0x20 MSTORE PUSH1 0x40 SWAP1 KECCAK256 SLOAD PUSH1 0x1 PUSH1 0x1 PUSH1 0xA0 SHL SUB AND ISZERO PUSH2 0x627 JUMPI DUP10 DUP7 MSTORE PUSH1 0x6 DUP12 MSTORE DUP9 DUP7 KECCAK256 SWAP5 DUP3 MLOAD SWAP5 DUP6 GT PUSH2 0x616 JUMPI POP POP SWAP1 DUP4 SWAP3 SWAP2 PUSH2 0x456 DUP10 SWAP7 SWAP6 SLOAD PUSH2 0x1209 JUMP JUMPDEST PUSH1 0x1F DUP2 GT PUSH2 0x5C1 JUMPI JUMPDEST POP DUP11 SWAP1 PUSH1 0x1F DUP5 GT PUSH1 0x1 EQ PUSH2 0x534 JUMPI SWAP3 DUP1 DUP1 DUP8 SWAP5 DUP11 SWAP9 SWAP5 DUP11 SWAP8 PUSH32 0x4F534B26BDFEBDF1FB63078D4156DFC9BD1E1F96202171DA5964A5FE795507B9 SWAP13 SWAP10 SWAP7 SWAP5 PUSH2 0x529 JUMPI JUMPDEST POP POP SHL SWAP2 PUSH1 0x0 NOT SWAP1 PUSH1 0x3 SHL SHR NOT AND OR SWAP1 SSTORE JUMPDEST PUSH32 0xF8E1A15ABA9398E019F0B49DF1A4FDE98EE17AE345CB5F6B5E2C27F5033E8CE7 DUP11 DUP4 MLOAD DUP12 DUP2 MSTORE LOG1 DUP7 DUP2 MSTORE PUSH1 0xA DUP11 MSTORE DUP9 DUP3 DUP3 KECCAK256 SSTORE DUP9 DUP2 MSTORE PUSH1 0xB DUP11 MSTORE KECCAK256 SSTORE PUSH32 0x32BC66BE43DBCCB7487781D168EB7BDA224628A3B2C3388BDF69B532A3A1611 DUP8 DUP4 MLOAD DUP9 DUP2 MSTORE LOG1 DUP2 MLOAD SWAP1 DUP7 DUP3 MSTORE DUP8 DUP3 ADD MSTORE LOG2 MLOAD SWAP1 DUP2 MSTORE RETURN JUMPDEST ADD MLOAD SWAP3 POP CODESIZE DUP1 PUSH2 0x4A1 JUMP JUMPDEST DUP5 DUP7 MSTORE DUP12 DUP7 KECCAK256 SWAP3 SWAP4 SWAP3 SWAP2 SWAP1 PUSH1 0x1F NOT DUP5 AND DUP8 DUP15 JUMPDEST DUP3 DUP3 LT PUSH2 0x5A9 JUMPI POP POP SWAP3 DUP9 SWAP6 SWAP3 DUP6 SWAP3 DUP12 SWAP10 SWAP7 PUSH32 0x4F534B26BDFEBDF1FB63078D4156DFC9BD1E1F96202171DA5964A5FE795507B9 SWAP13 SWAP10 SWAP7 LT PUSH2 0x590 JUMPI JUMPDEST POP POP POP DUP2 SHL ADD SWAP1 SSTORE PUSH2 0x4B3 JUMP JUMPDEST ADD MLOAD PUSH1 0x0 NOT PUSH1 0xF8 DUP5 PUSH1 0x3 SHL AND SHR NOT AND SWAP1 SSTORE CODESIZE DUP1 DUP1 PUSH2 0x583 JUMP JUMPDEST DUP5 DUP5 ADD MLOAD DUP7 SSTORE DUP14 SWAP11 POP SWAP5 DUP8 ADD SWAP5 SWAP4 DUP5 ADD SWAP4 ADD DUP15 PUSH2 0x547 JUMP JUMPDEST SWAP1 SWAP2 SWAP3 SWAP4 DUP6 DUP2 SWAP7 SWAP8 POP MSTORE DUP11 DUP7 KECCAK256 PUSH1 0x1F DUP6 ADD PUSH1 0x5 SHR DUP2 ADD SWAP2 DUP13 DUP7 LT PUSH2 0x60C JUMPI JUMPDEST SWAP1 PUSH1 0x1F DUP12 SWAP9 SWAP8 SWAP7 SWAP6 SWAP5 SWAP4 SWAP3 ADD PUSH1 0x5 SHR ADD SWAP1 JUMPDEST DUP2 DUP2 LT PUSH2 0x5FF JUMPI POP PUSH2 0x45F JUMP JUMPDEST DUP7 DUP2 SSTORE DUP11 SWAP8 POP DUP4 ADD PUSH2 0x5F2 JUMP JUMPDEST SWAP1 SWAP2 POP DUP2 SWAP1 PUSH2 0x5E0 JUMP JUMPDEST PUSH4 0x4E487B71 PUSH1 0xE0 SHL DUP8 MSTORE PUSH1 0x41 SWAP1 MSTORE DUP6 REVERT JUMPDEST DUP5 PUSH1 0x2E PUSH1 0x84 SWAP3 DUP14 DUP13 MLOAD SWAP4 PUSH3 0x461BCD PUSH1 0xE5 SHL DUP6 MSTORE DUP5 ADD MSTORE DUP3 ADD MSTORE PUSH32 0x45524337323155524953746F726167653A2055524920736574206F66206E6F6E PUSH1 0x44 DUP3 ADD MSTORE PUSH14 0x32BC34B9BA32B73A103A37B5B2B7 PUSH1 0x91 SHL PUSH1 0x64 DUP3 ADD MSTORE REVERT JUMPDEST DUP9 MLOAD PUSH3 0x461BCD PUSH1 0xE5 SHL DUP2 MSTORE DUP1 PUSH2 0x696 DUP2 DUP9 ADD PUSH2 0x1243 JUMP JUMPDEST SUB SWAP1 REVERT JUMPDEST PUSH1 0x64 DUP8 DUP15 DUP6 DUP2 DUP16 MLOAD SWAP4 PUSH3 0x461BCD PUSH1 0xE5 SHL DUP6 MSTORE DUP5 ADD MSTORE DUP3 ADD MSTORE PUSH32 0x4552433732313A206D696E7420746F20746865207A65726F2061646472657373 PUSH1 0x44 DUP3 ADD MSTORE REVERT JUMPDEST DUP8 MLOAD PUSH3 0x461BCD PUSH1 0xE5 SHL DUP2 MSTORE DUP1 DUP6 ADD DUP12 SWAP1 MSTORE PUSH1 0x28 DUP2 DUP5 ADD MSTORE PUSH32 0x4164647265737320616C72656164792068617320612076657269666963617469 PUSH1 0x44 DUP3 ADD MSTORE PUSH8 0x37B7103A37B5B2B7 PUSH1 0xC1 SHL PUSH1 0x64 DUP3 ADD MSTORE PUSH1 0x84 SWAP1 REVERT JUMPDEST DUP7 MLOAD PUSH3 0x461BCD PUSH1 0xE5 SHL DUP2 MSTORE PUSH1 0x20 DUP2 DUP6 ADD MSTORE PUSH1 0x23 DUP2 DUP9 ADD MSTORE PUSH32 0x4F6E6C79204B5943207665726966696572206F72206F776E65722063616E206D PUSH1 0x44 DUP3 ADD MSTORE PUSH3 0x1A5B9D PUSH1 0xEA SHL PUSH1 0x64 DUP3 ADD MSTORE PUSH1 0x84 SWAP1 REVERT JUMPDEST POP DUP1 PUSH1 0x7 SLOAD AND CALLER EQ PUSH2 0x32B JUMP JUMPDEST POP POP CALLVALUE PUSH2 0x226 JUMPI DUP2 PUSH1 0x3 NOT CALLDATASIZE ADD SLT PUSH2 0x226 JUMPI PUSH1 0x9 SLOAD SWAP1 MLOAD PUSH1 0x1 PUSH1 0x1 PUSH1 0xA0 SHL SUB SWAP1 SWAP2 AND DUP2 MSTORE PUSH1 0x20 SWAP1 RETURN JUMPDEST POP SWAP1 CALLVALUE PUSH2 0x1EA JUMPI PUSH1 0x20 SWAP2 DUP3 PUSH1 0x3 NOT CALLDATASIZE ADD SLT PUSH2 0x8C0 JUMPI CALLDATALOAD PUSH1 0x0 DUP2 DUP2 MSTORE PUSH1 0x2 PUSH1 0x20 MSTORE PUSH1 0x40 SWAP1 KECCAK256 SLOAD PUSH2 0x7EF SWAP1 PUSH1 0x1 PUSH1 0x1 PUSH1 0xA0 SHL SUB AND ISZERO ISZERO PUSH2 0x1197 JUMP JUMPDEST PUSH2 0x1197 JUMP JUMPDEST DUP4 MSTORE PUSH1 0x6 DUP3 MSTORE DUP1 DUP4 KECCAK256 SWAP3 DUP2 MLOAD DUP1 SWAP5 DUP3 SWAP1 DUP1 SLOAD PUSH2 0x80A DUP2 PUSH2 0x1209 JUMP JUMPDEST SWAP2 DUP3 DUP6 MSTORE PUSH1 0x1 SWAP2 DUP9 DUP4 DUP3 AND SWAP2 DUP3 PUSH1 0x0 EQ PUSH2 0x899 JUMPI POP POP PUSH1 0x1 EQ PUSH2 0x85B JUMPI JUMPDEST POP POP POP PUSH2 0x857 SWAP4 SWAP3 SWAP2 PUSH2 0x83C SWAP2 SUB DUP7 PUSH2 0x10CA JUMP JUMPDEST DUP2 MLOAD PUSH2 0x847 DUP2 PUSH2 0x1098 JUMP JUMPDEST MSTORE MLOAD SWAP3 DUP3 DUP5 SWAP4 DUP5 MSTORE DUP4 ADD SWAP1 PUSH2 0xFF3 JUMP JUMPDEST SUB SWAP1 RETURN JUMPDEST DUP6 MSTORE DUP7 DUP6 KECCAK256 DUP8 SWAP4 POP DUP6 SWAP3 SWAP2 SWAP1 JUMPDEST DUP3 DUP5 LT PUSH2 0x881 JUMPI POP POP POP DUP3 ADD ADD DUP2 PUSH2 0x83C PUSH2 0x857 PUSH2 0x828 JUMP JUMPDEST DUP1 SLOAD DUP5 DUP12 ADD DUP7 ADD MSTORE DUP10 SWAP6 POP DUP9 SWAP5 SWAP1 SWAP4 ADD SWAP3 DUP2 ADD PUSH2 0x868 JUMP JUMPDEST PUSH1 0xFF NOT AND DUP8 DUP3 ADD MSTORE SWAP4 ISZERO ISZERO PUSH1 0x5 SHL DUP7 ADD SWAP1 SWAP4 ADD SWAP4 POP DUP5 SWAP3 POP PUSH2 0x83C SWAP2 POP PUSH2 0x857 SWAP1 POP PUSH2 0x828 JUMP JUMPDEST DUP4 DUP1 REVERT JUMPDEST DUP4 DUP3 CALLVALUE PUSH2 0x226 JUMPI PUSH1 0x80 CALLDATASIZE PUSH1 0x3 NOT ADD SLT PUSH2 0x226 JUMPI PUSH2 0x8DF PUSH2 0x1033 JUMP JUMPDEST POP PUSH2 0x8E8 PUSH2 0x104E JUMP JUMPDEST POP PUSH1 0x64 CALLDATALOAD PUSH8 0xFFFFFFFFFFFFFFFF DUP2 GT PUSH2 0x1EA JUMPI CALLDATASIZE PUSH1 0x23 DUP3 ADD SLT ISZERO PUSH2 0x1EA JUMPI PUSH2 0x919 SWAP3 POP PUSH1 0x24 DUP2 CALLDATASIZE SWAP4 ADD CALLDATALOAD SWAP2 ADD PUSH2 0x1108 JUMP JUMPDEST POP PUSH2 0x1441 JUMP JUMPDEST POP SWAP2 CALLVALUE PUSH2 0x2BD JUMPI PUSH1 0x20 CALLDATASIZE PUSH1 0x3 NOT ADD SLT PUSH2 0x2BD JUMPI POP PUSH2 0x95D PUSH2 0x958 PUSH1 0x20 SWAP4 CALLDATALOAD PUSH1 0x0 MSTORE PUSH1 0x2 PUSH1 0x20 MSTORE PUSH1 0x1 DUP1 PUSH1 0xA0 SHL SUB PUSH1 0x40 PUSH1 0x0 KECCAK256 SLOAD AND ISZERO ISZERO SWAP1 JUMP JUMPDEST PUSH2 0x13FE JUMP JUMPDEST MLOAD PUSH1 0x1 DUP2 MSTORE RETURN JUMPDEST POP SWAP1 CALLVALUE PUSH2 0x1EA JUMPI DUP1 PUSH1 0x3 NOT CALLDATASIZE ADD SLT PUSH2 0x1EA JUMPI PUSH2 0x97E PUSH2 0x1033 JUMP JUMPDEST SWAP1 PUSH1 0x24 CALLDATALOAD SWAP2 DUP3 ISZERO ISZERO DUP1 SWAP4 SUB PUSH2 0xA2F JUMPI PUSH1 0x1 PUSH1 0x1 PUSH1 0xA0 SHL SUB AND SWAP3 CALLER DUP5 EQ PUSH2 0x9ED JUMPI POP CALLER DUP5 MSTORE PUSH1 0x5 PUSH1 0x20 MSTORE DUP1 DUP5 KECCAK256 DUP4 DUP6 MSTORE PUSH1 0x20 MSTORE DUP1 DUP5 KECCAK256 PUSH1 0xFF NOT DUP2 SLOAD AND PUSH1 0xFF DUP5 AND OR SWAP1 SSTORE MLOAD SWAP1 DUP2 MSTORE PUSH32 0x17307EAB39AB6107E8899845AD3D59BD9653F200F220920489CA2B5937696C31 PUSH1 0x20 CALLER SWAP3 LOG3 DUP1 RETURN JUMPDEST PUSH1 0x20 PUSH1 0x64 SWAP3 MLOAD SWAP2 PUSH3 0x461BCD PUSH1 0xE5 SHL DUP4 MSTORE DUP3 ADD MSTORE PUSH1 0x19 PUSH1 0x24 DUP3 ADD MSTORE PUSH32 0x4552433732313A20617070726F766520746F2063616C6C657200000000000000 PUSH1 0x44 DUP3 ADD MSTORE REVERT JUMPDEST DUP5 DUP1 REVERT JUMPDEST POP CALLVALUE PUSH2 0x1EA JUMPI PUSH1 0x20 CALLDATASIZE PUSH1 0x3 NOT ADD SLT PUSH2 0x1EA JUMPI PUSH1 0x20 SWAP3 DUP3 SWAP2 CALLDATALOAD PUSH2 0xA6D PUSH2 0x958 DUP3 PUSH1 0x0 MSTORE PUSH1 0x2 PUSH1 0x20 MSTORE PUSH1 0x1 DUP1 PUSH1 0xA0 SHL SUB PUSH1 0x40 PUSH1 0x0 KECCAK256 SLOAD AND ISZERO ISZERO SWAP1 JUMP JUMPDEST DUP2 MSTORE PUSH1 0xB DUP5 MSTORE KECCAK256 SLOAD SWAP1 MLOAD SWAP1 DUP2 MSTORE RETURN JUMPDEST POP POP CALLVALUE PUSH2 0x226 JUMPI DUP2 PUSH1 0x3 NOT CALLDATASIZE ADD SLT PUSH2 0x226 JUMPI DUP1 MLOAD SWAP1 DUP3 PUSH1 0x1 DUP1 SLOAD SWAP2 PUSH2 0xAA0 DUP4 PUSH2 0x1209 JUMP JUMPDEST DUP1 DUP7 MSTORE SWAP3 DUP3 DUP2 AND SWAP1 DUP2 ISZERO PUSH2 0xB37 JUMPI POP PUSH1 0x1 EQ PUSH2 0xADB JUMPI JUMPDEST POP POP POP PUSH2 0xAC9 DUP3 PUSH2 0x857 SWAP5 SUB DUP4 PUSH2 0x10CA JUMP JUMPDEST MLOAD SWAP2 DUP3 SWAP2 PUSH1 0x20 DUP4 MSTORE PUSH1 0x20 DUP4 ADD SWAP1 PUSH2 0xFF3 JUMP JUMPDEST SWAP5 POP DUP1 DUP6 MSTORE PUSH32 0xB10E2D527612073B26EECDFD717E6A320CF44B4AFAC2B0732D9FCBE2B7FA0CF6 JUMPDEST DUP3 DUP7 LT PUSH2 0xB1F JUMPI POP POP POP PUSH2 0xAC9 DUP3 PUSH1 0x20 PUSH2 0x857 SWAP6 DUP3 ADD ADD SWAP5 PUSH2 0xAB7 JUMP JUMPDEST DUP1 SLOAD PUSH1 0x20 DUP8 DUP8 ADD DUP2 ADD SWAP2 SWAP1 SWAP2 MSTORE SWAP1 SWAP6 ADD SWAP5 DUP2 ADD PUSH2 0xB02 JUMP JUMPDEST PUSH2 0x857 SWAP8 POP DUP7 SWAP4 POP PUSH1 0x20 SWAP3 POP PUSH2 0xAC9 SWAP5 SWAP2 POP PUSH1 0xFF NOT AND DUP3 DUP5 ADD MSTORE ISZERO ISZERO PUSH1 0x5 SHL DUP3 ADD ADD SWAP5 PUSH2 0xAB7 JUMP JUMPDEST POP POP CALLVALUE PUSH2 0x226 JUMPI DUP2 PUSH1 0x3 NOT CALLDATASIZE ADD SLT PUSH2 0x226 JUMPI PUSH1 0x7 SLOAD SWAP1 MLOAD PUSH1 0x1 PUSH1 0x1 PUSH1 0xA0 SHL SUB SWAP1 SWAP2 AND DUP2 MSTORE PUSH1 0x20 SWAP1 RETURN JUMPDEST DUP4 CALLVALUE PUSH2 0x2BD JUMPI DUP1 PUSH1 0x3 NOT CALLDATASIZE ADD SLT PUSH2 0x2BD JUMPI PUSH2 0xBA1 PUSH2 0x113F JUMP JUMPDEST PUSH1 0x7 DUP1 SLOAD PUSH1 0x1 PUSH1 0x1 PUSH1 0xA0 SHL SUB NOT DUP2 AND SWAP1 SWAP2 SSTORE DUP2 SWAP1 PUSH1 0x1 PUSH1 0x1 PUSH1 0xA0 SHL SUB AND PUSH32 0x8BE0079C531659141344CD1FD0A4F28419497F9722A3DAAFE3B4186F6B6457E0 DUP3 DUP1 LOG3 DUP1 RETURN JUMPDEST POP DUP3 SWAP1 CALLVALUE PUSH2 0x226 JUMPI PUSH1 0x20 CALLDATASIZE PUSH1 0x3 NOT ADD SLT PUSH2 0x226 JUMPI PUSH1 0x1 PUSH1 0x1 PUSH1 0xA0 SHL SUB PUSH2 0xC09 PUSH2 0x1033 JUMP JUMPDEST AND SWAP1 DUP2 ISZERO PUSH2 0xC26 JUMPI PUSH1 0x20 DUP5 DUP1 DUP6 DUP6 DUP2 MSTORE PUSH1 0x3 DUP5 MSTORE KECCAK256 SLOAD SWAP1 MLOAD SWAP1 DUP2 MSTORE RETURN JUMPDEST PUSH1 0x84 SWAP1 PUSH1 0x20 DUP6 MLOAD SWAP2 PUSH3 0x461BCD PUSH1 0xE5 SHL DUP4 MSTORE DUP3 ADD MSTORE PUSH1 0x29 PUSH1 0x24 DUP3 ADD MSTORE PUSH32 0x4552433732313A2061646472657373207A65726F206973206E6F742061207661 PUSH1 0x44 DUP3 ADD MSTORE PUSH9 0x3634B21037BBB732B9 PUSH1 0xB9 SHL PUSH1 0x64 DUP3 ADD MSTORE REVERT JUMPDEST POP SWAP2 CALLVALUE PUSH2 0x2BD JUMPI PUSH1 0x20 CALLDATASIZE PUSH1 0x3 NOT ADD SLT PUSH2 0x2BD JUMPI POP PUSH2 0xC9B PUSH1 0x20 SWAP3 CALLDATALOAD PUSH2 0x11E3 JUMP JUMPDEST SWAP1 MLOAD PUSH1 0x1 PUSH1 0x1 PUSH1 0xA0 SHL SUB SWAP1 SWAP2 AND DUP2 MSTORE RETURN JUMPDEST PUSH2 0x1064 JUMP JUMPDEST POP POP CALLVALUE PUSH2 0x226 JUMPI PUSH1 0x20 CALLDATASIZE PUSH1 0x3 NOT ADD SLT PUSH2 0x226 JUMPI PUSH1 0x20 SWAP2 DUP2 SWAP1 PUSH1 0x1 PUSH1 0x1 PUSH1 0xA0 SHL SUB PUSH2 0xCD9 PUSH2 0x1033 JUMP JUMPDEST AND DUP2 MSTORE PUSH1 0xA DUP5 MSTORE KECCAK256 SLOAD ISZERO ISZERO SWAP1 MLOAD SWAP1 DUP2 MSTORE RETURN JUMPDEST POP CALLVALUE PUSH2 0x1EA JUMPI DUP2 PUSH1 0x3 NOT CALLDATASIZE ADD SLT PUSH2 0x1EA JUMPI PUSH2 0xD04 PUSH2 0x1033 JUMP JUMPDEST PUSH1 0x24 CALLDATALOAD SWAP3 SWAP1 SWAP2 PUSH1 0x1 PUSH1 0x1 PUSH1 0xA0 SHL SUB SWAP2 SWAP1 DUP3 DUP1 PUSH2 0xD1F DUP8 PUSH2 0x11E3 JUMP JUMPDEST AND SWAP5 AND SWAP4 DUP1 DUP6 EQ PUSH2 0xE0B JUMPI DUP1 CALLER EQ SWAP1 DUP2 ISZERO PUSH2 0xDEC JUMPI JUMPDEST POP ISZERO PUSH2 0xD84 JUMPI DUP5 DUP7 MSTORE PUSH1 0x20 MSTORE DUP5 KECCAK256 DUP1 SLOAD PUSH1 0x1 PUSH1 0x1 PUSH1 0xA0 SHL SUB NOT AND DUP4 OR SWAP1 SSTORE PUSH2 0xD5C DUP4 PUSH2 0x11E3 JUMP JUMPDEST AND PUSH32 0x8C5BE1E5EBEC7D5BD14F71427D1E84F3DD0314C0F7B2291E5B200AC8C7C3B925 DUP5 DUP1 LOG4 DUP1 RETURN JUMPDEST PUSH1 0x20 PUSH1 0x84 SWAP3 MLOAD SWAP2 PUSH3 0x461BCD PUSH1 0xE5 SHL DUP4 MSTORE DUP3 ADD MSTORE PUSH1 0x3D PUSH1 0x24 DUP3 ADD MSTORE PUSH32 0x4552433732313A20617070726F76652063616C6C6572206973206E6F7420746F PUSH1 0x44 DUP3 ADD MSTORE PUSH32 0x6B656E206F776E6572206F7220617070726F76656420666F7220616C6C000000 PUSH1 0x64 DUP3 ADD MSTORE REVERT JUMPDEST SWAP1 POP DUP7 MSTORE PUSH1 0x5 PUSH1 0x20 MSTORE DUP2 DUP7 KECCAK256 CALLER DUP8 MSTORE PUSH1 0x20 MSTORE PUSH1 0xFF DUP3 DUP8 KECCAK256 SLOAD AND CODESIZE PUSH2 0xD35 JUMP JUMPDEST POP PUSH1 0x20 PUSH1 0x84 SWAP3 MLOAD SWAP2 PUSH3 0x461BCD PUSH1 0xE5 SHL DUP4 MSTORE DUP3 ADD MSTORE PUSH1 0x21 PUSH1 0x24 DUP3 ADD MSTORE PUSH32 0x4552433732313A20617070726F76616C20746F2063757272656E74206F776E65 PUSH1 0x44 DUP3 ADD MSTORE PUSH1 0x39 PUSH1 0xF9 SHL PUSH1 0x64 DUP3 ADD MSTORE REVERT JUMPDEST POP CALLVALUE PUSH2 0x1EA JUMPI PUSH1 0x20 CALLDATASIZE PUSH1 0x3 NOT ADD SLT PUSH2 0x1EA JUMPI SWAP2 DUP3 PUSH1 0x20 SWAP4 CALLDATALOAD PUSH2 0xE92 PUSH2 0x7EA DUP3 PUSH1 0x0 MSTORE PUSH1 0x2 PUSH1 0x20 MSTORE PUSH1 0x1 DUP1 PUSH1 0xA0 SHL SUB PUSH1 0x40 PUSH1 0x0 KECCAK256 SLOAD AND ISZERO ISZERO SWAP1 JUMP JUMPDEST DUP3 MSTORE DUP4 MSTORE DUP2 SWAP1 KECCAK256 SLOAD SWAP1 MLOAD PUSH1 0x1 PUSH1 0x1 PUSH1 0xA0 SHL SUB SWAP1 SWAP2 AND DUP2 MSTORE RETURN JUMPDEST POP POP CALLVALUE PUSH2 0x226 JUMPI DUP2 PUSH1 0x3 NOT CALLDATASIZE ADD SLT PUSH2 0x226 JUMPI DUP1 MLOAD SWAP1 DUP3 DUP1 SLOAD PUSH2 0xECC DUP2 PUSH2 0x1209 JUMP JUMPDEST DUP1 DUP6 MSTORE SWAP2 PUSH1 0x1 SWAP2 DUP1 DUP4 AND SWAP1 DUP2 ISZERO PUSH2 0xB37 JUMPI POP PUSH1 0x1 EQ PUSH2 0xEF7 JUMPI POP POP POP PUSH2 0xAC9 DUP3 PUSH2 0x857 SWAP5 SUB DUP4 PUSH2 0x10CA JUMP JUMPDEST DUP1 DUP1 SWAP7 POP MSTORE PUSH32 0x290DECD9548B62A8D60345A988386FC84BA6BC95484008F6362F93160EF3E563 JUMPDEST DUP3 DUP7 LT PUSH2 0xF3B JUMPI POP POP POP PUSH2 0xAC9 DUP3 PUSH1 0x20 PUSH2 0x857 SWAP6 DUP3 ADD ADD SWAP5 PUSH2 0xAB7 JUMP JUMPDEST DUP1 SLOAD PUSH1 0x20 DUP8 DUP8 ADD DUP2 ADD SWAP2 SWAP1 SWAP2 MSTORE SWAP1 SWAP6 ADD SWAP5 DUP2 ADD PUSH2 0xF1E JUMP JUMPDEST SWAP3 POP POP CALLVALUE PUSH2 0x1EA JUMPI PUSH1 0x20 CALLDATASIZE PUSH1 0x3 NOT ADD SLT PUSH2 0x1EA JUMPI CALLDATALOAD PUSH4 0xFFFFFFFF PUSH1 0xE0 SHL DUP2 AND DUP1 SWAP2 SUB PUSH2 0x1EA JUMPI PUSH1 0x20 SWAP3 POP PUSH4 0x5A2D1E07 PUSH1 0xE1 SHL DUP2 EQ SWAP1 DUP2 ISZERO PUSH2 0xF96 JUMPI JUMPDEST POP ISZERO ISZERO DUP2 MSTORE RETURN JUMPDEST PUSH4 0x24832483 PUSH1 0xE1 SHL DUP2 EQ SWAP2 POP DUP2 ISZERO PUSH2 0xFB0 JUMPI JUMPDEST POP CODESIZE PUSH2 0xF8F JUMP JUMPDEST PUSH4 0x80AC58CD PUSH1 0xE0 SHL DUP2 EQ SWAP2 POP DUP2 ISZERO PUSH2 0xFE2 JUMPI JUMPDEST DUP2 ISZERO PUSH2 0xFD1 JUMPI JUMPDEST POP CODESIZE PUSH2 0xFA9 JUMP JUMPDEST PUSH4 0x1FFC9A7 PUSH1 0xE0 SHL EQ SWAP1 POP CODESIZE PUSH2 0xFCA JUMP JUMPDEST PUSH4 0x5B5E139F PUSH1 0xE0 SHL DUP2 EQ SWAP2 POP PUSH2 0xFC3 JUMP JUMPDEST SWAP2 SWAP1 DUP3 MLOAD SWAP3 DUP4 DUP3 MSTORE PUSH1 0x0 JUMPDEST DUP5 DUP2 LT PUSH2 0x101F JUMPI POP POP DUP3 PUSH1 0x0 PUSH1 0x20 DUP1 SWAP5 SWAP6 DUP5 ADD ADD MSTORE PUSH1 0x1F DUP1 NOT SWAP2 ADD AND ADD ADD SWAP1 JUMP JUMPDEST PUSH1 0x20 DUP2 DUP4 ADD DUP2 ADD MLOAD DUP5 DUP4 ADD DUP3 ADD MSTORE ADD PUSH2 0xFFE JUMP JUMPDEST PUSH1 0x4 CALLDATALOAD SWAP1 PUSH1 0x1 PUSH1 0x1 PUSH1 0xA0 SHL SUB DUP3 AND DUP3 SUB PUSH2 0x1049 JUMPI JUMP JUMPDEST PUSH1 0x0 DUP1 REVERT JUMPDEST PUSH1 0x24 CALLDATALOAD SWAP1 PUSH1 0x1 PUSH1 0x1 PUSH1 0xA0 SHL SUB DUP3 AND DUP3 SUB PUSH2 0x1049 JUMPI JUMP JUMPDEST CALLVALUE PUSH2 0x1049 JUMPI PUSH1 0x60 CALLDATASIZE PUSH1 0x3 NOT ADD SLT PUSH2 0x1049 JUMPI PUSH1 0x1 PUSH1 0x1 PUSH1 0xA0 SHL SUB PUSH1 0x4 CALLDATALOAD DUP2 DUP2 AND SUB PUSH2 0x1049 JUMPI PUSH1 0x24 CALLDATALOAD SWAP1 DUP2 AND EQ PUSH2 0x1441 JUMPI PUSH1 0x0 DUP1 REVERT JUMPDEST PUSH1 0x20 DUP2 ADD SWAP1 DUP2 LT PUSH8 0xFFFFFFFFFFFFFFFF DUP3 GT OR PUSH2 0x10B4 JUMPI PUSH1 0x40 MSTORE JUMP JUMPDEST PUSH4 0x4E487B71 PUSH1 0xE0 SHL PUSH1 0x0 MSTORE PUSH1 0x41 PUSH1 0x4 MSTORE PUSH1 0x24 PUSH1 0x0 REVERT JUMPDEST SWAP1 PUSH1 0x1F DUP1 NOT SWAP2 ADD AND DUP2 ADD SWAP1 DUP2 LT PUSH8 0xFFFFFFFFFFFFFFFF DUP3 GT OR PUSH2 0x10B4 JUMPI PUSH1 0x40 MSTORE JUMP JUMPDEST PUSH8 0xFFFFFFFFFFFFFFFF DUP2 GT PUSH2 0x10B4 JUMPI PUSH1 0x1F ADD PUSH1 0x1F NOT AND PUSH1 0x20 ADD SWAP1 JUMP JUMPDEST SWAP3 SWAP2 SWAP3 PUSH2 0x1114 DUP3 PUSH2 0x10EC JUMP JUMPDEST SWAP2 PUSH2 0x1122 PUSH1 0x40 MLOAD SWAP4 DUP5 PUSH2 0x10CA JUMP JUMPDEST DUP3 SWAP5 DUP2 DUP5 MSTORE DUP2 DUP4 ADD GT PUSH2 0x1049 JUMPI DUP3 DUP2 PUSH1 0x20 SWAP4 DUP5 PUSH1 0x0 SWAP7 ADD CALLDATACOPY ADD ADD MSTORE JUMP JUMPDEST PUSH1 0x7 SLOAD PUSH1 0x1 PUSH1 0x1 PUSH1 0xA0 SHL SUB AND CALLER SUB PUSH2 0x1153 JUMPI JUMP JUMPDEST PUSH1 0x64 PUSH1 0x40 MLOAD PUSH3 0x461BCD PUSH1 0xE5 SHL DUP2 MSTORE PUSH1 0x20 PUSH1 0x4 DUP3 ADD MSTORE PUSH1 0x20 PUSH1 0x24 DUP3 ADD MSTORE PUSH32 0x4F776E61626C653A2063616C6C6572206973206E6F7420746865206F776E6572 PUSH1 0x44 DUP3 ADD MSTORE REVERT JUMPDEST ISZERO PUSH2 0x119E JUMPI JUMP JUMPDEST PUSH1 0x40 MLOAD PUSH3 0x461BCD PUSH1 0xE5 SHL DUP2 MSTORE PUSH1 0x20 PUSH1 0x4 DUP3 ADD MSTORE PUSH1 0x18 PUSH1 0x24 DUP3 ADD MSTORE PUSH32 0x4552433732313A20696E76616C696420746F6B656E2049440000000000000000 PUSH1 0x44 DUP3 ADD MSTORE PUSH1 0x64 SWAP1 REVERT JUMPDEST PUSH1 0x0 SWAP1 DUP2 MSTORE PUSH1 0x2 PUSH1 0x20 MSTORE PUSH1 0x40 SWAP1 KECCAK256 SLOAD PUSH1 0x1 PUSH1 0x1 PUSH1 0xA0 SHL SUB AND PUSH2 0x1206 DUP2 ISZERO ISZERO PUSH2 0x1197 JUMP JUMPDEST SWAP1 JUMP JUMPDEST SWAP1 PUSH1 0x1 DUP3 DUP2 SHR SWAP3 AND DUP1 ISZERO PUSH2 0x1239 JUMPI JUMPDEST PUSH1 0x20 DUP4 LT EQ PUSH2 0x1223 JUMPI JUMP JUMPDEST PUSH4 0x4E487B71 PUSH1 0xE0 SHL PUSH1 0x0 MSTORE PUSH1 0x22 PUSH1 0x4 MSTORE PUSH1 0x24 PUSH1 0x0 REVERT JUMPDEST SWAP2 PUSH1 0x7F AND SWAP2 PUSH2 0x1218 JUMP JUMPDEST PUSH1 0x80 SWAP1 PUSH1 0x20 DUP2 MSTORE PUSH1 0x32 PUSH1 0x20 DUP3 ADD MSTORE PUSH32 0x4552433732313A207472616E7366657220746F206E6F6E204552433732315265 PUSH1 0x40 DUP3 ADD MSTORE PUSH18 0x31B2B4BB32B91034B6B83632B6B2B73A32B9 PUSH1 0x71 SHL PUSH1 0x60 DUP3 ADD MSTORE ADD SWAP1 JUMP JUMPDEST ISZERO PUSH2 0x129D JUMPI JUMP JUMPDEST PUSH1 0x40 MLOAD PUSH3 0x461BCD PUSH1 0xE5 SHL DUP2 MSTORE PUSH1 0x20 PUSH1 0x4 DUP3 ADD MSTORE PUSH1 0x1C PUSH1 0x24 DUP3 ADD MSTORE PUSH32 0x4552433732313A20746F6B656E20616C7265616479206D696E74656400000000 PUSH1 0x44 DUP3 ADD MSTORE PUSH1 0x64 SWAP1 REVERT JUMPDEST SWAP2 SWAP3 PUSH1 0x0 SWAP3 SWAP1 SWAP2 SWAP1 DUP1 EXTCODESIZE ISZERO PUSH2 0x13F4 JUMPI PUSH2 0x1330 SWAP5 PUSH1 0x40 MLOAD DUP1 SWAP3 PUSH4 0xA85BD01 PUSH1 0xE1 SHL SWAP5 DUP6 DUP4 MSTORE CALLER PUSH1 0x4 DUP5 ADD MSTORE DUP8 PUSH1 0x24 DUP5 ADD MSTORE PUSH1 0x44 DUP4 ADD MSTORE PUSH1 0x80 PUSH1 0x64 DUP4 ADD MSTORE DUP2 DUP8 DUP2 PUSH1 0x20 SWAP11 DUP12 SWAP7 PUSH1 0x84 DUP4 ADD SWAP1 PUSH2 0xFF3 JUMP JUMPDEST SUB SWAP3 PUSH1 0x1 PUSH1 0x1 PUSH1 0xA0 SHL SUB AND GAS CALL DUP5 SWAP2 DUP2 PUSH2 0x13B4 JUMPI JUMPDEST POP PUSH2 0x13A3 JUMPI POP POP POP RETURNDATASIZE PUSH1 0x0 EQ PUSH2 0x139B JUMPI RETURNDATASIZE PUSH2 0x135F DUP2 PUSH2 0x10EC JUMP JUMPDEST SWAP1 PUSH2 0x136D PUSH1 0x40 MLOAD SWAP3 DUP4 PUSH2 0x10CA JUMP JUMPDEST DUP2 MSTORE DUP1 SWAP2 DUP4 RETURNDATASIZE SWAP3 ADD RETURNDATACOPY JUMPDEST DUP1 MLOAD SWAP2 DUP3 PUSH2 0x1398 JUMPI PUSH1 0x40 MLOAD PUSH3 0x461BCD PUSH1 0xE5 SHL DUP2 MSTORE DUP1 PUSH2 0x696 PUSH1 0x4 DUP3 ADD PUSH2 0x1243 JUMP JUMPDEST ADD REVERT JUMPDEST POP PUSH1 0x60 PUSH2 0x1377 JUMP JUMPDEST PUSH1 0x1 PUSH1 0x1 PUSH1 0xE0 SHL SUB NOT AND EQ SWAP3 POP SWAP1 POP JUMP JUMPDEST SWAP1 SWAP2 POP DUP6 DUP2 DUP2 RETURNDATASIZE DUP4 GT PUSH2 0x13ED JUMPI JUMPDEST PUSH2 0x13CC DUP2 DUP4 PUSH2 0x10CA JUMP JUMPDEST DUP2 ADD SUB SLT PUSH2 0xA2F JUMPI MLOAD PUSH1 0x1 PUSH1 0x1 PUSH1 0xE0 SHL SUB NOT DUP2 AND DUP2 SUB PUSH2 0xA2F JUMPI SWAP1 CODESIZE PUSH2 0x1345 JUMP JUMPDEST POP RETURNDATASIZE PUSH2 0x13C2 JUMP JUMPDEST POP POP SWAP2 POP POP PUSH1 0x1 SWAP1 JUMP JUMPDEST ISZERO PUSH2 0x1405 JUMPI JUMP JUMPDEST PUSH1 0x40 MLOAD PUSH3 0x461BCD PUSH1 0xE5 SHL DUP2 MSTORE PUSH1 0x20 PUSH1 0x4 DUP3 ADD MSTORE PUSH1 0x14 PUSH1 0x24 DUP3 ADD MSTORE PUSH20 0x151BDAD95B88191BD95CC81B9BDD08195E1A5CDD PUSH1 0x62 SHL PUSH1 0x44 DUP3 ADD MSTORE PUSH1 0x64 SWAP1 REVERT JUMPDEST PUSH1 0x64 PUSH1 0x40 MLOAD PUSH3 0x461BCD PUSH1 0xE5 SHL DUP2 MSTORE PUSH1 0x20 PUSH1 0x4 DUP3 ADD MSTORE PUSH1 0x20 PUSH1 0x24 DUP3 ADD MSTORE PUSH32 0x5342543A20546F6B656E2063616E6E6F74206265207472616E73666572726564 PUSH1 0x44 DUP3 ADD MSTORE REVERT INVALID LOG2 PUSH5 0x6970667358 0x22 SLT KECCAK256 DUP12 SWAP13 0xA9 0xCA 0xC2 PUSH9 0xC54EF10D8D0F93BAC4 PUSH5 0x3A84C00B61 SSTORE 0xF 0x5C MSTORE8 SWAP12 TIMESTAMP PUSH24 0xC67F9A1F64736F6C63430008130033000000000000000000 "},"methodIdentifiers":{"approve(address,uint256)":"095ea7b3","balanceOf(address)":"70a08231","getApproved(uint256)":"081812fc","getKYCHash(uint256)":"9f87dd57","getTokenId(address)":"f1537686","hasVerificationToken(address)":"259342d8","isApprovedForAll(address,address)":"e985e9c5","kycVerifierAddress()":"c9fb5f23","locked(uint256)":"b45a3c0e","mintVerificationToken(address,bytes32,string)":"cd6f04dd","name()":"06fdde03","owner()":"8da5cb5b","ownerOf(uint256)":"6352211e","renounceOwnership()":"715018a6","safeTransferFrom(address,address,uint256)":"42842e0e","safeTransferFrom(address,address,uint256,bytes)":"b88d4fde","setApprovalForAll(address,bool)":"a22cb465","setKYCVerifierAddress(address)":"db13455b","supportsInterface(bytes4)":"01ffc9a7","symbol()":"95d89b41","tokenURI(uint256)":"c87b56dd","transferFrom(address,address,uint256)":"23b872dd","transferOwnership(address)":"f2fde38b"}}}}}