{"contracts/PropertyPriceOracle.sol":{"PropertyPriceOracle":{"abi":[{"inputs":[],"stateMutability":"nonpayable","type":"constructor"},{"anonymous":false,"inputs":[{"indexed":true,"internalType":"address","name":"previousOwner","type":"address"},{"indexed":true,"internalType":"address","name":"newOwner","type":"address"}],"name":"OwnershipTransferred","type":"event"},{"anonymous":false,"inputs":[{"indexed":true,"internalType":"bytes32","name":"locationHash","type":"bytes32"},{"indexed":false,"internalType":"string","name":"location","type":"string"},{"indexed":false,"internalType":"uint256","name":"price","type":"uint256"}],"name":"PriceUpdated","type":"event"},{"inputs":[{"internalType":"string","name":"location","type":"string"}],"name":"getPropertyPrice","outputs":[{"internalType":"uint256","name":"","type":"uint256"}],"stateMutability":"view","type":"function"},{"inputs":[],"name":"owner","outputs":[{"internalType":"address","name":"","type":"address"}],"stateMutability":"view","type":"function"},{"inputs":[],"name":"renounceOwnership","outputs":[],"stateMutability":"nonpayable","type":"function"},{"inputs":[{"internalType":"string[]","name":"locations","type":"string[]"},{"internalType":"uint256[]","name":"prices","type":"uint256[]"}],"name":"setBatchPropertyPrices","outputs":[],"stateMutability":"nonpayable","type":"function"},{"inputs":[{"internalType":"string","name":"location","type":"string"},{"internalType":"uint256","name":"price","type":"uint256"}],"name":"setPropertyPrice","outputs":[],"stateMutability":"nonpayable","type":"function"},{"inputs":[{"internalType":"address","name":"newOwner","type":"address"}],"name":"transferOwnership","outputs":[],"stateMutability":"nonpayable","type":"function"}],"evm":{"bytecode":{"linkReferences":{},"object":"6080806040523461005b5760008054336001600160a01b0319821681178355916001600160a01b03909116907f8be0079c531659141344cd1fd0a4f28419497f9722a3daafe3b4186f6b6457e09080a361069890816100618239f35b600080fdfe60406080815260048036101561001457600080fd5b600091823560e01c8063369fea7a1461043d578063715018a6146103e35780638da5cb5b146103bb578063b4e0065c14610355578063ea87abba1461012e5763f2fde38b1461006257600080fd5b3461012a57602036600319011261012a576001600160a01b038235818116939192908490036101265761009361058a565b83156100d457505082546001600160a01b0319811683178455167f8be0079c531659141344cd1fd0a4f28419497f9722a3daafe3b4186f6b6457e08380a380f35b906020608492519162461bcd60e51b8352820152602660248201527f4f776e61626c653a206e6577206f776e657220697320746865207a65726f206160448201526564647265737360d01b6064820152fd5b8480fd5b8280fd5b50913461035257826003193601126103525767ffffffffffffffff91803583811161012a573660238201121561012a57808201359461016c86610572565b94610179825196876104de565b8686526020928387016024809960051b8301019136831161032457898101915b8383106103285750505050863590811161012657366023820112156101265780840135906101c682610572565b916101d3845193846104de565b808352888584019160051b830101913683116103245789869101915b838310610314575050505061020261058a565b85518151036102d257845b86518110156102ce576102208188610638565b51835161024986828161023c81830196878151938492016105e2565b81010380845201826104de565b5190206102568284610638565b5181885260018652848820557f5d4cfa8e83d61e06a2c292c83e7551f9080debe4161d4e5847c2f6dab80c471b61028d838a610638565b516102988486610638565b51906102a8875192839283610605565b0390a260001981146102bc5760010161020d565b634e487b7160e01b8652601185528786fd5b8580f35b815162461bcd60e51b8152808501849052601c818901527f417272617973206d75737420686176652073616d65206c656e677468000000006044820152606490fd5b82358152918101918691016101ef565b8780fd5b823585811161034e57879161034383928e3691870101610516565b815201920191610199565b8980fd5b80fd5b50823461035257602092836003193601126103b757803567ffffffffffffffff811161012a5783929161038a91369101610516565b82516103a586828161023c81830196878151938492016105e2565b51902081526001845220549051908152f35b5080fd5b8382346103b757816003193601126103b757905490516001600160a01b039091168152602090f35b83346103525780600319360112610352576103fc61058a565b80546001600160a01b03198116825581906001600160a01b03167f8be0079c531659141344cd1fd0a4f28419497f9722a3daafe3b4186f6b6457e08280a380f35b50903461012a578160031936011261012a57803567ffffffffffffffff81116104da577f5d4cfa8e83d61e06a2c292c83e7551f9080debe4161d4e5847c2f6dab80c471b9161048e91369101610516565b6024359061049a61058a565b6104d4845160208101906104b9602082865161023c8187858b016105e2565b51902094858752600160205283818820555192839283610605565b0390a280f35b8380fd5b90601f8019910116810190811067ffffffffffffffff82111761050057604052565b634e487b7160e01b600052604160045260246000fd5b81601f8201121561056d5780359067ffffffffffffffff8211610500576040519261054b601f8401601f1916602001856104de565b8284526020838301011161056d57816000926020809301838601378301015290565b600080fd5b67ffffffffffffffff81116105005760051b60200190565b6000546001600160a01b0316330361059e57565b606460405162461bcd60e51b815260206004820152602060248201527f4f776e61626c653a2063616c6c6572206973206e6f7420746865206f776e65726044820152fd5b60005b8381106105f55750506000910152565b81810151838201526020016105e5565b929190606060209160408652610629815180928160408a015285858a0191016105e2565b601f8019910116850101930152565b805182101561064c5760209160051b010190565b634e487b7160e01b600052603260045260246000fdfea264697066735822122099f1fde9ad25a837ae3dcc4f7506ef165c33bf44ddf6cc989b1b1b36e0c53e2a64736f6c63430008130033","opcodes":"PUSH1 0x80 DUP1 PUSH1 0x40 MSTORE CALLVALUE PUSH2 0x5B JUMPI PUSH1 0x0 DUP1 SLOAD CALLER PUSH1 0x1 PUSH1 0x1 PUSH1 0xA0 SHL SUB NOT DUP3 AND DUP2 OR DUP4 SSTORE SWAP2 PUSH1 0x1 PUSH1 0x1 PUSH1 0xA0 SHL SUB SWAP1 SWAP2 AND SWAP1 PUSH32 0x8BE0079C531659141344CD1FD0A4F28419497F9722A3DAAFE3B4186F6B6457E0 SWAP1 DUP1 LOG3 PUSH2 0x698 SWAP1 DUP2 PUSH2 0x61 DUP3 CODECOPY RETURN JUMPDEST PUSH1 0x0 DUP1 REVERT INVALID PUSH1 0x40 PUSH1 0x80 DUP2 MSTORE PUSH1 0x4 DUP1 CALLDATASIZE LT ISZERO PUSH2 0x14 JUMPI PUSH1 0x0 DUP1 REVERT JUMPDEST PUSH1 0x0 SWAP2 DUP3 CALLDATALOAD PUSH1 0xE0 SHR DUP1 PUSH4 0x369FEA7A EQ PUSH2 0x43D JUMPI DUP1 PUSH4 0x715018A6 EQ PUSH2 0x3E3 JUMPI DUP1 PUSH4 0x8DA5CB5B EQ PUSH2 0x3BB JUMPI DUP1 PUSH4 0xB4E0065C EQ PUSH2 0x355 JUMPI DUP1 PUSH4 0xEA87ABBA EQ PUSH2 0x12E JUMPI PUSH4 0xF2FDE38B EQ PUSH2 0x62 JUMPI PUSH1 0x0 DUP1 REVERT JUMPDEST CALLVALUE PUSH2 0x12A JUMPI PUSH1 0x20 CALLDATASIZE PUSH1 0x3 NOT ADD SLT PUSH2 0x12A JUMPI PUSH1 0x1 PUSH1 0x1 PUSH1 0xA0 SHL SUB DUP3 CALLDATALOAD DUP2 DUP2 AND SWAP4 SWAP2 SWAP3 SWAP1 DUP5 SWAP1 SUB PUSH2 0x126 JUMPI PUSH2 0x93 PUSH2 0x58A JUMP JUMPDEST DUP4 ISZERO PUSH2 0xD4 JUMPI POP POP DUP3 SLOAD PUSH1 0x1 PUSH1 0x1 PUSH1 0xA0 SHL SUB NOT DUP2 AND DUP4 OR DUP5 SSTORE AND PUSH32 0x8BE0079C531659141344CD1FD0A4F28419497F9722A3DAAFE3B4186F6B6457E0 DUP4 DUP1 LOG3 DUP1 RETURN JUMPDEST SWAP1 PUSH1 0x20 PUSH1 0x84 SWAP3 MLOAD SWAP2 PUSH3 0x461BCD PUSH1 0xE5 SHL DUP4 MSTORE DUP3 ADD MSTORE PUSH1 0x26 PUSH1 0x24 DUP3 ADD MSTORE PUSH32 0x4F776E61626C653A206E6577206F776E657220697320746865207A65726F2061 PUSH1 0x44 DUP3 ADD MSTORE PUSH6 0x646472657373 PUSH1 0xD0 SHL PUSH1 0x64 DUP3 ADD MSTORE REVERT JUMPDEST DUP5 DUP1 REVERT JUMPDEST DUP3 DUP1 REVERT JUMPDEST POP SWAP2 CALLVALUE PUSH2 0x352 JUMPI DUP3 PUSH1 0x3 NOT CALLDATASIZE ADD SLT PUSH2 0x352 JUMPI PUSH8 0xFFFFFFFFFFFFFFFF SWAP2 DUP1 CALLDATALOAD DUP4 DUP2 GT PUSH2 0x12A JUMPI CALLDATASIZE PUSH1 0x23 DUP3 ADD SLT ISZERO PUSH2 0x12A JUMPI DUP1 DUP3 ADD CALLDATALOAD SWAP5 PUSH2 0x16C DUP7 PUSH2 0x572 JUMP JUMPDEST SWAP5 PUSH2 0x179 DUP3 MLOAD SWAP7 DUP8 PUSH2 0x4DE JUMP JUMPDEST DUP7 DUP7 MSTORE PUSH1 0x20 SWAP3 DUP4 DUP8 ADD PUSH1 0x24 DUP1 SWAP10 PUSH1 0x5 SHL DUP4 ADD ADD SWAP2 CALLDATASIZE DUP4 GT PUSH2 0x324 JUMPI DUP10 DUP2 ADD SWAP2 JUMPDEST DUP4 DUP4 LT PUSH2 0x328 JUMPI POP POP POP POP DUP7 CALLDATALOAD SWAP1 DUP2 GT PUSH2 0x126 JUMPI CALLDATASIZE PUSH1 0x23 DUP3 ADD SLT ISZERO PUSH2 0x126 JUMPI DUP1 DUP5 ADD CALLDATALOAD SWAP1 PUSH2 0x1C6 DUP3 PUSH2 0x572 JUMP JUMPDEST SWAP2 PUSH2 0x1D3 DUP5 MLOAD SWAP4 DUP5 PUSH2 0x4DE JUMP JUMPDEST DUP1 DUP4 MSTORE DUP9 DUP6 DUP5 ADD SWAP2 PUSH1 0x5 SHL DUP4 ADD ADD SWAP2 CALLDATASIZE DUP4 GT PUSH2 0x324 JUMPI DUP10 DUP7 SWAP2 ADD SWAP2 JUMPDEST DUP4 DUP4 LT PUSH2 0x314 JUMPI POP POP POP POP PUSH2 0x202 PUSH2 0x58A JUMP JUMPDEST DUP6 MLOAD DUP2 MLOAD SUB PUSH2 0x2D2 JUMPI DUP5 JUMPDEST DUP7 MLOAD DUP2 LT ISZERO PUSH2 0x2CE JUMPI PUSH2 0x220 DUP2 DUP9 PUSH2 0x638 JUMP JUMPDEST MLOAD DUP4 MLOAD PUSH2 0x249 DUP7 DUP3 DUP2 PUSH2 0x23C DUP2 DUP4 ADD SWAP7 DUP8 DUP2 MLOAD SWAP4 DUP5 SWAP3 ADD PUSH2 0x5E2 JUMP JUMPDEST DUP2 ADD SUB DUP1 DUP5 MSTORE ADD DUP3 PUSH2 0x4DE JUMP JUMPDEST MLOAD SWAP1 KECCAK256 PUSH2 0x256 DUP3 DUP5 PUSH2 0x638 JUMP JUMPDEST MLOAD DUP2 DUP9 MSTORE PUSH1 0x1 DUP7 MSTORE DUP5 DUP9 KECCAK256 SSTORE PUSH32 0x5D4CFA8E83D61E06A2C292C83E7551F9080DEBE4161D4E5847C2F6DAB80C471B PUSH2 0x28D DUP4 DUP11 PUSH2 0x638 JUMP JUMPDEST MLOAD PUSH2 0x298 DUP5 DUP7 PUSH2 0x638 JUMP JUMPDEST MLOAD SWAP1 PUSH2 0x2A8 DUP8 MLOAD SWAP3 DUP4 SWAP3 DUP4 PUSH2 0x605 JUMP JUMPDEST SUB SWAP1 LOG2 PUSH1 0x0 NOT DUP2 EQ PUSH2 0x2BC JUMPI PUSH1 0x1 ADD PUSH2 0x20D JUMP JUMPDEST PUSH4 0x4E487B71 PUSH1 0xE0 SHL DUP7 MSTORE PUSH1 0x11 DUP6 MSTORE DUP8 DUP7 REVERT JUMPDEST DUP6 DUP1 RETURN JUMPDEST DUP2 MLOAD PUSH3 0x461BCD PUSH1 0xE5 SHL DUP2 MSTORE DUP1 DUP6 ADD DUP5 SWAP1 MSTORE PUSH1 0x1C DUP2 DUP10 ADD MSTORE PUSH32 0x417272617973206D75737420686176652073616D65206C656E67746800000000 PUSH1 0x44 DUP3 ADD MSTORE PUSH1 0x64 SWAP1 REVERT JUMPDEST DUP3 CALLDATALOAD DUP2 MSTORE SWAP2 DUP2 ADD SWAP2 DUP7 SWAP2 ADD PUSH2 0x1EF JUMP JUMPDEST DUP8 DUP1 REVERT JUMPDEST DUP3 CALLDATALOAD DUP6 DUP2 GT PUSH2 0x34E JUMPI DUP8 SWAP2 PUSH2 0x343 DUP4 SWAP3 DUP15 CALLDATASIZE SWAP2 DUP8 ADD ADD PUSH2 0x516 JUMP JUMPDEST DUP2 MSTORE ADD SWAP3 ADD SWAP2 PUSH2 0x199 JUMP JUMPDEST DUP10 DUP1 REVERT JUMPDEST DUP1 REVERT JUMPDEST POP DUP3 CALLVALUE PUSH2 0x352 JUMPI PUSH1 0x20 SWAP3 DUP4 PUSH1 0x3 NOT CALLDATASIZE ADD SLT PUSH2 0x3B7 JUMPI DUP1 CALLDATALOAD PUSH8 0xFFFFFFFFFFFFFFFF DUP2 GT PUSH2 0x12A JUMPI DUP4 SWAP3 SWAP2 PUSH2 0x38A SWAP2 CALLDATASIZE SWAP2 ADD PUSH2 0x516 JUMP JUMPDEST DUP3 MLOAD PUSH2 0x3A5 DUP7 DUP3 DUP2 PUSH2 0x23C DUP2 DUP4 ADD SWAP7 DUP8 DUP2 MLOAD SWAP4 DUP5 SWAP3 ADD PUSH2 0x5E2 JUMP JUMPDEST MLOAD SWAP1 KECCAK256 DUP2 MSTORE PUSH1 0x1 DUP5 MSTORE KECCAK256 SLOAD SWAP1 MLOAD SWAP1 DUP2 MSTORE RETURN JUMPDEST POP DUP1 REVERT JUMPDEST DUP4 DUP3 CALLVALUE PUSH2 0x3B7 JUMPI DUP2 PUSH1 0x3 NOT CALLDATASIZE ADD SLT PUSH2 0x3B7 JUMPI SWAP1 SLOAD SWAP1 MLOAD PUSH1 0x1 PUSH1 0x1 PUSH1 0xA0 SHL SUB SWAP1 SWAP2 AND DUP2 MSTORE PUSH1 0x20 SWAP1 RETURN JUMPDEST DUP4 CALLVALUE PUSH2 0x352 JUMPI DUP1 PUSH1 0x3 NOT CALLDATASIZE ADD SLT PUSH2 0x352 JUMPI PUSH2 0x3FC PUSH2 0x58A JUMP JUMPDEST DUP1 SLOAD PUSH1 0x1 PUSH1 0x1 PUSH1 0xA0 SHL SUB NOT DUP2 AND DUP3 SSTORE DUP2 SWAP1 PUSH1 0x1 PUSH1 0x1 PUSH1 0xA0 SHL SUB AND PUSH32 0x8BE0079C531659141344CD1FD0A4F28419497F9722A3DAAFE3B4186F6B6457E0 DUP3 DUP1 LOG3 DUP1 RETURN JUMPDEST POP SWAP1 CALLVALUE PUSH2 0x12A JUMPI DUP2 PUSH1 0x3 NOT CALLDATASIZE ADD SLT PUSH2 0x12A JUMPI DUP1 CALLDATALOAD PUSH8 0xFFFFFFFFFFFFFFFF DUP2 GT PUSH2 0x4DA JUMPI PUSH32 0x5D4CFA8E83D61E06A2C292C83E7551F9080DEBE4161D4E5847C2F6DAB80C471B SWAP2 PUSH2 0x48E SWAP2 CALLDATASIZE SWAP2 ADD PUSH2 0x516 JUMP JUMPDEST PUSH1 0x24 CALLDATALOAD SWAP1 PUSH2 0x49A PUSH2 0x58A JUMP JUMPDEST PUSH2 0x4D4 DUP5 MLOAD PUSH1 0x20 DUP2 ADD SWAP1 PUSH2 0x4B9 PUSH1 0x20 DUP3 DUP7 MLOAD PUSH2 0x23C DUP2 DUP8 DUP6 DUP12 ADD PUSH2 0x5E2 JUMP JUMPDEST MLOAD SWAP1 KECCAK256 SWAP5 DUP6 DUP8 MSTORE PUSH1 0x1 PUSH1 0x20 MSTORE DUP4 DUP2 DUP9 KECCAK256 SSTORE MLOAD SWAP3 DUP4 SWAP3 DUP4 PUSH2 0x605 JUMP JUMPDEST SUB SWAP1 LOG2 DUP1 RETURN JUMPDEST DUP4 DUP1 REVERT JUMPDEST SWAP1 PUSH1 0x1F DUP1 NOT SWAP2 ADD AND DUP2 ADD SWAP1 DUP2 LT PUSH8 0xFFFFFFFFFFFFFFFF DUP3 GT OR PUSH2 0x500 JUMPI PUSH1 0x40 MSTORE JUMP JUMPDEST PUSH4 0x4E487B71 PUSH1 0xE0 SHL PUSH1 0x0 MSTORE PUSH1 0x41 PUSH1 0x4 MSTORE PUSH1 0x24 PUSH1 0x0 REVERT JUMPDEST DUP2 PUSH1 0x1F DUP3 ADD SLT ISZERO PUSH2 0x56D JUMPI DUP1 CALLDATALOAD SWAP1 PUSH8 0xFFFFFFFFFFFFFFFF DUP3 GT PUSH2 0x500 JUMPI PUSH1 0x40 MLOAD SWAP3 PUSH2 0x54B PUSH1 0x1F DUP5 ADD PUSH1 0x1F NOT AND PUSH1 0x20 ADD DUP6 PUSH2 0x4DE JUMP JUMPDEST DUP3 DUP5 MSTORE PUSH1 0x20 DUP4 DUP4 ADD ADD GT PUSH2 0x56D JUMPI DUP2 PUSH1 0x0 SWAP3 PUSH1 0x20 DUP1 SWAP4 ADD DUP4 DUP7 ADD CALLDATACOPY DUP4 ADD ADD MSTORE SWAP1 JUMP JUMPDEST PUSH1 0x0 DUP1 REVERT JUMPDEST PUSH8 0xFFFFFFFFFFFFFFFF DUP2 GT PUSH2 0x500 JUMPI PUSH1 0x5 SHL PUSH1 0x20 ADD SWAP1 JUMP JUMPDEST PUSH1 0x0 SLOAD PUSH1 0x1 PUSH1 0x1 PUSH1 0xA0 SHL SUB AND CALLER SUB PUSH2 0x59E JUMPI JUMP JUMPDEST PUSH1 0x64 PUSH1 0x40 MLOAD PUSH3 0x461BCD PUSH1 0xE5 SHL DUP2 MSTORE PUSH1 0x20 PUSH1 0x4 DUP3 ADD MSTORE PUSH1 0x20 PUSH1 0x24 DUP3 ADD MSTORE PUSH32 0x4F776E61626C653A2063616C6C6572206973206E6F7420746865206F776E6572 PUSH1 0x44 DUP3 ADD MSTORE REVERT JUMPDEST PUSH1 0x0 JUMPDEST DUP4 DUP2 LT PUSH2 0x5F5 JUMPI POP POP PUSH1 0x0 SWAP2 ADD MSTORE JUMP JUMPDEST DUP2 DUP2 ADD MLOAD DUP4 DUP3 ADD MSTORE PUSH1 0x20 ADD PUSH2 0x5E5 JUMP JUMPDEST SWAP3 SWAP2 SWAP1 PUSH1 0x60 PUSH1 0x20 SWAP2 PUSH1 0x40 DUP7 MSTORE PUSH2 0x629 DUP2 MLOAD DUP1 SWAP3 DUP2 PUSH1 0x40 DUP11 ADD MSTORE DUP6 DUP6 DUP11 ADD SWAP2 ADD PUSH2 0x5E2 JUMP JUMPDEST PUSH1 0x1F DUP1 NOT SWAP2 ADD AND DUP6 ADD ADD SWAP4 ADD MSTORE JUMP JUMPDEST DUP1 MLOAD DUP3 LT ISZERO PUSH2 0x64C JUMPI PUSH1 0x20 SWAP2 PUSH1 0x5 SHL ADD ADD SWAP1 JUMP JUMPDEST PUSH4 0x4E487B71 PUSH1 0xE0 SHL PUSH1 0x0 MSTORE PUSH1 0x32 PUSH1 0x4 MSTORE PUSH1 0x24 PUSH1 0x0 REVERT INVALID LOG2 PUSH5 0x6970667358 0x22 SLT KECCAK256 SWAP10 CALL REVERT 0xE9 0xAD 0x25 0xA8 CALLDATACOPY 0xAE RETURNDATASIZE 0xCC 0x4F PUSH22 0x6EF165C33BF44DDF6CC989B1B1B36E0C53E2A64736F PUSH13 0x63430008130033000000000000 "},"methodIdentifiers":{"getPropertyPrice(string)":"b4e0065c","owner()":"8da5cb5b","renounceOwnership()":"715018a6","setBatchPropertyPrices(string[],uint256[])":"ea87abba","setPropertyPrice(string,uint256)":"369fea7a","transferOwnership(address)":"f2fde38b"}}}}}