{"contracts/SecurityTokenFactory.sol":{"SecurityToken":{"abi":[{"inputs":[{"internalType":"string","name":"_name","type":"string"},{"internalType":"string","name":"_symbol","type":"string"},{"internalType":"uint256","name":"_initialSupply","type":"uint256"},{"internalType":"string","name":"_documentURI","type":"string"},{"internalType":"string","name":"_industry","type":"string"},{"internalType":"string","name":"_assetType","type":"string"},{"internalType":"uint256","name":"_tokenValue","type":"uint256"},{"internalType":"uint256","name":"_offeringSize","type":"uint256"},{"internalType":"string","name":"_dividendFrequency","type":"string"},{"internalType":"string","name":"_maturityDate","type":"string"},{"internalType":"address","name":"_owner","type":"address"}],"stateMutability":"nonpayable","type":"constructor"},{"anonymous":false,"inputs":[{"indexed":true,"internalType":"address","name":"owner","type":"address"},{"indexed":true,"internalType":"address","name":"spender","type":"address"},{"indexed":false,"internalType":"uint256","name":"value","type":"uint256"}],"name":"Approval","type":"event"},{"anonymous":false,"inputs":[{"indexed":true,"internalType":"address","name":"investor","type":"address"},{"indexed":false,"internalType":"bool","name":"status","type":"bool"}],"name":"KYCStatusChanged","type":"event"},{"anonymous":false,"inputs":[{"indexed":false,"internalType":"string","name":"name","type":"string"},{"indexed":false,"internalType":"string","name":"symbol","type":"string"},{"indexed":false,"internalType":"string","name":"documentURI","type":"string"}],"name":"MetadataUpdated","type":"event"},{"anonymous":false,"inputs":[{"indexed":true,"internalType":"address","name":"previousOwner","type":"address"},{"indexed":true,"internalType":"address","name":"newOwner","type":"address"}],"name":"OwnershipTransferred","type":"event"},{"anonymous":false,"inputs":[{"indexed":true,"internalType":"address","name":"from","type":"address"},{"indexed":true,"internalType":"address","name":"to","type":"address"},{"indexed":false,"internalType":"uint256","name":"value","type":"uint256"}],"name":"Transfer","type":"event"},{"anonymous":false,"inputs":[{"indexed":false,"internalType":"bool","name":"status","type":"bool"}],"name":"TransfersEnabledChanged","type":"event"},{"inputs":[{"internalType":"address","name":"owner","type":"address"},{"internalType":"address","name":"spender","type":"address"}],"name":"allowance","outputs":[{"internalType":"uint256","name":"","type":"uint256"}],"stateMutability":"view","type":"function"},{"inputs":[{"internalType":"address","name":"spender","type":"address"},{"internalType":"uint256","name":"amount","type":"uint256"}],"name":"approve","outputs":[{"internalType":"bool","name":"","type":"bool"}],"stateMutability":"nonpayable","type":"function"},{"inputs":[],"name":"assetType","outputs":[{"internalType":"string","name":"","type":"string"}],"stateMutability":"view","type":"function"},{"inputs":[{"internalType":"address","name":"account","type":"address"}],"name":"balanceOf","outputs":[{"internalType":"uint256","name":"","type":"uint256"}],"stateMutability":"view","type":"function"},{"inputs":[{"internalType":"address[]","name":"_investors","type":"address[]"},{"internalType":"bool[]","name":"_status","type":"bool[]"}],"name":"batchSetKYCStatus","outputs":[],"stateMutability":"nonpayable","type":"function"},{"inputs":[],"name":"decimals","outputs":[{"internalType":"uint8","name":"","type":"uint8"}],"stateMutability":"view","type":"function"},{"inputs":[{"internalType":"address","name":"spender","type":"address"},{"internalType":"uint256","name":"subtractedValue","type":"uint256"}],"name":"decreaseAllowance","outputs":[{"internalType":"bool","name":"","type":"bool"}],"stateMutability":"nonpayable","type":"function"},{"inputs":[],"name":"dividendFrequency","outputs":[{"internalType":"string","name":"","type":"string"}],"stateMutability":"view","type":"function"},{"inputs":[],"name":"documentURI","outputs":[{"internalType":"string","name":"","type":"string"}],"stateMutability":"view","type":"function"},{"inputs":[],"name":"getAllInvestors","outputs":[{"internalType":"address[]","name":"","type":"address[]"}],"stateMutability":"view","type":"function"},{"inputs":[{"internalType":"uint256","name":"index","type":"uint256"}],"name":"getInvestorAt","outputs":[{"internalType":"address","name":"","type":"address"}],"stateMutability":"view","type":"function"},{"inputs":[],"name":"getInvestorCount","outputs":[{"internalType":"uint256","name":"","type":"uint256"}],"stateMutability":"view","type":"function"},{"inputs":[{"internalType":"address","name":"spender","type":"address"},{"internalType":"uint256","name":"addedValue","type":"uint256"}],"name":"increaseAllowance","outputs":[{"internalType":"bool","name":"","type":"bool"}],"stateMutability":"nonpayable","type":"function"},{"inputs":[],"name":"industry","outputs":[{"internalType":"string","name":"","type":"string"}],"stateMutability":"view","type":"function"},{"inputs":[{"internalType":"address","name":"","type":"address"}],"name":"kycVerified","outputs":[{"internalType":"bool","name":"","type":"bool"}],"stateMutability":"view","type":"function"},{"inputs":[],"name":"maturityDate","outputs":[{"internalType":"string","name":"","type":"string"}],"stateMutability":"view","type":"function"},{"inputs":[],"name":"name","outputs":[{"internalType":"string","name":"","type":"string"}],"stateMutability":"view","type":"function"},{"inputs":[],"name":"offeringSize","outputs":[{"internalType":"uint256","name":"","type":"uint256"}],"stateMutability":"view","type":"function"},{"inputs":[],"name":"owner","outputs":[{"internalType":"address","name":"","type":"address"}],"stateMutability":"view","type":"function"},{"inputs":[],"name":"renounceOwnership","outputs":[],"stateMutability":"nonpayable","type":"function"},{"inputs":[{"internalType":"address","name":"investor","type":"address"},{"internalType":"bool","name":"status","type":"bool"}],"name":"setKYCStatus","outputs":[],"stateMutability":"nonpayable","type":"function"},{"inputs":[{"internalType":"bool","name":"_enabled","type":"bool"}],"name":"setTransfersEnabled","outputs":[],"stateMutability":"nonpayable","type":"function"},{"inputs":[],"name":"symbol","outputs":[{"internalType":"string","name":"","type":"string"}],"stateMutability":"view","type":"function"},{"inputs":[],"name":"tokenName","outputs":[{"internalType":"string","name":"","type":"string"}],"stateMutability":"view","type":"function"},{"inputs":[],"name":"tokenSymbol","outputs":[{"internalType":"string","name":"","type":"string"}],"stateMutability":"view","type":"function"},{"inputs":[],"name":"tokenValue","outputs":[{"internalType":"uint256","name":"","type":"uint256"}],"stateMutability":"view","type":"function"},{"inputs":[],"name":"totalSupply","outputs":[{"internalType":"uint256","name":"","type":"uint256"}],"stateMutability":"view","type":"function"},{"inputs":[{"internalType":"address","name":"to","type":"address"},{"internalType":"uint256","name":"amount","type":"uint256"}],"name":"transfer","outputs":[{"internalType":"bool","name":"","type":"bool"}],"stateMutability":"nonpayable","type":"function"},{"inputs":[{"internalType":"address","name":"from","type":"address"},{"internalType":"address","name":"to","type":"address"},{"internalType":"uint256","name":"amount","type":"uint256"}],"name":"transferFrom","outputs":[{"internalType":"bool","name":"","type":"bool"}],"stateMutability":"nonpayable","type":"function"},{"inputs":[{"internalType":"address","name":"newOwner","type":"address"}],"name":"transferOwnership","outputs":[],"stateMutability":"nonpayable","type":"function"},{"inputs":[],"name":"transfersEnabled","outputs":[{"internalType":"bool","name":"","type":"bool"}],"stateMutability":"view","type":"function"},{"inputs":[{"internalType":"string","name":"_name","type":"string"},{"internalType":"string","name":"_symbol","type":"string"},{"internalType":"string","name":"_documentURI","type":"string"}],"name":"updateMetadata","outputs":[],"stateMutability":"nonpayable","type":"function"}],"evm":{"bytecode":{"linkReferences":{},"object":"608060405234620010015762002f44803803806200001d8162001006565b92833981019061016081830312620010015780516001600160401b0381116200100157826200004e9183016200102c565b60208201516001600160401b038111620010015783620000709184016200102c565b604083015160608401519091906001600160401b0381116200100157856200009a9186016200102c565b60808501516001600160401b038111620010015786620000bc9187016200102c565b60a08601516001600160401b038111620010015787620000de9188016200102c565b9060c08701519260e08801519461010089015160018060401b03811162001001578a6200010d918b016200102c565b6101208a0151909a906001600160401b03811162001001576101409162000136918c016200102c565b990151976001600160a01b0389168903620010015780516001600160401b0381116200082157600354600181811c9116801562000ff6575b60208210146200080057601f811162000f90575b50806020601f821160011462000f065760009162000efa575b508160011b916000199060031b1c1916176003555b81516001600160401b0381116200082157600454600181811c9116801562000eef575b60208210146200080057601f811162000e89575b50806020601f821160011462000dff5760009162000df3575b508160011b916000199060031b1c1916176004555b62000220336200109e565b6010805460ff191660011790558051906001600160401b038211620008215760085490600182811c9216801562000de8575b6020831014620008005781601f84931162000d87575b50602090601f831160011462000d095760009262000cfd575b50508160011b916000199060031b1c1916176008555b8051906001600160401b038211620008215760065490600182811c9216801562000cf2575b6020831014620008005781601f84931162000c91575b50602090601f831160011462000c135760009262000c07575b50508160011b916000199060031b1c1916176006555b8051906001600160401b038211620008215760075490600182811c9216801562000bfc575b6020831014620008005781601f84931162000b9b575b50602090601f831160011462000b1d5760009262000b11575b50508160011b916000199060031b1c1916176007555b8051906001600160401b038211620008215760095490600182811c9216801562000b06575b6020831014620008005781601f84931162000aa5575b50602090601f831160011462000a275760009262000a1b575b50508160011b916000199060031b1c1916176009555b8051906001600160401b0382116200082157600a5490600182811c9216801562000a10575b6020831014620008005781601f849311620009af575b50602090601f8311600114620009315760009262000925575b50508160011b916000199060031b1c191617600a555b600b55600c5583516001600160401b0381116200082157600d54600181811c911680156200091a575b60208210146200080057601f8111620008b0575b50602094601f8211600114620008435794819293949560009262000837575b50508160011b916000199060031b1c191617600d555b82516001600160401b0381116200082157600e54600181811c9116801562000816575b60208210146200080057601f8111620007a7575b506020601f82116001146200072e578192939460009262000722575b50508160011b916000199060031b1c191617600e555b6001600160a01b0382166000818152600f60205260409020805460ff191660011790556200054890620010e7565b50604051600181526001600160a01b038316907f3a620c3544f4661f38b303e51ff3c4cc552da5a80ec55d4e3875af78775e1a8290602090a26001600160a01b03821615620006dd576001600160a01b0382166000908152600f602052604090205460ff1615620006985760025481810180911162000682576002556001600160a01b03821660008181526020818152604080832080548601905551938452919290917fddf252ad1be2c89b69c2b068fc378daa952ba7f163c4a11628f55a4df523b3ef91a3600554336001600160a01b03909116036200063e576200062e906200109e565b604051611cfc9081620011888239f35b606460405162461bcd60e51b815260206004820152602060248201527f4f776e61626c653a2063616c6c6572206973206e6f7420746865206f776e65726044820152fd5b634e487b7160e01b600052601160045260246000fd5b60405162461bcd60e51b815260206004820152601d60248201527f526563697069656e74206973206e6f74204b59432076657269666965640000006044820152606490fd5b60405162461bcd60e51b815260206004820152601f60248201527f45524332303a206d696e7420746f20746865207a65726f2061646472657373006044820152606490fd5b01519050388062000504565b600e600090815260008051602062002e848339815191529190601f198416905b8181106200078e5750958360019596971062000774575b505050811b01600e556200051a565b015160001960f88460031b161c1916905538808062000765565b9192602060018192868b0151815501940192016200074e565b600e60005260008051602062002e84833981519152601f830160051c81019160208410620007f5575b601f0160051c01905b818110620007e85750620004e8565b60008155600101620007d9565b9091508190620007d0565b634e487b7160e01b600052602260045260246000fd5b90607f1690620004d4565b634e487b7160e01b600052604160045260246000fd5b0151905038806200049b565b601f19821695600d60005260206000209160005b88811062000897575083600195969798106200087d575b505050811b01600d55620004b1565b015160001960f88460031b161c191690553880806200086e565b9192602060018192868501518155019401920162000857565b600d6000527fd7b6990105719101dabeb77144f2a3385c8033acd3af97e9423a695e81ad1eb5601f830160051c810191602084106200090f575b601f0160051c01905b8181106200090257506200047c565b60008155600101620008f3565b9091508190620008ea565b90607f169062000468565b01519050388062000429565b600a6000908152935060008051602062002ea483398151915291905b601f198416851062000993576001945083601f1981161062000979575b505050811b01600a556200043f565b015160001960f88460031b161c191690553880806200096a565b818101518355602094850194600190930192909101906200094d565b600a60005290915060008051602062002ea4833981519152601f840160051c81016020851062000a08575b90849392915b601f830160051c82018110620009f857505062000410565b60008155859450600101620009e0565b5080620009da565b91607f1691620003fa565b015190503880620003bf565b60096000908152935060008051602062002f0483398151915291905b601f198416851062000a89576001945083601f1981161062000a6f575b505050811b01600955620003d5565b015160001960f88460031b161c1916905538808062000a60565b8181015183556020948501946001909301929091019062000a43565b600960005290915060008051602062002f04833981519152601f840160051c81016020851062000afe575b90849392915b601f830160051c8201811062000aee575050620003a6565b6000815585945060010162000ad6565b508062000ad0565b91607f169162000390565b01519050388062000355565b60076000908152935060008051602062002ec483398151915291905b601f198416851062000b7f576001945083601f1981161062000b65575b505050811b016007556200036b565b015160001960f88460031b161c1916905538808062000b56565b8181015183556020948501946001909301929091019062000b39565b600760005290915060008051602062002ec4833981519152601f840160051c81016020851062000bf4575b90849392915b601f830160051c8201811062000be45750506200033c565b6000815585945060010162000bcc565b508062000bc6565b91607f169162000326565b015190503880620002eb565b60066000908152935060008051602062002f2483398151915291905b601f198416851062000c75576001945083601f1981161062000c5b575b505050811b0160065562000301565b015160001960f88460031b161c1916905538808062000c4c565b8181015183556020948501946001909301929091019062000c2f565b600660005290915060008051602062002f24833981519152601f840160051c81016020851062000cea575b90849392915b601f830160051c8201811062000cda575050620002d2565b6000815585945060010162000cc2565b508062000cbc565b91607f1691620002bc565b01519050388062000281565b60086000908152935060008051602062002ee483398151915291905b601f198416851062000d6b576001945083601f1981161062000d51575b505050811b0160085562000297565b015160001960f88460031b161c1916905538808062000d42565b8181015183556020948501946001909301929091019062000d25565b600860005290915060008051602062002ee4833981519152601f840160051c81016020851062000de0575b90849392915b601f830160051c8201811062000dd057505062000268565b6000815585945060010162000db8565b508062000db2565b91607f169162000252565b90508301513862000200565b6004600090815292507f8a35acfbc15ff81a39ae7d344fd709f28e8600b4aa8c65c6b64bfe7fe36bd19b905b601f198316841062000e70576001935082601f1981161062000e56575b5050811b0160045562000215565b85015160001960f88460031b161c19169055388062000e48565b8581015182556020938401936001909201910162000e2b565b60046000527f8a35acfbc15ff81a39ae7d344fd709f28e8600b4aa8c65c6b64bfe7fe36bd19b601f830160051c81016020841062000ee7575b601f830160051c8201811062000eda575050620001e7565b6000815560010162000ec2565b508062000ec2565b90607f1690620001d3565b9050820151386200019b565b6003600090815292507fc2575a0e9e593c00f959f8c92f12db2869c3395a3b0502d05e2516446f71f85b905b601f198316841062000f77576001935082601f1981161062000f5d575b5050811b01600355620001b0565b84015160001960f88460031b161c19169055388062000f4f565b8481015182556020938401936001909201910162000f32565b60036000527fc2575a0e9e593c00f959f8c92f12db2869c3395a3b0502d05e2516446f71f85b601f830160051c81016020841062000fee575b601f830160051c8201811062000fe157505062000182565b6000815560010162000fc9565b508062000fc9565b90607f16906200016e565b600080fd5b6040519190601f01601f191682016001600160401b038111838210176200082157604052565b919080601f84011215620010015782516001600160401b038111620008215760209062001062601f8201601f1916830162001006565b92818452828287010111620010015760005b8181106200108a57508260009394955001015290565b858101830151848201840152820162001074565b600580546001600160a01b039283166001600160a01b0319821681179092559091167f8be0079c531659141344cd1fd0a4f28419497f9722a3daafe3b4186f6b6457e0600080a3565b6000818152601260205260408120546200118257601154680100000000000000008110156200116e5760018101806011558110156200115a577f31ecc21a745e3968a04e9570e4425bc18fa8019c68028196b546d1669c200c680182905560115491815260126020526040902055600190565b634e487b7160e01b82526032600452602482fd5b634e487b7160e01b82526041600452602482fd5b90509056fe608060408181526004918236101561001657600080fd5b600092833560e01c91826306fdde03146114e75750816308aa62c41461143d578163095ea7b31461141357816318160ddd146113f45781631ec7e345146113d557816323b872dd1461130b57816326b9ce13146112a85781632a62807a146111fe578163313ce567146111e2578163395093511461117b5781633fe3347a146110d1578163428c2e13146110275781636c02a93114610f7d57816370a0823114610f46578163715018a614610ee95781637b61c32014610e3f5781638da5cb5b14610e1657816395d89b4114610d41578163960524e314610d22578163a3f569ae14610c82578163a457c2d714610bdd578163a5410a6614610b9f578163a9059cbb14610b6e578163bba91ff014610a0d578163bef97c87146109e9578163d0a2f2c4146108f5578163d59624b41461080c578163db2a45701461033f578163dd62ed3e146102f6578163f2fde38b14610226578163f6450293146101a6575063f86c118b1461018557600080fd5b346101a257816003193601126101a257602090600c549051908152f35b5080fd5b9050823461022357602036600319011261022357508035906011548210156101ea576020836101d484611ac0565b905491519160018060a01b039160031b1c168152f35b606490602084519162461bcd60e51b83528201526013602482015272496e646578206f7574206f6620626f756e647360681b6044820152fd5b80fd5b9050346102f25760203660031901126102f257610241611641565b9061024a6116fa565b6001600160a01b039182169283156102a0575050600554826bffffffffffffffffffffffff60a01b821617600555167f8be0079c531659141344cd1fd0a4f28419497f9722a3daafe3b4186f6b6457e08380a380f35b906020608492519162461bcd60e51b8352820152602660248201527f4f776e61626c653a206e6577206f776e657220697320746865207a65726f206160448201526564647265737360d01b6064820152fd5b8280fd5b5050346101a257806003193601126101a25780602092610314611641565b61031c61165c565b6001600160a01b0391821683526001865283832091168252845220549051908152f35b8383346101a25760603660031901126101a25767ffffffffffffffff9083358281116108085761037290369086016116a3565b916024358181116108045761038a90369087016116a3565b604435828111610800576103a190369088016116a3565b916103aa6116fa565b845196818811610600576103bf6008546115cf565b97601f988981116107a0575b508060208a821160011461071d578991610712575b508160011b916000199060031b1c1916176008555b82518281116106ff576104096006546115cf565b89811161069f575b508060208a821160011461061e578991610613575b508160011b916000199060031b1c1916176006555b835191821161060057506104506007546115cf565b8781116105a0575b5060209681116001146104f257916104d46104c6959492846104e195899a7f61b45807b5528344b8b2c26433a3aabead6c9dc6239e146e7ba7c812fded07d09a916104e7575b508160011b916000199060031b1c1916176007555b835196879660608852606088019061158f565b90868203602088015261158f565b918483039085015261158f565b0390a180f35b90508401518b61049e565b600786527fa66cc928b5edb82af9bd49922954155ab7b0942694bea4ce44661d9a8736c688601f198216875b8181106105885750926001836104d4937f61b45807b5528344b8b2c26433a3aabead6c9dc6239e146e7ba7c812fded07d09a9b6104e198966104c69b9a981061056f575b5050811b016007556104b3565b86015160001960f88460031b161c191690558b80610562565b858a015183556020998a01996001909301920161051e565b600787527fa66cc928b5edb82af9bd49922954155ab7b0942694bea4ce44661d9a8736c6888880840160051c820192602085106105f7575b0160051c01905b8181106105ec5750610458565b8781556001016105df565b925081926105d8565b634e487b7160e01b875260419052602486fd5b90508401518a610426565b60068a527ff652222313e28459528d920b65115c16c04f3efc82aaedc97be59f3f377c0d3f9150601f1983168a5b8181106106875750908360019493921061066e575b5050811b0160065561043b565b86015160001960f88460031b161c191690558a80610661565b9192602060018192868b01518155019401920161064c565b600689527ff652222313e28459528d920b65115c16c04f3efc82aaedc97be59f3f377c0d3f8a80840160051c820192602085106106f6575b0160051c01905b8181106106eb5750610411565b8981556001016106de565b925081926106d7565b634e487b7160e01b885260418252602488fd5b90508701518a6103e0565b60088a527ff3f7a9fe364faab93b216da50a3214154f22a0a2b415b23a84c8169e8b636ee39150601f1983168a5b8a828210610788575050908360019493921061076f575b5050811b016008556103f5565b89015160001960f88460031b161c191690558a80610762565b6001849560209395849301518155019401920161074b565b600889527ff3f7a9fe364faab93b216da50a3214154f22a0a2b415b23a84c8169e8b636ee38a80840160051c820192602085106107f7575b0160051c01905b8181106107ec57506103cb565b8981556001016107df565b925081926107d8565b8580fd5b8480fd5b8380fd5b5050346101a257816003193601126101a25780519082600e5461082e816115cf565b808552916001918083169081156108cd5750600114610870575b50505061085a8261086c940383611609565b5191829160208352602083019061158f565b0390f35b9450600e85527fbb7b4a454dc3493923482f07822329ed19e8244eff582cc204f8554c3620c3fd5b8286106108b55750505061085a82602061086c9582010194610848565b80546020878701810191909152909501948101610898565b61086c97508693506020925061085a94915060ff191682840152151560051b82010194610848565b9050823461022357806003193601126102235791906011549261091784611cae565b61092384519182611609565b84815261092f85611cae565b6020958287019491601f1901368637835b81811061098e5750505083519485948186019282875251809352850193925b82811061096e57505050500390f35b83516001600160a01b03168552869550938101939281019260010161095f565b61099d81989594969798611ac0565b905487518310156109d65760039190911b1c6001600160a01b0316600582901b87018601526109cb90611c79565b969594929396610940565b634e487b7160e01b865260328552602486fd5b5050346101a257816003193601126101a25760209060ff6010541690519015158152f35b9050346102f257816003193601126102f25767ffffffffffffffff91813583811161080457610a3f9036908401611672565b909360243590811161080057610a589036908501611672565b919093610a636116fa565b828203610b325750855b818110610a78578680f35b610a83818388611c9e565b356001600160a01b0381169190829003610b2e57610aa2818588611c9e565b3591821515928984820361022357610b1a947f3a620c3544f4661f38b303e51ff3c4cc552da5a80ec55d4e3875af78775e1a8292610ade6116fa565b848352610aff818b602095600f8752209060ff801983541691151516179055565b15610b1f57610b0d84611b0d565b505b8851908152a2611c79565b610a6d565b610b2884611b8f565b50610b0f565b8780fd5b606490602085519162461bcd60e51b83528201526016602482015275082e4e4c2f2e640d8cadccee8d040dad2e6dac2e8c6d60531b6044820152fd5b5050346101a257806003193601126101a257602090610b98610b8e611641565b6024359033611752565b5160018152f35b5050346101a25760203660031901126101a25760209160ff9082906001600160a01b03610bca611641565b168152600f855220541690519015158152f35b90508234610223578260031936011261022357610bf8611641565b918360243592338152600160205281812060018060a01b0386168252602052205490828210610c3157602085610b9885850387336119be565b608490602086519162461bcd60e51b8352820152602560248201527f45524332303a2064656372656173656420616c6c6f77616e63652062656c6f77604482015264207a65726f60d81b6064820152fd5b5050346101a257806003193601126101a257610c9c611641565b9060243591821515808403610804577f3a620c3544f4661f38b303e51ff3c4cc552da5a80ec55d4e3875af78775e1a8292602092610cd86116fa565b6001600160a01b0316808752600f8452818720805460ff191660ff881515161790559415610d1357610d0985611b0d565b505b51908152a280f35b610d1c85611b8f565b50610d0b565b5050346101a257816003193601126101a2576020906011549051908152f35b919050346102f257826003193601126102f25780519183815490610d64826115cf565b80865292600192808416908115610deb5750600114610d8f575b61086c868661085a828b0383611609565b815294507f8a35acfbc15ff81a39ae7d344fd709f28e8600b4aa8c65c6b64bfe7fe36bd19b5b828610610dd35750505061085a82602061086c958201019438610d7e565b80546020878701810191909152909501948101610db5565b905061086c97508693506020925061085a94915060ff191682840152151560051b8201019438610d7e565b5050346101a257816003193601126101a25760055490516001600160a01b039091168152602090f35b5050346101a257816003193601126101a25780519082600654610e61816115cf565b808552916001918083169081156108cd5750600114610e8c5750505061085a8261086c940383611609565b9450600685527ff652222313e28459528d920b65115c16c04f3efc82aaedc97be59f3f377c0d3f5b828610610ed15750505061085a82602061086c9582010194610848565b80546020878701810191909152909501948101610eb4565b8334610223578060031936011261022357610f026116fa565b600580546001600160a01b0319811690915581906001600160a01b03167f8be0079c531659141344cd1fd0a4f28419497f9722a3daafe3b4186f6b6457e08280a380f35b5050346101a25760203660031901126101a25760209181906001600160a01b03610f6e611641565b16815280845220549051908152f35b5050346101a257816003193601126101a25780519082600854610f9f816115cf565b808552916001918083169081156108cd5750600114610fca5750505061085a8261086c940383611609565b9450600885527ff3f7a9fe364faab93b216da50a3214154f22a0a2b415b23a84c8169e8b636ee35b82861061100f5750505061085a82602061086c9582010194610848565b80546020878701810191909152909501948101610ff2565b5050346101a257816003193601126101a25780519082600754611049816115cf565b808552916001918083169081156108cd57506001146110745750505061085a8261086c940383611609565b9450600785527fa66cc928b5edb82af9bd49922954155ab7b0942694bea4ce44661d9a8736c6885b8286106110b95750505061085a82602061086c9582010194610848565b8054602087870181019190915290950194810161109c565b5050346101a257816003193601126101a25780519082600a546110f3816115cf565b808552916001918083169081156108cd575060011461111e5750505061085a8261086c940383611609565b9450600a85527fc65a7bb8d6351c1cf70c95a316cc6a92839c986682d98bc35f958f4883f9d2a85b8286106111635750505061085a82602061086c9582010194610848565b80546020878701810191909152909501948101611146565b828434610223578160031936011261022357611195611641565b338252600160209081528383206001600160a01b03831684529052828220546024358101929083106111cf57602084610b988585336119be565b634e487b7160e01b815260118552602490fd5b5050346101a257816003193601126101a2576020905160128152f35b5050346101a257816003193601126101a25780519082600d54611220816115cf565b808552916001918083169081156108cd575060011461124b5750505061085a8261086c940383611609565b9450600d85527fd7b6990105719101dabeb77144f2a3385c8033acd3af97e9423a695e81ad1eb55b8286106112905750505061085a82602061086c9582010194610848565b80546020878701810191909152909501948101611273565b9050346102f25760203660031901126102f25735908115158092036102f2577f3f0522fb4345c29729658df56a8b87c4360593a277942cc15cdf041866058690916020916112f46116fa565b60ff196010541660ff83161760105551908152a180f35b839150346101a25760603660031901126101a257611327611641565b61132f61165c565b91846044359460018060a01b038416815260016020528181203382526020522054906000198203611369575b602086610b98878787611752565b848210611392575091839161138760209695610b98950333836119be565b91939481935061135b565b606490602087519162461bcd60e51b8352820152601d60248201527f45524332303a20696e73756666696369656e7420616c6c6f77616e63650000006044820152fd5b5050346101a257816003193601126101a257602090600b549051908152f35b5050346101a257816003193601126101a2576020906002549051908152f35b5050346101a257806003193601126101a257602090610b98611433611641565b60243590336119be565b5050346101a257816003193601126101a2578051908260095461145f816115cf565b808552916001918083169081156108cd575060011461148a5750505061085a8261086c940383611609565b9450600985527f6e1540171b6c0c960b71a7020d9f60077f6af931a8bbf590da0223dacf75c7af5b8286106114cf5750505061085a82602061086c9582010194610848565b805460208787018101919091529095019481016114b2565b849084346102f257826003193601126102f25782600354611507816115cf565b808552916001918083169081156108cd57506001146115325750505061085a8261086c940383611609565b9450600385527fc2575a0e9e593c00f959f8c92f12db2869c3395a3b0502d05e2516446f71f85b5b8286106115775750505061085a82602061086c9582010194610848565b8054602087870181019190915290950194810161155a565b919082519283825260005b8481106115bb575050826000602080949584010152601f8019910116010190565b60208183018101518483018201520161159a565b90600182811c921680156115ff575b60208310146115e957565b634e487b7160e01b600052602260045260246000fd5b91607f16916115de565b90601f8019910116810190811067ffffffffffffffff82111761162b57604052565b634e487b7160e01b600052604160045260246000fd5b600435906001600160a01b038216820361165757565b600080fd5b602435906001600160a01b038216820361165757565b9181601f840112156116575782359167ffffffffffffffff8311611657576020808501948460051b01011161165757565b81601f820112156116575780359067ffffffffffffffff821161162b57604051926116d8601f8401601f191660200185611609565b8284526020838301011161165757816000926020809301838601378301015290565b6005546001600160a01b0316330361170e57565b606460405162461bcd60e51b815260206004820152602060248201527f4f776e61626c653a2063616c6c6572206973206e6f7420746865206f776e65726044820152fd5b6001600160a01b0390811691821561196b571691821561191a5760ff60105416156118d657600090828252602091600f835260409060ff82822054161561189257858152600f845260ff82822054161561184e57848152808452818120548381106117fb579181847fddf252ad1be2c89b69c2b068fc378daa952ba7f163c4a11628f55a4df523b3ef9695948884955282875203828220558781522082815401905551908152a3565b825162461bcd60e51b815260048101869052602660248201527f45524332303a207472616e7366657220616d6f756e7420657863656564732062604482015265616c616e636560d01b6064820152608490fd5b815162461bcd60e51b815260048101859052601d60248201527f526563697069656e74206973206e6f74204b59432076657269666965640000006044820152606490fd5b815162461bcd60e51b815260048101859052601a60248201527f53656e646572206973206e6f74204b59432076657269666965640000000000006044820152606490fd5b606460405162461bcd60e51b815260206004820152602060248201527f5472616e7366657273206172652063757272656e746c792064697361626c65646044820152fd5b60405162461bcd60e51b815260206004820152602360248201527f45524332303a207472616e7366657220746f20746865207a65726f206164647260448201526265737360e81b6064820152608490fd5b60405162461bcd60e51b815260206004820152602560248201527f45524332303a207472616e736665722066726f6d20746865207a65726f206164604482015264647265737360d81b6064820152608490fd5b6001600160a01b03908116918215611a6f5716918215611a1f5760207f8c5be1e5ebec7d5bd14f71427d1e84f3dd0314c0f7b2291e5b200ac8c7c3b925918360005260018252604060002085600052825280604060002055604051908152a3565b60405162461bcd60e51b815260206004820152602260248201527f45524332303a20617070726f766520746f20746865207a65726f206164647265604482015261737360f01b6064820152608490fd5b60405162461bcd60e51b8152602060048201526024808201527f45524332303a20617070726f76652066726f6d20746865207a65726f206164646044820152637265737360e01b6064820152608490fd5b601154811015611af75760116000527f31ecc21a745e3968a04e9570e4425bc18fa8019c68028196b546d1669c200c680190600090565b634e487b7160e01b600052603260045260246000fd5b600081815260126020526040812054611b8a5760115468010000000000000000811015611b76579082611b62611b4b84600160409601601155611ac0565b819391549060031b91821b91600019901b19161790565b905560115492815260126020522055600190565b634e487b7160e01b82526041600452602482fd5b905090565b6000818152601260205260408120549091908015611c745760001990808201818111611c605760115490838201918211611c4c57808203611c18575b5050506011548015611c0457810190611be382611ac0565b909182549160031b1b19169055601155815260126020526040812055600190565b634e487b7160e01b84526031600452602484fd5b611c36611c27611b4b93611ac0565b90549060031b1c928392611ac0565b9055845260126020526040842055388080611bcb565b634e487b7160e01b86526011600452602486fd5b634e487b7160e01b85526011600452602485fd5b505090565b6000198114611c885760010190565b634e487b7160e01b600052601160045260246000fd5b9190811015611af75760051b0190565b67ffffffffffffffff811161162b5760051b6020019056fea2646970667358221220864a5446e28f5bbc263674f159f68675d16b48206cde286d2e15b133a23cba4764736f6c63430008130033bb7b4a454dc3493923482f07822329ed19e8244eff582cc204f8554c3620c3fdc65a7bb8d6351c1cf70c95a316cc6a92839c986682d98bc35f958f4883f9d2a8a66cc928b5edb82af9bd49922954155ab7b0942694bea4ce44661d9a8736c688f3f7a9fe364faab93b216da50a3214154f22a0a2b415b23a84c8169e8b636ee36e1540171b6c0c960b71a7020d9f60077f6af931a8bbf590da0223dacf75c7aff652222313e28459528d920b65115c16c04f3efc82aaedc97be59f3f377c0d3f","opcodes":"PUSH1 0x80 PUSH1 0x40 MSTORE CALLVALUE PUSH3 0x1001 JUMPI PUSH3 0x2F44 DUP1 CODESIZE SUB DUP1 PUSH3 0x1D DUP2 PUSH3 0x1006 JUMP JUMPDEST SWAP3 DUP4 CODECOPY DUP2 ADD SWAP1 PUSH2 0x160 DUP2 DUP4 SUB SLT PUSH3 0x1001 JUMPI DUP1 MLOAD PUSH1 0x1 PUSH1 0x1 PUSH1 0x40 SHL SUB DUP2 GT PUSH3 0x1001 JUMPI DUP3 PUSH3 0x4E SWAP2 DUP4 ADD PUSH3 0x102C JUMP JUMPDEST PUSH1 0x20 DUP3 ADD MLOAD PUSH1 0x1 PUSH1 0x1 PUSH1 0x40 SHL SUB DUP2 GT PUSH3 0x1001 JUMPI DUP4 PUSH3 0x70 SWAP2 DUP5 ADD PUSH3 0x102C JUMP JUMPDEST PUSH1 0x40 DUP4 ADD MLOAD PUSH1 0x60 DUP5 ADD MLOAD SWAP1 SWAP2 SWAP1 PUSH1 0x1 PUSH1 0x1 PUSH1 0x40 SHL SUB DUP2 GT PUSH3 0x1001 JUMPI DUP6 PUSH3 0x9A SWAP2 DUP7 ADD PUSH3 0x102C JUMP JUMPDEST PUSH1 0x80 DUP6 ADD MLOAD PUSH1 0x1 PUSH1 0x1 PUSH1 0x40 SHL SUB DUP2 GT PUSH3 0x1001 JUMPI DUP7 PUSH3 0xBC SWAP2 DUP8 ADD PUSH3 0x102C JUMP JUMPDEST PUSH1 0xA0 DUP7 ADD MLOAD PUSH1 0x1 PUSH1 0x1 PUSH1 0x40 SHL SUB DUP2 GT PUSH3 0x1001 JUMPI DUP8 PUSH3 0xDE SWAP2 DUP9 ADD PUSH3 0x102C JUMP JUMPDEST SWAP1 PUSH1 0xC0 DUP8 ADD MLOAD SWAP3 PUSH1 0xE0 DUP9 ADD MLOAD SWAP5 PUSH2 0x100 DUP10 ADD MLOAD PUSH1 0x1 DUP1 PUSH1 0x40 SHL SUB DUP2 GT PUSH3 0x1001 JUMPI DUP11 PUSH3 0x10D SWAP2 DUP12 ADD PUSH3 0x102C JUMP JUMPDEST PUSH2 0x120 DUP11 ADD MLOAD SWAP1 SWAP11 SWAP1 PUSH1 0x1 PUSH1 0x1 PUSH1 0x40 SHL SUB DUP2 GT PUSH3 0x1001 JUMPI PUSH2 0x140 SWAP2 PUSH3 0x136 SWAP2 DUP13 ADD PUSH3 0x102C JUMP JUMPDEST SWAP10 ADD MLOAD SWAP8 PUSH1 0x1 PUSH1 0x1 PUSH1 0xA0 SHL SUB DUP10 AND DUP10 SUB PUSH3 0x1001 JUMPI DUP1 MLOAD PUSH1 0x1 PUSH1 0x1 PUSH1 0x40 SHL SUB DUP2 GT PUSH3 0x821 JUMPI PUSH1 0x3 SLOAD PUSH1 0x1 DUP2 DUP2 SHR SWAP2 AND DUP1 ISZERO PUSH3 0xFF6 JUMPI JUMPDEST PUSH1 0x20 DUP3 LT EQ PUSH3 0x800 JUMPI PUSH1 0x1F DUP2 GT PUSH3 0xF90 JUMPI JUMPDEST POP DUP1 PUSH1 0x20 PUSH1 0x1F DUP3 GT PUSH1 0x1 EQ PUSH3 0xF06 JUMPI PUSH1 0x0 SWAP2 PUSH3 0xEFA JUMPI JUMPDEST POP DUP2 PUSH1 0x1 SHL SWAP2 PUSH1 0x0 NOT SWAP1 PUSH1 0x3 SHL SHR NOT AND OR PUSH1 0x3 SSTORE JUMPDEST DUP2 MLOAD PUSH1 0x1 PUSH1 0x1 PUSH1 0x40 SHL SUB DUP2 GT PUSH3 0x821 JUMPI PUSH1 0x4 SLOAD PUSH1 0x1 DUP2 DUP2 SHR SWAP2 AND DUP1 ISZERO PUSH3 0xEEF JUMPI JUMPDEST PUSH1 0x20 DUP3 LT EQ PUSH3 0x800 JUMPI PUSH1 0x1F DUP2 GT PUSH3 0xE89 JUMPI JUMPDEST POP DUP1 PUSH1 0x20 PUSH1 0x1F DUP3 GT PUSH1 0x1 EQ PUSH3 0xDFF JUMPI PUSH1 0x0 SWAP2 PUSH3 0xDF3 JUMPI JUMPDEST POP DUP2 PUSH1 0x1 SHL SWAP2 PUSH1 0x0 NOT SWAP1 PUSH1 0x3 SHL SHR NOT AND OR PUSH1 0x4 SSTORE JUMPDEST PUSH3 0x220 CALLER PUSH3 0x109E JUMP JUMPDEST PUSH1 0x10 DUP1 SLOAD PUSH1 0xFF NOT AND PUSH1 0x1 OR SWAP1 SSTORE DUP1 MLOAD SWAP1 PUSH1 0x1 PUSH1 0x1 PUSH1 0x40 SHL SUB DUP3 GT PUSH3 0x821 JUMPI PUSH1 0x8 SLOAD SWAP1 PUSH1 0x1 DUP3 DUP2 SHR SWAP3 AND DUP1 ISZERO PUSH3 0xDE8 JUMPI JUMPDEST PUSH1 0x20 DUP4 LT EQ PUSH3 0x800 JUMPI DUP2 PUSH1 0x1F DUP5 SWAP4 GT PUSH3 0xD87 JUMPI JUMPDEST POP PUSH1 0x20 SWAP1 PUSH1 0x1F DUP4 GT PUSH1 0x1 EQ PUSH3 0xD09 JUMPI PUSH1 0x0 SWAP3 PUSH3 0xCFD JUMPI JUMPDEST POP POP DUP2 PUSH1 0x1 SHL SWAP2 PUSH1 0x0 NOT SWAP1 PUSH1 0x3 SHL SHR NOT AND OR PUSH1 0x8 SSTORE JUMPDEST DUP1 MLOAD SWAP1 PUSH1 0x1 PUSH1 0x1 PUSH1 0x40 SHL SUB DUP3 GT PUSH3 0x821 JUMPI PUSH1 0x6 SLOAD SWAP1 PUSH1 0x1 DUP3 DUP2 SHR SWAP3 AND DUP1 ISZERO PUSH3 0xCF2 JUMPI JUMPDEST PUSH1 0x20 DUP4 LT EQ PUSH3 0x800 JUMPI DUP2 PUSH1 0x1F DUP5 SWAP4 GT PUSH3 0xC91 JUMPI JUMPDEST POP PUSH1 0x20 SWAP1 PUSH1 0x1F DUP4 GT PUSH1 0x1 EQ PUSH3 0xC13 JUMPI PUSH1 0x0 SWAP3 PUSH3 0xC07 JUMPI JUMPDEST POP POP DUP2 PUSH1 0x1 SHL SWAP2 PUSH1 0x0 NOT SWAP1 PUSH1 0x3 SHL SHR NOT AND OR PUSH1 0x6 SSTORE JUMPDEST DUP1 MLOAD SWAP1 PUSH1 0x1 PUSH1 0x1 PUSH1 0x40 SHL SUB DUP3 GT PUSH3 0x821 JUMPI PUSH1 0x7 SLOAD SWAP1 PUSH1 0x1 DUP3 DUP2 SHR SWAP3 AND DUP1 ISZERO PUSH3 0xBFC JUMPI JUMPDEST PUSH1 0x20 DUP4 LT EQ PUSH3 0x800 JUMPI DUP2 PUSH1 0x1F DUP5 SWAP4 GT PUSH3 0xB9B JUMPI JUMPDEST POP PUSH1 0x20 SWAP1 PUSH1 0x1F DUP4 GT PUSH1 0x1 EQ PUSH3 0xB1D JUMPI PUSH1 0x0 SWAP3 PUSH3 0xB11 JUMPI JUMPDEST POP POP DUP2 PUSH1 0x1 SHL SWAP2 PUSH1 0x0 NOT SWAP1 PUSH1 0x3 SHL SHR NOT AND OR PUSH1 0x7 SSTORE JUMPDEST DUP1 MLOAD SWAP1 PUSH1 0x1 PUSH1 0x1 PUSH1 0x40 SHL SUB DUP3 GT PUSH3 0x821 JUMPI PUSH1 0x9 SLOAD SWAP1 PUSH1 0x1 DUP3 DUP2 SHR SWAP3 AND DUP1 ISZERO PUSH3 0xB06 JUMPI JUMPDEST PUSH1 0x20 DUP4 LT EQ PUSH3 0x800 JUMPI DUP2 PUSH1 0x1F DUP5 SWAP4 GT PUSH3 0xAA5 JUMPI JUMPDEST POP PUSH1 0x20 SWAP1 PUSH1 0x1F DUP4 GT PUSH1 0x1 EQ PUSH3 0xA27 JUMPI PUSH1 0x0 SWAP3 PUSH3 0xA1B JUMPI JUMPDEST POP POP DUP2 PUSH1 0x1 SHL SWAP2 PUSH1 0x0 NOT SWAP1 PUSH1 0x3 SHL SHR NOT AND OR PUSH1 0x9 SSTORE JUMPDEST DUP1 MLOAD SWAP1 PUSH1 0x1 PUSH1 0x1 PUSH1 0x40 SHL SUB DUP3 GT PUSH3 0x821 JUMPI PUSH1 0xA SLOAD SWAP1 PUSH1 0x1 DUP3 DUP2 SHR SWAP3 AND DUP1 ISZERO PUSH3 0xA10 JUMPI JUMPDEST PUSH1 0x20 DUP4 LT EQ PUSH3 0x800 JUMPI DUP2 PUSH1 0x1F DUP5 SWAP4 GT PUSH3 0x9AF JUMPI JUMPDEST POP PUSH1 0x20 SWAP1 PUSH1 0x1F DUP4 GT PUSH1 0x1 EQ PUSH3 0x931 JUMPI PUSH1 0x0 SWAP3 PUSH3 0x925 JUMPI JUMPDEST POP POP DUP2 PUSH1 0x1 SHL SWAP2 PUSH1 0x0 NOT SWAP1 PUSH1 0x3 SHL SHR NOT AND OR PUSH1 0xA SSTORE JUMPDEST PUSH1 0xB SSTORE PUSH1 0xC SSTORE DUP4 MLOAD PUSH1 0x1 PUSH1 0x1 PUSH1 0x40 SHL SUB DUP2 GT PUSH3 0x821 JUMPI PUSH1 0xD SLOAD PUSH1 0x1 DUP2 DUP2 SHR SWAP2 AND DUP1 ISZERO PUSH3 0x91A JUMPI JUMPDEST PUSH1 0x20 DUP3 LT EQ PUSH3 0x800 JUMPI PUSH1 0x1F DUP2 GT PUSH3 0x8B0 JUMPI JUMPDEST POP PUSH1 0x20 SWAP5 PUSH1 0x1F DUP3 GT PUSH1 0x1 EQ PUSH3 0x843 JUMPI SWAP5 DUP2 SWAP3 SWAP4 SWAP5 SWAP6 PUSH1 0x0 SWAP3 PUSH3 0x837 JUMPI JUMPDEST POP POP DUP2 PUSH1 0x1 SHL SWAP2 PUSH1 0x0 NOT SWAP1 PUSH1 0x3 SHL SHR NOT AND OR PUSH1 0xD SSTORE JUMPDEST DUP3 MLOAD PUSH1 0x1 PUSH1 0x1 PUSH1 0x40 SHL SUB DUP2 GT PUSH3 0x821 JUMPI PUSH1 0xE SLOAD PUSH1 0x1 DUP2 DUP2 SHR SWAP2 AND DUP1 ISZERO PUSH3 0x816 JUMPI JUMPDEST PUSH1 0x20 DUP3 LT EQ PUSH3 0x800 JUMPI PUSH1 0x1F DUP2 GT PUSH3 0x7A7 JUMPI JUMPDEST POP PUSH1 0x20 PUSH1 0x1F DUP3 GT PUSH1 0x1 EQ PUSH3 0x72E JUMPI DUP2 SWAP3 SWAP4 SWAP5 PUSH1 0x0 SWAP3 PUSH3 0x722 JUMPI JUMPDEST POP POP DUP2 PUSH1 0x1 SHL SWAP2 PUSH1 0x0 NOT SWAP1 PUSH1 0x3 SHL SHR NOT AND OR PUSH1 0xE SSTORE JUMPDEST PUSH1 0x1 PUSH1 0x1 PUSH1 0xA0 SHL SUB DUP3 AND PUSH1 0x0 DUP2 DUP2 MSTORE PUSH1 0xF PUSH1 0x20 MSTORE PUSH1 0x40 SWAP1 KECCAK256 DUP1 SLOAD PUSH1 0xFF NOT AND PUSH1 0x1 OR SWAP1 SSTORE PUSH3 0x548 SWAP1 PUSH3 0x10E7 JUMP JUMPDEST POP PUSH1 0x40 MLOAD PUSH1 0x1 DUP2 MSTORE PUSH1 0x1 PUSH1 0x1 PUSH1 0xA0 SHL SUB DUP4 AND SWAP1 PUSH32 0x3A620C3544F4661F38B303E51FF3C4CC552DA5A80EC55D4E3875AF78775E1A82 SWAP1 PUSH1 0x20 SWAP1 LOG2 PUSH1 0x1 PUSH1 0x1 PUSH1 0xA0 SHL SUB DUP3 AND ISZERO PUSH3 0x6DD JUMPI PUSH1 0x1 PUSH1 0x1 PUSH1 0xA0 SHL SUB DUP3 AND PUSH1 0x0 SWAP1 DUP2 MSTORE PUSH1 0xF PUSH1 0x20 MSTORE PUSH1 0x40 SWAP1 KECCAK256 SLOAD PUSH1 0xFF AND ISZERO PUSH3 0x698 JUMPI PUSH1 0x2 SLOAD DUP2 DUP2 ADD DUP1 SWAP2 GT PUSH3 0x682 JUMPI PUSH1 0x2 SSTORE PUSH1 0x1 PUSH1 0x1 PUSH1 0xA0 SHL SUB DUP3 AND PUSH1 0x0 DUP2 DUP2 MSTORE PUSH1 0x20 DUP2 DUP2 MSTORE PUSH1 0x40 DUP1 DUP4 KECCAK256 DUP1 SLOAD DUP7 ADD SWAP1 SSTORE MLOAD SWAP4 DUP5 MSTORE SWAP2 SWAP3 SWAP1 SWAP2 PUSH32 0xDDF252AD1BE2C89B69C2B068FC378DAA952BA7F163C4A11628F55A4DF523B3EF SWAP2 LOG3 PUSH1 0x5 SLOAD CALLER PUSH1 0x1 PUSH1 0x1 PUSH1 0xA0 SHL SUB SWAP1 SWAP2 AND SUB PUSH3 0x63E JUMPI PUSH3 0x62E SWAP1 PUSH3 0x109E JUMP JUMPDEST PUSH1 0x40 MLOAD PUSH2 0x1CFC SWAP1 DUP2 PUSH3 0x1188 DUP3 CODECOPY RETURN JUMPDEST PUSH1 0x64 PUSH1 0x40 MLOAD PUSH3 0x461BCD PUSH1 0xE5 SHL DUP2 MSTORE PUSH1 0x20 PUSH1 0x4 DUP3 ADD MSTORE PUSH1 0x20 PUSH1 0x24 DUP3 ADD MSTORE PUSH32 0x4F776E61626C653A2063616C6C6572206973206E6F7420746865206F776E6572 PUSH1 0x44 DUP3 ADD MSTORE REVERT JUMPDEST PUSH4 0x4E487B71 PUSH1 0xE0 SHL PUSH1 0x0 MSTORE PUSH1 0x11 PUSH1 0x4 MSTORE PUSH1 0x24 PUSH1 0x0 REVERT JUMPDEST PUSH1 0x40 MLOAD PUSH3 0x461BCD PUSH1 0xE5 SHL DUP2 MSTORE PUSH1 0x20 PUSH1 0x4 DUP3 ADD MSTORE PUSH1 0x1D PUSH1 0x24 DUP3 ADD MSTORE PUSH32 0x526563697069656E74206973206E6F74204B5943207665726966696564000000 PUSH1 0x44 DUP3 ADD MSTORE PUSH1 0x64 SWAP1 REVERT JUMPDEST PUSH1 0x40 MLOAD PUSH3 0x461BCD PUSH1 0xE5 SHL DUP2 MSTORE PUSH1 0x20 PUSH1 0x4 DUP3 ADD MSTORE PUSH1 0x1F PUSH1 0x24 DUP3 ADD MSTORE PUSH32 0x45524332303A206D696E7420746F20746865207A65726F206164647265737300 PUSH1 0x44 DUP3 ADD MSTORE PUSH1 0x64 SWAP1 REVERT JUMPDEST ADD MLOAD SWAP1 POP CODESIZE DUP1 PUSH3 0x504 JUMP JUMPDEST PUSH1 0xE PUSH1 0x0 SWAP1 DUP2 MSTORE PUSH1 0x0 DUP1 MLOAD PUSH1 0x20 PUSH3 0x2E84 DUP4 CODECOPY DUP2 MLOAD SWAP2 MSTORE SWAP2 SWAP1 PUSH1 0x1F NOT DUP5 AND SWAP1 JUMPDEST DUP2 DUP2 LT PUSH3 0x78E JUMPI POP SWAP6 DUP4 PUSH1 0x1 SWAP6 SWAP7 SWAP8 LT PUSH3 0x774 JUMPI JUMPDEST POP POP POP DUP2 SHL ADD PUSH1 0xE SSTORE PUSH3 0x51A JUMP JUMPDEST ADD MLOAD PUSH1 0x0 NOT PUSH1 0xF8 DUP5 PUSH1 0x3 SHL AND SHR NOT AND SWAP1 SSTORE CODESIZE DUP1 DUP1 PUSH3 0x765 JUMP JUMPDEST SWAP2 SWAP3 PUSH1 0x20 PUSH1 0x1 DUP2 SWAP3 DUP7 DUP12 ADD MLOAD DUP2 SSTORE ADD SWAP5 ADD SWAP3 ADD PUSH3 0x74E JUMP JUMPDEST PUSH1 0xE PUSH1 0x0 MSTORE PUSH1 0x0 DUP1 MLOAD PUSH1 0x20 PUSH3 0x2E84 DUP4 CODECOPY DUP2 MLOAD SWAP2 MSTORE PUSH1 0x1F DUP4 ADD PUSH1 0x5 SHR DUP2 ADD SWAP2 PUSH1 0x20 DUP5 LT PUSH3 0x7F5 JUMPI JUMPDEST PUSH1 0x1F ADD PUSH1 0x5 SHR ADD SWAP1 JUMPDEST DUP2 DUP2 LT PUSH3 0x7E8 JUMPI POP PUSH3 0x4E8 JUMP JUMPDEST PUSH1 0x0 DUP2 SSTORE PUSH1 0x1 ADD PUSH3 0x7D9 JUMP JUMPDEST SWAP1 SWAP2 POP DUP2 SWAP1 PUSH3 0x7D0 JUMP JUMPDEST PUSH4 0x4E487B71 PUSH1 0xE0 SHL PUSH1 0x0 MSTORE PUSH1 0x22 PUSH1 0x4 MSTORE PUSH1 0x24 PUSH1 0x0 REVERT JUMPDEST SWAP1 PUSH1 0x7F AND SWAP1 PUSH3 0x4D4 JUMP JUMPDEST PUSH4 0x4E487B71 PUSH1 0xE0 SHL PUSH1 0x0 MSTORE PUSH1 0x41 PUSH1 0x4 MSTORE PUSH1 0x24 PUSH1 0x0 REVERT JUMPDEST ADD MLOAD SWAP1 POP CODESIZE DUP1 PUSH3 0x49B JUMP JUMPDEST PUSH1 0x1F NOT DUP3 AND SWAP6 PUSH1 0xD PUSH1 0x0 MSTORE PUSH1 0x20 PUSH1 0x0 KECCAK256 SWAP2 PUSH1 0x0 JUMPDEST DUP9 DUP2 LT PUSH3 0x897 JUMPI POP DUP4 PUSH1 0x1 SWAP6 SWAP7 SWAP8 SWAP9 LT PUSH3 0x87D JUMPI JUMPDEST POP POP POP DUP2 SHL ADD PUSH1 0xD SSTORE PUSH3 0x4B1 JUMP JUMPDEST ADD MLOAD PUSH1 0x0 NOT PUSH1 0xF8 DUP5 PUSH1 0x3 SHL AND SHR NOT AND SWAP1 SSTORE CODESIZE DUP1 DUP1 PUSH3 0x86E JUMP JUMPDEST SWAP2 SWAP3 PUSH1 0x20 PUSH1 0x1 DUP2 SWAP3 DUP7 DUP6 ADD MLOAD DUP2 SSTORE ADD SWAP5 ADD SWAP3 ADD PUSH3 0x857 JUMP JUMPDEST PUSH1 0xD PUSH1 0x0 MSTORE PUSH32 0xD7B6990105719101DABEB77144F2A3385C8033ACD3AF97E9423A695E81AD1EB5 PUSH1 0x1F DUP4 ADD PUSH1 0x5 SHR DUP2 ADD SWAP2 PUSH1 0x20 DUP5 LT PUSH3 0x90F JUMPI JUMPDEST PUSH1 0x1F ADD PUSH1 0x5 SHR ADD SWAP1 JUMPDEST DUP2 DUP2 LT PUSH3 0x902 JUMPI POP PUSH3 0x47C JUMP JUMPDEST PUSH1 0x0 DUP2 SSTORE PUSH1 0x1 ADD PUSH3 0x8F3 JUMP JUMPDEST SWAP1 SWAP2 POP DUP2 SWAP1 PUSH3 0x8EA JUMP JUMPDEST SWAP1 PUSH1 0x7F AND SWAP1 PUSH3 0x468 JUMP JUMPDEST ADD MLOAD SWAP1 POP CODESIZE DUP1 PUSH3 0x429 JUMP JUMPDEST PUSH1 0xA PUSH1 0x0 SWAP1 DUP2 MSTORE SWAP4 POP PUSH1 0x0 DUP1 MLOAD PUSH1 0x20 PUSH3 0x2EA4 DUP4 CODECOPY DUP2 MLOAD SWAP2 MSTORE SWAP2 SWAP1 JUMPDEST PUSH1 0x1F NOT DUP5 AND DUP6 LT PUSH3 0x993 JUMPI PUSH1 0x1 SWAP5 POP DUP4 PUSH1 0x1F NOT DUP2 AND LT PUSH3 0x979 JUMPI JUMPDEST POP POP POP DUP2 SHL ADD PUSH1 0xA SSTORE PUSH3 0x43F JUMP JUMPDEST ADD MLOAD PUSH1 0x0 NOT PUSH1 0xF8 DUP5 PUSH1 0x3 SHL AND SHR NOT AND SWAP1 SSTORE CODESIZE DUP1 DUP1 PUSH3 0x96A JUMP JUMPDEST DUP2 DUP2 ADD MLOAD DUP4 SSTORE PUSH1 0x20 SWAP5 DUP6 ADD SWAP5 PUSH1 0x1 SWAP1 SWAP4 ADD SWAP3 SWAP1 SWAP2 ADD SWAP1 PUSH3 0x94D JUMP JUMPDEST PUSH1 0xA PUSH1 0x0 MSTORE SWAP1 SWAP2 POP PUSH1 0x0 DUP1 MLOAD PUSH1 0x20 PUSH3 0x2EA4 DUP4 CODECOPY DUP2 MLOAD SWAP2 MSTORE PUSH1 0x1F DUP5 ADD PUSH1 0x5 SHR DUP2 ADD PUSH1 0x20 DUP6 LT PUSH3 0xA08 JUMPI JUMPDEST SWAP1 DUP5 SWAP4 SWAP3 SWAP2 JUMPDEST PUSH1 0x1F DUP4 ADD PUSH1 0x5 SHR DUP3 ADD DUP2 LT PUSH3 0x9F8 JUMPI POP POP PUSH3 0x410 JUMP JUMPDEST PUSH1 0x0 DUP2 SSTORE DUP6 SWAP5 POP PUSH1 0x1 ADD PUSH3 0x9E0 JUMP JUMPDEST POP DUP1 PUSH3 0x9DA JUMP JUMPDEST SWAP2 PUSH1 0x7F AND SWAP2 PUSH3 0x3FA JUMP JUMPDEST ADD MLOAD SWAP1 POP CODESIZE DUP1 PUSH3 0x3BF JUMP JUMPDEST PUSH1 0x9 PUSH1 0x0 SWAP1 DUP2 MSTORE SWAP4 POP PUSH1 0x0 DUP1 MLOAD PUSH1 0x20 PUSH3 0x2F04 DUP4 CODECOPY DUP2 MLOAD SWAP2 MSTORE SWAP2 SWAP1 JUMPDEST PUSH1 0x1F NOT DUP5 AND DUP6 LT PUSH3 0xA89 JUMPI PUSH1 0x1 SWAP5 POP DUP4 PUSH1 0x1F NOT DUP2 AND LT PUSH3 0xA6F JUMPI JUMPDEST POP POP POP DUP2 SHL ADD PUSH1 0x9 SSTORE PUSH3 0x3D5 JUMP JUMPDEST ADD MLOAD PUSH1 0x0 NOT PUSH1 0xF8 DUP5 PUSH1 0x3 SHL AND SHR NOT AND SWAP1 SSTORE CODESIZE DUP1 DUP1 PUSH3 0xA60 JUMP JUMPDEST DUP2 DUP2 ADD MLOAD DUP4 SSTORE PUSH1 0x20 SWAP5 DUP6 ADD SWAP5 PUSH1 0x1 SWAP1 SWAP4 ADD SWAP3 SWAP1 SWAP2 ADD SWAP1 PUSH3 0xA43 JUMP JUMPDEST PUSH1 0x9 PUSH1 0x0 MSTORE SWAP1 SWAP2 POP PUSH1 0x0 DUP1 MLOAD PUSH1 0x20 PUSH3 0x2F04 DUP4 CODECOPY DUP2 MLOAD SWAP2 MSTORE PUSH1 0x1F DUP5 ADD PUSH1 0x5 SHR DUP2 ADD PUSH1 0x20 DUP6 LT PUSH3 0xAFE JUMPI JUMPDEST SWAP1 DUP5 SWAP4 SWAP3 SWAP2 JUMPDEST PUSH1 0x1F DUP4 ADD PUSH1 0x5 SHR DUP3 ADD DUP2 LT PUSH3 0xAEE JUMPI POP POP PUSH3 0x3A6 JUMP JUMPDEST PUSH1 0x0 DUP2 SSTORE DUP6 SWAP5 POP PUSH1 0x1 ADD PUSH3 0xAD6 JUMP JUMPDEST POP DUP1 PUSH3 0xAD0 JUMP JUMPDEST SWAP2 PUSH1 0x7F AND SWAP2 PUSH3 0x390 JUMP JUMPDEST ADD MLOAD SWAP1 POP CODESIZE DUP1 PUSH3 0x355 JUMP JUMPDEST PUSH1 0x7 PUSH1 0x0 SWAP1 DUP2 MSTORE SWAP4 POP PUSH1 0x0 DUP1 MLOAD PUSH1 0x20 PUSH3 0x2EC4 DUP4 CODECOPY DUP2 MLOAD SWAP2 MSTORE SWAP2 SWAP1 JUMPDEST PUSH1 0x1F NOT DUP5 AND DUP6 LT PUSH3 0xB7F JUMPI PUSH1 0x1 SWAP5 POP DUP4 PUSH1 0x1F NOT DUP2 AND LT PUSH3 0xB65 JUMPI JUMPDEST POP POP POP DUP2 SHL ADD PUSH1 0x7 SSTORE PUSH3 0x36B JUMP JUMPDEST ADD MLOAD PUSH1 0x0 NOT PUSH1 0xF8 DUP5 PUSH1 0x3 SHL AND SHR NOT AND SWAP1 SSTORE CODESIZE DUP1 DUP1 PUSH3 0xB56 JUMP JUMPDEST DUP2 DUP2 ADD MLOAD DUP4 SSTORE PUSH1 0x20 SWAP5 DUP6 ADD SWAP5 PUSH1 0x1 SWAP1 SWAP4 ADD SWAP3 SWAP1 SWAP2 ADD SWAP1 PUSH3 0xB39 JUMP JUMPDEST PUSH1 0x7 PUSH1 0x0 MSTORE SWAP1 SWAP2 POP PUSH1 0x0 DUP1 MLOAD PUSH1 0x20 PUSH3 0x2EC4 DUP4 CODECOPY DUP2 MLOAD SWAP2 MSTORE PUSH1 0x1F DUP5 ADD PUSH1 0x5 SHR DUP2 ADD PUSH1 0x20 DUP6 LT PUSH3 0xBF4 JUMPI JUMPDEST SWAP1 DUP5 SWAP4 SWAP3 SWAP2 JUMPDEST PUSH1 0x1F DUP4 ADD PUSH1 0x5 SHR DUP3 ADD DUP2 LT PUSH3 0xBE4 JUMPI POP POP PUSH3 0x33C JUMP JUMPDEST PUSH1 0x0 DUP2 SSTORE DUP6 SWAP5 POP PUSH1 0x1 ADD PUSH3 0xBCC JUMP JUMPDEST POP DUP1 PUSH3 0xBC6 JUMP JUMPDEST SWAP2 PUSH1 0x7F AND SWAP2 PUSH3 0x326 JUMP JUMPDEST ADD MLOAD SWAP1 POP CODESIZE DUP1 PUSH3 0x2EB JUMP JUMPDEST PUSH1 0x6 PUSH1 0x0 SWAP1 DUP2 MSTORE SWAP4 POP PUSH1 0x0 DUP1 MLOAD PUSH1 0x20 PUSH3 0x2F24 DUP4 CODECOPY DUP2 MLOAD SWAP2 MSTORE SWAP2 SWAP1 JUMPDEST PUSH1 0x1F NOT DUP5 AND DUP6 LT PUSH3 0xC75 JUMPI PUSH1 0x1 SWAP5 POP DUP4 PUSH1 0x1F NOT DUP2 AND LT PUSH3 0xC5B JUMPI JUMPDEST POP POP POP DUP2 SHL ADD PUSH1 0x6 SSTORE PUSH3 0x301 JUMP JUMPDEST ADD MLOAD PUSH1 0x0 NOT PUSH1 0xF8 DUP5 PUSH1 0x3 SHL AND SHR NOT AND SWAP1 SSTORE CODESIZE DUP1 DUP1 PUSH3 0xC4C JUMP JUMPDEST DUP2 DUP2 ADD MLOAD DUP4 SSTORE PUSH1 0x20 SWAP5 DUP6 ADD SWAP5 PUSH1 0x1 SWAP1 SWAP4 ADD SWAP3 SWAP1 SWAP2 ADD SWAP1 PUSH3 0xC2F JUMP JUMPDEST PUSH1 0x6 PUSH1 0x0 MSTORE SWAP1 SWAP2 POP PUSH1 0x0 DUP1 MLOAD PUSH1 0x20 PUSH3 0x2F24 DUP4 CODECOPY DUP2 MLOAD SWAP2 MSTORE PUSH1 0x1F DUP5 ADD PUSH1 0x5 SHR DUP2 ADD PUSH1 0x20 DUP6 LT PUSH3 0xCEA JUMPI JUMPDEST SWAP1 DUP5 SWAP4 SWAP3 SWAP2 JUMPDEST PUSH1 0x1F DUP4 ADD PUSH1 0x5 SHR DUP3 ADD DUP2 LT PUSH3 0xCDA JUMPI POP POP PUSH3 0x2D2 JUMP JUMPDEST PUSH1 0x0 DUP2 SSTORE DUP6 SWAP5 POP PUSH1 0x1 ADD PUSH3 0xCC2 JUMP JUMPDEST POP DUP1 PUSH3 0xCBC JUMP JUMPDEST SWAP2 PUSH1 0x7F AND SWAP2 PUSH3 0x2BC JUMP JUMPDEST ADD MLOAD SWAP1 POP CODESIZE DUP1 PUSH3 0x281 JUMP JUMPDEST PUSH1 0x8 PUSH1 0x0 SWAP1 DUP2 MSTORE SWAP4 POP PUSH1 0x0 DUP1 MLOAD PUSH1 0x20 PUSH3 0x2EE4 DUP4 CODECOPY DUP2 MLOAD SWAP2 MSTORE SWAP2 SWAP1 JUMPDEST PUSH1 0x1F NOT DUP5 AND DUP6 LT PUSH3 0xD6B JUMPI PUSH1 0x1 SWAP5 POP DUP4 PUSH1 0x1F NOT DUP2 AND LT PUSH3 0xD51 JUMPI JUMPDEST POP POP POP DUP2 SHL ADD PUSH1 0x8 SSTORE PUSH3 0x297 JUMP JUMPDEST ADD MLOAD PUSH1 0x0 NOT PUSH1 0xF8 DUP5 PUSH1 0x3 SHL AND SHR NOT AND SWAP1 SSTORE CODESIZE DUP1 DUP1 PUSH3 0xD42 JUMP JUMPDEST DUP2 DUP2 ADD MLOAD DUP4 SSTORE PUSH1 0x20 SWAP5 DUP6 ADD SWAP5 PUSH1 0x1 SWAP1 SWAP4 ADD SWAP3 SWAP1 SWAP2 ADD SWAP1 PUSH3 0xD25 JUMP JUMPDEST PUSH1 0x8 PUSH1 0x0 MSTORE SWAP1 SWAP2 POP PUSH1 0x0 DUP1 MLOAD PUSH1 0x20 PUSH3 0x2EE4 DUP4 CODECOPY DUP2 MLOAD SWAP2 MSTORE PUSH1 0x1F DUP5 ADD PUSH1 0x5 SHR DUP2 ADD PUSH1 0x20 DUP6 LT PUSH3 0xDE0 JUMPI JUMPDEST SWAP1 DUP5 SWAP4 SWAP3 SWAP2 JUMPDEST PUSH1 0x1F DUP4 ADD PUSH1 0x5 SHR DUP3 ADD DUP2 LT PUSH3 0xDD0 JUMPI POP POP PUSH3 0x268 JUMP JUMPDEST PUSH1 0x0 DUP2 SSTORE DUP6 SWAP5 POP PUSH1 0x1 ADD PUSH3 0xDB8 JUMP JUMPDEST POP DUP1 PUSH3 0xDB2 JUMP JUMPDEST SWAP2 PUSH1 0x7F AND SWAP2 PUSH3 0x252 JUMP JUMPDEST SWAP1 POP DUP4 ADD MLOAD CODESIZE PUSH3 0x200 JUMP JUMPDEST PUSH1 0x4 PUSH1 0x0 SWAP1 DUP2 MSTORE SWAP3 POP PUSH32 0x8A35ACFBC15FF81A39AE7D344FD709F28E8600B4AA8C65C6B64BFE7FE36BD19B SWAP1 JUMPDEST PUSH1 0x1F NOT DUP4 AND DUP5 LT PUSH3 0xE70 JUMPI PUSH1 0x1 SWAP4 POP DUP3 PUSH1 0x1F NOT DUP2 AND LT PUSH3 0xE56 JUMPI JUMPDEST POP POP DUP2 SHL ADD PUSH1 0x4 SSTORE PUSH3 0x215 JUMP JUMPDEST DUP6 ADD MLOAD PUSH1 0x0 NOT PUSH1 0xF8 DUP5 PUSH1 0x3 SHL AND SHR NOT AND SWAP1 SSTORE CODESIZE DUP1 PUSH3 0xE48 JUMP JUMPDEST DUP6 DUP2 ADD MLOAD DUP3 SSTORE PUSH1 0x20 SWAP4 DUP5 ADD SWAP4 PUSH1 0x1 SWAP1 SWAP3 ADD SWAP2 ADD PUSH3 0xE2B JUMP JUMPDEST PUSH1 0x4 PUSH1 0x0 MSTORE PUSH32 0x8A35ACFBC15FF81A39AE7D344FD709F28E8600B4AA8C65C6B64BFE7FE36BD19B PUSH1 0x1F DUP4 ADD PUSH1 0x5 SHR DUP2 ADD PUSH1 0x20 DUP5 LT PUSH3 0xEE7 JUMPI JUMPDEST PUSH1 0x1F DUP4 ADD PUSH1 0x5 SHR DUP3 ADD DUP2 LT PUSH3 0xEDA JUMPI POP POP PUSH3 0x1E7 JUMP JUMPDEST PUSH1 0x0 DUP2 SSTORE PUSH1 0x1 ADD PUSH3 0xEC2 JUMP JUMPDEST POP DUP1 PUSH3 0xEC2 JUMP JUMPDEST SWAP1 PUSH1 0x7F AND SWAP1 PUSH3 0x1D3 JUMP JUMPDEST SWAP1 POP DUP3 ADD MLOAD CODESIZE PUSH3 0x19B JUMP JUMPDEST PUSH1 0x3 PUSH1 0x0 SWAP1 DUP2 MSTORE SWAP3 POP PUSH32 0xC2575A0E9E593C00F959F8C92F12DB2869C3395A3B0502D05E2516446F71F85B SWAP1 JUMPDEST PUSH1 0x1F NOT DUP4 AND DUP5 LT PUSH3 0xF77 JUMPI PUSH1 0x1 SWAP4 POP DUP3 PUSH1 0x1F NOT DUP2 AND LT PUSH3 0xF5D JUMPI JUMPDEST POP POP DUP2 SHL ADD PUSH1 0x3 SSTORE PUSH3 0x1B0 JUMP JUMPDEST DUP5 ADD MLOAD PUSH1 0x0 NOT PUSH1 0xF8 DUP5 PUSH1 0x3 SHL AND SHR NOT AND SWAP1 SSTORE CODESIZE DUP1 PUSH3 0xF4F JUMP JUMPDEST DUP5 DUP2 ADD MLOAD DUP3 SSTORE PUSH1 0x20 SWAP4 DUP5 ADD SWAP4 PUSH1 0x1 SWAP1 SWAP3 ADD SWAP2 ADD PUSH3 0xF32 JUMP JUMPDEST PUSH1 0x3 PUSH1 0x0 MSTORE PUSH32 0xC2575A0E9E593C00F959F8C92F12DB2869C3395A3B0502D05E2516446F71F85B PUSH1 0x1F DUP4 ADD PUSH1 0x5 SHR DUP2 ADD PUSH1 0x20 DUP5 LT PUSH3 0xFEE JUMPI JUMPDEST PUSH1 0x1F DUP4 ADD PUSH1 0x5 SHR DUP3 ADD DUP2 LT PUSH3 0xFE1 JUMPI POP POP PUSH3 0x182 JUMP JUMPDEST PUSH1 0x0 DUP2 SSTORE PUSH1 0x1 ADD PUSH3 0xFC9 JUMP JUMPDEST POP DUP1 PUSH3 0xFC9 JUMP JUMPDEST SWAP1 PUSH1 0x7F AND SWAP1 PUSH3 0x16E JUMP JUMPDEST PUSH1 0x0 DUP1 REVERT JUMPDEST PUSH1 0x40 MLOAD SWAP2 SWAP1 PUSH1 0x1F ADD PUSH1 0x1F NOT AND DUP3 ADD PUSH1 0x1 PUSH1 0x1 PUSH1 0x40 SHL SUB DUP2 GT DUP4 DUP3 LT OR PUSH3 0x821 JUMPI PUSH1 0x40 MSTORE JUMP JUMPDEST SWAP2 SWAP1 DUP1 PUSH1 0x1F DUP5 ADD SLT ISZERO PUSH3 0x1001 JUMPI DUP3 MLOAD PUSH1 0x1 PUSH1 0x1 PUSH1 0x40 SHL SUB DUP2 GT PUSH3 0x821 JUMPI PUSH1 0x20 SWAP1 PUSH3 0x1062 PUSH1 0x1F DUP3 ADD PUSH1 0x1F NOT AND DUP4 ADD PUSH3 0x1006 JUMP JUMPDEST SWAP3 DUP2 DUP5 MSTORE DUP3 DUP3 DUP8 ADD ADD GT PUSH3 0x1001 JUMPI PUSH1 0x0 JUMPDEST DUP2 DUP2 LT PUSH3 0x108A JUMPI POP DUP3 PUSH1 0x0 SWAP4 SWAP5 SWAP6 POP ADD ADD MSTORE SWAP1 JUMP JUMPDEST DUP6 DUP2 ADD DUP4 ADD MLOAD DUP5 DUP3 ADD DUP5 ADD MSTORE DUP3 ADD PUSH3 0x1074 JUMP JUMPDEST PUSH1 0x5 DUP1 SLOAD PUSH1 0x1 PUSH1 0x1 PUSH1 0xA0 SHL SUB SWAP3 DUP4 AND PUSH1 0x1 PUSH1 0x1 PUSH1 0xA0 SHL SUB NOT DUP3 AND DUP2 OR SWAP1 SWAP3 SSTORE SWAP1 SWAP2 AND PUSH32 0x8BE0079C531659141344CD1FD0A4F28419497F9722A3DAAFE3B4186F6B6457E0 PUSH1 0x0 DUP1 LOG3 JUMP JUMPDEST PUSH1 0x0 DUP2 DUP2 MSTORE PUSH1 0x12 PUSH1 0x20 MSTORE PUSH1 0x40 DUP2 KECCAK256 SLOAD PUSH3 0x1182 JUMPI PUSH1 0x11 SLOAD PUSH9 0x10000000000000000 DUP2 LT ISZERO PUSH3 0x116E JUMPI PUSH1 0x1 DUP2 ADD DUP1 PUSH1 0x11 SSTORE DUP2 LT ISZERO PUSH3 0x115A JUMPI PUSH32 0x31ECC21A745E3968A04E9570E4425BC18FA8019C68028196B546D1669C200C68 ADD DUP3 SWAP1 SSTORE PUSH1 0x11 SLOAD SWAP2 DUP2 MSTORE PUSH1 0x12 PUSH1 0x20 MSTORE PUSH1 0x40 SWAP1 KECCAK256 SSTORE PUSH1 0x1 SWAP1 JUMP JUMPDEST PUSH4 0x4E487B71 PUSH1 0xE0 SHL DUP3 MSTORE PUSH1 0x32 PUSH1 0x4 MSTORE PUSH1 0x24 DUP3 REVERT JUMPDEST PUSH4 0x4E487B71 PUSH1 0xE0 SHL DUP3 MSTORE PUSH1 0x41 PUSH1 0x4 MSTORE PUSH1 0x24 DUP3 REVERT JUMPDEST SWAP1 POP SWAP1 JUMP INVALID PUSH1 0x80 PUSH1 0x40 DUP2 DUP2 MSTORE PUSH1 0x4 SWAP2 DUP3 CALLDATASIZE LT ISZERO PUSH2 0x16 JUMPI PUSH1 0x0 DUP1 REVERT JUMPDEST PUSH1 0x0 SWAP3 DUP4 CALLDATALOAD PUSH1 0xE0 SHR SWAP2 DUP3 PUSH4 0x6FDDE03 EQ PUSH2 0x14E7 JUMPI POP DUP2 PUSH4 0x8AA62C4 EQ PUSH2 0x143D JUMPI DUP2 PUSH4 0x95EA7B3 EQ PUSH2 0x1413 JUMPI DUP2 PUSH4 0x18160DDD EQ PUSH2 0x13F4 JUMPI DUP2 PUSH4 0x1EC7E345 EQ PUSH2 0x13D5 JUMPI DUP2 PUSH4 0x23B872DD EQ PUSH2 0x130B JUMPI DUP2 PUSH4 0x26B9CE13 EQ PUSH2 0x12A8 JUMPI DUP2 PUSH4 0x2A62807A EQ PUSH2 0x11FE JUMPI DUP2 PUSH4 0x313CE567 EQ PUSH2 0x11E2 JUMPI DUP2 PUSH4 0x39509351 EQ PUSH2 0x117B JUMPI DUP2 PUSH4 0x3FE3347A EQ PUSH2 0x10D1 JUMPI DUP2 PUSH4 0x428C2E13 EQ PUSH2 0x1027 JUMPI DUP2 PUSH4 0x6C02A931 EQ PUSH2 0xF7D JUMPI DUP2 PUSH4 0x70A08231 EQ PUSH2 0xF46 JUMPI DUP2 PUSH4 0x715018A6 EQ PUSH2 0xEE9 JUMPI DUP2 PUSH4 0x7B61C320 EQ PUSH2 0xE3F JUMPI DUP2 PUSH4 0x8DA5CB5B EQ PUSH2 0xE16 JUMPI DUP2 PUSH4 0x95D89B41 EQ PUSH2 0xD41 JUMPI DUP2 PUSH4 0x960524E3 EQ PUSH2 0xD22 JUMPI DUP2 PUSH4 0xA3F569AE EQ PUSH2 0xC82 JUMPI DUP2 PUSH4 0xA457C2D7 EQ PUSH2 0xBDD JUMPI DUP2 PUSH4 0xA5410A66 EQ PUSH2 0xB9F JUMPI DUP2 PUSH4 0xA9059CBB EQ PUSH2 0xB6E JUMPI DUP2 PUSH4 0xBBA91FF0 EQ PUSH2 0xA0D JUMPI DUP2 PUSH4 0xBEF97C87 EQ PUSH2 0x9E9 JUMPI DUP2 PUSH4 0xD0A2F2C4 EQ PUSH2 0x8F5 JUMPI DUP2 PUSH4 0xD59624B4 EQ PUSH2 0x80C JUMPI DUP2 PUSH4 0xDB2A4570 EQ PUSH2 0x33F JUMPI DUP2 PUSH4 0xDD62ED3E EQ PUSH2 0x2F6 JUMPI DUP2 PUSH4 0xF2FDE38B EQ PUSH2 0x226 JUMPI DUP2 PUSH4 0xF6450293 EQ PUSH2 0x1A6 JUMPI POP PUSH4 0xF86C118B EQ PUSH2 0x185 JUMPI PUSH1 0x0 DUP1 REVERT JUMPDEST CALLVALUE PUSH2 0x1A2 JUMPI DUP2 PUSH1 0x3 NOT CALLDATASIZE ADD SLT PUSH2 0x1A2 JUMPI PUSH1 0x20 SWAP1 PUSH1 0xC SLOAD SWAP1 MLOAD SWAP1 DUP2 MSTORE RETURN JUMPDEST POP DUP1 REVERT JUMPDEST SWAP1 POP DUP3 CALLVALUE PUSH2 0x223 JUMPI PUSH1 0x20 CALLDATASIZE PUSH1 0x3 NOT ADD SLT PUSH2 0x223 JUMPI POP DUP1 CALLDATALOAD SWAP1 PUSH1 0x11 SLOAD DUP3 LT ISZERO PUSH2 0x1EA JUMPI PUSH1 0x20 DUP4 PUSH2 0x1D4 DUP5 PUSH2 0x1AC0 JUMP JUMPDEST SWAP1 SLOAD SWAP2 MLOAD SWAP2 PUSH1 0x1 DUP1 PUSH1 0xA0 SHL SUB SWAP2 PUSH1 0x3 SHL SHR AND DUP2 MSTORE RETURN JUMPDEST PUSH1 0x64 SWAP1 PUSH1 0x20 DUP5 MLOAD SWAP2 PUSH3 0x461BCD PUSH1 0xE5 SHL DUP4 MSTORE DUP3 ADD MSTORE PUSH1 0x13 PUSH1 0x24 DUP3 ADD MSTORE PUSH19 0x496E646578206F7574206F6620626F756E6473 PUSH1 0x68 SHL PUSH1 0x44 DUP3 ADD MSTORE REVERT JUMPDEST DUP1 REVERT JUMPDEST SWAP1 POP CALLVALUE PUSH2 0x2F2 JUMPI PUSH1 0x20 CALLDATASIZE PUSH1 0x3 NOT ADD SLT PUSH2 0x2F2 JUMPI PUSH2 0x241 PUSH2 0x1641 JUMP JUMPDEST SWAP1 PUSH2 0x24A PUSH2 0x16FA JUMP JUMPDEST PUSH1 0x1 PUSH1 0x1 PUSH1 0xA0 SHL SUB SWAP2 DUP3 AND SWAP3 DUP4 ISZERO PUSH2 0x2A0 JUMPI POP POP PUSH1 0x5 SLOAD DUP3 PUSH12 0xFFFFFFFFFFFFFFFFFFFFFFFF PUSH1 0xA0 SHL DUP3 AND OR PUSH1 0x5 SSTORE AND PUSH32 0x8BE0079C531659141344CD1FD0A4F28419497F9722A3DAAFE3B4186F6B6457E0 DUP4 DUP1 LOG3 DUP1 RETURN JUMPDEST SWAP1 PUSH1 0x20 PUSH1 0x84 SWAP3 MLOAD SWAP2 PUSH3 0x461BCD PUSH1 0xE5 SHL DUP4 MSTORE DUP3 ADD MSTORE PUSH1 0x26 PUSH1 0x24 DUP3 ADD MSTORE PUSH32 0x4F776E61626C653A206E6577206F776E657220697320746865207A65726F2061 PUSH1 0x44 DUP3 ADD MSTORE PUSH6 0x646472657373 PUSH1 0xD0 SHL PUSH1 0x64 DUP3 ADD MSTORE REVERT JUMPDEST DUP3 DUP1 REVERT JUMPDEST POP POP CALLVALUE PUSH2 0x1A2 JUMPI DUP1 PUSH1 0x3 NOT CALLDATASIZE ADD SLT PUSH2 0x1A2 JUMPI DUP1 PUSH1 0x20 SWAP3 PUSH2 0x314 PUSH2 0x1641 JUMP JUMPDEST PUSH2 0x31C PUSH2 0x165C JUMP JUMPDEST PUSH1 0x1 PUSH1 0x1 PUSH1 0xA0 SHL SUB SWAP2 DUP3 AND DUP4 MSTORE PUSH1 0x1 DUP7 MSTORE DUP4 DUP4 KECCAK256 SWAP2 AND DUP3 MSTORE DUP5 MSTORE KECCAK256 SLOAD SWAP1 MLOAD SWAP1 DUP2 MSTORE RETURN JUMPDEST DUP4 DUP4 CALLVALUE PUSH2 0x1A2 JUMPI PUSH1 0x60 CALLDATASIZE PUSH1 0x3 NOT ADD SLT PUSH2 0x1A2 JUMPI PUSH8 0xFFFFFFFFFFFFFFFF SWAP1 DUP4 CALLDATALOAD DUP3 DUP2 GT PUSH2 0x808 JUMPI PUSH2 0x372 SWAP1 CALLDATASIZE SWAP1 DUP7 ADD PUSH2 0x16A3 JUMP JUMPDEST SWAP2 PUSH1 0x24 CALLDATALOAD DUP2 DUP2 GT PUSH2 0x804 JUMPI PUSH2 0x38A SWAP1 CALLDATASIZE SWAP1 DUP8 ADD PUSH2 0x16A3 JUMP JUMPDEST PUSH1 0x44 CALLDATALOAD DUP3 DUP2 GT PUSH2 0x800 JUMPI PUSH2 0x3A1 SWAP1 CALLDATASIZE SWAP1 DUP9 ADD PUSH2 0x16A3 JUMP JUMPDEST SWAP2 PUSH2 0x3AA PUSH2 0x16FA JUMP JUMPDEST DUP5 MLOAD SWAP7 DUP2 DUP9 GT PUSH2 0x600 JUMPI PUSH2 0x3BF PUSH1 0x8 SLOAD PUSH2 0x15CF JUMP JUMPDEST SWAP8 PUSH1 0x1F SWAP9 DUP10 DUP2 GT PUSH2 0x7A0 JUMPI JUMPDEST POP DUP1 PUSH1 0x20 DUP11 DUP3 GT PUSH1 0x1 EQ PUSH2 0x71D JUMPI DUP10 SWAP2 PUSH2 0x712 JUMPI JUMPDEST POP DUP2 PUSH1 0x1 SHL SWAP2 PUSH1 0x0 NOT SWAP1 PUSH1 0x3 SHL SHR NOT AND OR PUSH1 0x8 SSTORE JUMPDEST DUP3 MLOAD DUP3 DUP2 GT PUSH2 0x6FF JUMPI PUSH2 0x409 PUSH1 0x6 SLOAD PUSH2 0x15CF JUMP JUMPDEST DUP10 DUP2 GT PUSH2 0x69F JUMPI JUMPDEST POP DUP1 PUSH1 0x20 DUP11 DUP3 GT PUSH1 0x1 EQ PUSH2 0x61E JUMPI DUP10 SWAP2 PUSH2 0x613 JUMPI JUMPDEST POP DUP2 PUSH1 0x1 SHL SWAP2 PUSH1 0x0 NOT SWAP1 PUSH1 0x3 SHL SHR NOT AND OR PUSH1 0x6 SSTORE JUMPDEST DUP4 MLOAD SWAP2 DUP3 GT PUSH2 0x600 JUMPI POP PUSH2 0x450 PUSH1 0x7 SLOAD PUSH2 0x15CF JUMP JUMPDEST DUP8 DUP2 GT PUSH2 0x5A0 JUMPI JUMPDEST POP PUSH1 0x20 SWAP7 DUP2 GT PUSH1 0x1 EQ PUSH2 0x4F2 JUMPI SWAP2 PUSH2 0x4D4 PUSH2 0x4C6 SWAP6 SWAP5 SWAP3 DUP5 PUSH2 0x4E1 SWAP6 DUP10 SWAP11 PUSH32 0x61B45807B5528344B8B2C26433A3AABEAD6C9DC6239E146E7BA7C812FDED07D0 SWAP11 SWAP2 PUSH2 0x4E7 JUMPI JUMPDEST POP DUP2 PUSH1 0x1 SHL SWAP2 PUSH1 0x0 NOT SWAP1 PUSH1 0x3 SHL SHR NOT AND OR PUSH1 0x7 SSTORE JUMPDEST DUP4 MLOAD SWAP7 DUP8 SWAP7 PUSH1 0x60 DUP9 MSTORE PUSH1 0x60 DUP9 ADD SWAP1 PUSH2 0x158F JUMP JUMPDEST SWAP1 DUP7 DUP3 SUB PUSH1 0x20 DUP9 ADD MSTORE PUSH2 0x158F JUMP JUMPDEST SWAP2 DUP5 DUP4 SUB SWAP1 DUP6 ADD MSTORE PUSH2 0x158F JUMP JUMPDEST SUB SWAP1 LOG1 DUP1 RETURN JUMPDEST SWAP1 POP DUP5 ADD MLOAD DUP12 PUSH2 0x49E JUMP JUMPDEST PUSH1 0x7 DUP7 MSTORE PUSH32 0xA66CC928B5EDB82AF9BD49922954155AB7B0942694BEA4CE44661D9A8736C688 PUSH1 0x1F NOT DUP3 AND DUP8 JUMPDEST DUP2 DUP2 LT PUSH2 0x588 JUMPI POP SWAP3 PUSH1 0x1 DUP4 PUSH2 0x4D4 SWAP4 PUSH32 0x61B45807B5528344B8B2C26433A3AABEAD6C9DC6239E146E7BA7C812FDED07D0 SWAP11 SWAP12 PUSH2 0x4E1 SWAP9 SWAP7 PUSH2 0x4C6 SWAP12 SWAP11 SWAP9 LT PUSH2 0x56F JUMPI JUMPDEST POP POP DUP2 SHL ADD PUSH1 0x7 SSTORE PUSH2 0x4B3 JUMP JUMPDEST DUP7 ADD MLOAD PUSH1 0x0 NOT PUSH1 0xF8 DUP5 PUSH1 0x3 SHL AND SHR NOT AND SWAP1 SSTORE DUP12 DUP1 PUSH2 0x562 JUMP JUMPDEST DUP6 DUP11 ADD MLOAD DUP4 SSTORE PUSH1 0x20 SWAP10 DUP11 ADD SWAP10 PUSH1 0x1 SWAP1 SWAP4 ADD SWAP3 ADD PUSH2 0x51E JUMP JUMPDEST PUSH1 0x7 DUP8 MSTORE PUSH32 0xA66CC928B5EDB82AF9BD49922954155AB7B0942694BEA4CE44661D9A8736C688 DUP9 DUP1 DUP5 ADD PUSH1 0x5 SHR DUP3 ADD SWAP3 PUSH1 0x20 DUP6 LT PUSH2 0x5F7 JUMPI JUMPDEST ADD PUSH1 0x5 SHR ADD SWAP1 JUMPDEST DUP2 DUP2 LT PUSH2 0x5EC JUMPI POP PUSH2 0x458 JUMP JUMPDEST DUP8 DUP2 SSTORE PUSH1 0x1 ADD PUSH2 0x5DF JUMP JUMPDEST SWAP3 POP DUP2 SWAP3 PUSH2 0x5D8 JUMP JUMPDEST PUSH4 0x4E487B71 PUSH1 0xE0 SHL DUP8 MSTORE PUSH1 0x41 SWAP1 MSTORE PUSH1 0x24 DUP7 REVERT JUMPDEST SWAP1 POP DUP5 ADD MLOAD DUP11 PUSH2 0x426 JUMP JUMPDEST PUSH1 0x6 DUP11 MSTORE PUSH32 0xF652222313E28459528D920B65115C16C04F3EFC82AAEDC97BE59F3F377C0D3F SWAP2 POP PUSH1 0x1F NOT DUP4 AND DUP11 JUMPDEST DUP2 DUP2 LT PUSH2 0x687 JUMPI POP SWAP1 DUP4 PUSH1 0x1 SWAP5 SWAP4 SWAP3 LT PUSH2 0x66E JUMPI JUMPDEST POP POP DUP2 SHL ADD PUSH1 0x6 SSTORE PUSH2 0x43B JUMP JUMPDEST DUP7 ADD MLOAD PUSH1 0x0 NOT PUSH1 0xF8 DUP5 PUSH1 0x3 SHL AND SHR NOT AND SWAP1 SSTORE DUP11 DUP1 PUSH2 0x661 JUMP JUMPDEST SWAP2 SWAP3 PUSH1 0x20 PUSH1 0x1 DUP2 SWAP3 DUP7 DUP12 ADD MLOAD DUP2 SSTORE ADD SWAP5 ADD SWAP3 ADD PUSH2 0x64C JUMP JUMPDEST PUSH1 0x6 DUP10 MSTORE PUSH32 0xF652222313E28459528D920B65115C16C04F3EFC82AAEDC97BE59F3F377C0D3F DUP11 DUP1 DUP5 ADD PUSH1 0x5 SHR DUP3 ADD SWAP3 PUSH1 0x20 DUP6 LT PUSH2 0x6F6 JUMPI JUMPDEST ADD PUSH1 0x5 SHR ADD SWAP1 JUMPDEST DUP2 DUP2 LT PUSH2 0x6EB JUMPI POP PUSH2 0x411 JUMP JUMPDEST DUP10 DUP2 SSTORE PUSH1 0x1 ADD PUSH2 0x6DE JUMP JUMPDEST SWAP3 POP DUP2 SWAP3 PUSH2 0x6D7 JUMP JUMPDEST PUSH4 0x4E487B71 PUSH1 0xE0 SHL DUP9 MSTORE PUSH1 0x41 DUP3 MSTORE PUSH1 0x24 DUP9 REVERT JUMPDEST SWAP1 POP DUP8 ADD MLOAD DUP11 PUSH2 0x3E0 JUMP JUMPDEST PUSH1 0x8 DUP11 MSTORE PUSH32 0xF3F7A9FE364FAAB93B216DA50A3214154F22A0A2B415B23A84C8169E8B636EE3 SWAP2 POP PUSH1 0x1F NOT DUP4 AND DUP11 JUMPDEST DUP11 DUP3 DUP3 LT PUSH2 0x788 JUMPI POP POP SWAP1 DUP4 PUSH1 0x1 SWAP5 SWAP4 SWAP3 LT PUSH2 0x76F JUMPI JUMPDEST POP POP DUP2 SHL ADD PUSH1 0x8 SSTORE PUSH2 0x3F5 JUMP JUMPDEST DUP10 ADD MLOAD PUSH1 0x0 NOT PUSH1 0xF8 DUP5 PUSH1 0x3 SHL AND SHR NOT AND SWAP1 SSTORE DUP11 DUP1 PUSH2 0x762 JUMP JUMPDEST PUSH1 0x1 DUP5 SWAP6 PUSH1 0x20 SWAP4 SWAP6 DUP5 SWAP4 ADD MLOAD DUP2 SSTORE ADD SWAP5 ADD SWAP3 ADD PUSH2 0x74B JUMP JUMPDEST PUSH1 0x8 DUP10 MSTORE PUSH32 0xF3F7A9FE364FAAB93B216DA50A3214154F22A0A2B415B23A84C8169E8B636EE3 DUP11 DUP1 DUP5 ADD PUSH1 0x5 SHR DUP3 ADD SWAP3 PUSH1 0x20 DUP6 LT PUSH2 0x7F7 JUMPI JUMPDEST ADD PUSH1 0x5 SHR ADD SWAP1 JUMPDEST DUP2 DUP2 LT PUSH2 0x7EC JUMPI POP PUSH2 0x3CB JUMP JUMPDEST DUP10 DUP2 SSTORE PUSH1 0x1 ADD PUSH2 0x7DF JUMP JUMPDEST SWAP3 POP DUP2 SWAP3 PUSH2 0x7D8 JUMP JUMPDEST DUP6 DUP1 REVERT JUMPDEST DUP5 DUP1 REVERT JUMPDEST DUP4 DUP1 REVERT JUMPDEST POP POP CALLVALUE PUSH2 0x1A2 JUMPI DUP2 PUSH1 0x3 NOT CALLDATASIZE ADD SLT PUSH2 0x1A2 JUMPI DUP1 MLOAD SWAP1 DUP3 PUSH1 0xE SLOAD PUSH2 0x82E DUP2 PUSH2 0x15CF JUMP JUMPDEST DUP1 DUP6 MSTORE SWAP2 PUSH1 0x1 SWAP2 DUP1 DUP4 AND SWAP1 DUP2 ISZERO PUSH2 0x8CD JUMPI POP PUSH1 0x1 EQ PUSH2 0x870 JUMPI JUMPDEST POP POP POP PUSH2 0x85A DUP3 PUSH2 0x86C SWAP5 SUB DUP4 PUSH2 0x1609 JUMP JUMPDEST MLOAD SWAP2 DUP3 SWAP2 PUSH1 0x20 DUP4 MSTORE PUSH1 0x20 DUP4 ADD SWAP1 PUSH2 0x158F JUMP JUMPDEST SUB SWAP1 RETURN JUMPDEST SWAP5 POP PUSH1 0xE DUP6 MSTORE PUSH32 0xBB7B4A454DC3493923482F07822329ED19E8244EFF582CC204F8554C3620C3FD JUMPDEST DUP3 DUP7 LT PUSH2 0x8B5 JUMPI POP POP POP PUSH2 0x85A DUP3 PUSH1 0x20 PUSH2 0x86C SWAP6 DUP3 ADD ADD SWAP5 PUSH2 0x848 JUMP JUMPDEST DUP1 SLOAD PUSH1 0x20 DUP8 DUP8 ADD DUP2 ADD SWAP2 SWAP1 SWAP2 MSTORE SWAP1 SWAP6 ADD SWAP5 DUP2 ADD PUSH2 0x898 JUMP JUMPDEST PUSH2 0x86C SWAP8 POP DUP7 SWAP4 POP PUSH1 0x20 SWAP3 POP PUSH2 0x85A SWAP5 SWAP2 POP PUSH1 0xFF NOT AND DUP3 DUP5 ADD MSTORE ISZERO ISZERO PUSH1 0x5 SHL DUP3 ADD ADD SWAP5 PUSH2 0x848 JUMP JUMPDEST SWAP1 POP DUP3 CALLVALUE PUSH2 0x223 JUMPI DUP1 PUSH1 0x3 NOT CALLDATASIZE ADD SLT PUSH2 0x223 JUMPI SWAP2 SWAP1 PUSH1 0x11 SLOAD SWAP3 PUSH2 0x917 DUP5 PUSH2 0x1CAE JUMP JUMPDEST PUSH2 0x923 DUP5 MLOAD SWAP2 DUP3 PUSH2 0x1609 JUMP JUMPDEST DUP5 DUP2 MSTORE PUSH2 0x92F DUP6 PUSH2 0x1CAE JUMP JUMPDEST PUSH1 0x20 SWAP6 DUP3 DUP8 ADD SWAP5 SWAP2 PUSH1 0x1F NOT ADD CALLDATASIZE DUP7 CALLDATACOPY DUP4 JUMPDEST DUP2 DUP2 LT PUSH2 0x98E JUMPI POP POP POP DUP4 MLOAD SWAP5 DUP6 SWAP5 DUP2 DUP7 ADD SWAP3 DUP3 DUP8 MSTORE MLOAD DUP1 SWAP4 MSTORE DUP6 ADD SWAP4 SWAP3 JUMPDEST DUP3 DUP2 LT PUSH2 0x96E JUMPI POP POP POP POP SUB SWAP1 RETURN JUMPDEST DUP4 MLOAD PUSH1 0x1 PUSH1 0x1 PUSH1 0xA0 SHL SUB AND DUP6 MSTORE DUP7 SWAP6 POP SWAP4 DUP2 ADD SWAP4 SWAP3 DUP2 ADD SWAP3 PUSH1 0x1 ADD PUSH2 0x95F JUMP JUMPDEST PUSH2 0x99D DUP2 SWAP9 SWAP6 SWAP5 SWAP7 SWAP8 SWAP9 PUSH2 0x1AC0 JUMP JUMPDEST SWAP1 SLOAD DUP8 MLOAD DUP4 LT ISZERO PUSH2 0x9D6 JUMPI PUSH1 0x3 SWAP2 SWAP1 SWAP2 SHL SHR PUSH1 0x1 PUSH1 0x1 PUSH1 0xA0 SHL SUB AND PUSH1 0x5 DUP3 SWAP1 SHL DUP8 ADD DUP7 ADD MSTORE PUSH2 0x9CB SWAP1 PUSH2 0x1C79 JUMP JUMPDEST SWAP7 SWAP6 SWAP5 SWAP3 SWAP4 SWAP7 PUSH2 0x940 JUMP JUMPDEST PUSH4 0x4E487B71 PUSH1 0xE0 SHL DUP7 MSTORE PUSH1 0x32 DUP6 MSTORE PUSH1 0x24 DUP7 REVERT JUMPDEST POP POP CALLVALUE PUSH2 0x1A2 JUMPI DUP2 PUSH1 0x3 NOT CALLDATASIZE ADD SLT PUSH2 0x1A2 JUMPI PUSH1 0x20 SWAP1 PUSH1 0xFF PUSH1 0x10 SLOAD AND SWAP1 MLOAD SWAP1 ISZERO ISZERO DUP2 MSTORE RETURN JUMPDEST SWAP1 POP CALLVALUE PUSH2 0x2F2 JUMPI DUP2 PUSH1 0x3 NOT CALLDATASIZE ADD SLT PUSH2 0x2F2 JUMPI PUSH8 0xFFFFFFFFFFFFFFFF SWAP2 DUP2 CALLDATALOAD DUP4 DUP2 GT PUSH2 0x804 JUMPI PUSH2 0xA3F SWAP1 CALLDATASIZE SWAP1 DUP5 ADD PUSH2 0x1672 JUMP JUMPDEST SWAP1 SWAP4 PUSH1 0x24 CALLDATALOAD SWAP1 DUP2 GT PUSH2 0x800 JUMPI PUSH2 0xA58 SWAP1 CALLDATASIZE SWAP1 DUP6 ADD PUSH2 0x1672 JUMP JUMPDEST SWAP2 SWAP1 SWAP4 PUSH2 0xA63 PUSH2 0x16FA JUMP JUMPDEST DUP3 DUP3 SUB PUSH2 0xB32 JUMPI POP DUP6 JUMPDEST DUP2 DUP2 LT PUSH2 0xA78 JUMPI DUP7 DUP1 RETURN JUMPDEST PUSH2 0xA83 DUP2 DUP4 DUP9 PUSH2 0x1C9E JUMP JUMPDEST CALLDATALOAD PUSH1 0x1 PUSH1 0x1 PUSH1 0xA0 SHL SUB DUP2 AND SWAP2 SWAP1 DUP3 SWAP1 SUB PUSH2 0xB2E JUMPI PUSH2 0xAA2 DUP2 DUP6 DUP9 PUSH2 0x1C9E JUMP JUMPDEST CALLDATALOAD SWAP2 DUP3 ISZERO ISZERO SWAP3 DUP10 DUP5 DUP3 SUB PUSH2 0x223 JUMPI PUSH2 0xB1A SWAP5 PUSH32 0x3A620C3544F4661F38B303E51FF3C4CC552DA5A80EC55D4E3875AF78775E1A82 SWAP3 PUSH2 0xADE PUSH2 0x16FA JUMP JUMPDEST DUP5 DUP4 MSTORE PUSH2 0xAFF DUP2 DUP12 PUSH1 0x20 SWAP6 PUSH1 0xF DUP8 MSTORE KECCAK256 SWAP1 PUSH1 0xFF DUP1 NOT DUP4 SLOAD AND SWAP2 ISZERO ISZERO AND OR SWAP1 SSTORE JUMP JUMPDEST ISZERO PUSH2 0xB1F JUMPI PUSH2 0xB0D DUP5 PUSH2 0x1B0D JUMP JUMPDEST POP JUMPDEST DUP9 MLOAD SWAP1 DUP2 MSTORE LOG2 PUSH2 0x1C79 JUMP JUMPDEST PUSH2 0xA6D JUMP JUMPDEST PUSH2 0xB28 DUP5 PUSH2 0x1B8F JUMP JUMPDEST POP PUSH2 0xB0F JUMP JUMPDEST DUP8 DUP1 REVERT JUMPDEST PUSH1 0x64 SWAP1 PUSH1 0x20 DUP6 MLOAD SWAP2 PUSH3 0x461BCD PUSH1 0xE5 SHL DUP4 MSTORE DUP3 ADD MSTORE PUSH1 0x16 PUSH1 0x24 DUP3 ADD MSTORE PUSH22 0x82E4E4C2F2E640D8CADCCEE8D040DAD2E6DAC2E8C6D PUSH1 0x53 SHL PUSH1 0x44 DUP3 ADD MSTORE REVERT JUMPDEST POP POP CALLVALUE PUSH2 0x1A2 JUMPI DUP1 PUSH1 0x3 NOT CALLDATASIZE ADD SLT PUSH2 0x1A2 JUMPI PUSH1 0x20 SWAP1 PUSH2 0xB98 PUSH2 0xB8E PUSH2 0x1641 JUMP JUMPDEST PUSH1 0x24 CALLDATALOAD SWAP1 CALLER PUSH2 0x1752 JUMP JUMPDEST MLOAD PUSH1 0x1 DUP2 MSTORE RETURN JUMPDEST POP POP CALLVALUE PUSH2 0x1A2 JUMPI PUSH1 0x20 CALLDATASIZE PUSH1 0x3 NOT ADD SLT PUSH2 0x1A2 JUMPI PUSH1 0x20 SWAP2 PUSH1 0xFF SWAP1 DUP3 SWAP1 PUSH1 0x1 PUSH1 0x1 PUSH1 0xA0 SHL SUB PUSH2 0xBCA PUSH2 0x1641 JUMP JUMPDEST AND DUP2 MSTORE PUSH1 0xF DUP6 MSTORE KECCAK256 SLOAD AND SWAP1 MLOAD SWAP1 ISZERO ISZERO DUP2 MSTORE RETURN JUMPDEST SWAP1 POP DUP3 CALLVALUE PUSH2 0x223 JUMPI DUP3 PUSH1 0x3 NOT CALLDATASIZE ADD SLT PUSH2 0x223 JUMPI PUSH2 0xBF8 PUSH2 0x1641 JUMP JUMPDEST SWAP2 DUP4 PUSH1 0x24 CALLDATALOAD SWAP3 CALLER DUP2 MSTORE PUSH1 0x1 PUSH1 0x20 MSTORE DUP2 DUP2 KECCAK256 PUSH1 0x1 DUP1 PUSH1 0xA0 SHL SUB DUP7 AND DUP3 MSTORE PUSH1 0x20 MSTORE KECCAK256 SLOAD SWAP1 DUP3 DUP3 LT PUSH2 0xC31 JUMPI PUSH1 0x20 DUP6 PUSH2 0xB98 DUP6 DUP6 SUB DUP8 CALLER PUSH2 0x19BE JUMP JUMPDEST PUSH1 0x84 SWAP1 PUSH1 0x20 DUP7 MLOAD SWAP2 PUSH3 0x461BCD PUSH1 0xE5 SHL DUP4 MSTORE DUP3 ADD MSTORE PUSH1 0x25 PUSH1 0x24 DUP3 ADD MSTORE PUSH32 0x45524332303A2064656372656173656420616C6C6F77616E63652062656C6F77 PUSH1 0x44 DUP3 ADD MSTORE PUSH5 0x207A65726F PUSH1 0xD8 SHL PUSH1 0x64 DUP3 ADD MSTORE REVERT JUMPDEST POP POP CALLVALUE PUSH2 0x1A2 JUMPI DUP1 PUSH1 0x3 NOT CALLDATASIZE ADD SLT PUSH2 0x1A2 JUMPI PUSH2 0xC9C PUSH2 0x1641 JUMP JUMPDEST SWAP1 PUSH1 0x24 CALLDATALOAD SWAP2 DUP3 ISZERO ISZERO DUP1 DUP5 SUB PUSH2 0x804 JUMPI PUSH32 0x3A620C3544F4661F38B303E51FF3C4CC552DA5A80EC55D4E3875AF78775E1A82 SWAP3 PUSH1 0x20 SWAP3 PUSH2 0xCD8 PUSH2 0x16FA JUMP JUMPDEST PUSH1 0x1 PUSH1 0x1 PUSH1 0xA0 SHL SUB AND DUP1 DUP8 MSTORE PUSH1 0xF DUP5 MSTORE DUP2 DUP8 KECCAK256 DUP1 SLOAD PUSH1 0xFF NOT AND PUSH1 0xFF DUP9 ISZERO ISZERO AND OR SWAP1 SSTORE SWAP5 ISZERO PUSH2 0xD13 JUMPI PUSH2 0xD09 DUP6 PUSH2 0x1B0D JUMP JUMPDEST POP JUMPDEST MLOAD SWAP1 DUP2 MSTORE LOG2 DUP1 RETURN JUMPDEST PUSH2 0xD1C DUP6 PUSH2 0x1B8F JUMP JUMPDEST POP PUSH2 0xD0B JUMP JUMPDEST POP POP CALLVALUE PUSH2 0x1A2 JUMPI DUP2 PUSH1 0x3 NOT CALLDATASIZE ADD SLT PUSH2 0x1A2 JUMPI PUSH1 0x20 SWAP1 PUSH1 0x11 SLOAD SWAP1 MLOAD SWAP1 DUP2 MSTORE RETURN JUMPDEST SWAP2 SWAP1 POP CALLVALUE PUSH2 0x2F2 JUMPI DUP3 PUSH1 0x3 NOT CALLDATASIZE ADD SLT PUSH2 0x2F2 JUMPI DUP1 MLOAD SWAP2 DUP4 DUP2 SLOAD SWAP1 PUSH2 0xD64 DUP3 PUSH2 0x15CF JUMP JUMPDEST DUP1 DUP7 MSTORE SWAP3 PUSH1 0x1 SWAP3 DUP1 DUP5 AND SWAP1 DUP2 ISZERO PUSH2 0xDEB JUMPI POP PUSH1 0x1 EQ PUSH2 0xD8F JUMPI JUMPDEST PUSH2 0x86C DUP7 DUP7 PUSH2 0x85A DUP3 DUP12 SUB DUP4 PUSH2 0x1609 JUMP JUMPDEST DUP2 MSTORE SWAP5 POP PUSH32 0x8A35ACFBC15FF81A39AE7D344FD709F28E8600B4AA8C65C6B64BFE7FE36BD19B JUMPDEST DUP3 DUP7 LT PUSH2 0xDD3 JUMPI POP POP POP PUSH2 0x85A DUP3 PUSH1 0x20 PUSH2 0x86C SWAP6 DUP3 ADD ADD SWAP5 CODESIZE PUSH2 0xD7E JUMP JUMPDEST DUP1 SLOAD PUSH1 0x20 DUP8 DUP8 ADD DUP2 ADD SWAP2 SWAP1 SWAP2 MSTORE SWAP1 SWAP6 ADD SWAP5 DUP2 ADD PUSH2 0xDB5 JUMP JUMPDEST SWAP1 POP PUSH2 0x86C SWAP8 POP DUP7 SWAP4 POP PUSH1 0x20 SWAP3 POP PUSH2 0x85A SWAP5 SWAP2 POP PUSH1 0xFF NOT AND DUP3 DUP5 ADD MSTORE ISZERO ISZERO PUSH1 0x5 SHL DUP3 ADD ADD SWAP5 CODESIZE PUSH2 0xD7E JUMP JUMPDEST POP POP CALLVALUE PUSH2 0x1A2 JUMPI DUP2 PUSH1 0x3 NOT CALLDATASIZE ADD SLT PUSH2 0x1A2 JUMPI PUSH1 0x5 SLOAD SWAP1 MLOAD PUSH1 0x1 PUSH1 0x1 PUSH1 0xA0 SHL SUB SWAP1 SWAP2 AND DUP2 MSTORE PUSH1 0x20 SWAP1 RETURN JUMPDEST POP POP CALLVALUE PUSH2 0x1A2 JUMPI DUP2 PUSH1 0x3 NOT CALLDATASIZE ADD SLT PUSH2 0x1A2 JUMPI DUP1 MLOAD SWAP1 DUP3 PUSH1 0x6 SLOAD PUSH2 0xE61 DUP2 PUSH2 0x15CF JUMP JUMPDEST DUP1 DUP6 MSTORE SWAP2 PUSH1 0x1 SWAP2 DUP1 DUP4 AND SWAP1 DUP2 ISZERO PUSH2 0x8CD JUMPI POP PUSH1 0x1 EQ PUSH2 0xE8C JUMPI POP POP POP PUSH2 0x85A DUP3 PUSH2 0x86C SWAP5 SUB DUP4 PUSH2 0x1609 JUMP JUMPDEST SWAP5 POP PUSH1 0x6 DUP6 MSTORE PUSH32 0xF652222313E28459528D920B65115C16C04F3EFC82AAEDC97BE59F3F377C0D3F JUMPDEST DUP3 DUP7 LT PUSH2 0xED1 JUMPI POP POP POP PUSH2 0x85A DUP3 PUSH1 0x20 PUSH2 0x86C SWAP6 DUP3 ADD ADD SWAP5 PUSH2 0x848 JUMP JUMPDEST DUP1 SLOAD PUSH1 0x20 DUP8 DUP8 ADD DUP2 ADD SWAP2 SWAP1 SWAP2 MSTORE SWAP1 SWAP6 ADD SWAP5 DUP2 ADD PUSH2 0xEB4 JUMP JUMPDEST DUP4 CALLVALUE PUSH2 0x223 JUMPI DUP1 PUSH1 0x3 NOT CALLDATASIZE ADD SLT PUSH2 0x223 JUMPI PUSH2 0xF02 PUSH2 0x16FA JUMP JUMPDEST PUSH1 0x5 DUP1 SLOAD PUSH1 0x1 PUSH1 0x1 PUSH1 0xA0 SHL SUB NOT DUP2 AND SWAP1 SWAP2 SSTORE DUP2 SWAP1 PUSH1 0x1 PUSH1 0x1 PUSH1 0xA0 SHL SUB AND PUSH32 0x8BE0079C531659141344CD1FD0A4F28419497F9722A3DAAFE3B4186F6B6457E0 DUP3 DUP1 LOG3 DUP1 RETURN JUMPDEST POP POP CALLVALUE PUSH2 0x1A2 JUMPI PUSH1 0x20 CALLDATASIZE PUSH1 0x3 NOT ADD SLT PUSH2 0x1A2 JUMPI PUSH1 0x20 SWAP2 DUP2 SWAP1 PUSH1 0x1 PUSH1 0x1 PUSH1 0xA0 SHL SUB PUSH2 0xF6E PUSH2 0x1641 JUMP JUMPDEST AND DUP2 MSTORE DUP1 DUP5 MSTORE KECCAK256 SLOAD SWAP1 MLOAD SWAP1 DUP2 MSTORE RETURN JUMPDEST POP POP CALLVALUE PUSH2 0x1A2 JUMPI DUP2 PUSH1 0x3 NOT CALLDATASIZE ADD SLT PUSH2 0x1A2 JUMPI DUP1 MLOAD SWAP1 DUP3 PUSH1 0x8 SLOAD PUSH2 0xF9F DUP2 PUSH2 0x15CF JUMP JUMPDEST DUP1 DUP6 MSTORE SWAP2 PUSH1 0x1 SWAP2 DUP1 DUP4 AND SWAP1 DUP2 ISZERO PUSH2 0x8CD JUMPI POP PUSH1 0x1 EQ PUSH2 0xFCA JUMPI POP POP POP PUSH2 0x85A DUP3 PUSH2 0x86C SWAP5 SUB DUP4 PUSH2 0x1609 JUMP JUMPDEST SWAP5 POP PUSH1 0x8 DUP6 MSTORE PUSH32 0xF3F7A9FE364FAAB93B216DA50A3214154F22A0A2B415B23A84C8169E8B636EE3 JUMPDEST DUP3 DUP7 LT PUSH2 0x100F JUMPI POP POP POP PUSH2 0x85A DUP3 PUSH1 0x20 PUSH2 0x86C SWAP6 DUP3 ADD ADD SWAP5 PUSH2 0x848 JUMP JUMPDEST DUP1 SLOAD PUSH1 0x20 DUP8 DUP8 ADD DUP2 ADD SWAP2 SWAP1 SWAP2 MSTORE SWAP1 SWAP6 ADD SWAP5 DUP2 ADD PUSH2 0xFF2 JUMP JUMPDEST POP POP CALLVALUE PUSH2 0x1A2 JUMPI DUP2 PUSH1 0x3 NOT CALLDATASIZE ADD SLT PUSH2 0x1A2 JUMPI DUP1 MLOAD SWAP1 DUP3 PUSH1 0x7 SLOAD PUSH2 0x1049 DUP2 PUSH2 0x15CF JUMP JUMPDEST DUP1 DUP6 MSTORE SWAP2 PUSH1 0x1 SWAP2 DUP1 DUP4 AND SWAP1 DUP2 ISZERO PUSH2 0x8CD JUMPI POP PUSH1 0x1 EQ PUSH2 0x1074 JUMPI POP POP POP PUSH2 0x85A DUP3 PUSH2 0x86C SWAP5 SUB DUP4 PUSH2 0x1609 JUMP JUMPDEST SWAP5 POP PUSH1 0x7 DUP6 MSTORE PUSH32 0xA66CC928B5EDB82AF9BD49922954155AB7B0942694BEA4CE44661D9A8736C688 JUMPDEST DUP3 DUP7 LT PUSH2 0x10B9 JUMPI POP POP POP PUSH2 0x85A DUP3 PUSH1 0x20 PUSH2 0x86C SWAP6 DUP3 ADD ADD SWAP5 PUSH2 0x848 JUMP JUMPDEST DUP1 SLOAD PUSH1 0x20 DUP8 DUP8 ADD DUP2 ADD SWAP2 SWAP1 SWAP2 MSTORE SWAP1 SWAP6 ADD SWAP5 DUP2 ADD PUSH2 0x109C JUMP JUMPDEST POP POP CALLVALUE PUSH2 0x1A2 JUMPI DUP2 PUSH1 0x3 NOT CALLDATASIZE ADD SLT PUSH2 0x1A2 JUMPI DUP1 MLOAD SWAP1 DUP3 PUSH1 0xA SLOAD PUSH2 0x10F3 DUP2 PUSH2 0x15CF JUMP JUMPDEST DUP1 DUP6 MSTORE SWAP2 PUSH1 0x1 SWAP2 DUP1 DUP4 AND SWAP1 DUP2 ISZERO PUSH2 0x8CD JUMPI POP PUSH1 0x1 EQ PUSH2 0x111E JUMPI POP POP POP PUSH2 0x85A DUP3 PUSH2 0x86C SWAP5 SUB DUP4 PUSH2 0x1609 JUMP JUMPDEST SWAP5 POP PUSH1 0xA DUP6 MSTORE PUSH32 0xC65A7BB8D6351C1CF70C95A316CC6A92839C986682D98BC35F958F4883F9D2A8 JUMPDEST DUP3 DUP7 LT PUSH2 0x1163 JUMPI POP POP POP PUSH2 0x85A DUP3 PUSH1 0x20 PUSH2 0x86C SWAP6 DUP3 ADD ADD SWAP5 PUSH2 0x848 JUMP JUMPDEST DUP1 SLOAD PUSH1 0x20 DUP8 DUP8 ADD DUP2 ADD SWAP2 SWAP1 SWAP2 MSTORE SWAP1 SWAP6 ADD SWAP5 DUP2 ADD PUSH2 0x1146 JUMP JUMPDEST DUP3 DUP5 CALLVALUE PUSH2 0x223 JUMPI DUP2 PUSH1 0x3 NOT CALLDATASIZE ADD SLT PUSH2 0x223 JUMPI PUSH2 0x1195 PUSH2 0x1641 JUMP JUMPDEST CALLER DUP3 MSTORE PUSH1 0x1 PUSH1 0x20 SWAP1 DUP2 MSTORE DUP4 DUP4 KECCAK256 PUSH1 0x1 PUSH1 0x1 PUSH1 0xA0 SHL SUB DUP4 AND DUP5 MSTORE SWAP1 MSTORE DUP3 DUP3 KECCAK256 SLOAD PUSH1 0x24 CALLDATALOAD DUP2 ADD SWAP3 SWAP1 DUP4 LT PUSH2 0x11CF JUMPI PUSH1 0x20 DUP5 PUSH2 0xB98 DUP6 DUP6 CALLER PUSH2 0x19BE JUMP JUMPDEST PUSH4 0x4E487B71 PUSH1 0xE0 SHL DUP2 MSTORE PUSH1 0x11 DUP6 MSTORE PUSH1 0x24 SWAP1 REVERT JUMPDEST POP POP CALLVALUE PUSH2 0x1A2 JUMPI DUP2 PUSH1 0x3 NOT CALLDATASIZE ADD SLT PUSH2 0x1A2 JUMPI PUSH1 0x20 SWAP1 MLOAD PUSH1 0x12 DUP2 MSTORE RETURN JUMPDEST POP POP CALLVALUE PUSH2 0x1A2 JUMPI DUP2 PUSH1 0x3 NOT CALLDATASIZE ADD SLT PUSH2 0x1A2 JUMPI DUP1 MLOAD SWAP1 DUP3 PUSH1 0xD SLOAD PUSH2 0x1220 DUP2 PUSH2 0x15CF JUMP JUMPDEST DUP1 DUP6 MSTORE SWAP2 PUSH1 0x1 SWAP2 DUP1 DUP4 AND SWAP1 DUP2 ISZERO PUSH2 0x8CD JUMPI POP PUSH1 0x1 EQ PUSH2 0x124B JUMPI POP POP POP PUSH2 0x85A DUP3 PUSH2 0x86C SWAP5 SUB DUP4 PUSH2 0x1609 JUMP JUMPDEST SWAP5 POP PUSH1 0xD DUP6 MSTORE PUSH32 0xD7B6990105719101DABEB77144F2A3385C8033ACD3AF97E9423A695E81AD1EB5 JUMPDEST DUP3 DUP7 LT PUSH2 0x1290 JUMPI POP POP POP PUSH2 0x85A DUP3 PUSH1 0x20 PUSH2 0x86C SWAP6 DUP3 ADD ADD SWAP5 PUSH2 0x848 JUMP JUMPDEST DUP1 SLOAD PUSH1 0x20 DUP8 DUP8 ADD DUP2 ADD SWAP2 SWAP1 SWAP2 MSTORE SWAP1 SWAP6 ADD SWAP5 DUP2 ADD PUSH2 0x1273 JUMP JUMPDEST SWAP1 POP CALLVALUE PUSH2 0x2F2 JUMPI PUSH1 0x20 CALLDATASIZE PUSH1 0x3 NOT ADD SLT PUSH2 0x2F2 JUMPI CALLDATALOAD SWAP1 DUP2 ISZERO ISZERO DUP1 SWAP3 SUB PUSH2 0x2F2 JUMPI PUSH32 0x3F0522FB4345C29729658DF56A8B87C4360593A277942CC15CDF041866058690 SWAP2 PUSH1 0x20 SWAP2 PUSH2 0x12F4 PUSH2 0x16FA JUMP JUMPDEST PUSH1 0xFF NOT PUSH1 0x10 SLOAD AND PUSH1 0xFF DUP4 AND OR PUSH1 0x10 SSTORE MLOAD SWAP1 DUP2 MSTORE LOG1 DUP1 RETURN JUMPDEST DUP4 SWAP2 POP CALLVALUE PUSH2 0x1A2 JUMPI PUSH1 0x60 CALLDATASIZE PUSH1 0x3 NOT ADD SLT PUSH2 0x1A2 JUMPI PUSH2 0x1327 PUSH2 0x1641 JUMP JUMPDEST PUSH2 0x132F PUSH2 0x165C JUMP JUMPDEST SWAP2 DUP5 PUSH1 0x44 CALLDATALOAD SWAP5 PUSH1 0x1 DUP1 PUSH1 0xA0 SHL SUB DUP5 AND DUP2 MSTORE PUSH1 0x1 PUSH1 0x20 MSTORE DUP2 DUP2 KECCAK256 CALLER DUP3 MSTORE PUSH1 0x20 MSTORE KECCAK256 SLOAD SWAP1 PUSH1 0x0 NOT DUP3 SUB PUSH2 0x1369 JUMPI JUMPDEST PUSH1 0x20 DUP7 PUSH2 0xB98 DUP8 DUP8 DUP8 PUSH2 0x1752 JUMP JUMPDEST DUP5 DUP3 LT PUSH2 0x1392 JUMPI POP SWAP2 DUP4 SWAP2 PUSH2 0x1387 PUSH1 0x20 SWAP7 SWAP6 PUSH2 0xB98 SWAP6 SUB CALLER DUP4 PUSH2 0x19BE JUMP JUMPDEST SWAP2 SWAP4 SWAP5 DUP2 SWAP4 POP PUSH2 0x135B JUMP JUMPDEST PUSH1 0x64 SWAP1 PUSH1 0x20 DUP8 MLOAD SWAP2 PUSH3 0x461BCD PUSH1 0xE5 SHL DUP4 MSTORE DUP3 ADD MSTORE PUSH1 0x1D PUSH1 0x24 DUP3 ADD MSTORE PUSH32 0x45524332303A20696E73756666696369656E7420616C6C6F77616E6365000000 PUSH1 0x44 DUP3 ADD MSTORE REVERT JUMPDEST POP POP CALLVALUE PUSH2 0x1A2 JUMPI DUP2 PUSH1 0x3 NOT CALLDATASIZE ADD SLT PUSH2 0x1A2 JUMPI PUSH1 0x20 SWAP1 PUSH1 0xB SLOAD SWAP1 MLOAD SWAP1 DUP2 MSTORE RETURN JUMPDEST POP POP CALLVALUE PUSH2 0x1A2 JUMPI DUP2 PUSH1 0x3 NOT CALLDATASIZE ADD SLT PUSH2 0x1A2 JUMPI PUSH1 0x20 SWAP1 PUSH1 0x2 SLOAD SWAP1 MLOAD SWAP1 DUP2 MSTORE RETURN JUMPDEST POP POP CALLVALUE PUSH2 0x1A2 JUMPI DUP1 PUSH1 0x3 NOT CALLDATASIZE ADD SLT PUSH2 0x1A2 JUMPI PUSH1 0x20 SWAP1 PUSH2 0xB98 PUSH2 0x1433 PUSH2 0x1641 JUMP JUMPDEST PUSH1 0x24 CALLDATALOAD SWAP1 CALLER PUSH2 0x19BE JUMP JUMPDEST POP POP CALLVALUE PUSH2 0x1A2 JUMPI DUP2 PUSH1 0x3 NOT CALLDATASIZE ADD SLT PUSH2 0x1A2 JUMPI DUP1 MLOAD SWAP1 DUP3 PUSH1 0x9 SLOAD PUSH2 0x145F DUP2 PUSH2 0x15CF JUMP JUMPDEST DUP1 DUP6 MSTORE SWAP2 PUSH1 0x1 SWAP2 DUP1 DUP4 AND SWAP1 DUP2 ISZERO PUSH2 0x8CD JUMPI POP PUSH1 0x1 EQ PUSH2 0x148A JUMPI POP POP POP PUSH2 0x85A DUP3 PUSH2 0x86C SWAP5 SUB DUP4 PUSH2 0x1609 JUMP JUMPDEST SWAP5 POP PUSH1 0x9 DUP6 MSTORE PUSH32 0x6E1540171B6C0C960B71A7020D9F60077F6AF931A8BBF590DA0223DACF75C7AF JUMPDEST DUP3 DUP7 LT PUSH2 0x14CF JUMPI POP POP POP PUSH2 0x85A DUP3 PUSH1 0x20 PUSH2 0x86C SWAP6 DUP3 ADD ADD SWAP5 PUSH2 0x848 JUMP JUMPDEST DUP1 SLOAD PUSH1 0x20 DUP8 DUP8 ADD DUP2 ADD SWAP2 SWAP1 SWAP2 MSTORE SWAP1 SWAP6 ADD SWAP5 DUP2 ADD PUSH2 0x14B2 JUMP JUMPDEST DUP5 SWAP1 DUP5 CALLVALUE PUSH2 0x2F2 JUMPI DUP3 PUSH1 0x3 NOT CALLDATASIZE ADD SLT PUSH2 0x2F2 JUMPI DUP3 PUSH1 0x3 SLOAD PUSH2 0x1507 DUP2 PUSH2 0x15CF JUMP JUMPDEST DUP1 DUP6 MSTORE SWAP2 PUSH1 0x1 SWAP2 DUP1 DUP4 AND SWAP1 DUP2 ISZERO PUSH2 0x8CD JUMPI POP PUSH1 0x1 EQ PUSH2 0x1532 JUMPI POP POP POP PUSH2 0x85A DUP3 PUSH2 0x86C SWAP5 SUB DUP4 PUSH2 0x1609 JUMP JUMPDEST SWAP5 POP PUSH1 0x3 DUP6 MSTORE PUSH32 0xC2575A0E9E593C00F959F8C92F12DB2869C3395A3B0502D05E2516446F71F85B JUMPDEST DUP3 DUP7 LT PUSH2 0x1577 JUMPI POP POP POP PUSH2 0x85A DUP3 PUSH1 0x20 PUSH2 0x86C SWAP6 DUP3 ADD ADD SWAP5 PUSH2 0x848 JUMP JUMPDEST DUP1 SLOAD PUSH1 0x20 DUP8 DUP8 ADD DUP2 ADD SWAP2 SWAP1 SWAP2 MSTORE SWAP1 SWAP6 ADD SWAP5 DUP2 ADD PUSH2 0x155A JUMP JUMPDEST SWAP2 SWAP1 DUP3 MLOAD SWAP3 DUP4 DUP3 MSTORE PUSH1 0x0 JUMPDEST DUP5 DUP2 LT PUSH2 0x15BB JUMPI POP POP DUP3 PUSH1 0x0 PUSH1 0x20 DUP1 SWAP5 SWAP6 DUP5 ADD ADD MSTORE PUSH1 0x1F DUP1 NOT SWAP2 ADD AND ADD ADD SWAP1 JUMP JUMPDEST PUSH1 0x20 DUP2 DUP4 ADD DUP2 ADD MLOAD DUP5 DUP4 ADD DUP3 ADD MSTORE ADD PUSH2 0x159A JUMP JUMPDEST SWAP1 PUSH1 0x1 DUP3 DUP2 SHR SWAP3 AND DUP1 ISZERO PUSH2 0x15FF JUMPI JUMPDEST PUSH1 0x20 DUP4 LT EQ PUSH2 0x15E9 JUMPI JUMP JUMPDEST PUSH4 0x4E487B71 PUSH1 0xE0 SHL PUSH1 0x0 MSTORE PUSH1 0x22 PUSH1 0x4 MSTORE PUSH1 0x24 PUSH1 0x0 REVERT JUMPDEST SWAP2 PUSH1 0x7F AND SWAP2 PUSH2 0x15DE JUMP JUMPDEST SWAP1 PUSH1 0x1F DUP1 NOT SWAP2 ADD AND DUP2 ADD SWAP1 DUP2 LT PUSH8 0xFFFFFFFFFFFFFFFF DUP3 GT OR PUSH2 0x162B JUMPI PUSH1 0x40 MSTORE JUMP JUMPDEST PUSH4 0x4E487B71 PUSH1 0xE0 SHL PUSH1 0x0 MSTORE PUSH1 0x41 PUSH1 0x4 MSTORE PUSH1 0x24 PUSH1 0x0 REVERT JUMPDEST PUSH1 0x4 CALLDATALOAD SWAP1 PUSH1 0x1 PUSH1 0x1 PUSH1 0xA0 SHL SUB DUP3 AND DUP3 SUB PUSH2 0x1657 JUMPI JUMP JUMPDEST PUSH1 0x0 DUP1 REVERT JUMPDEST PUSH1 0x24 CALLDATALOAD SWAP1 PUSH1 0x1 PUSH1 0x1 PUSH1 0xA0 SHL SUB DUP3 AND DUP3 SUB PUSH2 0x1657 JUMPI JUMP JUMPDEST SWAP2 DUP2 PUSH1 0x1F DUP5 ADD SLT ISZERO PUSH2 0x1657 JUMPI DUP3 CALLDATALOAD SWAP2 PUSH8 0xFFFFFFFFFFFFFFFF DUP4 GT PUSH2 0x1657 JUMPI PUSH1 0x20 DUP1 DUP6 ADD SWAP5 DUP5 PUSH1 0x5 SHL ADD ADD GT PUSH2 0x1657 JUMPI JUMP JUMPDEST DUP2 PUSH1 0x1F DUP3 ADD SLT ISZERO PUSH2 0x1657 JUMPI DUP1 CALLDATALOAD SWAP1 PUSH8 0xFFFFFFFFFFFFFFFF DUP3 GT PUSH2 0x162B JUMPI PUSH1 0x40 MLOAD SWAP3 PUSH2 0x16D8 PUSH1 0x1F DUP5 ADD PUSH1 0x1F NOT AND PUSH1 0x20 ADD DUP6 PUSH2 0x1609 JUMP JUMPDEST DUP3 DUP5 MSTORE PUSH1 0x20 DUP4 DUP4 ADD ADD GT PUSH2 0x1657 JUMPI DUP2 PUSH1 0x0 SWAP3 PUSH1 0x20 DUP1 SWAP4 ADD DUP4 DUP7 ADD CALLDATACOPY DUP4 ADD ADD MSTORE SWAP1 JUMP JUMPDEST PUSH1 0x5 SLOAD PUSH1 0x1 PUSH1 0x1 PUSH1 0xA0 SHL SUB AND CALLER SUB PUSH2 0x170E JUMPI JUMP JUMPDEST PUSH1 0x64 PUSH1 0x40 MLOAD PUSH3 0x461BCD PUSH1 0xE5 SHL DUP2 MSTORE PUSH1 0x20 PUSH1 0x4 DUP3 ADD MSTORE PUSH1 0x20 PUSH1 0x24 DUP3 ADD MSTORE PUSH32 0x4F776E61626C653A2063616C6C6572206973206E6F7420746865206F776E6572 PUSH1 0x44 DUP3 ADD MSTORE REVERT JUMPDEST PUSH1 0x1 PUSH1 0x1 PUSH1 0xA0 SHL SUB SWAP1 DUP2 AND SWAP2 DUP3 ISZERO PUSH2 0x196B JUMPI AND SWAP2 DUP3 ISZERO PUSH2 0x191A JUMPI PUSH1 0xFF PUSH1 0x10 SLOAD AND ISZERO PUSH2 0x18D6 JUMPI PUSH1 0x0 SWAP1 DUP3 DUP3 MSTORE PUSH1 0x20 SWAP2 PUSH1 0xF DUP4 MSTORE PUSH1 0x40 SWAP1 PUSH1 0xFF DUP3 DUP3 KECCAK256 SLOAD AND ISZERO PUSH2 0x1892 JUMPI DUP6 DUP2 MSTORE PUSH1 0xF DUP5 MSTORE PUSH1 0xFF DUP3 DUP3 KECCAK256 SLOAD AND ISZERO PUSH2 0x184E JUMPI DUP5 DUP2 MSTORE DUP1 DUP5 MSTORE DUP2 DUP2 KECCAK256 SLOAD DUP4 DUP2 LT PUSH2 0x17FB JUMPI SWAP2 DUP2 DUP5 PUSH32 0xDDF252AD1BE2C89B69C2B068FC378DAA952BA7F163C4A11628F55A4DF523B3EF SWAP7 SWAP6 SWAP5 DUP9 DUP5 SWAP6 MSTORE DUP3 DUP8 MSTORE SUB DUP3 DUP3 KECCAK256 SSTORE DUP8 DUP2 MSTORE KECCAK256 DUP3 DUP2 SLOAD ADD SWAP1 SSTORE MLOAD SWAP1 DUP2 MSTORE LOG3 JUMP JUMPDEST DUP3 MLOAD PUSH3 0x461BCD PUSH1 0xE5 SHL DUP2 MSTORE PUSH1 0x4 DUP2 ADD DUP7 SWAP1 MSTORE PUSH1 0x26 PUSH1 0x24 DUP3 ADD MSTORE PUSH32 0x45524332303A207472616E7366657220616D6F756E7420657863656564732062 PUSH1 0x44 DUP3 ADD MSTORE PUSH6 0x616C616E6365 PUSH1 0xD0 SHL PUSH1 0x64 DUP3 ADD MSTORE PUSH1 0x84 SWAP1 REVERT JUMPDEST DUP2 MLOAD PUSH3 0x461BCD PUSH1 0xE5 SHL DUP2 MSTORE PUSH1 0x4 DUP2 ADD DUP6 SWAP1 MSTORE PUSH1 0x1D PUSH1 0x24 DUP3 ADD MSTORE PUSH32 0x526563697069656E74206973206E6F74204B5943207665726966696564000000 PUSH1 0x44 DUP3 ADD MSTORE PUSH1 0x64 SWAP1 REVERT JUMPDEST DUP2 MLOAD PUSH3 0x461BCD PUSH1 0xE5 SHL DUP2 MSTORE PUSH1 0x4 DUP2 ADD DUP6 SWAP1 MSTORE PUSH1 0x1A PUSH1 0x24 DUP3 ADD MSTORE PUSH32 0x53656E646572206973206E6F74204B5943207665726966696564000000000000 PUSH1 0x44 DUP3 ADD MSTORE PUSH1 0x64 SWAP1 REVERT JUMPDEST PUSH1 0x64 PUSH1 0x40 MLOAD PUSH3 0x461BCD PUSH1 0xE5 SHL DUP2 MSTORE PUSH1 0x20 PUSH1 0x4 DUP3 ADD MSTORE PUSH1 0x20 PUSH1 0x24 DUP3 ADD MSTORE PUSH32 0x5472616E7366657273206172652063757272656E746C792064697361626C6564 PUSH1 0x44 DUP3 ADD MSTORE REVERT JUMPDEST PUSH1 0x40 MLOAD PUSH3 0x461BCD PUSH1 0xE5 SHL DUP2 MSTORE PUSH1 0x20 PUSH1 0x4 DUP3 ADD MSTORE PUSH1 0x23 PUSH1 0x24 DUP3 ADD MSTORE PUSH32 0x45524332303A207472616E7366657220746F20746865207A65726F2061646472 PUSH1 0x44 DUP3 ADD MSTORE PUSH3 0x657373 PUSH1 0xE8 SHL PUSH1 0x64 DUP3 ADD MSTORE PUSH1 0x84 SWAP1 REVERT JUMPDEST PUSH1 0x40 MLOAD PUSH3 0x461BCD PUSH1 0xE5 SHL DUP2 MSTORE PUSH1 0x20 PUSH1 0x4 DUP3 ADD MSTORE PUSH1 0x25 PUSH1 0x24 DUP3 ADD MSTORE PUSH32 0x45524332303A207472616E736665722066726F6D20746865207A65726F206164 PUSH1 0x44 DUP3 ADD MSTORE PUSH5 0x6472657373 PUSH1 0xD8 SHL PUSH1 0x64 DUP3 ADD MSTORE PUSH1 0x84 SWAP1 REVERT JUMPDEST PUSH1 0x1 PUSH1 0x1 PUSH1 0xA0 SHL SUB SWAP1 DUP2 AND SWAP2 DUP3 ISZERO PUSH2 0x1A6F JUMPI AND SWAP2 DUP3 ISZERO PUSH2 0x1A1F JUMPI PUSH1 0x20 PUSH32 0x8C5BE1E5EBEC7D5BD14F71427D1E84F3DD0314C0F7B2291E5B200AC8C7C3B925 SWAP2 DUP4 PUSH1 0x0 MSTORE PUSH1 0x1 DUP3 MSTORE PUSH1 0x40 PUSH1 0x0 KECCAK256 DUP6 PUSH1 0x0 MSTORE DUP3 MSTORE DUP1 PUSH1 0x40 PUSH1 0x0 KECCAK256 SSTORE PUSH1 0x40 MLOAD SWAP1 DUP2 MSTORE LOG3 JUMP JUMPDEST PUSH1 0x40 MLOAD PUSH3 0x461BCD PUSH1 0xE5 SHL DUP2 MSTORE PUSH1 0x20 PUSH1 0x4 DUP3 ADD MSTORE PUSH1 0x22 PUSH1 0x24 DUP3 ADD MSTORE PUSH32 0x45524332303A20617070726F766520746F20746865207A65726F206164647265 PUSH1 0x44 DUP3 ADD MSTORE PUSH2 0x7373 PUSH1 0xF0 SHL PUSH1 0x64 DUP3 ADD MSTORE PUSH1 0x84 SWAP1 REVERT JUMPDEST PUSH1 0x40 MLOAD PUSH3 0x461BCD PUSH1 0xE5 SHL DUP2 MSTORE PUSH1 0x20 PUSH1 0x4 DUP3 ADD MSTORE PUSH1 0x24 DUP1 DUP3 ADD MSTORE PUSH32 0x45524332303A20617070726F76652066726F6D20746865207A65726F20616464 PUSH1 0x44 DUP3 ADD MSTORE PUSH4 0x72657373 PUSH1 0xE0 SHL PUSH1 0x64 DUP3 ADD MSTORE PUSH1 0x84 SWAP1 REVERT JUMPDEST PUSH1 0x11 SLOAD DUP2 LT ISZERO PUSH2 0x1AF7 JUMPI PUSH1 0x11 PUSH1 0x0 MSTORE PUSH32 0x31ECC21A745E3968A04E9570E4425BC18FA8019C68028196B546D1669C200C68 ADD SWAP1 PUSH1 0x0 SWAP1 JUMP JUMPDEST PUSH4 0x4E487B71 PUSH1 0xE0 SHL PUSH1 0x0 MSTORE PUSH1 0x32 PUSH1 0x4 MSTORE PUSH1 0x24 PUSH1 0x0 REVERT JUMPDEST PUSH1 0x0 DUP2 DUP2 MSTORE PUSH1 0x12 PUSH1 0x20 MSTORE PUSH1 0x40 DUP2 KECCAK256 SLOAD PUSH2 0x1B8A JUMPI PUSH1 0x11 SLOAD PUSH9 0x10000000000000000 DUP2 LT ISZERO PUSH2 0x1B76 JUMPI SWAP1 DUP3 PUSH2 0x1B62 PUSH2 0x1B4B DUP5 PUSH1 0x1 PUSH1 0x40 SWAP7 ADD PUSH1 0x11 SSTORE PUSH2 0x1AC0 JUMP JUMPDEST DUP2 SWAP4 SWAP2 SLOAD SWAP1 PUSH1 0x3 SHL SWAP2 DUP3 SHL SWAP2 PUSH1 0x0 NOT SWAP1 SHL NOT AND OR SWAP1 JUMP JUMPDEST SWAP1 SSTORE PUSH1 0x11 SLOAD SWAP3 DUP2 MSTORE PUSH1 0x12 PUSH1 0x20 MSTORE KECCAK256 SSTORE PUSH1 0x1 SWAP1 JUMP JUMPDEST PUSH4 0x4E487B71 PUSH1 0xE0 SHL DUP3 MSTORE PUSH1 0x41 PUSH1 0x4 MSTORE PUSH1 0x24 DUP3 REVERT JUMPDEST SWAP1 POP SWAP1 JUMP JUMPDEST PUSH1 0x0 DUP2 DUP2 MSTORE PUSH1 0x12 PUSH1 0x20 MSTORE PUSH1 0x40 DUP2 KECCAK256 SLOAD SWAP1 SWAP2 SWAP1 DUP1 ISZERO PUSH2 0x1C74 JUMPI PUSH1 0x0 NOT SWAP1 DUP1 DUP3 ADD DUP2 DUP2 GT PUSH2 0x1C60 JUMPI PUSH1 0x11 SLOAD SWAP1 DUP4 DUP3 ADD SWAP2 DUP3 GT PUSH2 0x1C4C JUMPI DUP1 DUP3 SUB PUSH2 0x1C18 JUMPI JUMPDEST POP POP POP PUSH1 0x11 SLOAD DUP1 ISZERO PUSH2 0x1C04 JUMPI DUP2 ADD SWAP1 PUSH2 0x1BE3 DUP3 PUSH2 0x1AC0 JUMP JUMPDEST SWAP1 SWAP2 DUP3 SLOAD SWAP2 PUSH1 0x3 SHL SHL NOT AND SWAP1 SSTORE PUSH1 0x11 SSTORE DUP2 MSTORE PUSH1 0x12 PUSH1 0x20 MSTORE PUSH1 0x40 DUP2 KECCAK256 SSTORE PUSH1 0x1 SWAP1 JUMP JUMPDEST PUSH4 0x4E487B71 PUSH1 0xE0 SHL DUP5 MSTORE PUSH1 0x31 PUSH1 0x4 MSTORE PUSH1 0x24 DUP5 REVERT JUMPDEST PUSH2 0x1C36 PUSH2 0x1C27 PUSH2 0x1B4B SWAP4 PUSH2 0x1AC0 JUMP JUMPDEST SWAP1 SLOAD SWAP1 PUSH1 0x3 SHL SHR SWAP3 DUP4 SWAP3 PUSH2 0x1AC0 JUMP JUMPDEST SWAP1 SSTORE DUP5 MSTORE PUSH1 0x12 PUSH1 0x20 MSTORE PUSH1 0x40 DUP5 KECCAK256 SSTORE CODESIZE DUP1 DUP1 PUSH2 0x1BCB JUMP JUMPDEST PUSH4 0x4E487B71 PUSH1 0xE0 SHL DUP7 MSTORE PUSH1 0x11 PUSH1 0x4 MSTORE PUSH1 0x24 DUP7 REVERT JUMPDEST PUSH4 0x4E487B71 PUSH1 0xE0 SHL DUP6 MSTORE PUSH1 0x11 PUSH1 0x4 MSTORE PUSH1 0x24 DUP6 REVERT JUMPDEST POP POP SWAP1 JUMP JUMPDEST PUSH1 0x0 NOT DUP2 EQ PUSH2 0x1C88 JUMPI PUSH1 0x1 ADD SWAP1 JUMP JUMPDEST PUSH4 0x4E487B71 PUSH1 0xE0 SHL PUSH1 0x0 MSTORE PUSH1 0x11 PUSH1 0x4 MSTORE PUSH1 0x24 PUSH1 0x0 REVERT JUMPDEST SWAP2 SWAP1 DUP2 LT ISZERO PUSH2 0x1AF7 JUMPI PUSH1 0x5 SHL ADD SWAP1 JUMP JUMPDEST PUSH8 0xFFFFFFFFFFFFFFFF DUP2 GT PUSH2 0x162B JUMPI PUSH1 0x5 SHL PUSH1 0x20 ADD SWAP1 JUMP INVALID LOG2 PUSH5 0x6970667358 0x22 SLT KECCAK256 DUP7 0x4A SLOAD CHAINID 0xE2 DUP16 JUMPDEST 0xBC 0x26 CALLDATASIZE PUSH21 0xF159F68675D16B48206CDE286D2E15B133A23CBA47 PUSH5 0x736F6C6343 STOP ADDMOD SGT STOP CALLER 0xBB PUSH28 0x4A454DC3493923482F07822329ED19E8244EFF582CC204F8554C3620 0xC3 REVERT 0xC6 GAS PUSH28 0xB8D6351C1CF70C95A316CC6A92839C986682D98BC35F958F4883F9D2 0xA8 0xA6 PUSH13 0xC928B5EDB82AF9BD4992295415 GAS 0xB7 0xB0 SWAP5 0x26 SWAP5 0xBE LOG4 0xCE PREVRANDAO PUSH7 0x1D9A8736C688F3 0xF7 0xA9 INVALID CALLDATASIZE 0x4F 0xAA 0xB9 EXTCODESIZE 0x21 PUSH14 0xA50A3214154F22A0A2B415B23A84 0xC8 AND SWAP15 DUP12 PUSH4 0x6EE36E15 BLOCKHASH OR SHL PUSH13 0xC960B71A7020D9F60077F6AF9 BALANCE 0xA8 0xBB CREATE2 SWAP1 0xDA MUL 0x23 0xDA 0xCF PUSH22 0xC7AFF652222313E28459528D920B65115C16C04F3EFC DUP3 0xAA 0xED 0xC9 PUSH28 0xE59F3F377C0D3F000000000000000000000000000000000000000000 "},"methodIdentifiers":{"allowance(address,address)":"dd62ed3e","approve(address,uint256)":"095ea7b3","assetType()":"3fe3347a","balanceOf(address)":"70a08231","batchSetKYCStatus(address[],bool[])":"bba91ff0","decimals()":"313ce567","decreaseAllowance(address,uint256)":"a457c2d7","dividendFrequency()":"2a62807a","documentURI()":"428c2e13","getAllInvestors()":"d0a2f2c4","getInvestorAt(uint256)":"f6450293","getInvestorCount()":"960524e3","increaseAllowance(address,uint256)":"39509351","industry()":"08aa62c4","kycVerified(address)":"a5410a66","maturityDate()":"d59624b4","name()":"06fdde03","offeringSize()":"f86c118b","owner()":"8da5cb5b","renounceOwnership()":"715018a6","setKYCStatus(address,bool)":"a3f569ae","setTransfersEnabled(bool)":"26b9ce13","symbol()":"95d89b41","tokenName()":"6c02a931","tokenSymbol()":"7b61c320","tokenValue()":"1ec7e345","totalSupply()":"18160ddd","transfer(address,uint256)":"a9059cbb","transferFrom(address,address,uint256)":"23b872dd","transferOwnership(address)":"f2fde38b","transfersEnabled()":"bef97c87","updateMetadata(string,string,string)":"db2a4570"}}}}}