{"contracts/KYCVerifier.sol":{"KYCVerifier":{"abi":[{"inputs":[],"stateMutability":"nonpayable","type":"constructor"},{"inputs":[],"name":"InvalidAge","type":"error"},{"inputs":[],"name":"InvalidDataFormat","type":"error"},{"inputs":[],"name":"InvalidSignature","type":"error"},{"inputs":[],"name":"VerifierNotTrusted","type":"error"},{"anonymous":false,"inputs":[{"indexed":true,"internalType":"address","name":"user","type":"address"},{"indexed":false,"internalType":"bool","name":"approved","type":"bool"},{"indexed":false,"internalType":"uint256","name":"timestamp","type":"uint256"}],"name":"KYCVerified","type":"event"},{"anonymous":false,"inputs":[{"indexed":true,"internalType":"address","name":"previousOwner","type":"address"},{"indexed":true,"internalType":"address","name":"newOwner","type":"address"}],"name":"OwnershipTransferred","type":"event"},{"anonymous":false,"inputs":[{"indexed":true,"internalType":"address","name":"verifier","type":"address"}],"name":"VerifierAdded","type":"event"},{"anonymous":false,"inputs":[{"indexed":true,"internalType":"address","name":"verifier","type":"address"}],"name":"VerifierRemoved","type":"event"},{"inputs":[{"internalType":"address","name":"verifier","type":"address"}],"name":"addTrustedVerifier","outputs":[],"stateMutability":"nonpayable","type":"function"},{"inputs":[{"internalType":"address[]","name":"users","type":"address[]"}],"name":"batchCheckKYC","outputs":[{"internalType":"bool[]","name":"results","type":"bool[]"}],"stateMutability":"view","type":"function"},{"inputs":[{"internalType":"address","name":"user","type":"address"}],"name":"getVerificationTimestamp","outputs":[{"internalType":"uint256","name":"","type":"uint256"}],"stateMutability":"view","type":"function"},{"inputs":[{"internalType":"address","name":"user","type":"address"}],"name":"hasPassedKYC","outputs":[{"internalType":"bool","name":"","type":"bool"}],"stateMutability":"view","type":"function"},{"inputs":[{"internalType":"address","name":"verifier","type":"address"}],"name":"isTrustedVerifier","outputs":[{"internalType":"bool","name":"","type":"bool"}],"stateMutability":"view","type":"function"},{"inputs":[],"name":"owner","outputs":[{"internalType":"address","name":"","type":"address"}],"stateMutability":"view","type":"function"},{"inputs":[{"internalType":"address","name":"verifier","type":"address"}],"name":"removeTrustedVerifier","outputs":[],"stateMutability":"nonpayable","type":"function"},{"inputs":[],"name":"renounceOwnership","outputs":[],"stateMutability":"nonpayable","type":"function"},{"inputs":[{"internalType":"address","name":"user","type":"address"},{"internalType":"bool","name":"approved","type":"bool"}],"name":"setKYCStatus","outputs":[],"stateMutability":"nonpayable","type":"function"},{"inputs":[{"internalType":"address","name":"newOwner","type":"address"}],"name":"transferOwnership","outputs":[],"stateMutability":"nonpayable","type":"function"},{"inputs":[{"internalType":"bytes32","name":"dataHash","type":"bytes32"},{"internalType":"uint8","name":"age","type":"uint8"},{"internalType":"bool","name":"isUSCitizen","type":"bool"},{"internalType":"bytes","name":"signature","type":"bytes"},{"internalType":"address","name":"verifier","type":"address"}],"name":"verifyKYC","outputs":[],"stateMutability":"nonpayable","type":"function"}],"evm":{"bytecode":{"linkReferences":{},"object":"608080604052346100985760008054336001600160a01b0319821681178355906001600160a01b03167f8be0079c531659141344cd1fd0a4f28419497f9722a3daafe3b4186f6b6457e08380a360018055338152600460205260408120600160ff198254161790557f6d05492139c5ea989514a5d2150c028041e5c087e2a39967f67dc7d2655adb81339180a2610ac4908161009e8239f35b600080fdfe6040608081526004908136101561001557600080fd5b600091823560e01c806350a053cd1461072b57806350f11d2a146106ef578063715018a6146106955780637f47b8101461065d578063801d2cf1146105f75780638da5cb5b146105cf578063a3f569ae14610512578063d2176559146102f4578063def49d12146101a1578063e19f6ba21461015f5763f2fde38b1461009a57600080fd5b3461015b57602036600319011261015b576100b3610794565b906100bc6107e7565b6001600160a01b0391821692831561010957505082546001600160a01b0319811683178455167f8be0079c531659141344cd1fd0a4f28419497f9722a3daafe3b4186f6b6457e08380a380f35b906020608492519162461bcd60e51b8352820152602660248201527f4f776e61626c653a206e6577206f776e657220697320746865207a65726f206160448201526564647265737360d01b6064820152fd5b8280fd5b50503461019d57602036600319011261019d5760209160ff9082906001600160a01b0361018a610794565b1681526002855220541690519015158152f35b5080fd5b5082346102f15760208060031936011261019d5782359167ffffffffffffffff80841161019d573660238501121561019d578385013590811161019d57602490600595368383891b880101116102ed5761020082989796949598610a76565b9361020d885195866107af565b82855261021983610a76565b858a019790601f1901368937865b8481106102715750505050505083519485948186019282875251809352850193925b82811061025857505050500390f35b8351151585528695509381019392810192600101610249565b80829b9897999a9b1b86818501013560018060a01b0381168091036102e95788526002895260ff8c892054168a518310156102d7571515908a0189015260001981146102c557600101999897959699610227565b634e487b7160e01b8752601184528587fd5b634e487b7160e01b8952603286528789fd5b8880fd5b8380fd5b80fd5b50903461015b5760a036600319011261015b5760243560ff81169283820361050e576044359384151580860361050a5767ffffffffffffffff6064358181116102e957366023820112156102e95780850135958287116104f757898851926020986103688a601f19601f84011601866107af565b808552366024828401011161015b578060248b930183870137840101526001600160a01b03608435818116959194908690036104f3576103a661083f565b858c5287895260ff8a8d205416156104e357895191898301938935855260ff60f81b9060f81b168b84015260f81b60418301523360601b6042830152603682526060820190828210908211176104d05789525190207f19457468657265756d205369676e6564204d6573736167653a0a3332000000008a52601c52603c892061043a91610432916109af565b919091610895565b16036104c1576012116104b357509060037f30ec77e4620da0f85cace6445697fea0d6f18c5aa41dc3e8b70930f9c976cd7d923386526002815261048c858488209060ff801983541691151516179055565b528084204290819055905192151583526020830152339180604081015b0390a26001805580f35b82516304530cb760e41b8152fd5b508251638baa579f60e01b8152fd5b634e487b7160e01b8c526041885260248cfd5b89516313e01aef60e01b81528890fd5b8b80fd5b634e487b7160e01b8a526041865260248afd5b8680fd5b8480fd5b503461015b578160031936011261015b5761052b610794565b60243591821515830361050e5761054061083f565b3385528060205260ff8486205416156105c157506001600160a01b03168084526002602052828420805460ff191660ff84151516179055917f30ec77e4620da0f85cace6445697fea0d6f18c5aa41dc3e8b70930f9c976cd7d916104a991600360209081528187204290819055915192151583528201529081906040820190565b83516313e01aef60e01b8152fd5b50503461019d578160031936011261019d57905490516001600160a01b039091168152602090f35b50903461015b57602036600319011261015b57610612610794565b61061a6107e7565b6001600160a01b03168084526020929092528220805460ff191690557f44a3cd4eb5cc5748f6169df057b1cb2ae4c383e87cd94663c430e095d4cba4248280a280f35b50503461019d57602036600319011261019d5760209181906001600160a01b03610685610794565b1681526003845220549051908152f35b83346102f157806003193601126102f1576106ae6107e7565b80546001600160a01b03198116825581906001600160a01b03167f8be0079c531659141344cd1fd0a4f28419497f9722a3daafe3b4186f6b6457e08280a380f35b503461015b57602036600319011261015b5760209260ff918391906001600160a01b0361071a610794565b168252855220541690519015158152f35b50903461015b57602036600319011261015b57610746610794565b61074e6107e7565b6001600160a01b03168084526020929092528220805460ff191660011790557f6d05492139c5ea989514a5d2150c028041e5c087e2a39967f67dc7d2655adb818280a280f35b600435906001600160a01b03821682036107aa57565b600080fd5b90601f8019910116810190811067ffffffffffffffff8211176107d157604052565b634e487b7160e01b600052604160045260246000fd5b6000546001600160a01b031633036107fb57565b606460405162461bcd60e51b815260206004820152602060248201527f4f776e61626c653a2063616c6c6572206973206e6f7420746865206f776e65726044820152fd5b600260015414610850576002600155565b60405162461bcd60e51b815260206004820152601f60248201527f5265656e7472616e637947756172643a207265656e7472616e742063616c6c006044820152606490fd5b600581101561099957806108a65750565b600181036108f35760405162461bcd60e51b815260206004820152601860248201527f45434453413a20696e76616c6964207369676e617475726500000000000000006044820152606490fd5b600281036109405760405162461bcd60e51b815260206004820152601f60248201527f45434453413a20696e76616c6964207369676e6174757265206c656e677468006044820152606490fd5b60031461094957565b60405162461bcd60e51b815260206004820152602260248201527f45434453413a20696e76616c6964207369676e6174757265202773272076616c604482015261756560f01b6064820152608490fd5b634e487b7160e01b600052602160045260246000fd5b9060418151146000146109dd576109d9916020820151906060604084015193015160001a906109e7565b9091565b5050600090600290565b9291907f7fffffffffffffffffffffffffffffff5d576e7357a4501ddfe92f46681b20a08311610a6a5791608094939160ff602094604051948552168484015260408301526060820152600093849182805260015afa15610a5d5781516001600160a01b03811615610a57579190565b50600190565b50604051903d90823e3d90fd5b50505050600090600390565b67ffffffffffffffff81116107d15760051b6020019056fea26469706673582212200a039743011617b1b471224e09729ac40c6bf41dba7d47c8c8aff6c45a0e49ce64736f6c63430008130033","opcodes":"PUSH1 0x80 DUP1 PUSH1 0x40 MSTORE CALLVALUE PUSH2 0x98 JUMPI PUSH1 0x0 DUP1 SLOAD CALLER PUSH1 0x1 PUSH1 0x1 PUSH1 0xA0 SHL SUB NOT DUP3 AND DUP2 OR DUP4 SSTORE SWAP1 PUSH1 0x1 PUSH1 0x1 PUSH1 0xA0 SHL SUB AND PUSH32 0x8BE0079C531659141344CD1FD0A4F28419497F9722A3DAAFE3B4186F6B6457E0 DUP4 DUP1 LOG3 PUSH1 0x1 DUP1 SSTORE CALLER DUP2 MSTORE PUSH1 0x4 PUSH1 0x20 MSTORE PUSH1 0x40 DUP2 KECCAK256 PUSH1 0x1 PUSH1 0xFF NOT DUP3 SLOAD AND OR SWAP1 SSTORE PUSH32 0x6D05492139C5EA989514A5D2150C028041E5C087E2A39967F67DC7D2655ADB81 CALLER SWAP2 DUP1 LOG2 PUSH2 0xAC4 SWAP1 DUP2 PUSH2 0x9E DUP3 CODECOPY RETURN JUMPDEST PUSH1 0x0 DUP1 REVERT INVALID PUSH1 0x40 PUSH1 0x80 DUP2 MSTORE PUSH1 0x4 SWAP1 DUP2 CALLDATASIZE LT ISZERO PUSH2 0x15 JUMPI PUSH1 0x0 DUP1 REVERT JUMPDEST PUSH1 0x0 SWAP2 DUP3 CALLDATALOAD PUSH1 0xE0 SHR DUP1 PUSH4 0x50A053CD EQ PUSH2 0x72B JUMPI DUP1 PUSH4 0x50F11D2A EQ PUSH2 0x6EF JUMPI DUP1 PUSH4 0x715018A6 EQ PUSH2 0x695 JUMPI DUP1 PUSH4 0x7F47B810 EQ PUSH2 0x65D JUMPI DUP1 PUSH4 0x801D2CF1 EQ PUSH2 0x5F7 JUMPI DUP1 PUSH4 0x8DA5CB5B EQ PUSH2 0x5CF JUMPI DUP1 PUSH4 0xA3F569AE EQ PUSH2 0x512 JUMPI DUP1 PUSH4 0xD2176559 EQ PUSH2 0x2F4 JUMPI DUP1 PUSH4 0xDEF49D12 EQ PUSH2 0x1A1 JUMPI DUP1 PUSH4 0xE19F6BA2 EQ PUSH2 0x15F JUMPI PUSH4 0xF2FDE38B EQ PUSH2 0x9A JUMPI PUSH1 0x0 DUP1 REVERT JUMPDEST CALLVALUE PUSH2 0x15B JUMPI PUSH1 0x20 CALLDATASIZE PUSH1 0x3 NOT ADD SLT PUSH2 0x15B JUMPI PUSH2 0xB3 PUSH2 0x794 JUMP JUMPDEST SWAP1 PUSH2 0xBC PUSH2 0x7E7 JUMP JUMPDEST PUSH1 0x1 PUSH1 0x1 PUSH1 0xA0 SHL SUB SWAP2 DUP3 AND SWAP3 DUP4 ISZERO PUSH2 0x109 JUMPI POP POP DUP3 SLOAD PUSH1 0x1 PUSH1 0x1 PUSH1 0xA0 SHL SUB NOT DUP2 AND DUP4 OR DUP5 SSTORE AND PUSH32 0x8BE0079C531659141344CD1FD0A4F28419497F9722A3DAAFE3B4186F6B6457E0 DUP4 DUP1 LOG3 DUP1 RETURN JUMPDEST SWAP1 PUSH1 0x20 PUSH1 0x84 SWAP3 MLOAD SWAP2 PUSH3 0x461BCD PUSH1 0xE5 SHL DUP4 MSTORE DUP3 ADD MSTORE PUSH1 0x26 PUSH1 0x24 DUP3 ADD MSTORE PUSH32 0x4F776E61626C653A206E6577206F776E657220697320746865207A65726F2061 PUSH1 0x44 DUP3 ADD MSTORE PUSH6 0x646472657373 PUSH1 0xD0 SHL PUSH1 0x64 DUP3 ADD MSTORE REVERT JUMPDEST DUP3 DUP1 REVERT JUMPDEST POP POP CALLVALUE PUSH2 0x19D JUMPI PUSH1 0x20 CALLDATASIZE PUSH1 0x3 NOT ADD SLT PUSH2 0x19D JUMPI PUSH1 0x20 SWAP2 PUSH1 0xFF SWAP1 DUP3 SWAP1 PUSH1 0x1 PUSH1 0x1 PUSH1 0xA0 SHL SUB PUSH2 0x18A PUSH2 0x794 JUMP JUMPDEST AND DUP2 MSTORE PUSH1 0x2 DUP6 MSTORE KECCAK256 SLOAD AND SWAP1 MLOAD SWAP1 ISZERO ISZERO DUP2 MSTORE RETURN JUMPDEST POP DUP1 REVERT JUMPDEST POP DUP3 CALLVALUE PUSH2 0x2F1 JUMPI PUSH1 0x20 DUP1 PUSH1 0x3 NOT CALLDATASIZE ADD SLT PUSH2 0x19D JUMPI DUP3 CALLDATALOAD SWAP2 PUSH8 0xFFFFFFFFFFFFFFFF DUP1 DUP5 GT PUSH2 0x19D JUMPI CALLDATASIZE PUSH1 0x23 DUP6 ADD SLT ISZERO PUSH2 0x19D JUMPI DUP4 DUP6 ADD CALLDATALOAD SWAP1 DUP2 GT PUSH2 0x19D JUMPI PUSH1 0x24 SWAP1 PUSH1 0x5 SWAP6 CALLDATASIZE DUP4 DUP4 DUP10 SHL DUP9 ADD ADD GT PUSH2 0x2ED JUMPI PUSH2 0x200 DUP3 SWAP9 SWAP8 SWAP7 SWAP5 SWAP6 SWAP9 PUSH2 0xA76 JUMP JUMPDEST SWAP4 PUSH2 0x20D DUP9 MLOAD SWAP6 DUP7 PUSH2 0x7AF JUMP JUMPDEST DUP3 DUP6 MSTORE PUSH2 0x219 DUP4 PUSH2 0xA76 JUMP JUMPDEST DUP6 DUP11 ADD SWAP8 SWAP1 PUSH1 0x1F NOT ADD CALLDATASIZE DUP10 CALLDATACOPY DUP7 JUMPDEST DUP5 DUP2 LT PUSH2 0x271 JUMPI POP POP POP POP POP POP DUP4 MLOAD SWAP5 DUP6 SWAP5 DUP2 DUP7 ADD SWAP3 DUP3 DUP8 MSTORE MLOAD DUP1 SWAP4 MSTORE DUP6 ADD SWAP4 SWAP3 JUMPDEST DUP3 DUP2 LT PUSH2 0x258 JUMPI POP POP POP POP SUB SWAP1 RETURN JUMPDEST DUP4 MLOAD ISZERO ISZERO DUP6 MSTORE DUP7 SWAP6 POP SWAP4 DUP2 ADD SWAP4 SWAP3 DUP2 ADD SWAP3 PUSH1 0x1 ADD PUSH2 0x249 JUMP JUMPDEST DUP1 DUP3 SWAP12 SWAP9 SWAP8 SWAP10 SWAP11 SWAP12 SHL DUP7 DUP2 DUP6 ADD ADD CALLDATALOAD PUSH1 0x1 DUP1 PUSH1 0xA0 SHL SUB DUP2 AND DUP1 SWAP2 SUB PUSH2 0x2E9 JUMPI DUP9 MSTORE PUSH1 0x2 DUP10 MSTORE PUSH1 0xFF DUP13 DUP10 KECCAK256 SLOAD AND DUP11 MLOAD DUP4 LT ISZERO PUSH2 0x2D7 JUMPI ISZERO ISZERO SWAP1 DUP11 ADD DUP10 ADD MSTORE PUSH1 0x0 NOT DUP2 EQ PUSH2 0x2C5 JUMPI PUSH1 0x1 ADD SWAP10 SWAP9 SWAP8 SWAP6 SWAP7 SWAP10 PUSH2 0x227 JUMP JUMPDEST PUSH4 0x4E487B71 PUSH1 0xE0 SHL DUP8 MSTORE PUSH1 0x11 DUP5 MSTORE DUP6 DUP8 REVERT JUMPDEST PUSH4 0x4E487B71 PUSH1 0xE0 SHL DUP10 MSTORE PUSH1 0x32 DUP7 MSTORE DUP8 DUP10 REVERT JUMPDEST DUP9 DUP1 REVERT JUMPDEST DUP4 DUP1 REVERT JUMPDEST DUP1 REVERT JUMPDEST POP SWAP1 CALLVALUE PUSH2 0x15B JUMPI PUSH1 0xA0 CALLDATASIZE PUSH1 0x3 NOT ADD SLT PUSH2 0x15B JUMPI PUSH1 0x24 CALLDATALOAD PUSH1 0xFF DUP2 AND SWAP3 DUP4 DUP3 SUB PUSH2 0x50E JUMPI PUSH1 0x44 CALLDATALOAD SWAP4 DUP5 ISZERO ISZERO DUP1 DUP7 SUB PUSH2 0x50A JUMPI PUSH8 0xFFFFFFFFFFFFFFFF PUSH1 0x64 CALLDATALOAD DUP2 DUP2 GT PUSH2 0x2E9 JUMPI CALLDATASIZE PUSH1 0x23 DUP3 ADD SLT ISZERO PUSH2 0x2E9 JUMPI DUP1 DUP6 ADD CALLDATALOAD SWAP6 DUP3 DUP8 GT PUSH2 0x4F7 JUMPI DUP10 DUP9 MLOAD SWAP3 PUSH1 0x20 SWAP9 PUSH2 0x368 DUP11 PUSH1 0x1F NOT PUSH1 0x1F DUP5 ADD AND ADD DUP7 PUSH2 0x7AF JUMP JUMPDEST DUP1 DUP6 MSTORE CALLDATASIZE PUSH1 0x24 DUP3 DUP5 ADD ADD GT PUSH2 0x15B JUMPI DUP1 PUSH1 0x24 DUP12 SWAP4 ADD DUP4 DUP8 ADD CALLDATACOPY DUP5 ADD ADD MSTORE PUSH1 0x1 PUSH1 0x1 PUSH1 0xA0 SHL SUB PUSH1 0x84 CALLDATALOAD DUP2 DUP2 AND SWAP6 SWAP2 SWAP5 SWAP1 DUP7 SWAP1 SUB PUSH2 0x4F3 JUMPI PUSH2 0x3A6 PUSH2 0x83F JUMP JUMPDEST DUP6 DUP13 MSTORE DUP8 DUP10 MSTORE PUSH1 0xFF DUP11 DUP14 KECCAK256 SLOAD AND ISZERO PUSH2 0x4E3 JUMPI DUP10 MLOAD SWAP2 DUP10 DUP4 ADD SWAP4 DUP10 CALLDATALOAD DUP6 MSTORE PUSH1 0xFF PUSH1 0xF8 SHL SWAP1 PUSH1 0xF8 SHL AND DUP12 DUP5 ADD MSTORE PUSH1 0xF8 SHL PUSH1 0x41 DUP4 ADD MSTORE CALLER PUSH1 0x60 SHL PUSH1 0x42 DUP4 ADD MSTORE PUSH1 0x36 DUP3 MSTORE PUSH1 0x60 DUP3 ADD SWAP1 DUP3 DUP3 LT SWAP1 DUP3 GT OR PUSH2 0x4D0 JUMPI DUP10 MSTORE MLOAD SWAP1 KECCAK256 PUSH32 0x19457468657265756D205369676E6564204D6573736167653A0A333200000000 DUP11 MSTORE PUSH1 0x1C MSTORE PUSH1 0x3C DUP10 KECCAK256 PUSH2 0x43A SWAP2 PUSH2 0x432 SWAP2 PUSH2 0x9AF JUMP JUMPDEST SWAP2 SWAP1 SWAP2 PUSH2 0x895 JUMP JUMPDEST AND SUB PUSH2 0x4C1 JUMPI PUSH1 0x12 GT PUSH2 0x4B3 JUMPI POP SWAP1 PUSH1 0x3 PUSH32 0x30EC77E4620DA0F85CACE6445697FEA0D6F18C5AA41DC3E8B70930F9C976CD7D SWAP3 CALLER DUP7 MSTORE PUSH1 0x2 DUP2 MSTORE PUSH2 0x48C DUP6 DUP5 DUP9 KECCAK256 SWAP1 PUSH1 0xFF DUP1 NOT DUP4 SLOAD AND SWAP2 ISZERO ISZERO AND OR SWAP1 SSTORE JUMP JUMPDEST MSTORE DUP1 DUP5 KECCAK256 TIMESTAMP SWAP1 DUP2 SWAP1 SSTORE SWAP1 MLOAD SWAP3 ISZERO ISZERO DUP4 MSTORE PUSH1 0x20 DUP4 ADD MSTORE CALLER SWAP2 DUP1 PUSH1 0x40 DUP2 ADD JUMPDEST SUB SWAP1 LOG2 PUSH1 0x1 DUP1 SSTORE DUP1 RETURN JUMPDEST DUP3 MLOAD PUSH4 0x4530CB7 PUSH1 0xE4 SHL DUP2 MSTORE REVERT JUMPDEST POP DUP3 MLOAD PUSH4 0x8BAA579F PUSH1 0xE0 SHL DUP2 MSTORE REVERT JUMPDEST PUSH4 0x4E487B71 PUSH1 0xE0 SHL DUP13 MSTORE PUSH1 0x41 DUP9 MSTORE PUSH1 0x24 DUP13 REVERT JUMPDEST DUP10 MLOAD PUSH4 0x13E01AEF PUSH1 0xE0 SHL DUP2 MSTORE DUP9 SWAP1 REVERT JUMPDEST DUP12 DUP1 REVERT JUMPDEST PUSH4 0x4E487B71 PUSH1 0xE0 SHL DUP11 MSTORE PUSH1 0x41 DUP7 MSTORE PUSH1 0x24 DUP11 REVERT JUMPDEST DUP7 DUP1 REVERT JUMPDEST DUP5 DUP1 REVERT JUMPDEST POP CALLVALUE PUSH2 0x15B JUMPI DUP2 PUSH1 0x3 NOT CALLDATASIZE ADD SLT PUSH2 0x15B JUMPI PUSH2 0x52B PUSH2 0x794 JUMP JUMPDEST PUSH1 0x24 CALLDATALOAD SWAP2 DUP3 ISZERO ISZERO DUP4 SUB PUSH2 0x50E JUMPI PUSH2 0x540 PUSH2 0x83F JUMP JUMPDEST CALLER DUP6 MSTORE DUP1 PUSH1 0x20 MSTORE PUSH1 0xFF DUP5 DUP7 KECCAK256 SLOAD AND ISZERO PUSH2 0x5C1 JUMPI POP PUSH1 0x1 PUSH1 0x1 PUSH1 0xA0 SHL SUB AND DUP1 DUP5 MSTORE PUSH1 0x2 PUSH1 0x20 MSTORE DUP3 DUP5 KECCAK256 DUP1 SLOAD PUSH1 0xFF NOT AND PUSH1 0xFF DUP5 ISZERO ISZERO AND OR SWAP1 SSTORE SWAP2 PUSH32 0x30EC77E4620DA0F85CACE6445697FEA0D6F18C5AA41DC3E8B70930F9C976CD7D SWAP2 PUSH2 0x4A9 SWAP2 PUSH1 0x3 PUSH1 0x20 SWAP1 DUP2 MSTORE DUP2 DUP8 KECCAK256 TIMESTAMP SWAP1 DUP2 SWAP1 SSTORE SWAP2 MLOAD SWAP3 ISZERO ISZERO DUP4 MSTORE DUP3 ADD MSTORE SWAP1 DUP2 SWAP1 PUSH1 0x40 DUP3 ADD SWAP1 JUMP JUMPDEST DUP4 MLOAD PUSH4 0x13E01AEF PUSH1 0xE0 SHL DUP2 MSTORE REVERT JUMPDEST POP POP CALLVALUE PUSH2 0x19D JUMPI DUP2 PUSH1 0x3 NOT CALLDATASIZE ADD SLT PUSH2 0x19D JUMPI SWAP1 SLOAD SWAP1 MLOAD PUSH1 0x1 PUSH1 0x1 PUSH1 0xA0 SHL SUB SWAP1 SWAP2 AND DUP2 MSTORE PUSH1 0x20 SWAP1 RETURN JUMPDEST POP SWAP1 CALLVALUE PUSH2 0x15B JUMPI PUSH1 0x20 CALLDATASIZE PUSH1 0x3 NOT ADD SLT PUSH2 0x15B JUMPI PUSH2 0x612 PUSH2 0x794 JUMP JUMPDEST PUSH2 0x61A PUSH2 0x7E7 JUMP JUMPDEST PUSH1 0x1 PUSH1 0x1 PUSH1 0xA0 SHL SUB AND DUP1 DUP5 MSTORE PUSH1 0x20 SWAP3 SWAP1 SWAP3 MSTORE DUP3 KECCAK256 DUP1 SLOAD PUSH1 0xFF NOT AND SWAP1 SSTORE PUSH32 0x44A3CD4EB5CC5748F6169DF057B1CB2AE4C383E87CD94663C430E095D4CBA424 DUP3 DUP1 LOG2 DUP1 RETURN JUMPDEST POP POP CALLVALUE PUSH2 0x19D JUMPI PUSH1 0x20 CALLDATASIZE PUSH1 0x3 NOT ADD SLT PUSH2 0x19D JUMPI PUSH1 0x20 SWAP2 DUP2 SWAP1 PUSH1 0x1 PUSH1 0x1 PUSH1 0xA0 SHL SUB PUSH2 0x685 PUSH2 0x794 JUMP JUMPDEST AND DUP2 MSTORE PUSH1 0x3 DUP5 MSTORE KECCAK256 SLOAD SWAP1 MLOAD SWAP1 DUP2 MSTORE RETURN JUMPDEST DUP4 CALLVALUE PUSH2 0x2F1 JUMPI DUP1 PUSH1 0x3 NOT CALLDATASIZE ADD SLT PUSH2 0x2F1 JUMPI PUSH2 0x6AE PUSH2 0x7E7 JUMP JUMPDEST DUP1 SLOAD PUSH1 0x1 PUSH1 0x1 PUSH1 0xA0 SHL SUB NOT DUP2 AND DUP3 SSTORE DUP2 SWAP1 PUSH1 0x1 PUSH1 0x1 PUSH1 0xA0 SHL SUB AND PUSH32 0x8BE0079C531659141344CD1FD0A4F28419497F9722A3DAAFE3B4186F6B6457E0 DUP3 DUP1 LOG3 DUP1 RETURN JUMPDEST POP CALLVALUE PUSH2 0x15B JUMPI PUSH1 0x20 CALLDATASIZE PUSH1 0x3 NOT ADD SLT PUSH2 0x15B JUMPI PUSH1 0x20 SWAP3 PUSH1 0xFF SWAP2 DUP4 SWAP2 SWAP1 PUSH1 0x1 PUSH1 0x1 PUSH1 0xA0 SHL SUB PUSH2 0x71A PUSH2 0x794 JUMP JUMPDEST AND DUP3 MSTORE DUP6 MSTORE KECCAK256 SLOAD AND SWAP1 MLOAD SWAP1 ISZERO ISZERO DUP2 MSTORE RETURN JUMPDEST POP SWAP1 CALLVALUE PUSH2 0x15B JUMPI PUSH1 0x20 CALLDATASIZE PUSH1 0x3 NOT ADD SLT PUSH2 0x15B JUMPI PUSH2 0x746 PUSH2 0x794 JUMP JUMPDEST PUSH2 0x74E PUSH2 0x7E7 JUMP JUMPDEST PUSH1 0x1 PUSH1 0x1 PUSH1 0xA0 SHL SUB AND DUP1 DUP5 MSTORE PUSH1 0x20 SWAP3 SWAP1 SWAP3 MSTORE DUP3 KECCAK256 DUP1 SLOAD PUSH1 0xFF NOT AND PUSH1 0x1 OR SWAP1 SSTORE PUSH32 0x6D05492139C5EA989514A5D2150C028041E5C087E2A39967F67DC7D2655ADB81 DUP3 DUP1 LOG2 DUP1 RETURN JUMPDEST PUSH1 0x4 CALLDATALOAD SWAP1 PUSH1 0x1 PUSH1 0x1 PUSH1 0xA0 SHL SUB DUP3 AND DUP3 SUB PUSH2 0x7AA JUMPI JUMP JUMPDEST PUSH1 0x0 DUP1 REVERT JUMPDEST SWAP1 PUSH1 0x1F DUP1 NOT SWAP2 ADD AND DUP2 ADD SWAP1 DUP2 LT PUSH8 0xFFFFFFFFFFFFFFFF DUP3 GT OR PUSH2 0x7D1 JUMPI PUSH1 0x40 MSTORE JUMP JUMPDEST PUSH4 0x4E487B71 PUSH1 0xE0 SHL PUSH1 0x0 MSTORE PUSH1 0x41 PUSH1 0x4 MSTORE PUSH1 0x24 PUSH1 0x0 REVERT JUMPDEST PUSH1 0x0 SLOAD PUSH1 0x1 PUSH1 0x1 PUSH1 0xA0 SHL SUB AND CALLER SUB PUSH2 0x7FB JUMPI JUMP JUMPDEST PUSH1 0x64 PUSH1 0x40 MLOAD PUSH3 0x461BCD PUSH1 0xE5 SHL DUP2 MSTORE PUSH1 0x20 PUSH1 0x4 DUP3 ADD MSTORE PUSH1 0x20 PUSH1 0x24 DUP3 ADD MSTORE PUSH32 0x4F776E61626C653A2063616C6C6572206973206E6F7420746865206F776E6572 PUSH1 0x44 DUP3 ADD MSTORE REVERT JUMPDEST PUSH1 0x2 PUSH1 0x1 SLOAD EQ PUSH2 0x850 JUMPI PUSH1 0x2 PUSH1 0x1 SSTORE JUMP JUMPDEST PUSH1 0x40 MLOAD PUSH3 0x461BCD PUSH1 0xE5 SHL DUP2 MSTORE PUSH1 0x20 PUSH1 0x4 DUP3 ADD MSTORE PUSH1 0x1F PUSH1 0x24 DUP3 ADD MSTORE PUSH32 0x5265656E7472616E637947756172643A207265656E7472616E742063616C6C00 PUSH1 0x44 DUP3 ADD MSTORE PUSH1 0x64 SWAP1 REVERT JUMPDEST PUSH1 0x5 DUP2 LT ISZERO PUSH2 0x999 JUMPI DUP1 PUSH2 0x8A6 JUMPI POP JUMP JUMPDEST PUSH1 0x1 DUP2 SUB PUSH2 0x8F3 JUMPI PUSH1 0x40 MLOAD PUSH3 0x461BCD PUSH1 0xE5 SHL DUP2 MSTORE PUSH1 0x20 PUSH1 0x4 DUP3 ADD MSTORE PUSH1 0x18 PUSH1 0x24 DUP3 ADD MSTORE PUSH32 0x45434453413A20696E76616C6964207369676E61747572650000000000000000 PUSH1 0x44 DUP3 ADD MSTORE PUSH1 0x64 SWAP1 REVERT JUMPDEST PUSH1 0x2 DUP2 SUB PUSH2 0x940 JUMPI PUSH1 0x40 MLOAD PUSH3 0x461BCD PUSH1 0xE5 SHL DUP2 MSTORE PUSH1 0x20 PUSH1 0x4 DUP3 ADD MSTORE PUSH1 0x1F PUSH1 0x24 DUP3 ADD MSTORE PUSH32 0x45434453413A20696E76616C6964207369676E6174757265206C656E67746800 PUSH1 0x44 DUP3 ADD MSTORE PUSH1 0x64 SWAP1 REVERT JUMPDEST PUSH1 0x3 EQ PUSH2 0x949 JUMPI JUMP JUMPDEST PUSH1 0x40 MLOAD PUSH3 0x461BCD PUSH1 0xE5 SHL DUP2 MSTORE PUSH1 0x20 PUSH1 0x4 DUP3 ADD MSTORE PUSH1 0x22 PUSH1 0x24 DUP3 ADD MSTORE PUSH32 0x45434453413A20696E76616C6964207369676E6174757265202773272076616C PUSH1 0x44 DUP3 ADD MSTORE PUSH2 0x7565 PUSH1 0xF0 SHL PUSH1 0x64 DUP3 ADD MSTORE PUSH1 0x84 SWAP1 REVERT JUMPDEST PUSH4 0x4E487B71 PUSH1 0xE0 SHL PUSH1 0x0 MSTORE PUSH1 0x21 PUSH1 0x4 MSTORE PUSH1 0x24 PUSH1 0x0 REVERT JUMPDEST SWAP1 PUSH1 0x41 DUP2 MLOAD EQ PUSH1 0x0 EQ PUSH2 0x9DD JUMPI PUSH2 0x9D9 SWAP2 PUSH1 0x20 DUP3 ADD MLOAD SWAP1 PUSH1 0x60 PUSH1 0x40 DUP5 ADD MLOAD SWAP4 ADD MLOAD PUSH1 0x0 BYTE SWAP1 PUSH2 0x9E7 JUMP JUMPDEST SWAP1 SWAP2 JUMP JUMPDEST POP POP PUSH1 0x0 SWAP1 PUSH1 0x2 SWAP1 JUMP JUMPDEST SWAP3 SWAP2 SWAP1 PUSH32 0x7FFFFFFFFFFFFFFFFFFFFFFFFFFFFFFF5D576E7357A4501DDFE92F46681B20A0 DUP4 GT PUSH2 0xA6A JUMPI SWAP2 PUSH1 0x80 SWAP5 SWAP4 SWAP2 PUSH1 0xFF PUSH1 0x20 SWAP5 PUSH1 0x40 MLOAD SWAP5 DUP6 MSTORE AND DUP5 DUP5 ADD MSTORE PUSH1 0x40 DUP4 ADD MSTORE PUSH1 0x60 DUP3 ADD MSTORE PUSH1 0x0 SWAP4 DUP5 SWAP2 DUP3 DUP1 MSTORE PUSH1 0x1 GAS STATICCALL ISZERO PUSH2 0xA5D JUMPI DUP2 MLOAD PUSH1 0x1 PUSH1 0x1 PUSH1 0xA0 SHL SUB DUP2 AND ISZERO PUSH2 0xA57 JUMPI SWAP2 SWAP1 JUMP JUMPDEST POP PUSH1 0x1 SWAP1 JUMP JUMPDEST POP PUSH1 0x40 MLOAD SWAP1 RETURNDATASIZE SWAP1 DUP3 RETURNDATACOPY RETURNDATASIZE SWAP1 REVERT JUMPDEST POP POP POP POP PUSH1 0x0 SWAP1 PUSH1 0x3 SWAP1 JUMP JUMPDEST PUSH8 0xFFFFFFFFFFFFFFFF DUP2 GT PUSH2 0x7D1 JUMPI PUSH1 0x5 SHL PUSH1 0x20 ADD SWAP1 JUMP INVALID LOG2 PUSH5 0x6970667358 0x22 SLT KECCAK256 EXP SUB SWAP8 NUMBER ADD AND OR 0xB1 0xB4 PUSH18 0x224E09729AC40C6BF41DBA7D47C8C8AFF6C4 GAS 0xE 0x49 0xCE PUSH5 0x736F6C6343 STOP ADDMOD SGT STOP CALLER "},"methodIdentifiers":{"addTrustedVerifier(address)":"50a053cd","batchCheckKYC(address[])":"def49d12","getVerificationTimestamp(address)":"7f47b810","hasPassedKYC(address)":"e19f6ba2","isTrustedVerifier(address)":"50f11d2a","owner()":"8da5cb5b","removeTrustedVerifier(address)":"801d2cf1","renounceOwnership()":"715018a6","setKYCStatus(address,bool)":"a3f569ae","transferOwnership(address)":"f2fde38b","verifyKYC(bytes32,uint8,bool,bytes,address)":"d2176559"}}}}}