{
  "_format": "hh-sol-artifact-1",
  "contractName": "RWAAttestation",
  "sourceName": "contracts/RWAAttestation.sol",
  "abi": [
    {
      "inputs": [
        {
          "internalType": "address",
          "name": "_kycVerifierAddress",
          "type": "address"
        }
      ],
      "stateMutability": "nonpayable",
      "type": "constructor"
    },
    {
      "inputs": [],
      "name": "AlreadyVerified",
      "type": "error"
    },
    {
      "inputs": [],
      "name": "AttestationNotFound",
      "type": "error"
    },
    {
      "inputs": [],
      "name": "DocumentLimitExceeded",
      "type": "error"
    },
    {
      "inputs": [],
      "name": "DocumentNotFound",
      "type": "error"
    },
    {
      "inputs": [],
      "name": "InvalidDataFormat",
      "type": "error"
    },
    {
      "inputs": [],
      "name": "InvalidOwner",
      "type": "error"
    },
    {
      "inputs": [],
      "name": "InvalidSignature",
      "type": "error"
    },
    {
      "inputs": [],
      "name": "KYCVerificationRequired",
      "type": "error"
    },
    {
      "inputs": [],
      "name": "VerifierNotTrusted",
      "type": "error"
    },
    {
      "anonymous": false,
      "inputs": [
        {
          "indexed": true,
          "internalType": "bytes32",
          "name": "attestationId",
          "type": "bytes32"
        },
        {
          "indexed": true,
          "internalType": "address",
          "name": "owner",
          "type": "address"
        },
        {
          "indexed": false,
          "internalType": "uint256",
          "name": "timestamp",
          "type": "uint256"
        }
      ],
      "name": "AttestationCreated",
      "type": "event"
    },
    {
      "anonymous": false,
      "inputs": [
        {
          "indexed": true,
          "internalType": "bytes32",
          "name": "attestationId",
          "type": "bytes32"
        },
        {
          "indexed": true,
          "internalType": "address",
          "name": "verifier",
          "type": "address"
        },
        {
          "indexed": false,
          "internalType": "uint256",
          "name": "timestamp",
          "type": "uint256"
        }
      ],
      "name": "AttestationVerified",
      "type": "event"
    },
    {
      "anonymous": false,
      "inputs": [
        {
          "indexed": true,
          "internalType": "bytes32",
          "name": "attestationId",
          "type": "bytes32"
        },
        {
          "indexed": false,
          "internalType": "enum RWAAttestation.DocumentType",
          "name": "docType",
          "type": "uint8"
        },
        {
          "indexed": false,
          "internalType": "bytes32",
          "name": "documentHash",
          "type": "bytes32"
        },
        {
          "indexed": false,
          "internalType": "uint256",
          "name": "timestamp",
          "type": "uint256"
        }
      ],
      "name": "DocumentAdded",
      "type": "event"
    },
    {
      "anonymous": false,
      "inputs": [
        {
          "indexed": true,
          "internalType": "address",
          "name": "previousOwner",
          "type": "address"
        },
        {
          "indexed": true,
          "internalType": "address",
          "name": "newOwner",
          "type": "address"
        }
      ],
      "name": "OwnershipTransferred",
      "type": "event"
    },
    {
      "anonymous": false,
      "inputs": [
        {
          "indexed": true,
          "internalType": "bytes32",
          "name": "attestationId",
          "type": "bytes32"
        },
        {
          "indexed": false,
          "internalType": "bytes32",
          "name": "infoHash",
          "type": "bytes32"
        },
        {
          "indexed": false,
          "internalType": "uint256",
          "name": "timestamp",
          "type": "uint256"
        }
      ],
      "name": "PropertyInfoUpdated",
      "type": "event"
    },
    {
      "anonymous": false,
      "inputs": [
        {
          "indexed": true,
          "internalType": "address",
          "name": "verifier",
          "type": "address"
        }
      ],
      "name": "VerifierAdded",
      "type": "event"
    },
    {
      "anonymous": false,
      "inputs": [
        {
          "indexed": true,
          "internalType": "address",
          "name": "verifier",
          "type": "address"
        }
      ],
      "name": "VerifierRemoved",
      "type": "event"
    },
    {
      "inputs": [
        {
          "internalType": "bytes32",
          "name": "attestationId",
          "type": "bytes32"
        },
        {
          "internalType": "bytes32",
          "name": "documentHash",
          "type": "bytes32"
        },
        {
          "internalType": "enum RWAAttestation.DocumentType",
          "name": "docType",
          "type": "uint8"
        },
        {
          "internalType": "string",
          "name": "documentURI",
          "type": "string"
        }
      ],
      "name": "addDocument",
      "outputs": [],
      "stateMutability": "nonpayable",
      "type": "function"
    },
    {
      "inputs": [
        {
          "internalType": "address",
          "name": "verifier",
          "type": "address"
        }
      ],
      "name": "addTrustedVerifier",
      "outputs": [],
      "stateMutability": "nonpayable",
      "type": "function"
    },
    {
      "inputs": [
        {
          "internalType": "bytes32",
          "name": "dataHash",
          "type": "bytes32"
        },
        {
          "internalType": "bytes32",
          "name": "deedNumberHash",
          "type": "bytes32"
        },
        {
          "internalType": "bytes32",
          "name": "propertyNameHash",
          "type": "bytes32"
        },
        {
          "internalType": "bytes32",
          "name": "addressHash",
          "type": "bytes32"
        },
        {
          "internalType": "bytes32",
          "name": "ownerNameHash",
          "type": "bytes32"
        },
        {
          "internalType": "bytes32",
          "name": "taxIdHash",
          "type": "bytes32"
        },
        {
          "internalType": "string",
          "name": "photoURI",
          "type": "string"
        }
      ],
      "name": "createAttestation",
      "outputs": [
        {
          "internalType": "bytes32",
          "name": "attestationId",
          "type": "bytes32"
        }
      ],
      "stateMutability": "nonpayable",
      "type": "function"
    },
    {
      "inputs": [
        {
          "internalType": "bytes32",
          "name": "attestationId",
          "type": "bytes32"
        }
      ],
      "name": "getAttestationInfo",
      "outputs": [
        {
          "internalType": "uint256",
          "name": "timestamp",
          "type": "uint256"
        },
        {
          "internalType": "address",
          "name": "owner",
          "type": "address"
        },
        {
          "internalType": "bool",
          "name": "verified",
          "type": "bool"
        },
        {
          "internalType": "address",
          "name": "verifier",
          "type": "address"
        },
        {
          "internalType": "uint256",
          "name": "lastUpdateTime",
          "type": "uint256"
        },
        {
          "internalType": "uint256",
          "name": "documentCount",
          "type": "uint256"
        }
      ],
      "stateMutability": "view",
      "type": "function"
    },
    {
      "inputs": [
        {
          "internalType": "bytes32",
          "name": "attestationId",
          "type": "bytes32"
        },
        {
          "internalType": "uint256",
          "name": "documentIndex",
          "type": "uint256"
        }
      ],
      "name": "getDocumentInfo",
      "outputs": [
        {
          "internalType": "bytes32",
          "name": "documentHash",
          "type": "bytes32"
        },
        {
          "internalType": "enum RWAAttestation.DocumentType",
          "name": "docType",
          "type": "uint8"
        },
        {
          "internalType": "string",
          "name": "documentURI",
          "type": "string"
        },
        {
          "internalType": "uint256",
          "name": "timestamp",
          "type": "uint256"
        },
        {
          "internalType": "bool",
          "name": "verified",
          "type": "bool"
        }
      ],
      "stateMutability": "view",
      "type": "function"
    },
    {
      "inputs": [
        {
          "internalType": "bytes32",
          "name": "attestationId",
          "type": "bytes32"
        }
      ],
      "name": "getPropertyInfo",
      "outputs": [
        {
          "internalType": "bytes32",
          "name": "infoHash",
          "type": "bytes32"
        },
        {
          "internalType": "bytes32",
          "name": "deedNumberHash",
          "type": "bytes32"
        },
        {
          "internalType": "bytes32",
          "name": "propertyNameHash",
          "type": "bytes32"
        },
        {
          "internalType": "bytes32",
          "name": "addressHash",
          "type": "bytes32"
        },
        {
          "internalType": "bytes32",
          "name": "ownerNameHash",
          "type": "bytes32"
        },
        {
          "internalType": "bytes32",
          "name": "taxIdHash",
          "type": "bytes32"
        },
        {
          "internalType": "string",
          "name": "photoURI",
          "type": "string"
        }
      ],
      "stateMutability": "view",
      "type": "function"
    },
    {
      "inputs": [
        {
          "internalType": "address",
          "name": "user",
          "type": "address"
        }
      ],
      "name": "getUserAttestations",
      "outputs": [
        {
          "internalType": "bytes32[]",
          "name": "",
          "type": "bytes32[]"
        }
      ],
      "stateMutability": "view",
      "type": "function"
    },
    {
      "inputs": [
        {
          "internalType": "address",
          "name": "verifier",
          "type": "address"
        }
      ],
      "name": "isTrustedVerifier",
      "outputs": [
        {
          "internalType": "bool",
          "name": "",
          "type": "bool"
        }
      ],
      "stateMutability": "view",
      "type": "function"
    },
    {
      "inputs": [],
      "name": "kycVerifier",
      "outputs": [
        {
          "internalType": "contract KYCVerifier",
          "name": "",
          "type": "address"
        }
      ],
      "stateMutability": "view",
      "type": "function"
    },
    {
      "inputs": [],
      "name": "owner",
      "outputs": [
        {
          "internalType": "address",
          "name": "",
          "type": "address"
        }
      ],
      "stateMutability": "view",
      "type": "function"
    },
    {
      "inputs": [
        {
          "internalType": "address",
          "name": "verifier",
          "type": "address"
        }
      ],
      "name": "removeTrustedVerifier",
      "outputs": [],
      "stateMutability": "nonpayable",
      "type": "function"
    },
    {
      "inputs": [],
      "name": "renounceOwnership",
      "outputs": [],
      "stateMutability": "nonpayable",
      "type": "function"
    },
    {
      "inputs": [
        {
          "internalType": "address",
          "name": "newOwner",
          "type": "address"
        }
      ],
      "name": "transferOwnership",
      "outputs": [],
      "stateMutability": "nonpayable",
      "type": "function"
    },
    {
      "inputs": [
        {
          "internalType": "bytes32",
          "name": "attestationId",
          "type": "bytes32"
        },
        {
          "internalType": "bytes32",
          "name": "dataHash",
          "type": "bytes32"
        },
        {
          "internalType": "bytes32",
          "name": "deedNumberHash",
          "type": "bytes32"
        },
        {
          "internalType": "bytes32",
          "name": "propertyNameHash",
          "type": "bytes32"
        },
        {
          "internalType": "bytes32",
          "name": "addressHash",
          "type": "bytes32"
        },
        {
          "internalType": "bytes32",
          "name": "ownerNameHash",
          "type": "bytes32"
        },
        {
          "internalType": "bytes32",
          "name": "taxIdHash",
          "type": "bytes32"
        },
        {
          "internalType": "string",
          "name": "photoURI",
          "type": "string"
        }
      ],
      "name": "updatePropertyInfo",
      "outputs": [],
      "stateMutability": "nonpayable",
      "type": "function"
    },
    {
      "inputs": [
        {
          "internalType": "bytes32",
          "name": "attestationId",
          "type": "bytes32"
        }
      ],
      "name": "verifyAttestation",
      "outputs": [],
      "stateMutability": "nonpayable",
      "type": "function"
    },
    {
      "inputs": [
        {
          "internalType": "bytes32",
          "name": "attestationId",
          "type": "bytes32"
        },
        {
          "internalType": "bytes32",
          "name": "deedNumberHash",
          "type": "bytes32"
        }
      ],
      "name": "verifyDeedNumber",
      "outputs": [
        {
          "internalType": "bool",
          "name": "",
          "type": "bool"
        }
      ],
      "stateMutability": "view",
      "type": "function"
    },
    {
      "inputs": [
        {
          "internalType": "bytes32",
          "name": "attestationId",
          "type": "bytes32"
        },
        {
          "internalType": "uint256",
          "name": "documentIndex",
          "type": "uint256"
        }
      ],
      "name": "verifyDocument",
      "outputs": [],
      "stateMutability": "nonpayable",
      "type": "function"
    },
    {
      "inputs": [
        {
          "internalType": "bytes32",
          "name": "attestationId",
          "type": "bytes32"
        },
        {
          "internalType": "uint256",
          "name": "documentIndex",
          "type": "uint256"
        },
        {
          "internalType": "bytes32",
          "name": "documentHash",
          "type": "bytes32"
        }
      ],
      "name": "verifyDocument",
      "outputs": [
        {
          "internalType": "bool",
          "name": "",
          "type": "bool"
        }
      ],
      "stateMutability": "view",
      "type": "function"
    },
    {
      "inputs": [
        {
          "internalType": "bytes32",
          "name": "attestationId",
          "type": "bytes32"
        },
        {
          "internalType": "bytes32",
          "name": "propertyNameHash",
          "type": "bytes32"
        }
      ],
      "name": "verifyPropertyName",
      "outputs": [
        {
          "internalType": "bool",
          "name": "",
          "type": "bool"
        }
      ],
      "stateMutability": "view",
      "type": "function"
    }
  ],
  "bytecode": "0x60806040523480156200001157600080fd5b5060405162002f8d38038062002f8d833981810160405281019062000037919062000277565b620000576200004b6200014160201b60201c565b6200014960201b60201c565b6001808190555080600260006101000a81548173ffffffffffffffffffffffffffffffffffffffff021916908373ffffffffffffffffffffffffffffffffffffffff1602179055506001600560003373ffffffffffffffffffffffffffffffffffffffff1673ffffffffffffffffffffffffffffffffffffffff16815260200190815260200160002060006101000a81548160ff0219169083151502179055503373ffffffffffffffffffffffffffffffffffffffff167f6d05492139c5ea989514a5d2150c028041e5c087e2a39967f67dc7d2655adb8160405160405180910390a250620002a9565b600033905090565b60008060009054906101000a900473ffffffffffffffffffffffffffffffffffffffff169050816000806101000a81548173ffffffffffffffffffffffffffffffffffffffff021916908373ffffffffffffffffffffffffffffffffffffffff1602179055508173ffffffffffffffffffffffffffffffffffffffff168173ffffffffffffffffffffffffffffffffffffffff167f8be0079c531659141344cd1fd0a4f28419497f9722a3daafe3b4186f6b6457e060405160405180910390a35050565b600080fd5b600073ffffffffffffffffffffffffffffffffffffffff82169050919050565b60006200023f8262000212565b9050919050565b620002518162000232565b81146200025d57600080fd5b50565b600081519050620002718162000246565b92915050565b60006020828403121562000290576200028f6200020d565b5b6000620002a08482850162000260565b91505092915050565b612cd480620002b96000396000f3fe608060405234801561001057600080fd5b50600436106101215760003560e01c8063751f1bc7116100ad578063b937e7cc11610071578063b937e7cc14610325578063ecf0122b14610343578063eeec654014610373578063f2fde38b146103a3578063f94c942c146103bf57610121565b8063751f1bc71461026f578063801d2cf11461029f5780638da5cb5b146102bb5780639658e1ef146102d9578063a9baa23c1461030957610121565b80631c0b2ba9116100f45780631c0b2ba9146101c957806350a053cd146101e557806350f11d2a1461020157806357d6a33d14610231578063715018a61461026557610121565b806308f469571461012657806310c434fc1461014257806314f9b46614610178578063167afc4c146101ad575b600080fd5b610140600480360381019061013b9190611c9d565b6103ef565b005b61015c60048036038101906101579190611c9d565b610628565b60405161016f9796959493929190611d69565b60405180910390f35b610192600480360381019061018d9190611c9d565b6107a5565b6040516101a496959493929190611e54565b60405180910390f35b6101c760048036038101906101c29190611f1a565b6108d0565b005b6101e360048036038101906101de9190612015565b610b10565b005b6101ff60048036038101906101fa91906120c9565b610e5d565b005b61021b600480360381019061021691906120c9565b610f03565b60405161022891906120f6565b60405180910390f35b61024b6004803603810190610246919061213d565b610f59565b60405161025c9594939291906121f4565b60405180910390f35b61026d61112c565b005b6102896004803603810190610284919061224e565b611140565b60405161029691906120f6565b60405180910390f35b6102b960048036038101906102b491906120c9565b6111f5565b005b6102c361129b565b6040516102d0919061228e565b60405180910390f35b6102f360048036038101906102ee91906120c9565b6112c4565b6040516103009190612367565b60405180910390f35b610323600480360381019061031e919061213d565b61135b565b005b61032d61150b565b60405161033a91906123e8565b60405180910390f35b61035d6004803603810190610358919061224e565b611531565b60405161036a91906120f6565b60405180910390f35b61038d60048036038101906103889190612403565b6115e6565b60405161039a91906120f6565b60405180910390f35b6103bd60048036038101906103b891906120c9565b6116ea565b005b6103d960048036038101906103d49190612456565b61176d565b6040516103e69190612518565b60405180910390f35b6103f7611abb565b600560003373ffffffffffffffffffffffffffffffffffffffff1673ffffffffffffffffffffffffffffffffffffffff16815260200190815260200160002060009054906101000a900460ff1661047a576040517f13e01aef00000000000000000000000000000000000000000000000000000000815260040160405180910390fd5b6000600360008381526020019081526020016000209050600073ffffffffffffffffffffffffffffffffffffffff168160020160009054906101000a900473ffffffffffffffffffffffffffffffffffffffff1673ffffffffffffffffffffffffffffffffffffffff160361051b576040517f120a2e7700000000000000000000000000000000000000000000000000000000815260040160405180910390fd5b8060020160149054906101000a900460ff1615610564576040517f118fd7b800000000000000000000000000000000000000000000000000000000815260040160405180910390fd5b60018160020160146101000a81548160ff021916908315150217905550338160030160006101000a81548173ffffffffffffffffffffffffffffffffffffffff021916908373ffffffffffffffffffffffffffffffffffffffff1602179055504281600d01819055503373ffffffffffffffffffffffffffffffffffffffff16827f1aab3d7b6c1907cb6ba1065ca95a845447258181fcf9eda06c413ff6f7591627426040516106149190612533565b60405180910390a350610625611b0a565b50565b60008060008060008060606000600360008a81526020019081526020016000209050600073ffffffffffffffffffffffffffffffffffffffff168160020160009054906101000a900473ffffffffffffffffffffffffffffffffffffffff1673ffffffffffffffffffffffffffffffffffffffff16036106d4576040517f120a2e7700000000000000000000000000000000000000000000000000000000815260040160405180910390fd5b60008160040190508060000154816001015482600201548360030154846004015485600501548660060180805461070a9061257d565b80601f01602080910402602001604051908101604052809291908181526020018280546107369061257d565b80156107835780601f1061075857610100808354040283529160200191610783565b820191906000526020600020905b81548152906001019060200180831161076657829003601f168201915b5050505050905098509850985098509850985098505050919395979092949650565b6000806000806000806000600360008981526020019081526020016000209050600073ffffffffffffffffffffffffffffffffffffffff168160020160009054906101000a900473ffffffffffffffffffffffffffffffffffffffff1673ffffffffffffffffffffffffffffffffffffffff160361084f576040517f120a2e7700000000000000000000000000000000000000000000000000000000815260040160405180910390fd5b80600101548160020160009054906101000a900473ffffffffffffffffffffffffffffffffffffffff168260020160149054906101000a900460ff168360030160009054906101000a900473ffffffffffffffffffffffffffffffffffffffff1684600d015485600c01549650965096509650965096505091939550919395565b6108d8611abb565b6000600360008b81526020019081526020016000209050600073ffffffffffffffffffffffffffffffffffffffff168160020160009054906101000a900473ffffffffffffffffffffffffffffffffffffffff1673ffffffffffffffffffffffffffffffffffffffff1603610979576040517f120a2e7700000000000000000000000000000000000000000000000000000000815260040160405180910390fd5b3373ffffffffffffffffffffffffffffffffffffffff168160020160009054906101000a900473ffffffffffffffffffffffffffffffffffffffff1673ffffffffffffffffffffffffffffffffffffffff1614158015610a235750600560003373ffffffffffffffffffffffffffffffffffffffff1673ffffffffffffffffffffffffffffffffffffffff16815260200190815260200160002060009054906101000a900460ff16155b15610a5a576040517f49e27cff00000000000000000000000000000000000000000000000000000000815260040160405180910390fd5b8881600401600001819055508781600401600101819055508681600401600201819055508581600401600301819055508481600401600401819055508381600401600501819055508282826004016006019182610ab892919061278a565b504281600d0181905550897fe9a5957a615d6c1846a7d0f8a2ea1498c3e2096b3a75a2dcc47495ae6ce486df8a42604051610af492919061285a565b60405180910390a250610b05611b0a565b505050505050505050565b610b18611abb565b6000600360008781526020019081526020016000209050600073ffffffffffffffffffffffffffffffffffffffff168160020160009054906101000a900473ffffffffffffffffffffffffffffffffffffffff1673ffffffffffffffffffffffffffffffffffffffff1603610bb9576040517f120a2e7700000000000000000000000000000000000000000000000000000000815260040160405180910390fd5b3373ffffffffffffffffffffffffffffffffffffffff168160020160009054906101000a900473ffffffffffffffffffffffffffffffffffffffff1673ffffffffffffffffffffffffffffffffffffffff1614158015610c635750600560003373ffffffffffffffffffffffffffffffffffffffff1673ffffffffffffffffffffffffffffffffffffffff16815260200190815260200160002060009054906101000a900460ff16155b15610c9a576040517f49e27cff00000000000000000000000000000000000000000000000000000000815260040160405180910390fd5b600a81600c015410610cd8576040517fe201c1bc00000000000000000000000000000000000000000000000000000000815260040160405180910390fd5b6040518060a00160405280868152602001856005811115610cfc57610cfb61217d565b5b815260200184848080601f016020809104026020016040519081016040528093929190818152602001838380828437600081840152601f19601f8201169050808301925050505050505081526020014281526020016000151581525081600b01600083600c015481526020019081526020016000206000820151816000015560208201518160010160006101000a81548160ff02191690836005811115610da657610da561217d565b5b02179055506040820151816002019081610dc09190612883565b506060820151816003015560808201518160040160006101000a81548160ff02191690831515021790555090505080600c016000815480929190610e0390612984565b91905055504281600d0181905550857ff47c40a683ee66b888ffa4cf9d9a8350275ef34c458942e5252f9efc3564775e858742604051610e45939291906129cc565b60405180910390a250610e56611b0a565b5050505050565b610e65611b13565b6001600560008373ffffffffffffffffffffffffffffffffffffffff1673ffffffffffffffffffffffffffffffffffffffff16815260200190815260200160002060006101000a81548160ff0219169083151502179055508073ffffffffffffffffffffffffffffffffffffffff167f6d05492139c5ea989514a5d2150c028041e5c087e2a39967f67dc7d2655adb8160405160405180910390a250565b6000600560008373ffffffffffffffffffffffffffffffffffffffff1673ffffffffffffffffffffffffffffffffffffffff16815260200190815260200160002060009054906101000a900460ff169050919050565b60008060606000806000600360008981526020019081526020016000209050600073ffffffffffffffffffffffffffffffffffffffff168160020160009054906101000a900473ffffffffffffffffffffffffffffffffffffffff1673ffffffffffffffffffffffffffffffffffffffff1603611002576040517f120a2e7700000000000000000000000000000000000000000000000000000000815260040160405180910390fd5b80600c0154871061103f576040517fa064ee7400000000000000000000000000000000000000000000000000000000815260040160405180910390fd5b600081600b016000898152602001908152602001600020905080600001548160010160009054906101000a900460ff168260020183600301548460040160009054906101000a900460ff168280546110969061257d565b80601f01602080910402602001604051908101604052809291908181526020018280546110c29061257d565b801561110f5780601f106110e45761010080835404028352916020019161110f565b820191906000526020600020905b8154815290600101906020018083116110f257829003601f168201915b505050505092509650965096509650965050509295509295909350565b611134611b13565b61113e6000611b91565b565b600080600360008581526020019081526020016000209050600073ffffffffffffffffffffffffffffffffffffffff168160020160009054906101000a900473ffffffffffffffffffffffffffffffffffffffff1673ffffffffffffffffffffffffffffffffffffffff16036111e2576040517f120a2e7700000000000000000000000000000000000000000000000000000000815260040160405180910390fd5b8281600401600101541491505092915050565b6111fd611b13565b6000600560008373ffffffffffffffffffffffffffffffffffffffff1673ffffffffffffffffffffffffffffffffffffffff16815260200190815260200160002060006101000a81548160ff0219169083151502179055508073ffffffffffffffffffffffffffffffffffffffff167f44a3cd4eb5cc5748f6169df057b1cb2ae4c383e87cd94663c430e095d4cba42460405160405180910390a250565b60008060009054906101000a900473ffffffffffffffffffffffffffffffffffffffff16905090565b6060600460008373ffffffffffffffffffffffffffffffffffffffff1673ffffffffffffffffffffffffffffffffffffffff16815260200190815260200160002080548060200260200160405190810160405280929190818152602001828054801561134f57602002820191906000526020600020905b81548152602001906001019080831161133b575b50505050509050919050565b611363611abb565b600560003373ffffffffffffffffffffffffffffffffffffffff1673ffffffffffffffffffffffffffffffffffffffff16815260200190815260200160002060009054906101000a900460ff166113e6576040517f13e01aef00000000000000000000000000000000000000000000000000000000815260040160405180910390fd5b6000600360008481526020019081526020016000209050600073ffffffffffffffffffffffffffffffffffffffff168160020160009054906101000a900473ffffffffffffffffffffffffffffffffffffffff1673ffffffffffffffffffffffffffffffffffffffff1603611487576040517f120a2e7700000000000000000000000000000000000000000000000000000000815260040160405180910390fd5b80600c015482106114c4576040517fa064ee7400000000000000000000000000000000000000000000000000000000815260040160405180910390fd5b600181600b01600084815260200190815260200160002060040160006101000a81548160ff0219169083151502179055504281600d018190555050611507611b0a565b5050565b600260009054906101000a900473ffffffffffffffffffffffffffffffffffffffff1681565b600080600360008581526020019081526020016000209050600073ffffffffffffffffffffffffffffffffffffffff168160020160009054906101000a900473ffffffffffffffffffffffffffffffffffffffff1673ffffffffffffffffffffffffffffffffffffffff16036115d3576040517f120a2e7700000000000000000000000000000000000000000000000000000000815260040160405180910390fd5b8281600401600201541491505092915050565b600080600360008681526020019081526020016000209050600073ffffffffffffffffffffffffffffffffffffffff168160020160009054906101000a900473ffffffffffffffffffffffffffffffffffffffff1673ffffffffffffffffffffffffffffffffffffffff1603611688576040517f120a2e7700000000000000000000000000000000000000000000000000000000815260040160405180910390fd5b80600c015484106116c5576040517fa064ee7400000000000000000000000000000000000000000000000000000000815260040160405180910390fd5b8281600b01600086815260200190815260200160002060000154149150509392505050565b6116f2611b13565b600073ffffffffffffffffffffffffffffffffffffffff168173ffffffffffffffffffffffffffffffffffffffff1603611761576040517f08c379a000000000000000000000000000000000000000000000000000000000815260040161175890612a75565b60405180910390fd5b61176a81611b91565b50565b6000611777611abb565b600260009054906101000a900473ffffffffffffffffffffffffffffffffffffffff1673ffffffffffffffffffffffffffffffffffffffff1663e19f6ba2336040518263ffffffff1660e01b81526004016117d2919061228e565b602060405180830381865afa1580156117ef573d6000803e3d6000fd5b505050506040513d601f19601f820116820180604052508101906118139190612ac1565b611849576040517fe645eaf100000000000000000000000000000000000000000000000000000000815260040160405180910390fd5b8833428a6040516020016118609493929190612b78565b6040516020818303038152906040528051906020012090506000600360008381526020019081526020016000209050898160000181905550428160010181905550338160020160006101000a81548173ffffffffffffffffffffffffffffffffffffffff021916908373ffffffffffffffffffffffffffffffffffffffff16021790555060008160020160146101000a81548160ff02191690831515021790555060008160030160006101000a81548173ffffffffffffffffffffffffffffffffffffffff021916908373ffffffffffffffffffffffffffffffffffffffff1602179055504281600d018190555089816004016000018190555088816004016001018190555087816004016002018190555086816004016003018190555085816004016004018190555084816004016005018190555083838260040160060191826119ac92919061278a565b50600081600c0181905550600460003373ffffffffffffffffffffffffffffffffffffffff1673ffffffffffffffffffffffffffffffffffffffff1681526020019081526020016000208290806001815401808255809150506001900390600052602060002001600090919091909150553373ffffffffffffffffffffffffffffffffffffffff16827feb0f6480bc45705ceab35396eb2c2cb0c4c82b5c2642c56ed4d8e5c1f37d474542604051611a649190612533565b60405180910390a3817fe9a5957a615d6c1846a7d0f8a2ea1498c3e2096b3a75a2dcc47495ae6ce486df8b42604051611a9e92919061285a565b60405180910390a250611aaf611b0a565b98975050505050505050565b600260015403611b00576040517f08c379a0000000000000000000000000000000000000000000000000000000008152600401611af790612c12565b60405180910390fd5b6002600181905550565b60018081905550565b611b1b611c55565b73ffffffffffffffffffffffffffffffffffffffff16611b3961129b565b73ffffffffffffffffffffffffffffffffffffffff1614611b8f576040517f08c379a0000000000000000000000000000000000000000000000000000000008152600401611b8690612c7e565b60405180910390fd5b565b60008060009054906101000a900473ffffffffffffffffffffffffffffffffffffffff169050816000806101000a81548173ffffffffffffffffffffffffffffffffffffffff021916908373ffffffffffffffffffffffffffffffffffffffff1602179055508173ffffffffffffffffffffffffffffffffffffffff168173ffffffffffffffffffffffffffffffffffffffff167f8be0079c531659141344cd1fd0a4f28419497f9722a3daafe3b4186f6b6457e060405160405180910390a35050565b600033905090565b600080fd5b600080fd5b6000819050919050565b611c7a81611c67565b8114611c8557600080fd5b50565b600081359050611c9781611c71565b92915050565b600060208284031215611cb357611cb2611c5d565b5b6000611cc184828501611c88565b91505092915050565b611cd381611c67565b82525050565b600081519050919050565b600082825260208201905092915050565b60005b83811015611d13578082015181840152602081019050611cf8565b60008484015250505050565b6000601f19601f8301169050919050565b6000611d3b82611cd9565b611d458185611ce4565b9350611d55818560208601611cf5565b611d5e81611d1f565b840191505092915050565b600060e082019050611d7e600083018a611cca565b611d8b6020830189611cca565b611d986040830188611cca565b611da56060830187611cca565b611db26080830186611cca565b611dbf60a0830185611cca565b81810360c0830152611dd18184611d30565b905098975050505050505050565b6000819050919050565b611df281611ddf565b82525050565b600073ffffffffffffffffffffffffffffffffffffffff82169050919050565b6000611e2382611df8565b9050919050565b611e3381611e18565b82525050565b60008115159050919050565b611e4e81611e39565b82525050565b600060c082019050611e696000830189611de9565b611e766020830188611e2a565b611e836040830187611e45565b611e906060830186611e2a565b611e9d6080830185611de9565b611eaa60a0830184611de9565b979650505050505050565b600080fd5b600080fd5b600080fd5b60008083601f840112611eda57611ed9611eb5565b5b8235905067ffffffffffffffff811115611ef757611ef6611eba565b5b602083019150836001820283011115611f1357611f12611ebf565b5b9250929050565b60008060008060008060008060006101008a8c031215611f3d57611f3c611c5d565b5b6000611f4b8c828d01611c88565b9950506020611f5c8c828d01611c88565b9850506040611f6d8c828d01611c88565b9750506060611f7e8c828d01611c88565b9650506080611f8f8c828d01611c88565b95505060a0611fa08c828d01611c88565b94505060c0611fb18c828d01611c88565b93505060e08a013567ffffffffffffffff811115611fd257611fd1611c62565b5b611fde8c828d01611ec4565b92509250509295985092959850929598565b60068110611ffd57600080fd5b50565b60008135905061200f81611ff0565b92915050565b60008060008060006080868803121561203157612030611c5d565b5b600061203f88828901611c88565b955050602061205088828901611c88565b945050604061206188828901612000565b935050606086013567ffffffffffffffff81111561208257612081611c62565b5b61208e88828901611ec4565b92509250509295509295909350565b6120a681611e18565b81146120b157600080fd5b50565b6000813590506120c38161209d565b92915050565b6000602082840312156120df576120de611c5d565b5b60006120ed848285016120b4565b91505092915050565b600060208201905061210b6000830184611e45565b92915050565b61211a81611ddf565b811461212557600080fd5b50565b60008135905061213781612111565b92915050565b6000806040838503121561215457612153611c5d565b5b600061216285828601611c88565b925050602061217385828601612128565b9150509250929050565b7f4e487b7100000000000000000000000000000000000000000000000000000000600052602160045260246000fd5b600681106121bd576121bc61217d565b5b50565b60008190506121ce826121ac565b919050565b60006121de826121c0565b9050919050565b6121ee816121d3565b82525050565b600060a0820190506122096000830188611cca565b61221660208301876121e5565b81810360408301526122288186611d30565b90506122376060830185611de9565b6122446080830184611e45565b9695505050505050565b6000806040838503121561226557612264611c5d565b5b600061227385828601611c88565b925050602061228485828601611c88565b9150509250929050565b60006020820190506122a36000830184611e2a565b92915050565b600081519050919050565b600082825260208201905092915050565b6000819050602082019050919050565b6122de81611c67565b82525050565b60006122f083836122d5565b60208301905092915050565b6000602082019050919050565b6000612314826122a9565b61231e81856122b4565b9350612329836122c5565b8060005b8381101561235a57815161234188826122e4565b975061234c836122fc565b92505060018101905061232d565b5085935050505092915050565b600060208201905081810360008301526123818184612309565b905092915050565b6000819050919050565b60006123ae6123a96123a484611df8565b612389565b611df8565b9050919050565b60006123c082612393565b9050919050565b60006123d2826123b5565b9050919050565b6123e2816123c7565b82525050565b60006020820190506123fd60008301846123d9565b92915050565b60008060006060848603121561241c5761241b611c5d565b5b600061242a86828701611c88565b935050602061243b86828701612128565b925050604061244c86828701611c88565b9150509250925092565b60008060008060008060008060e0898b03121561247657612475611c5d565b5b60006124848b828c01611c88565b98505060206124958b828c01611c88565b97505060406124a68b828c01611c88565b96505060606124b78b828c01611c88565b95505060806124c88b828c01611c88565b94505060a06124d98b828c01611c88565b93505060c089013567ffffffffffffffff8111156124fa576124f9611c62565b5b6125068b828c01611ec4565b92509250509295985092959890939650565b600060208201905061252d6000830184611cca565b92915050565b60006020820190506125486000830184611de9565b92915050565b7f4e487b7100000000000000000000000000000000000000000000000000000000600052602260045260246000fd5b6000600282049050600182168061259557607f821691505b6020821081036125a8576125a761254e565b5b50919050565b600082905092915050565b7f4e487b7100000000000000000000000000000000000000000000000000000000600052604160045260246000fd5b60008190508160005260206000209050919050565b60006020601f8301049050919050565b600082821b905092915050565b60006008830261264a7fffffffffffffffffffffffffffffffffffffffffffffffffffffffffffffffff8261260d565b612654868361260d565b95508019841693508086168417925050509392505050565b600061268761268261267d84611ddf565b612389565b611ddf565b9050919050565b6000819050919050565b6126a18361266c565b6126b56126ad8261268e565b84845461261a565b825550505050565b600090565b6126ca6126bd565b6126d5818484612698565b505050565b5b818110156126f9576126ee6000826126c2565b6001810190506126db565b5050565b601f82111561273e5761270f816125e8565b612718846125fd565b81016020851015612727578190505b61273b612733856125fd565b8301826126da565b50505b505050565b600082821c905092915050565b600061276160001984600802612743565b1980831691505092915050565b600061277a8383612750565b9150826002028217905092915050565b61279483836125ae565b67ffffffffffffffff8111156127ad576127ac6125b9565b5b6127b7825461257d565b6127c28282856126fd565b6000601f8311600181146127f157600084156127df578287013590505b6127e9858261276e565b865550612851565b601f1984166127ff866125e8565b60005b8281101561282757848901358255600182019150602085019450602081019050612802565b868310156128445784890135612840601f891682612750565b8355505b6001600288020188555050505b50505050505050565b600060408201905061286f6000830185611cca565b61287c6020830184611de9565b9392505050565b61288c82611cd9565b67ffffffffffffffff8111156128a5576128a46125b9565b5b6128af825461257d565b6128ba8282856126fd565b600060209050601f8311600181146128ed57600084156128db578287015190505b6128e5858261276e565b86555061294d565b601f1984166128fb866125e8565b60005b82811015612923578489015182556001820191506020850194506020810190506128fe565b86831015612940578489015161293c601f891682612750565b8355505b6001600288020188555050505b505050505050565b7f4e487b7100000000000000000000000000000000000000000000000000000000600052601160045260246000fd5b600061298f82611ddf565b91507fffffffffffffffffffffffffffffffffffffffffffffffffffffffffffffffff82036129c1576129c0612955565b5b600182019050919050565b60006060820190506129e160008301866121e5565b6129ee6020830185611cca565b6129fb6040830184611de9565b949350505050565b7f4f776e61626c653a206e6577206f776e657220697320746865207a65726f206160008201527f6464726573730000000000000000000000000000000000000000000000000000602082015250565b6000612a5f602683611ce4565b9150612a6a82612a03565b604082019050919050565b60006020820190508181036000830152612a8e81612a52565b9050919050565b612a9e81611e39565b8114612aa957600080fd5b50565b600081519050612abb81612a95565b92915050565b600060208284031215612ad757612ad6611c5d565b5b6000612ae584828501612aac565b91505092915050565b6000819050919050565b612b09612b0482611c67565b612aee565b82525050565b60008160601b9050919050565b6000612b2782612b0f565b9050919050565b6000612b3982612b1c565b9050919050565b612b51612b4c82611e18565b612b2e565b82525050565b6000819050919050565b612b72612b6d82611ddf565b612b57565b82525050565b6000612b848287612af8565b602082019150612b948286612b40565b601482019150612ba48285612b61565b602082019150612bb48284612af8565b60208201915081905095945050505050565b7f5265656e7472616e637947756172643a207265656e7472616e742063616c6c00600082015250565b6000612bfc601f83611ce4565b9150612c0782612bc6565b602082019050919050565b60006020820190508181036000830152612c2b81612bef565b9050919050565b7f4f776e61626c653a2063616c6c6572206973206e6f7420746865206f776e6572600082015250565b6000612c68602083611ce4565b9150612c7382612c32565b602082019050919050565b60006020820190508181036000830152612c9781612c5b565b905091905056fea26469706673582212203e857fa427a9cf5bc5f2363f150110dc887e2c1ab78b222c9e46a692f9868d0564736f6c63430008110033",
  "linkReferences": {},
  "deployedLinkReferences": {}
}