{
  "_format": "hh-sol-artifact-1",
  "contractName": "KYCVerifier",
  "sourceName": "contracts/KYCVerifier.sol",
  "abi": [
    {
      "inputs": [],
      "stateMutability": "nonpayable",
      "type": "constructor"
    },
    {
      "inputs": [],
      "name": "InvalidAge",
      "type": "error"
    },
    {
      "inputs": [],
      "name": "InvalidDataFormat",
      "type": "error"
    },
    {
      "inputs": [],
      "name": "InvalidSignature",
      "type": "error"
    },
    {
      "inputs": [],
      "name": "VerifierNotTrusted",
      "type": "error"
    },
    {
      "anonymous": false,
      "inputs": [
        {
          "indexed": true,
          "internalType": "address",
          "name": "user",
          "type": "address"
        },
        {
          "indexed": false,
          "internalType": "bool",
          "name": "approved",
          "type": "bool"
        },
        {
          "indexed": false,
          "internalType": "uint256",
          "name": "timestamp",
          "type": "uint256"
        }
      ],
      "name": "KYCVerified",
      "type": "event"
    },
    {
      "anonymous": false,
      "inputs": [
        {
          "indexed": true,
          "internalType": "address",
          "name": "previousOwner",
          "type": "address"
        },
        {
          "indexed": true,
          "internalType": "address",
          "name": "newOwner",
          "type": "address"
        }
      ],
      "name": "OwnershipTransferred",
      "type": "event"
    },
    {
      "anonymous": false,
      "inputs": [
        {
          "indexed": true,
          "internalType": "address",
          "name": "verifier",
          "type": "address"
        }
      ],
      "name": "VerifierAdded",
      "type": "event"
    },
    {
      "anonymous": false,
      "inputs": [
        {
          "indexed": true,
          "internalType": "address",
          "name": "verifier",
          "type": "address"
        }
      ],
      "name": "VerifierRemoved",
      "type": "event"
    },
    {
      "inputs": [
        {
          "internalType": "address",
          "name": "verifier",
          "type": "address"
        }
      ],
      "name": "addTrustedVerifier",
      "outputs": [],
      "stateMutability": "nonpayable",
      "type": "function"
    },
    {
      "inputs": [
        {
          "internalType": "address[]",
          "name": "users",
          "type": "address[]"
        }
      ],
      "name": "batchCheckKYC",
      "outputs": [
        {
          "internalType": "bool[]",
          "name": "results",
          "type": "bool[]"
        }
      ],
      "stateMutability": "view",
      "type": "function"
    },
    {
      "inputs": [
        {
          "internalType": "address",
          "name": "user",
          "type": "address"
        }
      ],
      "name": "getVerificationTimestamp",
      "outputs": [
        {
          "internalType": "uint256",
          "name": "",
          "type": "uint256"
        }
      ],
      "stateMutability": "view",
      "type": "function"
    },
    {
      "inputs": [
        {
          "internalType": "address",
          "name": "user",
          "type": "address"
        }
      ],
      "name": "hasPassedKYC",
      "outputs": [
        {
          "internalType": "bool",
          "name": "",
          "type": "bool"
        }
      ],
      "stateMutability": "view",
      "type": "function"
    },
    {
      "inputs": [
        {
          "internalType": "address",
          "name": "verifier",
          "type": "address"
        }
      ],
      "name": "isTrustedVerifier",
      "outputs": [
        {
          "internalType": "bool",
          "name": "",
          "type": "bool"
        }
      ],
      "stateMutability": "view",
      "type": "function"
    },
    {
      "inputs": [],
      "name": "owner",
      "outputs": [
        {
          "internalType": "address",
          "name": "",
          "type": "address"
        }
      ],
      "stateMutability": "view",
      "type": "function"
    },
    {
      "inputs": [
        {
          "internalType": "address",
          "name": "verifier",
          "type": "address"
        }
      ],
      "name": "removeTrustedVerifier",
      "outputs": [],
      "stateMutability": "nonpayable",
      "type": "function"
    },
    {
      "inputs": [],
      "name": "renounceOwnership",
      "outputs": [],
      "stateMutability": "nonpayable",
      "type": "function"
    },
    {
      "inputs": [
        {
          "internalType": "address",
          "name": "user",
          "type": "address"
        },
        {
          "internalType": "bool",
          "name": "approved",
          "type": "bool"
        }
      ],
      "name": "setKYCStatus",
      "outputs": [],
      "stateMutability": "nonpayable",
      "type": "function"
    },
    {
      "inputs": [
        {
          "internalType": "address",
          "name": "newOwner",
          "type": "address"
        }
      ],
      "name": "transferOwnership",
      "outputs": [],
      "stateMutability": "nonpayable",
      "type": "function"
    },
    {
      "inputs": [
        {
          "internalType": "bytes32",
          "name": "dataHash",
          "type": "bytes32"
        },
        {
          "internalType": "uint8",
          "name": "age",
          "type": "uint8"
        },
        {
          "internalType": "bool",
          "name": "isUSCitizen",
          "type": "bool"
        },
        {
          "internalType": "bytes",
          "name": "signature",
          "type": "bytes"
        },
        {
          "internalType": "address",
          "name": "verifier",
          "type": "address"
        }
      ],
      "name": "verifyKYC",
      "outputs": [],
      "stateMutability": "nonpayable",
      "type": "function"
    }
  ],
  "bytecode": "0x608080604052346100985760008054336001600160a01b0319821681178355906001600160a01b03167f8be0079c531659141344cd1fd0a4f28419497f9722a3daafe3b4186f6b6457e08380a360018055338152600460205260408120600160ff198254161790557f6d05492139c5ea989514a5d2150c028041e5c087e2a39967f67dc7d2655adb81339180a2610ac4908161009e8239f35b600080fdfe6040608081526004908136101561001557600080fd5b600091823560e01c806350a053cd1461072b57806350f11d2a146106ef578063715018a6146106955780637f47b8101461065d578063801d2cf1146105f75780638da5cb5b146105cf578063a3f569ae14610512578063d2176559146102f4578063def49d12146101a1578063e19f6ba21461015f5763f2fde38b1461009a57600080fd5b3461015b57602036600319011261015b576100b3610794565b906100bc6107e7565b6001600160a01b0391821692831561010957505082546001600160a01b0319811683178455167f8be0079c531659141344cd1fd0a4f28419497f9722a3daafe3b4186f6b6457e08380a380f35b906020608492519162461bcd60e51b8352820152602660248201527f4f776e61626c653a206e6577206f776e657220697320746865207a65726f206160448201526564647265737360d01b6064820152fd5b8280fd5b50503461019d57602036600319011261019d5760209160ff9082906001600160a01b0361018a610794565b1681526002855220541690519015158152f35b5080fd5b5082346102f15760208060031936011261019d5782359167ffffffffffffffff80841161019d573660238501121561019d578385013590811161019d57602490600595368383891b880101116102ed5761020082989796949598610a76565b9361020d885195866107af565b82855261021983610a76565b858a019790601f1901368937865b8481106102715750505050505083519485948186019282875251809352850193925b82811061025857505050500390f35b8351151585528695509381019392810192600101610249565b80829b9897999a9b1b86818501013560018060a01b0381168091036102e95788526002895260ff8c892054168a518310156102d7571515908a0189015260001981146102c557600101999897959699610227565b634e487b7160e01b8752601184528587fd5b634e487b7160e01b8952603286528789fd5b8880fd5b8380fd5b80fd5b50903461015b5760a036600319011261015b5760243560ff81169283820361050e576044359384151580860361050a5767ffffffffffffffff6064358181116102e957366023820112156102e95780850135958287116104f757898851926020986103688a601f19601f84011601866107af565b808552366024828401011161015b578060248b930183870137840101526001600160a01b03608435818116959194908690036104f3576103a661083f565b858c5287895260ff8a8d205416156104e357895191898301938935855260ff60f81b9060f81b168b84015260f81b60418301523360601b6042830152603682526060820190828210908211176104d05789525190207f19457468657265756d205369676e6564204d6573736167653a0a3332000000008a52601c52603c892061043a91610432916109af565b919091610895565b16036104c1576012116104b357509060037f30ec77e4620da0f85cace6445697fea0d6f18c5aa41dc3e8b70930f9c976cd7d923386526002815261048c858488209060ff801983541691151516179055565b528084204290819055905192151583526020830152339180604081015b0390a26001805580f35b82516304530cb760e41b8152fd5b508251638baa579f60e01b8152fd5b634e487b7160e01b8c526041885260248cfd5b89516313e01aef60e01b81528890fd5b8b80fd5b634e487b7160e01b8a526041865260248afd5b8680fd5b8480fd5b503461015b578160031936011261015b5761052b610794565b60243591821515830361050e5761054061083f565b3385528060205260ff8486205416156105c157506001600160a01b03168084526002602052828420805460ff191660ff84151516179055917f30ec77e4620da0f85cace6445697fea0d6f18c5aa41dc3e8b70930f9c976cd7d916104a991600360209081528187204290819055915192151583528201529081906040820190565b83516313e01aef60e01b8152fd5b50503461019d578160031936011261019d57905490516001600160a01b039091168152602090f35b50903461015b57602036600319011261015b57610612610794565b61061a6107e7565b6001600160a01b03168084526020929092528220805460ff191690557f44a3cd4eb5cc5748f6169df057b1cb2ae4c383e87cd94663c430e095d4cba4248280a280f35b50503461019d57602036600319011261019d5760209181906001600160a01b03610685610794565b1681526003845220549051908152f35b83346102f157806003193601126102f1576106ae6107e7565b80546001600160a01b03198116825581906001600160a01b03167f8be0079c531659141344cd1fd0a4f28419497f9722a3daafe3b4186f6b6457e08280a380f35b503461015b57602036600319011261015b5760209260ff918391906001600160a01b0361071a610794565b168252855220541690519015158152f35b50903461015b57602036600319011261015b57610746610794565b61074e6107e7565b6001600160a01b03168084526020929092528220805460ff191660011790557f6d05492139c5ea989514a5d2150c028041e5c087e2a39967f67dc7d2655adb818280a280f35b600435906001600160a01b03821682036107aa57565b600080fd5b90601f8019910116810190811067ffffffffffffffff8211176107d157604052565b634e487b7160e01b600052604160045260246000fd5b6000546001600160a01b031633036107fb57565b606460405162461bcd60e51b815260206004820152602060248201527f4f776e61626c653a2063616c6c6572206973206e6f7420746865206f776e65726044820152fd5b600260015414610850576002600155565b60405162461bcd60e51b815260206004820152601f60248201527f5265656e7472616e637947756172643a207265656e7472616e742063616c6c006044820152606490fd5b600581101561099957806108a65750565b600181036108f35760405162461bcd60e51b815260206004820152601860248201527f45434453413a20696e76616c6964207369676e617475726500000000000000006044820152606490fd5b600281036109405760405162461bcd60e51b815260206004820152601f60248201527f45434453413a20696e76616c6964207369676e6174757265206c656e677468006044820152606490fd5b60031461094957565b60405162461bcd60e51b815260206004820152602260248201527f45434453413a20696e76616c6964207369676e6174757265202773272076616c604482015261756560f01b6064820152608490fd5b634e487b7160e01b600052602160045260246000fd5b9060418151146000146109dd576109d9916020820151906060604084015193015160001a906109e7565b9091565b5050600090600290565b9291907f7fffffffffffffffffffffffffffffff5d576e7357a4501ddfe92f46681b20a08311610a6a5791608094939160ff602094604051948552168484015260408301526060820152600093849182805260015afa15610a5d5781516001600160a01b03811615610a57579190565b50600190565b50604051903d90823e3d90fd5b50505050600090600390565b67ffffffffffffffff81116107d15760051b6020019056fea26469706673582212200a039743011617b1b471224e09729ac40c6bf41dba7d47c8c8aff6c45a0e49ce64736f6c63430008130033",
  "linkReferences": {},
  "deployedLinkReferences": {}
}