{
  "_format": "hh-sol-artifact-1",
  "contractName": "KYCVerifier",
  "sourceName": "contracts/KYCVerifier.sol",
  "abi": [
    {
      "inputs": [],
      "stateMutability": "nonpayable",
      "type": "constructor"
    },
    {
      "inputs": [],
      "name": "InvalidAge",
      "type": "error"
    },
    {
      "inputs": [],
      "name": "InvalidDataFormat",
      "type": "error"
    },
    {
      "inputs": [],
      "name": "InvalidSignature",
      "type": "error"
    },
    {
      "inputs": [],
      "name": "VerifierNotTrusted",
      "type": "error"
    },
    {
      "anonymous": false,
      "inputs": [
        {
          "indexed": true,
          "internalType": "address",
          "name": "user",
          "type": "address"
        },
        {
          "indexed": false,
          "internalType": "bool",
          "name": "approved",
          "type": "bool"
        },
        {
          "indexed": false,
          "internalType": "uint256",
          "name": "timestamp",
          "type": "uint256"
        }
      ],
      "name": "KYCVerified",
      "type": "event"
    },
    {
      "anonymous": false,
      "inputs": [
        {
          "indexed": true,
          "internalType": "address",
          "name": "previousOwner",
          "type": "address"
        },
        {
          "indexed": true,
          "internalType": "address",
          "name": "newOwner",
          "type": "address"
        }
      ],
      "name": "OwnershipTransferred",
      "type": "event"
    },
    {
      "anonymous": false,
      "inputs": [
        {
          "indexed": true,
          "internalType": "address",
          "name": "verifier",
          "type": "address"
        }
      ],
      "name": "VerifierAdded",
      "type": "event"
    },
    {
      "anonymous": false,
      "inputs": [
        {
          "indexed": true,
          "internalType": "address",
          "name": "verifier",
          "type": "address"
        }
      ],
      "name": "VerifierRemoved",
      "type": "event"
    },
    {
      "inputs": [
        {
          "internalType": "address",
          "name": "verifier",
          "type": "address"
        }
      ],
      "name": "addTrustedVerifier",
      "outputs": [],
      "stateMutability": "nonpayable",
      "type": "function"
    },
    {
      "inputs": [
        {
          "internalType": "address[]",
          "name": "users",
          "type": "address[]"
        }
      ],
      "name": "batchCheckKYC",
      "outputs": [
        {
          "internalType": "bool[]",
          "name": "results",
          "type": "bool[]"
        }
      ],
      "stateMutability": "view",
      "type": "function"
    },
    {
      "inputs": [
        {
          "internalType": "address",
          "name": "user",
          "type": "address"
        }
      ],
      "name": "getVerificationTimestamp",
      "outputs": [
        {
          "internalType": "uint256",
          "name": "",
          "type": "uint256"
        }
      ],
      "stateMutability": "view",
      "type": "function"
    },
    {
      "inputs": [
        {
          "internalType": "address",
          "name": "user",
          "type": "address"
        }
      ],
      "name": "hasPassedKYC",
      "outputs": [
        {
          "internalType": "bool",
          "name": "",
          "type": "bool"
        }
      ],
      "stateMutability": "view",
      "type": "function"
    },
    {
      "inputs": [
        {
          "internalType": "address",
          "name": "verifier",
          "type": "address"
        }
      ],
      "name": "isTrustedVerifier",
      "outputs": [
        {
          "internalType": "bool",
          "name": "",
          "type": "bool"
        }
      ],
      "stateMutability": "view",
      "type": "function"
    },
    {
      "inputs": [],
      "name": "owner",
      "outputs": [
        {
          "internalType": "address",
          "name": "",
          "type": "address"
        }
      ],
      "stateMutability": "view",
      "type": "function"
    },
    {
      "inputs": [
        {
          "internalType": "address",
          "name": "verifier",
          "type": "address"
        }
      ],
      "name": "removeTrustedVerifier",
      "outputs": [],
      "stateMutability": "nonpayable",
      "type": "function"
    },
    {
      "inputs": [],
      "name": "renounceOwnership",
      "outputs": [],
      "stateMutability": "nonpayable",
      "type": "function"
    },
    {
      "inputs": [
        {
          "internalType": "address",
          "name": "user",
          "type": "address"
        },
        {
          "internalType": "bool",
          "name": "approved",
          "type": "bool"
        }
      ],
      "name": "setKYCStatus",
      "outputs": [],
      "stateMutability": "nonpayable",
      "type": "function"
    },
    {
      "inputs": [
        {
          "internalType": "address",
          "name": "newOwner",
          "type": "address"
        }
      ],
      "name": "transferOwnership",
      "outputs": [],
      "stateMutability": "nonpayable",
      "type": "function"
    },
    {
      "inputs": [
        {
          "internalType": "bytes32",
          "name": "dataHash",
          "type": "bytes32"
        },
        {
          "internalType": "uint8",
          "name": "age",
          "type": "uint8"
        },
        {
          "internalType": "bool",
          "name": "isUSCitizen",
          "type": "bool"
        },
        {
          "internalType": "bytes",
          "name": "signature",
          "type": "bytes"
        },
        {
          "internalType": "address",
          "name": "verifier",
          "type": "address"
        }
      ],
      "name": "verifyKYC",
      "outputs": [],
      "stateMutability": "nonpayable",
      "type": "function"
    }
  ],
  "bytecode": "0x608060405234801561001057600080fd5b5061002d6100226100d460201b60201c565b6100dc60201b60201c565b600180819055506001600460003373ffffffffffffffffffffffffffffffffffffffff1673ffffffffffffffffffffffffffffffffffffffff16815260200190815260200160002060006101000a81548160ff0219169083151502179055503373ffffffffffffffffffffffffffffffffffffffff167f6d05492139c5ea989514a5d2150c028041e5c087e2a39967f67dc7d2655adb8160405160405180910390a26101a0565b600033905090565b60008060009054906101000a900473ffffffffffffffffffffffffffffffffffffffff169050816000806101000a81548173ffffffffffffffffffffffffffffffffffffffff021916908373ffffffffffffffffffffffffffffffffffffffff1602179055508173ffffffffffffffffffffffffffffffffffffffff168173ffffffffffffffffffffffffffffffffffffffff167f8be0079c531659141344cd1fd0a4f28419497f9722a3daafe3b4186f6b6457e060405160405180910390a35050565b6119e8806101af6000396000f3fe608060405234801561001057600080fd5b50600436106100a95760003560e01c80638da5cb5b116100715780638da5cb5b14610150578063a3f569ae1461016e578063d21765591461018a578063def49d12146101a6578063e19f6ba2146101d6578063f2fde38b14610206576100a9565b806350a053cd146100ae57806350f11d2a146100ca578063715018a6146100fa5780637f47b81014610104578063801d2cf114610134575b600080fd5b6100c860048036038101906100c39190610f50565b610222565b005b6100e460048036038101906100df9190610f50565b6102c8565b6040516100f19190610f98565b60405180910390f35b61010261031e565b005b61011e60048036038101906101199190610f50565b610332565b60405161012b9190610fcc565b60405180910390f35b61014e60048036038101906101499190610f50565b61037b565b005b610158610421565b6040516101659190610ff6565b60405180910390f35b6101886004803603810190610183919061103d565b61044a565b005b6101a4600480360381019061019f9190611232565b6105cc565b005b6101c060048036038101906101bb9190611329565b61085c565b6040516101cd9190611434565b60405180910390f35b6101f060048036038101906101eb9190610f50565b61096d565b6040516101fd9190610f98565b60405180910390f35b610220600480360381019061021b9190610f50565b6109c3565b005b61022a610a46565b6001600460008373ffffffffffffffffffffffffffffffffffffffff1673ffffffffffffffffffffffffffffffffffffffff16815260200190815260200160002060006101000a81548160ff0219169083151502179055508073ffffffffffffffffffffffffffffffffffffffff167f6d05492139c5ea989514a5d2150c028041e5c087e2a39967f67dc7d2655adb8160405160405180910390a250565b6000600460008373ffffffffffffffffffffffffffffffffffffffff1673ffffffffffffffffffffffffffffffffffffffff16815260200190815260200160002060009054906101000a900460ff169050919050565b610326610a46565b6103306000610ac4565b565b6000600360008373ffffffffffffffffffffffffffffffffffffffff1673ffffffffffffffffffffffffffffffffffffffff168152602001908152602001600020549050919050565b610383610a46565b6000600460008373ffffffffffffffffffffffffffffffffffffffff1673ffffffffffffffffffffffffffffffffffffffff16815260200190815260200160002060006101000a81548160ff0219169083151502179055508073ffffffffffffffffffffffffffffffffffffffff167f44a3cd4eb5cc5748f6169df057b1cb2ae4c383e87cd94663c430e095d4cba42460405160405180910390a250565b60008060009054906101000a900473ffffffffffffffffffffffffffffffffffffffff16905090565b610452610b88565b600460003373ffffffffffffffffffffffffffffffffffffffff1673ffffffffffffffffffffffffffffffffffffffff16815260200190815260200160002060009054906101000a900460ff166104d5576040517f13e01aef00000000000000000000000000000000000000000000000000000000815260040160405180910390fd5b80600260008473ffffffffffffffffffffffffffffffffffffffff1673ffffffffffffffffffffffffffffffffffffffff16815260200190815260200160002060006101000a81548160ff02191690831515021790555042600360008473ffffffffffffffffffffffffffffffffffffffff1673ffffffffffffffffffffffffffffffffffffffff168152602001908152602001600020819055508173ffffffffffffffffffffffffffffffffffffffff167f30ec77e4620da0f85cace6445697fea0d6f18c5aa41dc3e8b70930f9c976cd7d82426040516105b8929190611456565b60405180910390a26105c8610bd7565b5050565b6105d4610b88565b600460008273ffffffffffffffffffffffffffffffffffffffff1673ffffffffffffffffffffffffffffffffffffffff16815260200190815260200160002060009054906101000a900460ff16610657576040517f13e01aef00000000000000000000000000000000000000000000000000000000815260040160405180910390fd5b6000858585336040516020016106709493929190611547565b604051602081830303815290604052805190602001209050600061069382610be0565b90508273ffffffffffffffffffffffffffffffffffffffff166106bf8583610c1690919063ffffffff16565b73ffffffffffffffffffffffffffffffffffffffff161461070c576040517f8baa579f00000000000000000000000000000000000000000000000000000000815260040160405180910390fd5b60128660ff16101561074a576040517f4530cb7000000000000000000000000000000000000000000000000000000000815260040160405180910390fd5b600060128760ff161015801561075d5750855b905080600260003373ffffffffffffffffffffffffffffffffffffffff1673ffffffffffffffffffffffffffffffffffffffff16815260200190815260200160002060006101000a81548160ff02191690831515021790555042600360003373ffffffffffffffffffffffffffffffffffffffff1673ffffffffffffffffffffffffffffffffffffffff168152602001908152602001600020819055503373ffffffffffffffffffffffffffffffffffffffff167f30ec77e4620da0f85cace6445697fea0d6f18c5aa41dc3e8b70930f9c976cd7d8242604051610842929190611456565b60405180910390a2505050610855610bd7565b5050505050565b60608282905067ffffffffffffffff81111561087b5761087a611107565b5b6040519080825280602002602001820160405280156108a95781602001602082028036833780820191505090505b50905060005b8383905081101561096657600260008585848181106108d1576108d0611595565b5b90506020020160208101906108e69190610f50565b73ffffffffffffffffffffffffffffffffffffffff1673ffffffffffffffffffffffffffffffffffffffff16815260200190815260200160002060009054906101000a900460ff1682828151811061094157610940611595565b5b602002602001019015159081151581525050808061095e906115f3565b9150506108af565b5092915050565b6000600260008373ffffffffffffffffffffffffffffffffffffffff1673ffffffffffffffffffffffffffffffffffffffff16815260200190815260200160002060009054906101000a900460ff169050919050565b6109cb610a46565b600073ffffffffffffffffffffffffffffffffffffffff168173ffffffffffffffffffffffffffffffffffffffff1603610a3a576040517f08c379a0000000000000000000000000000000000000000000000000000000008152600401610a31906116be565b60405180910390fd5b610a4381610ac4565b50565b610a4e610c3d565b73ffffffffffffffffffffffffffffffffffffffff16610a6c610421565b73ffffffffffffffffffffffffffffffffffffffff1614610ac2576040517f08c379a0000000000000000000000000000000000000000000000000000000008152600401610ab99061172a565b60405180910390fd5b565b60008060009054906101000a900473ffffffffffffffffffffffffffffffffffffffff169050816000806101000a81548173ffffffffffffffffffffffffffffffffffffffff021916908373ffffffffffffffffffffffffffffffffffffffff1602179055508173ffffffffffffffffffffffffffffffffffffffff168173ffffffffffffffffffffffffffffffffffffffff167f8be0079c531659141344cd1fd0a4f28419497f9722a3daafe3b4186f6b6457e060405160405180910390a35050565b600260015403610bcd576040517f08c379a0000000000000000000000000000000000000000000000000000000008152600401610bc490611796565b60405180910390fd5b6002600181905550565b60018081905550565b60007f19457468657265756d205369676e6564204d6573736167653a0a33320000000060005281601c52603c6000209050919050565b6000806000610c258585610c45565b91509150610c3281610c96565b819250505092915050565b600033905090565b6000806041835103610c865760008060006020860151925060408601519150606086015160001a9050610c7a87828585610dfc565b94509450505050610c8f565b60006002915091505b9250929050565b60006004811115610caa57610ca96117b6565b5b816004811115610cbd57610cbc6117b6565b5b0315610df95760016004811115610cd757610cd66117b6565b5b816004811115610cea57610ce96117b6565b5b03610d2a576040517f08c379a0000000000000000000000000000000000000000000000000000000008152600401610d2190611831565b60405180910390fd5b60026004811115610d3e57610d3d6117b6565b5b816004811115610d5157610d506117b6565b5b03610d91576040517f08c379a0000000000000000000000000000000000000000000000000000000008152600401610d889061189d565b60405180910390fd5b60036004811115610da557610da46117b6565b5b816004811115610db857610db76117b6565b5b03610df8576040517f08c379a0000000000000000000000000000000000000000000000000000000008152600401610def9061192f565b60405180910390fd5b5b50565b6000807f7fffffffffffffffffffffffffffffff5d576e7357a4501ddfe92f46681b20a08360001c1115610e37576000600391509150610ed5565b600060018787878760405160008152602001604052604051610e5c949392919061196d565b6020604051602081039080840390855afa158015610e7e573d6000803e3d6000fd5b505050602060405103519050600073ffffffffffffffffffffffffffffffffffffffff168173ffffffffffffffffffffffffffffffffffffffff1603610ecc57600060019250925050610ed5565b80600092509250505b94509492505050565b6000604051905090565b600080fd5b600080fd5b600073ffffffffffffffffffffffffffffffffffffffff82169050919050565b6000610f1d82610ef2565b9050919050565b610f2d81610f12565b8114610f3857600080fd5b50565b600081359050610f4a81610f24565b92915050565b600060208284031215610f6657610f65610ee8565b5b6000610f7484828501610f3b565b91505092915050565b60008115159050919050565b610f9281610f7d565b82525050565b6000602082019050610fad6000830184610f89565b92915050565b6000819050919050565b610fc681610fb3565b82525050565b6000602082019050610fe16000830184610fbd565b92915050565b610ff081610f12565b82525050565b600060208201905061100b6000830184610fe7565b92915050565b61101a81610f7d565b811461102557600080fd5b50565b60008135905061103781611011565b92915050565b6000806040838503121561105457611053610ee8565b5b600061106285828601610f3b565b925050602061107385828601611028565b9150509250929050565b6000819050919050565b6110908161107d565b811461109b57600080fd5b50565b6000813590506110ad81611087565b92915050565b600060ff82169050919050565b6110c9816110b3565b81146110d457600080fd5b50565b6000813590506110e6816110c0565b92915050565b600080fd5b600080fd5b6000601f19601f8301169050919050565b7f4e487b7100000000000000000000000000000000000000000000000000000000600052604160045260246000fd5b61113f826110f6565b810181811067ffffffffffffffff8211171561115e5761115d611107565b5b80604052505050565b6000611171610ede565b905061117d8282611136565b919050565b600067ffffffffffffffff82111561119d5761119c611107565b5b6111a6826110f6565b9050602081019050919050565b82818337600083830152505050565b60006111d56111d084611182565b611167565b9050828152602081018484840111156111f1576111f06110f1565b5b6111fc8482856111b3565b509392505050565b600082601f830112611219576112186110ec565b5b81356112298482602086016111c2565b91505092915050565b600080600080600060a0868803121561124e5761124d610ee8565b5b600061125c8882890161109e565b955050602061126d888289016110d7565b945050604061127e88828901611028565b935050606086013567ffffffffffffffff81111561129f5761129e610eed565b5b6112ab88828901611204565b92505060806112bc88828901610f3b565b9150509295509295909350565b600080fd5b600080fd5b60008083601f8401126112e9576112e86110ec565b5b8235905067ffffffffffffffff811115611306576113056112c9565b5b602083019150836020820283011115611322576113216112ce565b5b9250929050565b600080602083850312156113405761133f610ee8565b5b600083013567ffffffffffffffff81111561135e5761135d610eed565b5b61136a858286016112d3565b92509250509250929050565b600081519050919050565b600082825260208201905092915050565b6000819050602082019050919050565b6113ab81610f7d565b82525050565b60006113bd83836113a2565b60208301905092915050565b6000602082019050919050565b60006113e182611376565b6113eb8185611381565b93506113f683611392565b8060005b8381101561142757815161140e88826113b1565b9750611419836113c9565b9250506001810190506113fa565b5085935050505092915050565b6000602082019050818103600083015261144e81846113d6565b905092915050565b600060408201905061146b6000830185610f89565b6114786020830184610fbd565b9392505050565b6000819050919050565b61149a6114958261107d565b61147f565b82525050565b60008160f81b9050919050565b60006114b8826114a0565b9050919050565b6114d06114cb826110b3565b6114ad565b82525050565b60006114e1826114ad565b9050919050565b6114f96114f482610f7d565b6114d6565b82525050565b60008160601b9050919050565b6000611517826114ff565b9050919050565b60006115298261150c565b9050919050565b61154161153c82610f12565b61151e565b82525050565b60006115538287611489565b60208201915061156382866114bf565b60018201915061157382856114e8565b6001820191506115838284611530565b60148201915081905095945050505050565b7f4e487b7100000000000000000000000000000000000000000000000000000000600052603260045260246000fd5b7f4e487b7100000000000000000000000000000000000000000000000000000000600052601160045260246000fd5b60006115fe82610fb3565b91507fffffffffffffffffffffffffffffffffffffffffffffffffffffffffffffffff82036116305761162f6115c4565b5b600182019050919050565b600082825260208201905092915050565b7f4f776e61626c653a206e6577206f776e657220697320746865207a65726f206160008201527f6464726573730000000000000000000000000000000000000000000000000000602082015250565b60006116a860268361163b565b91506116b38261164c565b604082019050919050565b600060208201905081810360008301526116d78161169b565b9050919050565b7f4f776e61626c653a2063616c6c6572206973206e6f7420746865206f776e6572600082015250565b600061171460208361163b565b915061171f826116de565b602082019050919050565b6000602082019050818103600083015261174381611707565b9050919050565b7f5265656e7472616e637947756172643a207265656e7472616e742063616c6c00600082015250565b6000611780601f8361163b565b915061178b8261174a565b602082019050919050565b600060208201905081810360008301526117af81611773565b9050919050565b7f4e487b7100000000000000000000000000000000000000000000000000000000600052602160045260246000fd5b7f45434453413a20696e76616c6964207369676e61747572650000000000000000600082015250565b600061181b60188361163b565b9150611826826117e5565b602082019050919050565b6000602082019050818103600083015261184a8161180e565b9050919050565b7f45434453413a20696e76616c6964207369676e6174757265206c656e67746800600082015250565b6000611887601f8361163b565b915061189282611851565b602082019050919050565b600060208201905081810360008301526118b68161187a565b9050919050565b7f45434453413a20696e76616c6964207369676e6174757265202773272076616c60008201527f7565000000000000000000000000000000000000000000000000000000000000602082015250565b600061191960228361163b565b9150611924826118bd565b604082019050919050565b600060208201905081810360008301526119488161190c565b9050919050565b6119588161107d565b82525050565b611967816110b3565b82525050565b6000608082019050611982600083018761194f565b61198f602083018661195e565b61199c604083018561194f565b6119a9606083018461194f565b9594505050505056fea264697066735822122085cc3f35156f0767fd803499367d3f91da4e6ec91a5adb88a99c2240fb38391964736f6c63430008110033",
  "linkReferences": {},
  "deployedLinkReferences": {}
}