{
  "_format": "hh-sol-artifact-1",
  "contractName": "PropertyAttestationVerifier",
  "sourceName": "contracts/PropertyAttestationVerifier.sol",
  "abi": [
    {
      "inputs": [],
      "stateMutability": "nonpayable",
      "type": "constructor"
    },
    {
      "anonymous": false,
      "inputs": [
        {
          "indexed": true,
          "internalType": "address",
          "name": "owner",
          "type": "address"
        },
        {
          "indexed": false,
          "internalType": "bytes32",
          "name": "dataHash",
          "type": "bytes32"
        },
        {
          "indexed": false,
          "internalType": "string",
          "name": "deedNumber",
          "type": "string"
        },
        {
          "indexed": false,
          "internalType": "uint256",
          "name": "timestamp",
          "type": "uint256"
        },
        {
          "indexed": false,
          "internalType": "uint256",
          "name": "propertyIndex",
          "type": "uint256"
        }
      ],
      "name": "PropertyAttested",
      "type": "event"
    },
    {
      "anonymous": false,
      "inputs": [
        {
          "indexed": true,
          "internalType": "address",
          "name": "owner",
          "type": "address"
        },
        {
          "indexed": false,
          "internalType": "bytes32",
          "name": "dataHash",
          "type": "bytes32"
        },
        {
          "indexed": false,
          "internalType": "uint256",
          "name": "timestamp",
          "type": "uint256"
        },
        {
          "indexed": false,
          "internalType": "uint256",
          "name": "propertyIndex",
          "type": "uint256"
        }
      ],
      "name": "PropertyVerified",
      "type": "event"
    },
    {
      "anonymous": false,
      "inputs": [
        {
          "indexed": true,
          "internalType": "address",
          "name": "owner",
          "type": "address"
        },
        {
          "indexed": false,
          "internalType": "bytes32",
          "name": "dataHash",
          "type": "bytes32"
        },
        {
          "indexed": false,
          "internalType": "string",
          "name": "reason",
          "type": "string"
        },
        {
          "indexed": false,
          "internalType": "uint256",
          "name": "propertyIndex",
          "type": "uint256"
        }
      ],
      "name": "VerificationFailed",
      "type": "event"
    },
    {
      "inputs": [
        {
          "internalType": "bytes32",
          "name": "dataHash",
          "type": "bytes32"
        },
        {
          "internalType": "string",
          "name": "deedNumber",
          "type": "string"
        },
        {
          "internalType": "string",
          "name": "propertyName",
          "type": "string"
        },
        {
          "internalType": "string",
          "name": "propertyAddress",
          "type": "string"
        },
        {
          "internalType": "string",
          "name": "ownerName",
          "type": "string"
        },
        {
          "internalType": "string",
          "name": "taxId",
          "type": "string"
        },
        {
          "internalType": "string[]",
          "name": "photoHashes",
          "type": "string[]"
        }
      ],
      "name": "attestProperty",
      "outputs": [
        {
          "internalType": "bool",
          "name": "success",
          "type": "bool"
        },
        {
          "internalType": "uint256",
          "name": "propertyIndex",
          "type": "uint256"
        }
      ],
      "stateMutability": "nonpayable",
      "type": "function"
    },
    {
      "inputs": [
        {
          "internalType": "address",
          "name": "propertyOwner",
          "type": "address"
        },
        {
          "internalType": "uint256",
          "name": "propertyIndex",
          "type": "uint256"
        }
      ],
      "name": "checkAttestationStatus",
      "outputs": [
        {
          "internalType": "bool",
          "name": "exists",
          "type": "bool"
        },
        {
          "internalType": "bool",
          "name": "attestationVerified",
          "type": "bool"
        }
      ],
      "stateMutability": "view",
      "type": "function"
    },
    {
      "inputs": [
        {
          "internalType": "address",
          "name": "propertyOwner",
          "type": "address"
        },
        {
          "internalType": "uint256",
          "name": "propertyIndex",
          "type": "uint256"
        }
      ],
      "name": "getAttestationTimestamp",
      "outputs": [
        {
          "internalType": "uint256",
          "name": "timestamp",
          "type": "uint256"
        }
      ],
      "stateMutability": "view",
      "type": "function"
    },
    {
      "inputs": [
        {
          "internalType": "address",
          "name": "propertyOwner",
          "type": "address"
        }
      ],
      "name": "getPropertyCount",
      "outputs": [
        {
          "internalType": "uint256",
          "name": "count",
          "type": "uint256"
        }
      ],
      "stateMutability": "view",
      "type": "function"
    },
    {
      "inputs": [
        {
          "internalType": "address",
          "name": "propertyOwner",
          "type": "address"
        },
        {
          "internalType": "uint256",
          "name": "propertyIndex",
          "type": "uint256"
        }
      ],
      "name": "getPropertyData",
      "outputs": [
        {
          "internalType": "bytes32",
          "name": "dataHash",
          "type": "bytes32"
        },
        {
          "internalType": "string",
          "name": "deedNumber",
          "type": "string"
        },
        {
          "internalType": "string",
          "name": "propertyName",
          "type": "string"
        },
        {
          "internalType": "string",
          "name": "propertyAddress",
          "type": "string"
        },
        {
          "internalType": "string",
          "name": "ownerName",
          "type": "string"
        },
        {
          "internalType": "string",
          "name": "taxId",
          "type": "string"
        },
        {
          "internalType": "uint256",
          "name": "timestamp",
          "type": "uint256"
        },
        {
          "internalType": "bool",
          "name": "verified",
          "type": "bool"
        },
        {
          "internalType": "string[]",
          "name": "photoHashes",
          "type": "string[]"
        }
      ],
      "stateMutability": "view",
      "type": "function"
    },
    {
      "inputs": [
        {
          "internalType": "bytes32",
          "name": "dataHash",
          "type": "bytes32"
        }
      ],
      "name": "isHashVerified",
      "outputs": [
        {
          "internalType": "bool",
          "name": "isVerified",
          "type": "bool"
        }
      ],
      "stateMutability": "view",
      "type": "function"
    },
    {
      "inputs": [],
      "name": "owner",
      "outputs": [
        {
          "internalType": "address",
          "name": "",
          "type": "address"
        }
      ],
      "stateMutability": "view",
      "type": "function"
    },
    {
      "inputs": [
        {
          "internalType": "address",
          "name": "",
          "type": "address"
        },
        {
          "internalType": "uint256",
          "name": "",
          "type": "uint256"
        }
      ],
      "name": "ownerProperties",
      "outputs": [
        {
          "internalType": "bytes32",
          "name": "dataHash",
          "type": "bytes32"
        },
        {
          "internalType": "string",
          "name": "deedNumber",
          "type": "string"
        },
        {
          "internalType": "string",
          "name": "propertyName",
          "type": "string"
        },
        {
          "internalType": "string",
          "name": "propertyAddress",
          "type": "string"
        },
        {
          "internalType": "string",
          "name": "ownerName",
          "type": "string"
        },
        {
          "internalType": "string",
          "name": "taxId",
          "type": "string"
        },
        {
          "internalType": "uint256",
          "name": "timestamp",
          "type": "uint256"
        },
        {
          "internalType": "bool",
          "name": "verified",
          "type": "bool"
        }
      ],
      "stateMutability": "view",
      "type": "function"
    },
    {
      "inputs": [
        {
          "internalType": "address",
          "name": "",
          "type": "address"
        }
      ],
      "name": "ownerPropertyCount",
      "outputs": [
        {
          "internalType": "uint256",
          "name": "",
          "type": "uint256"
        }
      ],
      "stateMutability": "view",
      "type": "function"
    },
    {
      "inputs": [
        {
          "internalType": "address",
          "name": "newOwner",
          "type": "address"
        }
      ],
      "name": "transferOwnership",
      "outputs": [],
      "stateMutability": "nonpayable",
      "type": "function"
    },
    {
      "inputs": [
        {
          "internalType": "bytes32",
          "name": "",
          "type": "bytes32"
        }
      ],
      "name": "verifiedPropertyHashes",
      "outputs": [
        {
          "internalType": "bool",
          "name": "",
          "type": "bool"
        }
      ],
      "stateMutability": "view",
      "type": "function"
    },
    {
      "inputs": [
        {
          "internalType": "address",
          "name": "propertyOwner",
          "type": "address"
        },
        {
          "internalType": "uint256",
          "name": "propertyIndex",
          "type": "uint256"
        },
        {
          "internalType": "bytes32",
          "name": "verificationDataHash",
          "type": "bytes32"
        }
      ],
      "name": "verifyAttestation",
      "outputs": [
        {
          "internalType": "bool",
          "name": "verified",
          "type": "bool"
        }
      ],
      "stateMutability": "nonpayable",
      "type": "function"
    }
  ],
  "bytecode": "0x608060405234801561001057600080fd5b50336000806101000a81548173ffffffffffffffffffffffffffffffffffffffff021916908373ffffffffffffffffffffffffffffffffffffffff160217905550612a6d806100606000396000f3fe608060405234801561001057600080fd5b50600436106100b45760003560e01c80638b00545b116100715780638b00545b146101da5780638da5cb5b1461020a5780638f48bd5b14610228578063dca1ebc91461025f578063f2fde38b14610290578063f3b7873a146102ac576100b4565b80630baca8d7146100b95780631a58555c146100ea57806339b57a481461011a57806380dbcf6a1461014a57806389cb8f6d1461017a5780638a3e9d1d146101aa575b600080fd5b6100d360048036038101906100ce9190611a3f565b6102e4565b6040516100e1929190611bbd565b60405180910390f35b61010460048036038101906100ff9190611c70565b6107ab565b6040516101119190611cb0565b60405180910390f35b610134600480360381019061012f9190611ccb565b610869565b6040516101419190611d1e565b60405180910390f35b610164600480360381019061015f9190611d39565b610b0c565b6040516101719190611d1e565b60405180910390f35b610194600480360381019061018f9190611d66565b610b36565b6040516101a19190611cb0565b60405180910390f35b6101c460048036038101906101bf9190611d66565b610b4e565b6040516101d19190611cb0565b60405180910390f35b6101f460048036038101906101ef9190611d39565b610b97565b6040516102019190611d1e565b60405180910390f35b610212610bb7565b60405161021f9190611da2565b60405180910390f35b610242600480360381019061023d9190611c70565b610bdb565b604051610256989796959493929190611e4b565b60405180910390f35b61027960048036038101906102749190611c70565b610ef5565b604051610287929190611eec565b60405180910390f35b6102aa60048036038101906102a59190611d66565b610fbc565b005b6102c660048036038101906102c19190611c70565b6110fc565b6040516102db99989796959493929190612021565b60405180910390f35b600080600088511161032b576040517f08c379a000000000000000000000000000000000000000000000000000000000815260040161032290612124565b60405180910390fd5b600087511161036f576040517f08c379a000000000000000000000000000000000000000000000000000000000815260040161036690612190565b60405180910390fd5b60008651116103b3576040517f08c379a00000000000000000000000000000000000000000000000000000000081526004016103aa906121fc565b60405180910390fd5b60008551116103f7576040517f08c379a00000000000000000000000000000000000000000000000000000000081526004016103ee90612268565b60405180910390fd5b600083511161043b576040517f08c379a0000000000000000000000000000000000000000000000000000000008152600401610432906122fa565b60405180910390fd5b60005b600260003373ffffffffffffffffffffffffffffffffffffffff1673ffffffffffffffffffffffffffffffffffffffff1681526020019081526020016000205481101561053c5789600160003373ffffffffffffffffffffffffffffffffffffffff1673ffffffffffffffffffffffffffffffffffffffff16815260200190815260200160002082815481106104d7576104d661231a565b5b90600052602060002090600902016000015403610529576040517f08c379a0000000000000000000000000000000000000000000000000000000008152600401610520906123bb565b60405180910390fd5b80806105349061240a565b91505061043e565b5060006040518061012001604052808b81526020018a8152602001898152602001888152602001878152602001868152602001428152602001600015158152602001858152509050600160003373ffffffffffffffffffffffffffffffffffffffff1673ffffffffffffffffffffffffffffffffffffffff16815260200190815260200160002081908060018154018082558091505060019003906000526020600020906009020160009091909190915060008201518160000155602082015181600101908161060c919061265e565b506040820151816002019081610622919061265e565b506060820151816003019081610638919061265e565b50608082015181600401908161064e919061265e565b5060a0820151816005019081610664919061265e565b5060c0820151816006015560e08201518160070160006101000a81548160ff0219169083151502179055506101008201518160080190805190602001906106ac9291906116ef565b505050600260003373ffffffffffffffffffffffffffffffffffffffff1673ffffffffffffffffffffffffffffffffffffffff168152602001908152602001600020549150600260003373ffffffffffffffffffffffffffffffffffffffff1673ffffffffffffffffffffffffffffffffffffffff16815260200190815260200160002060008154809291906107419061240a565b91905055503373ffffffffffffffffffffffffffffffffffffffff167f793f6634ffcc5b7950547fa49df1b867d9102cf8646e85668408f9d3ca88bfdc8b8b42866040516107929493929190612730565b60405180910390a2600192505097509795505050505050565b6000600260008473ffffffffffffffffffffffffffffffffffffffff1673ffffffffffffffffffffffffffffffffffffffff1681526020019081526020016000205482101561085e57600160008473ffffffffffffffffffffffffffffffffffffffff1673ffffffffffffffffffffffffffffffffffffffff16815260200190815260200160002082815481106108455761084461231a565b5b9060005260206000209060090201600601549050610863565b600090505b92915050565b60008060009054906101000a900473ffffffffffffffffffffffffffffffffffffffff1673ffffffffffffffffffffffffffffffffffffffff163373ffffffffffffffffffffffffffffffffffffffff16146108fa576040517f08c379a00000000000000000000000000000000000000000000000000000000081526004016108f1906127ee565b60405180910390fd5b600260008573ffffffffffffffffffffffffffffffffffffffff1673ffffffffffffffffffffffffffffffffffffffff16815260200190815260200160002054831061097b576040517f08c379a00000000000000000000000000000000000000000000000000000000081526004016109729061285a565b60405180910390fd5b6000600160008673ffffffffffffffffffffffffffffffffffffffff1673ffffffffffffffffffffffffffffffffffffffff16815260200190815260200160002084815481106109ce576109cd61231a565b5b906000526020600020906009020190508060070160009054906101000a900460ff16156109ff576001915050610b05565b82816000015403610aaf5760018160070160006101000a81548160ff02191690831515021790555060016003600085815260200190815260200160002060006101000a81548160ff0219169083151502179055508473ffffffffffffffffffffffffffffffffffffffff167fb177e255d16adb9e27ce591b0484b1498dde64179a25c1c4bf570af04faca1c3844287604051610a9d9392919061287a565b60405180910390a26001915050610b05565b8473ffffffffffffffffffffffffffffffffffffffff167f423906957607c633cbb385e7dd878e5cad84b1e8d79aca049e8e43fc6ce654b48486604051610af79291906128fd565b60405180910390a260009150505b9392505050565b60006003600083815260200190815260200160002060009054906101000a900460ff169050919050565b60026020528060005260406000206000915090505481565b6000600260008373ffffffffffffffffffffffffffffffffffffffff1673ffffffffffffffffffffffffffffffffffffffff168152602001908152602001600020549050919050565b60036020528060005260406000206000915054906101000a900460ff1681565b60008054906101000a900473ffffffffffffffffffffffffffffffffffffffff1681565b60016020528160005260406000208181548110610bf757600080fd5b906000526020600020906009020160009150915050806000015490806001018054610c2190612481565b80601f0160208091040260200160405190810160405280929190818152602001828054610c4d90612481565b8015610c9a5780601f10610c6f57610100808354040283529160200191610c9a565b820191906000526020600020905b815481529060010190602001808311610c7d57829003601f168201915b505050505090806002018054610caf90612481565b80601f0160208091040260200160405190810160405280929190818152602001828054610cdb90612481565b8015610d285780601f10610cfd57610100808354040283529160200191610d28565b820191906000526020600020905b815481529060010190602001808311610d0b57829003601f168201915b505050505090806003018054610d3d90612481565b80601f0160208091040260200160405190810160405280929190818152602001828054610d6990612481565b8015610db65780601f10610d8b57610100808354040283529160200191610db6565b820191906000526020600020905b815481529060010190602001808311610d9957829003601f168201915b505050505090806004018054610dcb90612481565b80601f0160208091040260200160405190810160405280929190818152602001828054610df790612481565b8015610e445780601f10610e1957610100808354040283529160200191610e44565b820191906000526020600020905b815481529060010190602001808311610e2757829003601f168201915b505050505090806005018054610e5990612481565b80601f0160208091040260200160405190810160405280929190818152602001828054610e8590612481565b8015610ed25780601f10610ea757610100808354040283529160200191610ed2565b820191906000526020600020905b815481529060010190602001808311610eb557829003601f168201915b5050505050908060060154908060070160009054906101000a900460ff16905088565b600080600260008573ffffffffffffffffffffffffffffffffffffffff1673ffffffffffffffffffffffffffffffffffffffff16815260200190815260200160002054831091508115610fb557600160008573ffffffffffffffffffffffffffffffffffffffff1673ffffffffffffffffffffffffffffffffffffffff1681526020019081526020016000208381548110610f9357610f9261231a565b5b906000526020600020906009020160070160009054906101000a900460ff1690505b9250929050565b60008054906101000a900473ffffffffffffffffffffffffffffffffffffffff1673ffffffffffffffffffffffffffffffffffffffff163373ffffffffffffffffffffffffffffffffffffffff161461104a576040517f08c379a0000000000000000000000000000000000000000000000000000000008152600401611041906127ee565b60405180910390fd5b600073ffffffffffffffffffffffffffffffffffffffff168173ffffffffffffffffffffffffffffffffffffffff16036110b9576040517f08c379a00000000000000000000000000000000000000000000000000000000081526004016110b090612985565b60405180910390fd5b806000806101000a81548173ffffffffffffffffffffffffffffffffffffffff021916908373ffffffffffffffffffffffffffffffffffffffff16021790555050565b6000606080606080606060008060608a73ffffffffffffffffffffffffffffffffffffffff163373ffffffffffffffffffffffffffffffffffffffff161480611190575060008054906101000a900473ffffffffffffffffffffffffffffffffffffffff1673ffffffffffffffffffffffffffffffffffffffff163373ffffffffffffffffffffffffffffffffffffffff16145b6111cf576040517f08c379a00000000000000000000000000000000000000000000000000000000081526004016111c690612a17565b60405180910390fd5b600260008c73ffffffffffffffffffffffffffffffffffffffff1673ffffffffffffffffffffffffffffffffffffffff168152602001908152602001600020548a10611250576040517f08c379a00000000000000000000000000000000000000000000000000000000081526004016112479061285a565b60405180910390fd5b6000600160008d73ffffffffffffffffffffffffffffffffffffffff1673ffffffffffffffffffffffffffffffffffffffff1681526020019081526020016000208b815481106112a3576112a261231a565b5b906000526020600020906009020160405180610120016040529081600082015481526020016001820180546112d790612481565b80601f016020809104026020016040519081016040528092919081815260200182805461130390612481565b80156113505780601f1061132557610100808354040283529160200191611350565b820191906000526020600020905b81548152906001019060200180831161133357829003601f168201915b5050505050815260200160028201805461136990612481565b80601f016020809104026020016040519081016040528092919081815260200182805461139590612481565b80156113e25780601f106113b7576101008083540402835291602001916113e2565b820191906000526020600020905b8154815290600101906020018083116113c557829003601f168201915b505050505081526020016003820180546113fb90612481565b80601f016020809104026020016040519081016040528092919081815260200182805461142790612481565b80156114745780601f1061144957610100808354040283529160200191611474565b820191906000526020600020905b81548152906001019060200180831161145757829003601f168201915b5050505050815260200160048201805461148d90612481565b80601f01602080910402602001604051908101604052809291908181526020018280546114b990612481565b80156115065780601f106114db57610100808354040283529160200191611506565b820191906000526020600020905b8154815290600101906020018083116114e957829003601f168201915b5050505050815260200160058201805461151f90612481565b80601f016020809104026020016040519081016040528092919081815260200182805461154b90612481565b80156115985780601f1061156d57610100808354040283529160200191611598565b820191906000526020600020905b81548152906001019060200180831161157b57829003601f168201915b50505050508152602001600682015481526020016007820160009054906101000a900460ff1615151515815260200160088201805480602002602001604051908101604052809291908181526020016000905b8282101561169757838290600052602060002001805461160a90612481565b80601f016020809104026020016040519081016040528092919081815260200182805461163690612481565b80156116835780601f1061165857610100808354040283529160200191611683565b820191906000526020600020905b81548152906001019060200180831161166657829003601f168201915b5050505050815260200190600101906115eb565b50505050815250509050806000015181602001518260400151836060015184608001518560a001518660c001518760e00151886101000151995099509950995099509950995099509950509295985092959850929598565b828054828255906000526020600020908101928215611737579160200282015b82811115611736578251829081611726919061265e565b509160200191906001019061170f565b5b5090506117449190611748565b5090565b5b80821115611768576000818161175f919061176c565b50600101611749565b5090565b50805461177890612481565b6000825580601f1061178a57506117a9565b601f0160209004906000526020600020908101906117a891906117ac565b5b50565b5b808211156117c55760008160009055506001016117ad565b5090565b6000604051905090565b600080fd5b600080fd5b6000819050919050565b6117f0816117dd565b81146117fb57600080fd5b50565b60008135905061180d816117e7565b92915050565b600080fd5b600080fd5b6000601f19601f8301169050919050565b7f4e487b7100000000000000000000000000000000000000000000000000000000600052604160045260246000fd5b6118668261181d565b810181811067ffffffffffffffff821117156118855761188461182e565b5b80604052505050565b60006118986117c9565b90506118a4828261185d565b919050565b600067ffffffffffffffff8211156118c4576118c361182e565b5b6118cd8261181d565b9050602081019050919050565b82818337600083830152505050565b60006118fc6118f7846118a9565b61188e565b90508281526020810184848401111561191857611917611818565b5b6119238482856118da565b509392505050565b600082601f8301126119405761193f611813565b5b81356119508482602086016118e9565b91505092915050565b600067ffffffffffffffff8211156119745761197361182e565b5b602082029050602081019050919050565b600080fd5b600061199d61199884611959565b61188e565b905080838252602082019050602084028301858111156119c0576119bf611985565b5b835b81811015611a0757803567ffffffffffffffff8111156119e5576119e4611813565b5b8086016119f2898261192b565b855260208501945050506020810190506119c2565b5050509392505050565b600082601f830112611a2657611a25611813565b5b8135611a3684826020860161198a565b91505092915050565b600080600080600080600060e0888a031215611a5e57611a5d6117d3565b5b6000611a6c8a828b016117fe565b975050602088013567ffffffffffffffff811115611a8d57611a8c6117d8565b5b611a998a828b0161192b565b965050604088013567ffffffffffffffff811115611aba57611ab96117d8565b5b611ac68a828b0161192b565b955050606088013567ffffffffffffffff811115611ae757611ae66117d8565b5b611af38a828b0161192b565b945050608088013567ffffffffffffffff811115611b1457611b136117d8565b5b611b208a828b0161192b565b93505060a088013567ffffffffffffffff811115611b4157611b406117d8565b5b611b4d8a828b0161192b565b92505060c088013567ffffffffffffffff811115611b6e57611b6d6117d8565b5b611b7a8a828b01611a11565b91505092959891949750929550565b60008115159050919050565b611b9e81611b89565b82525050565b6000819050919050565b611bb781611ba4565b82525050565b6000604082019050611bd26000830185611b95565b611bdf6020830184611bae565b9392505050565b600073ffffffffffffffffffffffffffffffffffffffff82169050919050565b6000611c1182611be6565b9050919050565b611c2181611c06565b8114611c2c57600080fd5b50565b600081359050611c3e81611c18565b92915050565b611c4d81611ba4565b8114611c5857600080fd5b50565b600081359050611c6a81611c44565b92915050565b60008060408385031215611c8757611c866117d3565b5b6000611c9585828601611c2f565b9250506020611ca685828601611c5b565b9150509250929050565b6000602082019050611cc56000830184611bae565b92915050565b600080600060608486031215611ce457611ce36117d3565b5b6000611cf286828701611c2f565b9350506020611d0386828701611c5b565b9250506040611d14868287016117fe565b9150509250925092565b6000602082019050611d336000830184611b95565b92915050565b600060208284031215611d4f57611d4e6117d3565b5b6000611d5d848285016117fe565b91505092915050565b600060208284031215611d7c57611d7b6117d3565b5b6000611d8a84828501611c2f565b91505092915050565b611d9c81611c06565b82525050565b6000602082019050611db76000830184611d93565b92915050565b611dc6816117dd565b82525050565b600081519050919050565b600082825260208201905092915050565b60005b83811015611e06578082015181840152602081019050611deb565b60008484015250505050565b6000611e1d82611dcc565b611e278185611dd7565b9350611e37818560208601611de8565b611e408161181d565b840191505092915050565b600061010082019050611e61600083018b611dbd565b8181036020830152611e73818a611e12565b90508181036040830152611e878189611e12565b90508181036060830152611e9b8188611e12565b90508181036080830152611eaf8187611e12565b905081810360a0830152611ec38186611e12565b9050611ed260c0830185611bae565b611edf60e0830184611b95565b9998505050505050505050565b6000604082019050611f016000830185611b95565b611f0e6020830184611b95565b9392505050565b600081519050919050565b600082825260208201905092915050565b6000819050602082019050919050565b600082825260208201905092915050565b6000611f5d82611dcc565b611f678185611f41565b9350611f77818560208601611de8565b611f808161181d565b840191505092915050565b6000611f978383611f52565b905092915050565b6000602082019050919050565b6000611fb782611f15565b611fc18185611f20565b935083602082028501611fd385611f31565b8060005b8581101561200f5784840389528151611ff08582611f8b565b9450611ffb83611f9f565b925060208a01995050600181019050611fd7565b50829750879550505050505092915050565b600061012082019050612037600083018c611dbd565b8181036020830152612049818b611e12565b9050818103604083015261205d818a611e12565b905081810360608301526120718189611e12565b905081810360808301526120858188611e12565b905081810360a08301526120998187611e12565b90506120a860c0830186611bae565b6120b560e0830185611b95565b8181036101008301526120c88184611fac565b90509a9950505050505050505050565b7f44656564206e756d6265722063616e6e6f7420626520656d7074790000000000600082015250565b600061210e601b83611dd7565b9150612119826120d8565b602082019050919050565b6000602082019050818103600083015261213d81612101565b9050919050565b7f50726f7065727479206e616d652063616e6e6f7420626520656d707479000000600082015250565b600061217a601d83611dd7565b915061218582612144565b602082019050919050565b600060208201905081810360008301526121a98161216d565b9050919050565b7f50726f706572747920616464726573732063616e6e6f7420626520656d707479600082015250565b60006121e6602083611dd7565b91506121f1826121b0565b602082019050919050565b60006020820190508181036000830152612215816121d9565b9050919050565b7f4f776e6572206e616d652063616e6e6f7420626520656d707479000000000000600082015250565b6000612252601a83611dd7565b915061225d8261221c565b602082019050919050565b6000602082019050818103600083015261228181612245565b9050919050565b7f4174206c65617374206f6e652070726f70657274792070686f746f207265717560008201527f6972656400000000000000000000000000000000000000000000000000000000602082015250565b60006122e4602483611dd7565b91506122ef82612288565b604082019050919050565b60006020820190508181036000830152612313816122d7565b9050919050565b7f4e487b7100000000000000000000000000000000000000000000000000000000600052603260045260246000fd5b7f50726f7065727479207769746820746869732064617461206861736820616c7260008201527f6561647920617474657374656400000000000000000000000000000000000000602082015250565b60006123a5602d83611dd7565b91506123b082612349565b604082019050919050565b600060208201905081810360008301526123d481612398565b9050919050565b7f4e487b7100000000000000000000000000000000000000000000000000000000600052601160045260246000fd5b600061241582611ba4565b91507fffffffffffffffffffffffffffffffffffffffffffffffffffffffffffffffff8203612447576124466123db565b5b600182019050919050565b7f4e487b7100000000000000000000000000000000000000000000000000000000600052602260045260246000fd5b6000600282049050600182168061249957607f821691505b6020821081036124ac576124ab612452565b5b50919050565b60008190508160005260206000209050919050565b60006020601f8301049050919050565b600082821b905092915050565b6000600883026125147fffffffffffffffffffffffffffffffffffffffffffffffffffffffffffffffff826124d7565b61251e86836124d7565b95508019841693508086168417925050509392505050565b6000819050919050565b600061255b61255661255184611ba4565b612536565b611ba4565b9050919050565b6000819050919050565b61257583612540565b61258961258182612562565b8484546124e4565b825550505050565b600090565b61259e612591565b6125a981848461256c565b505050565b5b818110156125cd576125c2600082612596565b6001810190506125af565b5050565b601f821115612612576125e3816124b2565b6125ec846124c7565b810160208510156125fb578190505b61260f612607856124c7565b8301826125ae565b50505b505050565b600082821c905092915050565b600061263560001984600802612617565b1980831691505092915050565b600061264e8383612624565b9150826002028217905092915050565b61266782611dcc565b67ffffffffffffffff8111156126805761267f61182e565b5b61268a8254612481565b6126958282856125d1565b600060209050601f8311600181146126c857600084156126b6578287015190505b6126c08582612642565b865550612728565b601f1984166126d6866124b2565b60005b828110156126fe578489015182556001820191506020850194506020810190506126d9565b8683101561271b5784890151612717601f891682612624565b8355505b6001600288020188555050505b505050505050565b60006080820190506127456000830187611dbd565b81810360208301526127578186611e12565b90506127666040830185611bae565b6127736060830184611bae565b95945050505050565b7f4f6e6c7920636f6e7472616374206f776e65722063616e2063616c6c2074686960008201527f732066756e6374696f6e00000000000000000000000000000000000000000000602082015250565b60006127d8602a83611dd7565b91506127e38261277c565b604082019050919050565b60006020820190508181036000830152612807816127cb565b9050919050565b7f496e76616c69642070726f706572747920696e64657800000000000000000000600082015250565b6000612844601683611dd7565b915061284f8261280e565b602082019050919050565b6000602082019050818103600083015261287381612837565b9050919050565b600060608201905061288f6000830186611dbd565b61289c6020830185611bae565b6128a96040830184611bae565b949350505050565b7f446174612068617368206d69736d617463680000000000000000000000000000600082015250565b60006128e7601283611dd7565b91506128f2826128b1565b602082019050919050565b60006060820190506129126000830185611dbd565b8181036020830152612923816128da565b90506129326040830184611bae565b9392505050565b7f4e6577206f776e65722063616e6e6f74206265207a65726f2061646472657373600082015250565b600061296f602083611dd7565b915061297a82612939565b602082019050919050565b6000602082019050818103600083015261299e81612962565b9050919050565b7f4f6e6c792070726f7065727479206f776e6572206f7220636f6e74726163742060008201527f6f776e65722063616e2061636365737320746869732064617461000000000000602082015250565b6000612a01603a83611dd7565b9150612a0c826129a5565b604082019050919050565b60006020820190508181036000830152612a30816129f4565b905091905056fea264697066735822122013d94b2958b83809880acfc3ea35a87c5ec64c65debb2b16ed2b878e4b9ce6e564736f6c63430008110033",
  "linkReferences": {},
  "deployedLinkReferences": {}
}