{
  "_format": "hh-sol-artifact-1",
  "contractName": "PropertyAttestationVerifier",
  "sourceName": "contracts/PropertyAttestationVerifier.sol",
  "abi": [
    {
      "inputs": [],
      "stateMutability": "nonpayable",
      "type": "constructor"
    },
    {
      "anonymous": false,
      "inputs": [
        {
          "indexed": true,
          "internalType": "address",
          "name": "owner",
          "type": "address"
        },
        {
          "indexed": false,
          "internalType": "bytes32",
          "name": "dataHash",
          "type": "bytes32"
        },
        {
          "indexed": false,
          "internalType": "string",
          "name": "deedNumber",
          "type": "string"
        },
        {
          "indexed": false,
          "internalType": "uint256",
          "name": "timestamp",
          "type": "uint256"
        }
      ],
      "name": "PropertyAttested",
      "type": "event"
    },
    {
      "anonymous": false,
      "inputs": [
        {
          "indexed": true,
          "internalType": "address",
          "name": "owner",
          "type": "address"
        },
        {
          "indexed": false,
          "internalType": "bytes32",
          "name": "dataHash",
          "type": "bytes32"
        },
        {
          "indexed": false,
          "internalType": "uint256",
          "name": "timestamp",
          "type": "uint256"
        }
      ],
      "name": "PropertyVerified",
      "type": "event"
    },
    {
      "anonymous": false,
      "inputs": [
        {
          "indexed": true,
          "internalType": "address",
          "name": "owner",
          "type": "address"
        },
        {
          "indexed": false,
          "internalType": "bytes32",
          "name": "dataHash",
          "type": "bytes32"
        },
        {
          "indexed": false,
          "internalType": "string",
          "name": "reason",
          "type": "string"
        }
      ],
      "name": "VerificationFailed",
      "type": "event"
    },
    {
      "inputs": [
        {
          "internalType": "bytes32",
          "name": "dataHash",
          "type": "bytes32"
        },
        {
          "internalType": "string",
          "name": "deedNumber",
          "type": "string"
        },
        {
          "internalType": "string",
          "name": "propertyName",
          "type": "string"
        },
        {
          "internalType": "string",
          "name": "propertyAddress",
          "type": "string"
        },
        {
          "internalType": "string",
          "name": "ownerName",
          "type": "string"
        },
        {
          "internalType": "string",
          "name": "taxId",
          "type": "string"
        },
        {
          "internalType": "string[]",
          "name": "photoHashes",
          "type": "string[]"
        }
      ],
      "name": "attestProperty",
      "outputs": [
        {
          "internalType": "bool",
          "name": "success",
          "type": "bool"
        }
      ],
      "stateMutability": "nonpayable",
      "type": "function"
    },
    {
      "inputs": [
        {
          "internalType": "address",
          "name": "propertyOwner",
          "type": "address"
        }
      ],
      "name": "checkAttestationStatus",
      "outputs": [
        {
          "internalType": "bool",
          "name": "exists",
          "type": "bool"
        },
        {
          "internalType": "bool",
          "name": "attestationVerified",
          "type": "bool"
        }
      ],
      "stateMutability": "view",
      "type": "function"
    },
    {
      "inputs": [
        {
          "internalType": "address",
          "name": "propertyOwner",
          "type": "address"
        }
      ],
      "name": "getAttestationTimestamp",
      "outputs": [
        {
          "internalType": "uint256",
          "name": "timestamp",
          "type": "uint256"
        }
      ],
      "stateMutability": "view",
      "type": "function"
    },
    {
      "inputs": [
        {
          "internalType": "address",
          "name": "propertyOwner",
          "type": "address"
        }
      ],
      "name": "getPropertyData",
      "outputs": [
        {
          "internalType": "bytes32",
          "name": "dataHash",
          "type": "bytes32"
        },
        {
          "internalType": "string",
          "name": "deedNumber",
          "type": "string"
        },
        {
          "internalType": "string",
          "name": "propertyName",
          "type": "string"
        },
        {
          "internalType": "string",
          "name": "propertyAddress",
          "type": "string"
        },
        {
          "internalType": "string",
          "name": "ownerName",
          "type": "string"
        },
        {
          "internalType": "string",
          "name": "taxId",
          "type": "string"
        },
        {
          "internalType": "uint256",
          "name": "timestamp",
          "type": "uint256"
        },
        {
          "internalType": "bool",
          "name": "verified",
          "type": "bool"
        },
        {
          "internalType": "string[]",
          "name": "photoHashes",
          "type": "string[]"
        }
      ],
      "stateMutability": "view",
      "type": "function"
    },
    {
      "inputs": [
        {
          "internalType": "address",
          "name": "",
          "type": "address"
        }
      ],
      "name": "hasAttestedProperty",
      "outputs": [
        {
          "internalType": "bool",
          "name": "",
          "type": "bool"
        }
      ],
      "stateMutability": "view",
      "type": "function"
    },
    {
      "inputs": [
        {
          "internalType": "bytes32",
          "name": "dataHash",
          "type": "bytes32"
        }
      ],
      "name": "isHashVerified",
      "outputs": [
        {
          "internalType": "bool",
          "name": "isVerified",
          "type": "bool"
        }
      ],
      "stateMutability": "view",
      "type": "function"
    },
    {
      "inputs": [],
      "name": "owner",
      "outputs": [
        {
          "internalType": "address",
          "name": "",
          "type": "address"
        }
      ],
      "stateMutability": "view",
      "type": "function"
    },
    {
      "inputs": [
        {
          "internalType": "address",
          "name": "",
          "type": "address"
        }
      ],
      "name": "ownerToProperty",
      "outputs": [
        {
          "internalType": "bytes32",
          "name": "dataHash",
          "type": "bytes32"
        },
        {
          "internalType": "string",
          "name": "deedNumber",
          "type": "string"
        },
        {
          "internalType": "string",
          "name": "propertyName",
          "type": "string"
        },
        {
          "internalType": "string",
          "name": "propertyAddress",
          "type": "string"
        },
        {
          "internalType": "string",
          "name": "ownerName",
          "type": "string"
        },
        {
          "internalType": "string",
          "name": "taxId",
          "type": "string"
        },
        {
          "internalType": "uint256",
          "name": "timestamp",
          "type": "uint256"
        },
        {
          "internalType": "bool",
          "name": "verified",
          "type": "bool"
        }
      ],
      "stateMutability": "view",
      "type": "function"
    },
    {
      "inputs": [
        {
          "internalType": "address",
          "name": "newOwner",
          "type": "address"
        }
      ],
      "name": "transferOwnership",
      "outputs": [],
      "stateMutability": "nonpayable",
      "type": "function"
    },
    {
      "inputs": [
        {
          "internalType": "bytes32",
          "name": "",
          "type": "bytes32"
        }
      ],
      "name": "verifiedPropertyHashes",
      "outputs": [
        {
          "internalType": "bool",
          "name": "",
          "type": "bool"
        }
      ],
      "stateMutability": "view",
      "type": "function"
    },
    {
      "inputs": [
        {
          "internalType": "address",
          "name": "propertyOwner",
          "type": "address"
        },
        {
          "internalType": "bytes32",
          "name": "verificationDataHash",
          "type": "bytes32"
        }
      ],
      "name": "verifyAttestation",
      "outputs": [
        {
          "internalType": "bool",
          "name": "verified",
          "type": "bool"
        }
      ],
      "stateMutability": "nonpayable",
      "type": "function"
    }
  ],
  "bytecode": "0x608060405234801561001057600080fd5b50336000806101000a81548173ffffffffffffffffffffffffffffffffffffffff021916908373ffffffffffffffffffffffffffffffffffffffff16021790555061271f806100606000396000f3fe608060405234801561001057600080fd5b50600436106100a95760003560e01c80638b00545b116100715780638b00545b146101ad5780638da5cb5b146101dd578063b3194853146101fb578063c3c4ee761461022c578063f2fde38b1461025c578063ff0ccc5914610278576100a9565b80630baca8d7146100ae5780630c7f03a5146100de57806319bde9f81461011657806349e8cc731461014657806380dbcf6a1461017d575b600080fd5b6100c860048036038101906100c39190611869565b6102a8565b6040516100d591906119ce565b60405180910390f35b6100f860048036038101906100f39190611a47565b61068f565b60405161010d99989796959493929190611c27565b60405180910390f35b610130600480360381019061012b9190611a47565b610c6d565b60405161013d9190611cde565b60405180910390f35b610160600480360381019061015b9190611a47565b610d15565b604051610174989796959493929190611cf9565b60405180910390f35b61019760048036038101906101929190611d9a565b611012565b6040516101a491906119ce565b60405180910390f35b6101c760048036038101906101c29190611d9a565b61103c565b6040516101d491906119ce565b60405180910390f35b6101e561105c565b6040516101f29190611dd6565b60405180910390f35b61021560048036038101906102109190611a47565b611080565b604051610223929190611df1565b60405180910390f35b61024660048036038101906102419190611e1a565b611130565b60405161025391906119ce565b60405180910390f35b61027660048036038101906102719190611a47565b6113b9565b005b610292600480360381019061028d9190611a47565b6114f9565b60405161029f91906119ce565b60405180910390f35b6000600260003373ffffffffffffffffffffffffffffffffffffffff1673ffffffffffffffffffffffffffffffffffffffff16815260200190815260200160002060009054906101000a900460ff1615610337576040517f08c379a000000000000000000000000000000000000000000000000000000000815260040161032e90611ea6565b60405180910390fd5b600087511161037b576040517f08c379a000000000000000000000000000000000000000000000000000000000815260040161037290611f12565b60405180910390fd5b60008651116103bf576040517f08c379a00000000000000000000000000000000000000000000000000000000081526004016103b690611f7e565b60405180910390fd5b6000855111610403576040517f08c379a00000000000000000000000000000000000000000000000000000000081526004016103fa90611fea565b60405180910390fd5b6000845111610447576040517f08c379a000000000000000000000000000000000000000000000000000000000815260040161043e90612056565b60405180910390fd5b600082511161048b576040517f08c379a0000000000000000000000000000000000000000000000000000000008152600401610482906120e8565b60405180910390fd5b60006040518061012001604052808a815260200189815260200188815260200187815260200186815260200185815260200142815260200160001515815260200184815250905080600160003373ffffffffffffffffffffffffffffffffffffffff1673ffffffffffffffffffffffffffffffffffffffff1681526020019081526020016000206000820151816000015560208201518160010190816105319190612314565b5060408201518160020190816105479190612314565b50606082015181600301908161055d9190612314565b5060808201518160040190816105739190612314565b5060a08201518160050190816105899190612314565b5060c0820151816006015560e08201518160070160006101000a81548160ff0219169083151502179055506101008201518160080190805190602001906105d1929190611519565b509050506001600260003373ffffffffffffffffffffffffffffffffffffffff1673ffffffffffffffffffffffffffffffffffffffff16815260200190815260200160002060006101000a81548160ff0219169083151502179055503373ffffffffffffffffffffffffffffffffffffffff167f74a7f7ec414b51828e70a8d41cb89dd7321ad82d90d293f7060406bfb5b9b0998a8a42604051610677939291906123e6565b60405180910390a26001915050979650505050505050565b6000606080606080606060008060608973ffffffffffffffffffffffffffffffffffffffff163373ffffffffffffffffffffffffffffffffffffffff161480610723575060008054906101000a900473ffffffffffffffffffffffffffffffffffffffff1673ffffffffffffffffffffffffffffffffffffffff163373ffffffffffffffffffffffffffffffffffffffff16145b610762576040517f08c379a000000000000000000000000000000000000000000000000000000000815260040161075990612496565b60405180910390fd5b600260008b73ffffffffffffffffffffffffffffffffffffffff1673ffffffffffffffffffffffffffffffffffffffff16815260200190815260200160002060009054906101000a900460ff166107ee576040517f08c379a00000000000000000000000000000000000000000000000000000000081526004016107e590612528565b60405180910390fd5b6000600160008c73ffffffffffffffffffffffffffffffffffffffff1673ffffffffffffffffffffffffffffffffffffffff168152602001908152602001600020604051806101200160405290816000820154815260200160018201805461085590612137565b80601f016020809104026020016040519081016040528092919081815260200182805461088190612137565b80156108ce5780601f106108a3576101008083540402835291602001916108ce565b820191906000526020600020905b8154815290600101906020018083116108b157829003601f168201915b505050505081526020016002820180546108e790612137565b80601f016020809104026020016040519081016040528092919081815260200182805461091390612137565b80156109605780601f1061093557610100808354040283529160200191610960565b820191906000526020600020905b81548152906001019060200180831161094357829003601f168201915b5050505050815260200160038201805461097990612137565b80601f01602080910402602001604051908101604052809291908181526020018280546109a590612137565b80156109f25780601f106109c7576101008083540402835291602001916109f2565b820191906000526020600020905b8154815290600101906020018083116109d557829003601f168201915b50505050508152602001600482018054610a0b90612137565b80601f0160208091040260200160405190810160405280929190818152602001828054610a3790612137565b8015610a845780601f10610a5957610100808354040283529160200191610a84565b820191906000526020600020905b815481529060010190602001808311610a6757829003601f168201915b50505050508152602001600582018054610a9d90612137565b80601f0160208091040260200160405190810160405280929190818152602001828054610ac990612137565b8015610b165780601f10610aeb57610100808354040283529160200191610b16565b820191906000526020600020905b815481529060010190602001808311610af957829003601f168201915b50505050508152602001600682015481526020016007820160009054906101000a900460ff1615151515815260200160088201805480602002602001604051908101604052809291908181526020016000905b82821015610c15578382906000526020600020018054610b8890612137565b80601f0160208091040260200160405190810160405280929190818152602001828054610bb490612137565b8015610c015780601f10610bd657610100808354040283529160200191610c01565b820191906000526020600020905b815481529060010190602001808311610be457829003601f168201915b505050505081526020019060010190610b69565b50505050815250509050806000015181602001518260400151836060015184608001518560a001518660c001518760e00151886101000151995099509950995099509950995099509950509193959799909294969850565b6000600260008373ffffffffffffffffffffffffffffffffffffffff1673ffffffffffffffffffffffffffffffffffffffff16815260200190815260200160002060009054906101000a900460ff1615610d0b57600160008373ffffffffffffffffffffffffffffffffffffffff1673ffffffffffffffffffffffffffffffffffffffff168152602001908152602001600020600601549050610d10565b600090505b919050565b6001602052806000526040600020600091509050806000015490806001018054610d3e90612137565b80601f0160208091040260200160405190810160405280929190818152602001828054610d6a90612137565b8015610db75780601f10610d8c57610100808354040283529160200191610db7565b820191906000526020600020905b815481529060010190602001808311610d9a57829003601f168201915b505050505090806002018054610dcc90612137565b80601f0160208091040260200160405190810160405280929190818152602001828054610df890612137565b8015610e455780601f10610e1a57610100808354040283529160200191610e45565b820191906000526020600020905b815481529060010190602001808311610e2857829003601f168201915b505050505090806003018054610e5a90612137565b80601f0160208091040260200160405190810160405280929190818152602001828054610e8690612137565b8015610ed35780601f10610ea857610100808354040283529160200191610ed3565b820191906000526020600020905b815481529060010190602001808311610eb657829003601f168201915b505050505090806004018054610ee890612137565b80601f0160208091040260200160405190810160405280929190818152602001828054610f1490612137565b8015610f615780601f10610f3657610100808354040283529160200191610f61565b820191906000526020600020905b815481529060010190602001808311610f4457829003601f168201915b505050505090806005018054610f7690612137565b80601f0160208091040260200160405190810160405280929190818152602001828054610fa290612137565b8015610fef5780601f10610fc457610100808354040283529160200191610fef565b820191906000526020600020905b815481529060010190602001808311610fd257829003601f168201915b5050505050908060060154908060070160009054906101000a900460ff16905088565b60006003600083815260200190815260200160002060009054906101000a900460ff169050919050565b60036020528060005260406000206000915054906101000a900460ff1681565b60008054906101000a900473ffffffffffffffffffffffffffffffffffffffff1681565b600080600260008473ffffffffffffffffffffffffffffffffffffffff1673ffffffffffffffffffffffffffffffffffffffff16815260200190815260200160002060009054906101000a900460ff169150811561112b57600160008473ffffffffffffffffffffffffffffffffffffffff1673ffffffffffffffffffffffffffffffffffffffff16815260200190815260200160002060070160009054906101000a900460ff1690505b915091565b60008060009054906101000a900473ffffffffffffffffffffffffffffffffffffffff1673ffffffffffffffffffffffffffffffffffffffff163373ffffffffffffffffffffffffffffffffffffffff16146111c1576040517f08c379a00000000000000000000000000000000000000000000000000000000081526004016111b8906125ba565b60405180910390fd5b600260008473ffffffffffffffffffffffffffffffffffffffff1673ffffffffffffffffffffffffffffffffffffffff16815260200190815260200160002060009054906101000a900460ff1661124d576040517f08c379a000000000000000000000000000000000000000000000000000000000815260040161124490612528565b60405180910390fd5b6000600160008573ffffffffffffffffffffffffffffffffffffffff1673ffffffffffffffffffffffffffffffffffffffff16815260200190815260200160002090508060070160009054906101000a900460ff16156112b15760019150506113b3565b8281600001540361135f5760018160070160006101000a81548160ff02191690831515021790555060016003600085815260200190815260200160002060006101000a81548160ff0219169083151502179055508373ffffffffffffffffffffffffffffffffffffffff167fe140b628a279c799d877bb478a527765a46689a7c0afbc9cfe2e5dbc8228b860844260405161134d9291906125da565b60405180910390a260019150506113b3565b8373ffffffffffffffffffffffffffffffffffffffff167f3a562aeac0488df62cab5c45770856805ad0957f2eafb0e792dc32bcbdbbc88e846040516113a5919061264f565b60405180910390a260009150505b92915050565b60008054906101000a900473ffffffffffffffffffffffffffffffffffffffff1673ffffffffffffffffffffffffffffffffffffffff163373ffffffffffffffffffffffffffffffffffffffff1614611447576040517f08c379a000000000000000000000000000000000000000000000000000000000815260040161143e906125ba565b60405180910390fd5b600073ffffffffffffffffffffffffffffffffffffffff168173ffffffffffffffffffffffffffffffffffffffff16036114b6576040517f08c379a00000000000000000000000000000000000000000000000000000000081526004016114ad906126c9565b60405180910390fd5b806000806101000a81548173ffffffffffffffffffffffffffffffffffffffff021916908373ffffffffffffffffffffffffffffffffffffffff16021790555050565b60026020528060005260406000206000915054906101000a900460ff1681565b828054828255906000526020600020908101928215611561579160200282015b828111156115605782518290816115509190612314565b5091602001919060010190611539565b5b50905061156e9190611572565b5090565b5b8082111561159257600081816115899190611596565b50600101611573565b5090565b5080546115a290612137565b6000825580601f106115b457506115d3565b601f0160209004906000526020600020908101906115d291906115d6565b5b50565b5b808211156115ef5760008160009055506001016115d7565b5090565b6000604051905090565b600080fd5b600080fd5b6000819050919050565b61161a81611607565b811461162557600080fd5b50565b60008135905061163781611611565b92915050565b600080fd5b600080fd5b6000601f19601f8301169050919050565b7f4e487b7100000000000000000000000000000000000000000000000000000000600052604160045260246000fd5b61169082611647565b810181811067ffffffffffffffff821117156116af576116ae611658565b5b80604052505050565b60006116c26115f3565b90506116ce8282611687565b919050565b600067ffffffffffffffff8211156116ee576116ed611658565b5b6116f782611647565b9050602081019050919050565b82818337600083830152505050565b6000611726611721846116d3565b6116b8565b90508281526020810184848401111561174257611741611642565b5b61174d848285611704565b509392505050565b600082601f83011261176a5761176961163d565b5b813561177a848260208601611713565b91505092915050565b600067ffffffffffffffff82111561179e5761179d611658565b5b602082029050602081019050919050565b600080fd5b60006117c76117c284611783565b6116b8565b905080838252602082019050602084028301858111156117ea576117e96117af565b5b835b8181101561183157803567ffffffffffffffff81111561180f5761180e61163d565b5b80860161181c8982611755565b855260208501945050506020810190506117ec565b5050509392505050565b600082601f8301126118505761184f61163d565b5b81356118608482602086016117b4565b91505092915050565b600080600080600080600060e0888a031215611888576118876115fd565b5b60006118968a828b01611628565b975050602088013567ffffffffffffffff8111156118b7576118b6611602565b5b6118c38a828b01611755565b965050604088013567ffffffffffffffff8111156118e4576118e3611602565b5b6118f08a828b01611755565b955050606088013567ffffffffffffffff81111561191157611910611602565b5b61191d8a828b01611755565b945050608088013567ffffffffffffffff81111561193e5761193d611602565b5b61194a8a828b01611755565b93505060a088013567ffffffffffffffff81111561196b5761196a611602565b5b6119778a828b01611755565b92505060c088013567ffffffffffffffff81111561199857611997611602565b5b6119a48a828b0161183b565b91505092959891949750929550565b60008115159050919050565b6119c8816119b3565b82525050565b60006020820190506119e360008301846119bf565b92915050565b600073ffffffffffffffffffffffffffffffffffffffff82169050919050565b6000611a14826119e9565b9050919050565b611a2481611a09565b8114611a2f57600080fd5b50565b600081359050611a4181611a1b565b92915050565b600060208284031215611a5d57611a5c6115fd565b5b6000611a6b84828501611a32565b91505092915050565b611a7d81611607565b82525050565b600081519050919050565b600082825260208201905092915050565b60005b83811015611abd578082015181840152602081019050611aa2565b60008484015250505050565b6000611ad482611a83565b611ade8185611a8e565b9350611aee818560208601611a9f565b611af781611647565b840191505092915050565b6000819050919050565b611b1581611b02565b82525050565b600081519050919050565b600082825260208201905092915050565b6000819050602082019050919050565b600082825260208201905092915050565b6000611b6382611a83565b611b6d8185611b47565b9350611b7d818560208601611a9f565b611b8681611647565b840191505092915050565b6000611b9d8383611b58565b905092915050565b6000602082019050919050565b6000611bbd82611b1b565b611bc78185611b26565b935083602082028501611bd985611b37565b8060005b85811015611c155784840389528151611bf68582611b91565b9450611c0183611ba5565b925060208a01995050600181019050611bdd565b50829750879550505050505092915050565b600061012082019050611c3d600083018c611a74565b8181036020830152611c4f818b611ac9565b90508181036040830152611c63818a611ac9565b90508181036060830152611c778189611ac9565b90508181036080830152611c8b8188611ac9565b905081810360a0830152611c9f8187611ac9565b9050611cae60c0830186611b0c565b611cbb60e08301856119bf565b818103610100830152611cce8184611bb2565b90509a9950505050505050505050565b6000602082019050611cf36000830184611b0c565b92915050565b600061010082019050611d0f600083018b611a74565b8181036020830152611d21818a611ac9565b90508181036040830152611d358189611ac9565b90508181036060830152611d498188611ac9565b90508181036080830152611d5d8187611ac9565b905081810360a0830152611d718186611ac9565b9050611d8060c0830185611b0c565b611d8d60e08301846119bf565b9998505050505050505050565b600060208284031215611db057611daf6115fd565b5b6000611dbe84828501611628565b91505092915050565b611dd081611a09565b82525050565b6000602082019050611deb6000830184611dc7565b92915050565b6000604082019050611e0660008301856119bf565b611e1360208301846119bf565b9392505050565b60008060408385031215611e3157611e306115fd565b5b6000611e3f85828601611a32565b9250506020611e5085828601611628565b9150509250929050565b7f50726f706572747920616c726561647920617474657374656400000000000000600082015250565b6000611e90601983611a8e565b9150611e9b82611e5a565b602082019050919050565b60006020820190508181036000830152611ebf81611e83565b9050919050565b7f44656564206e756d6265722063616e6e6f7420626520656d7074790000000000600082015250565b6000611efc601b83611a8e565b9150611f0782611ec6565b602082019050919050565b60006020820190508181036000830152611f2b81611eef565b9050919050565b7f50726f7065727479206e616d652063616e6e6f7420626520656d707479000000600082015250565b6000611f68601d83611a8e565b9150611f7382611f32565b602082019050919050565b60006020820190508181036000830152611f9781611f5b565b9050919050565b7f50726f706572747920616464726573732063616e6e6f7420626520656d707479600082015250565b6000611fd4602083611a8e565b9150611fdf82611f9e565b602082019050919050565b6000602082019050818103600083015261200381611fc7565b9050919050565b7f4f776e6572206e616d652063616e6e6f7420626520656d707479000000000000600082015250565b6000612040601a83611a8e565b915061204b8261200a565b602082019050919050565b6000602082019050818103600083015261206f81612033565b9050919050565b7f4174206c65617374206f6e652070726f70657274792070686f746f207265717560008201527f6972656400000000000000000000000000000000000000000000000000000000602082015250565b60006120d2602483611a8e565b91506120dd82612076565b604082019050919050565b60006020820190508181036000830152612101816120c5565b9050919050565b7f4e487b7100000000000000000000000000000000000000000000000000000000600052602260045260246000fd5b6000600282049050600182168061214f57607f821691505b60208210810361216257612161612108565b5b50919050565b60008190508160005260206000209050919050565b60006020601f8301049050919050565b600082821b905092915050565b6000600883026121ca7fffffffffffffffffffffffffffffffffffffffffffffffffffffffffffffffff8261218d565b6121d4868361218d565b95508019841693508086168417925050509392505050565b6000819050919050565b600061221161220c61220784611b02565b6121ec565b611b02565b9050919050565b6000819050919050565b61222b836121f6565b61223f61223782612218565b84845461219a565b825550505050565b600090565b612254612247565b61225f818484612222565b505050565b5b818110156122835761227860008261224c565b600181019050612265565b5050565b601f8211156122c85761229981612168565b6122a28461217d565b810160208510156122b1578190505b6122c56122bd8561217d565b830182612264565b50505b505050565b600082821c905092915050565b60006122eb600019846008026122cd565b1980831691505092915050565b600061230483836122da565b9150826002028217905092915050565b61231d82611a83565b67ffffffffffffffff81111561233657612335611658565b5b6123408254612137565b61234b828285612287565b600060209050601f83116001811461237e576000841561236c578287015190505b61237685826122f8565b8655506123de565b601f19841661238c86612168565b60005b828110156123b45784890151825560018201915060208501945060208101905061238f565b868310156123d157848901516123cd601f8916826122da565b8355505b6001600288020188555050505b505050505050565b60006060820190506123fb6000830186611a74565b818103602083015261240d8185611ac9565b905061241c6040830184611b0c565b949350505050565b7f4f6e6c792070726f7065727479206f776e6572206f7220636f6e74726163742060008201527f6f776e65722063616e2061636365737320746869732064617461000000000000602082015250565b6000612480603a83611a8e565b915061248b82612424565b604082019050919050565b600060208201905081810360008301526124af81612473565b9050919050565b7f4e6f2070726f706572747920617474657374656420666f72207468697320616460008201527f6472657373000000000000000000000000000000000000000000000000000000602082015250565b6000612512602583611a8e565b915061251d826124b6565b604082019050919050565b6000602082019050818103600083015261254181612505565b9050919050565b7f4f6e6c7920636f6e7472616374206f776e65722063616e2063616c6c2074686960008201527f732066756e6374696f6e00000000000000000000000000000000000000000000602082015250565b60006125a4602a83611a8e565b91506125af82612548565b604082019050919050565b600060208201905081810360008301526125d381612597565b9050919050565b60006040820190506125ef6000830185611a74565b6125fc6020830184611b0c565b9392505050565b7f446174612068617368206d69736d617463680000000000000000000000000000600082015250565b6000612639601283611a8e565b915061264482612603565b602082019050919050565b60006040820190506126646000830184611a74565b81810360208301526126758161262c565b905092915050565b7f4e6577206f776e65722063616e6e6f74206265207a65726f2061646472657373600082015250565b60006126b3602083611a8e565b91506126be8261267d565b602082019050919050565b600060208201905081810360008301526126e2816126a6565b905091905056fea2646970667358221220880294d2d746a542b69642ec4e3429bb724885477fc1dc67f84d991827cc470564736f6c63430008110033",
  "linkReferences": {},
  "deployedLinkReferences": {}
}