{
  "_format": "hh-sol-artifact-1",
  "contractName": "PropertyAttestationVerifier",
  "sourceName": "contracts/PropertyAttestationVerifier.sol",
  "abi": [
    {
      "inputs": [],
      "stateMutability": "nonpayable",
      "type": "constructor"
    },
    {
      "anonymous": false,
      "inputs": [
        {
          "indexed": true,
          "internalType": "address",
          "name": "owner",
          "type": "address"
        },
        {
          "indexed": false,
          "internalType": "bytes32",
          "name": "dataHash",
          "type": "bytes32"
        },
        {
          "indexed": false,
          "internalType": "string",
          "name": "deedNumber",
          "type": "string"
        },
        {
          "indexed": false,
          "internalType": "uint256",
          "name": "timestamp",
          "type": "uint256"
        },
        {
          "indexed": false,
          "internalType": "uint256",
          "name": "propertyIndex",
          "type": "uint256"
        }
      ],
      "name": "PropertyAttested",
      "type": "event"
    },
    {
      "anonymous": false,
      "inputs": [
        {
          "indexed": true,
          "internalType": "address",
          "name": "owner",
          "type": "address"
        },
        {
          "indexed": false,
          "internalType": "bytes32",
          "name": "dataHash",
          "type": "bytes32"
        },
        {
          "indexed": false,
          "internalType": "uint256",
          "name": "timestamp",
          "type": "uint256"
        },
        {
          "indexed": false,
          "internalType": "uint256",
          "name": "propertyIndex",
          "type": "uint256"
        }
      ],
      "name": "PropertyVerified",
      "type": "event"
    },
    {
      "anonymous": false,
      "inputs": [
        {
          "indexed": true,
          "internalType": "address",
          "name": "owner",
          "type": "address"
        },
        {
          "indexed": false,
          "internalType": "bytes32",
          "name": "dataHash",
          "type": "bytes32"
        },
        {
          "indexed": false,
          "internalType": "string",
          "name": "reason",
          "type": "string"
        },
        {
          "indexed": false,
          "internalType": "uint256",
          "name": "propertyIndex",
          "type": "uint256"
        }
      ],
      "name": "VerificationFailed",
      "type": "event"
    },
    {
      "inputs": [
        {
          "internalType": "bytes32",
          "name": "dataHash",
          "type": "bytes32"
        },
        {
          "internalType": "string",
          "name": "deedNumber",
          "type": "string"
        },
        {
          "internalType": "string",
          "name": "propertyName",
          "type": "string"
        },
        {
          "internalType": "string",
          "name": "propertyAddress",
          "type": "string"
        },
        {
          "internalType": "string",
          "name": "ownerName",
          "type": "string"
        },
        {
          "internalType": "string",
          "name": "taxId",
          "type": "string"
        },
        {
          "internalType": "string[]",
          "name": "photoHashes",
          "type": "string[]"
        }
      ],
      "name": "attestProperty",
      "outputs": [
        {
          "internalType": "bool",
          "name": "success",
          "type": "bool"
        },
        {
          "internalType": "uint256",
          "name": "propertyIndex",
          "type": "uint256"
        }
      ],
      "stateMutability": "nonpayable",
      "type": "function"
    },
    {
      "inputs": [
        {
          "internalType": "address",
          "name": "propertyOwner",
          "type": "address"
        },
        {
          "internalType": "uint256",
          "name": "propertyIndex",
          "type": "uint256"
        }
      ],
      "name": "checkAttestationStatus",
      "outputs": [
        {
          "internalType": "bool",
          "name": "exists",
          "type": "bool"
        },
        {
          "internalType": "bool",
          "name": "attestationVerified",
          "type": "bool"
        }
      ],
      "stateMutability": "view",
      "type": "function"
    },
    {
      "inputs": [
        {
          "internalType": "address",
          "name": "propertyOwner",
          "type": "address"
        },
        {
          "internalType": "uint256",
          "name": "propertyIndex",
          "type": "uint256"
        }
      ],
      "name": "getAttestationTimestamp",
      "outputs": [
        {
          "internalType": "uint256",
          "name": "timestamp",
          "type": "uint256"
        }
      ],
      "stateMutability": "view",
      "type": "function"
    },
    {
      "inputs": [
        {
          "internalType": "address",
          "name": "propertyOwner",
          "type": "address"
        }
      ],
      "name": "getPropertyCount",
      "outputs": [
        {
          "internalType": "uint256",
          "name": "count",
          "type": "uint256"
        }
      ],
      "stateMutability": "view",
      "type": "function"
    },
    {
      "inputs": [
        {
          "internalType": "address",
          "name": "propertyOwner",
          "type": "address"
        },
        {
          "internalType": "uint256",
          "name": "propertyIndex",
          "type": "uint256"
        }
      ],
      "name": "getPropertyData",
      "outputs": [
        {
          "internalType": "bytes32",
          "name": "dataHash",
          "type": "bytes32"
        },
        {
          "internalType": "string",
          "name": "deedNumber",
          "type": "string"
        },
        {
          "internalType": "string",
          "name": "propertyName",
          "type": "string"
        },
        {
          "internalType": "string",
          "name": "propertyAddress",
          "type": "string"
        },
        {
          "internalType": "string",
          "name": "ownerName",
          "type": "string"
        },
        {
          "internalType": "string",
          "name": "taxId",
          "type": "string"
        },
        {
          "internalType": "uint256",
          "name": "timestamp",
          "type": "uint256"
        },
        {
          "internalType": "bool",
          "name": "verified",
          "type": "bool"
        },
        {
          "internalType": "string[]",
          "name": "photoHashes",
          "type": "string[]"
        }
      ],
      "stateMutability": "view",
      "type": "function"
    },
    {
      "inputs": [
        {
          "internalType": "bytes32",
          "name": "dataHash",
          "type": "bytes32"
        }
      ],
      "name": "isHashVerified",
      "outputs": [
        {
          "internalType": "bool",
          "name": "isVerified",
          "type": "bool"
        }
      ],
      "stateMutability": "view",
      "type": "function"
    },
    {
      "inputs": [],
      "name": "owner",
      "outputs": [
        {
          "internalType": "address",
          "name": "",
          "type": "address"
        }
      ],
      "stateMutability": "view",
      "type": "function"
    },
    {
      "inputs": [
        {
          "internalType": "address",
          "name": "",
          "type": "address"
        },
        {
          "internalType": "uint256",
          "name": "",
          "type": "uint256"
        }
      ],
      "name": "ownerProperties",
      "outputs": [
        {
          "internalType": "bytes32",
          "name": "dataHash",
          "type": "bytes32"
        },
        {
          "internalType": "string",
          "name": "deedNumber",
          "type": "string"
        },
        {
          "internalType": "string",
          "name": "propertyName",
          "type": "string"
        },
        {
          "internalType": "string",
          "name": "propertyAddress",
          "type": "string"
        },
        {
          "internalType": "string",
          "name": "ownerName",
          "type": "string"
        },
        {
          "internalType": "string",
          "name": "taxId",
          "type": "string"
        },
        {
          "internalType": "uint256",
          "name": "timestamp",
          "type": "uint256"
        },
        {
          "internalType": "bool",
          "name": "verified",
          "type": "bool"
        }
      ],
      "stateMutability": "view",
      "type": "function"
    },
    {
      "inputs": [
        {
          "internalType": "address",
          "name": "",
          "type": "address"
        }
      ],
      "name": "ownerPropertyCount",
      "outputs": [
        {
          "internalType": "uint256",
          "name": "",
          "type": "uint256"
        }
      ],
      "stateMutability": "view",
      "type": "function"
    },
    {
      "inputs": [
        {
          "internalType": "address",
          "name": "newOwner",
          "type": "address"
        }
      ],
      "name": "transferOwnership",
      "outputs": [],
      "stateMutability": "nonpayable",
      "type": "function"
    },
    {
      "inputs": [
        {
          "internalType": "bytes32",
          "name": "",
          "type": "bytes32"
        }
      ],
      "name": "verifiedPropertyHashes",
      "outputs": [
        {
          "internalType": "bool",
          "name": "",
          "type": "bool"
        }
      ],
      "stateMutability": "view",
      "type": "function"
    },
    {
      "inputs": [
        {
          "internalType": "address",
          "name": "propertyOwner",
          "type": "address"
        },
        {
          "internalType": "uint256",
          "name": "propertyIndex",
          "type": "uint256"
        },
        {
          "internalType": "bytes32",
          "name": "verificationDataHash",
          "type": "bytes32"
        }
      ],
      "name": "verifyAttestation",
      "outputs": [
        {
          "internalType": "bool",
          "name": "verified",
          "type": "bool"
        }
      ],
      "stateMutability": "nonpayable",
      "type": "function"
    }
  ],
  "bytecode": "0x6080806040523461002857600080546001600160a01b031916331790556116b6908161002e8239f35b600080fdfe6080604052600436101561001257600080fd5b60003560e01c80630baca8d71461067a5780631a58555c1461064b57806339b57a481461060157806380dbcf6a1461059657806389cb8f6d146105c75780638a3e9d1d146105c75780638b00545b146105965780638da5cb5b1461056d5780638f48bd5b14610465578063dca1ebc9146103f4578063f2fde38b146103655763f3b7873a146100a057600080fd5b34610360576040366003190112610360576100b96112e0565b6001600160a01b039081169060243590338314908115610352575b50156102e757816101099260005260026020526100f760406000205483106114e3565b600052600160205260406000206112f6565b5060086040519161011983611236565b8054835261012960018201611362565b602084015261013a60028201611362565b604084015261014b60038201611362565b606084015261015c60048201611362565b608084015261016d60058201611362565b60a0840152600681015460c084015260ff600782015416151560e084015201805490610198826112c9565b916101a66040519384611252565b80835260208301809260005260206000206000915b8383106102c2575050505061010092828482015280519260208201519460408301516060840151608085015160a08601519160c08701519660e001511515936040519a8b9a8b526101208060208d01528b0161021691611408565b8a810360408c015261022791611408565b89810360608b015261023891611408565b88810360808a015261024991611408565b87810360a089015261025a91611408565b9360c087015260e0860152848303908501525180825260208201918160051b810160200193926000915b8383106102915786860387f35b9193955091936020806102b0600193601f198682030187528951611408565b97019301930190928695949293610284565b6001602081926102d5859a98999a611362565b815201920192019190959493956101bb565b60405162461bcd60e51b815260206004820152603a60248201527f4f6e6c792070726f7065727479206f776e6572206f7220636f6e74726163742060448201527f6f776e65722063616e20616363657373207468697320646174610000000000006064820152608490fd5b9050600054163314386100d4565b600080fd5b346103605760203660031901126103605761037e6112e0565b600054906001600160a01b03906103983383851614611484565b169081156103b0576001600160a01b03191617600055005b606460405162461bcd60e51b815260206004820152602060248201527f4e6577206f776e65722063616e6e6f74206265207a65726f20616464726573736044820152fd5b3461036057604036600319011261036057604061040f6112e0565b6001600160a01b03166000908152600260205281812054602435908110919082610443575b50825191825215156020820152f35b60ff915061045b6007916001602052856000206112f6565b5001541683610434565b346103605760403660031901126103605761047e6112e0565b6001600160a01b03166000908152600160205260409020805460243590811015610360576104ab916112f6565b5080546104ba60018301611362565b916104c760028201611362565b61055c6104d660038401611362565b61054e6104e560048601611362565b6105406104f460058801611362565b9361053260ff600760068b01549a015416976105246040519c8d9c8d5260208d61010091829101528d0190611408565b908b820360408d0152611408565b9089820360608b0152611408565b908782036080890152611408565b9085820360a0870152611408565b9160c0840152151560e08301520390f35b34610360576000366003190112610360576000546040516001600160a01b039091168152602090f35b34610360576020366003190112610360576004356000526003602052602060ff604060002054166040519015158152f35b34610360576020366003190112610360576001600160a01b036105e86112e0565b1660005260026020526020604060002054604051908152f35b3461036057606036600319011261036057602061064161061f6112e0565b61063460018060a01b03600054163314611484565b6044359060243590611528565b6040519015158152f35b346103605760403660031901126103605760206106726106696112e0565b60243590611641565b604051908152f35b346103605760e0366003190112610360576024356001600160401b038111610360576106aa903690600401611273565b604480356001600160401b038111610360576106ca903690600401611273565b9160649081356001600160401b038111610360576106ec903690600401611273565b936084356001600160401b0381116103605761070c903690600401611273565b60a4356001600160401b0381116103605761072b903690600401611273565b60c435916001600160401b0383116103605736602384011215610360578260040135610756816112c9565b936107646040519586611252565b8185526024602086019260051b820101903682116103605760248101925b82841061120757505050508451156111c4578351156111815787511561113e578051156110fb578251156110ac5760005b33600052600260205260406000205481101561084d5760016020526107dc8160406000206112f6565b5054600435146107f4576107ef90611448565b6107b3565b60405162461bcd60e51b815260206004820152602d60248201527f50726f7065727479207769746820746869732064617461206861736820616c72818a01526c1958591e48185d1d195cdd1959609a1b81890152608490fd5b50876040519461085c86611236565b600435865286602087015260408601526060850152608084015260a08301524260c0830152600060e083015261010082015233600052600160205260406000208054600160401b811015610c9a576108b9916001820181556112f6565b929092611096578151835560208201519283516001600160401b038111610c9a576108e76001830154611328565b601f8111611061575b506020601f8211600114610ff2578192939495600092610fe7575b50508160011b916000199060031b1c19161760018201555b60408301519283516001600160401b038111610c9a576109466002840154611328565b601f8111610fb2575b506020601f8211600114610f43578192939495600092610f38575b50508160011b916000199060031b1c19161760028301555b60608101519283516001600160401b038111610c9a576109a56003850154611328565b601f8111610f03575b506020601f8211600114610e94578192939495600092610e89575b50508160011b916000199060031b1c19161760038401555b60808201519283516001600160401b038111610c9a57610a046004830154611328565b601f8111610e54575b506020601f8211600114610de5578192939495600092610dda575b50508160011b916000199060031b1c19161760048201555b60a08301518051906001600160401b038211610c9a57610a636005840154611328565b601f8111610da5575b50602090601f8311600114610d2f5791806101009492600894600092610d24575b50508160011b916000199060031b1c19161760058201555b60c085015160068201556007810160e0860151151560ff8019835416911617905501920151805190600160401b8211610c9a578354828555808310610cb0575b50602001926000526020600020926000905b828210610b7a576040843360005260026020528160002090815491610b1b83611448565b90557f793f6634ffcc5b7950547fa49df1b867d9102cf8646e85668408f9d3ca88bfdc610b5a8451926004358452608060208501526080840190611408565b9142858201528360608201528033930390a2815190600182526020820152f35b80518051906001600160401b038211610c9a57610b978754611328565b601f8111610c5d575b50602090601f8311600114610bed579282600194936020938695600092610be2575b5050600019600383901b1c191690841b1788555b01950191019093610af7565b015190508a80610bc2565b908760005260206000209160005b601f1985168110610c45575083602093600196938796938794601f19811610610c2c575b505050811b018855610bd6565b015160001960f88460031b161c191690558a8080610c1f565b91926020600181928685015181550194019201610bfb565b610c8a90886000526020600020601f850160051c81019160208610610c90575b601f0160051c019061146d565b87610ba0565b9091508190610c7d565b634e487b7160e01b600052604160045260246000fd5b8460005282602060002091820191015b818110610ccd5750610ae5565b80610cda60019254611328565b80610ce7575b5001610cc0565b601f81118314610cfd5750600081555b87610ce0565b600090828252610d1b601f60208420920160051c820185830161146d565b81835555610cf7565b015190508780610a8d565b906005840160005260206000209160005b601f1985168110610d8d575092610100949260019260089583601f19811610610d74575b505050811b016005820155610aa5565b015160001960f88460031b161c19169055878080610d64565b91926020600181928685015181550194019201610d40565b610dd490600585016000526020600020601f850160051c81019160208610610c9057601f0160051c019061146d565b85610a6c565b015190508580610a28565b6004830160005260206000209060005b601f1984168110610e3c575060019394959683601f19811610610e23575b505050811b016004820155610a40565b015160001960f88460031b161c19169055858080610e13565b9091602060018192858b015181550193019101610df5565b610e8390600484016000526020600020601f840160051c81019160208510610c9057601f0160051c019061146d565b85610a0d565b0151905085806109c9565b6003850160005260206000209060005b601f1984168110610eeb575060019394959683601f19811610610ed2575b505050811b0160038401556109e1565b015160001960f88460031b161c19169055858080610ec2565b9091602060018192858b015181550193019101610ea4565b610f3290600386016000526020600020601f840160051c81019160208510610c9057601f0160051c019061146d565b856109ae565b01519050858061096a565b6002840160005260206000209060005b601f1984168110610f9a575060019394959683601f19811610610f81575b505050811b016002830155610982565b015160001960f88460031b161c19169055858080610f71565b9091602060018192858b015181550193019101610f53565b610fe190600285016000526020600020601f840160051c81019160208510610c9057601f0160051c019061146d565b8561094f565b01519050858061090b565b6001830160005260206000209060005b601f1984168110611049575060019394959683601f19811610611030575b505050811b016001820155610923565b015160001960f88460031b161c19169055858080611020565b9091602060018192858b015181550193019101611002565b61109090600184016000526020600020601f840160051c81019160208510610c9057601f0160051c019061146d565b856108f0565b634e487b7160e01b600052600060045260246000fd5b60405162461bcd60e51b8152602060048201526024808201527f4174206c65617374206f6e652070726f70657274792070686f746f207265717581890152631a5c995960e21b81880152608490fd5b60405162461bcd60e51b815260206004820152601a60248201527f4f776e6572206e616d652063616e6e6f7420626520656d707479000000000000818901528690fd5b60405162461bcd60e51b815260206004820181905260248201527f50726f706572747920616464726573732063616e6e6f7420626520656d707479818901528690fd5b60405162461bcd60e51b815260206004820152601d60248201527f50726f7065727479206e616d652063616e6e6f7420626520656d707479000000818901528690fd5b60405162461bcd60e51b815260206004820152601b60248201527f44656564206e756d6265722063616e6e6f7420626520656d7074790000000000818901528690fd5b83356001600160401b0381116103605760209161122b839260243691870101611273565b815201930192610782565b61012081019081106001600160401b03821117610c9a57604052565b90601f801991011681019081106001600160401b03821117610c9a57604052565b81601f82011215610360578035906001600160401b038211610c9a57604051926112a7601f8401601f191660200185611252565b8284526020838301011161036057816000926020809301838601378301015290565b6001600160401b038111610c9a5760051b60200190565b600435906001600160a01b038216820361036057565b8054821015611312576000526009602060002091020190600090565b634e487b7160e01b600052603260045260246000fd5b90600182811c92168015611358575b602083101461134257565b634e487b7160e01b600052602260045260246000fd5b91607f1691611337565b906040519182600082549261137684611328565b9081845260019485811690816000146113e557506001146113a2575b50506113a092500383611252565b565b9093915060005260209081600020936000915b8183106113cd5750506113a093508201013880611392565b855488840185015294850194879450918301916113b5565b9150506113a094506020925060ff191682840152151560051b8201013880611392565b919082519283825260005b848110611434575050826000602080949584010152601f8019910116010190565b602081830181015184830182015201611413565b60001981146114575760010190565b634e487b7160e01b600052601160045260246000fd5b818110611478575050565b6000815560010161146d565b1561148b57565b60405162461bcd60e51b815260206004820152602a60248201527f4f6e6c7920636f6e7472616374206f776e65722063616e2063616c6c207468696044820152693990333ab731ba34b7b760b11b6064820152608490fd5b156114ea57565b60405162461bcd60e51b8152602060048201526016602482015275092dcecc2d8d2c840e0e4dee0cae4e8f240d2dcc8caf60531b6044820152606490fd5b6001600160a01b03166000818152600260205260408082205491949293916115519083106114e3565b8385526001602052611565828287206112f6565b506007810180549160ff8316611634575485036115d757906001837fb177e255d16adb9e27ce591b0484b1498dde64179a25c1c4bf570af04faca1c397986060979695948360ff19809616179055868152600360205220918254161790558051928352426020840152820152a2600190565b50509160a091837f423906957607c633cbb385e7dd878e5cad84b1e8d79aca049e8e43fc6ce654b49451928352606060208401526012606084015271088c2e8c240d0c2e6d040dad2e6dac2e8c6d60731b6080840152820152a290565b5050505050505050600190565b6001600160a01b031660009081526002602052604090205481106116655750600090565b61167a600691600160205260406000206112f6565b5001549056fea2646970667358221220177216b77bf31d7d75c46c6b3916458c4fed8ee6eae0a8caa2c0ff06a4ad4bc064736f6c63430008130033",
  "linkReferences": {},
  "deployedLinkReferences": {}
}