{
  "_format": "hh-sol-artifact-1",
  "contractName": "VerificationSBT",
  "sourceName": "contracts/VerificationSBT.sol",
  "abi": [
    {
      "inputs": [
        {
          "internalType": "address",
          "name": "_kycVerifierAddress",
          "type": "address"
        }
      ],
      "stateMutability": "nonpayable",
      "type": "constructor"
    },
    {
      "anonymous": false,
      "inputs": [
        {
          "indexed": true,
          "internalType": "address",
          "name": "owner",
          "type": "address"
        },
        {
          "indexed": true,
          "internalType": "address",
          "name": "approved",
          "type": "address"
        },
        {
          "indexed": true,
          "internalType": "uint256",
          "name": "tokenId",
          "type": "uint256"
        }
      ],
      "name": "Approval",
      "type": "event"
    },
    {
      "anonymous": false,
      "inputs": [
        {
          "indexed": true,
          "internalType": "address",
          "name": "owner",
          "type": "address"
        },
        {
          "indexed": true,
          "internalType": "address",
          "name": "operator",
          "type": "address"
        },
        {
          "indexed": false,
          "internalType": "bool",
          "name": "approved",
          "type": "bool"
        }
      ],
      "name": "ApprovalForAll",
      "type": "event"
    },
    {
      "anonymous": false,
      "inputs": [
        {
          "indexed": false,
          "internalType": "uint256",
          "name": "_fromTokenId",
          "type": "uint256"
        },
        {
          "indexed": false,
          "internalType": "uint256",
          "name": "_toTokenId",
          "type": "uint256"
        }
      ],
      "name": "BatchMetadataUpdate",
      "type": "event"
    },
    {
      "anonymous": false,
      "inputs": [
        {
          "indexed": false,
          "internalType": "uint256",
          "name": "tokenId",
          "type": "uint256"
        }
      ],
      "name": "Locked",
      "type": "event"
    },
    {
      "anonymous": false,
      "inputs": [
        {
          "indexed": false,
          "internalType": "uint256",
          "name": "_tokenId",
          "type": "uint256"
        }
      ],
      "name": "MetadataUpdate",
      "type": "event"
    },
    {
      "anonymous": false,
      "inputs": [
        {
          "indexed": true,
          "internalType": "address",
          "name": "previousOwner",
          "type": "address"
        },
        {
          "indexed": true,
          "internalType": "address",
          "name": "newOwner",
          "type": "address"
        }
      ],
      "name": "OwnershipTransferred",
      "type": "event"
    },
    {
      "anonymous": false,
      "inputs": [
        {
          "indexed": true,
          "internalType": "address",
          "name": "from",
          "type": "address"
        },
        {
          "indexed": true,
          "internalType": "address",
          "name": "to",
          "type": "address"
        },
        {
          "indexed": true,
          "internalType": "uint256",
          "name": "tokenId",
          "type": "uint256"
        }
      ],
      "name": "Transfer",
      "type": "event"
    },
    {
      "anonymous": false,
      "inputs": [
        {
          "indexed": true,
          "internalType": "address",
          "name": "to",
          "type": "address"
        },
        {
          "indexed": false,
          "internalType": "uint256",
          "name": "tokenId",
          "type": "uint256"
        },
        {
          "indexed": false,
          "internalType": "bytes32",
          "name": "kycHash",
          "type": "bytes32"
        }
      ],
      "name": "VerificationTokenMinted",
      "type": "event"
    },
    {
      "inputs": [
        {
          "internalType": "address",
          "name": "to",
          "type": "address"
        },
        {
          "internalType": "uint256",
          "name": "tokenId",
          "type": "uint256"
        }
      ],
      "name": "approve",
      "outputs": [],
      "stateMutability": "nonpayable",
      "type": "function"
    },
    {
      "inputs": [
        {
          "internalType": "address",
          "name": "owner",
          "type": "address"
        }
      ],
      "name": "balanceOf",
      "outputs": [
        {
          "internalType": "uint256",
          "name": "",
          "type": "uint256"
        }
      ],
      "stateMutability": "view",
      "type": "function"
    },
    {
      "inputs": [
        {
          "internalType": "uint256",
          "name": "tokenId",
          "type": "uint256"
        }
      ],
      "name": "getApproved",
      "outputs": [
        {
          "internalType": "address",
          "name": "",
          "type": "address"
        }
      ],
      "stateMutability": "view",
      "type": "function"
    },
    {
      "inputs": [
        {
          "internalType": "uint256",
          "name": "tokenId",
          "type": "uint256"
        }
      ],
      "name": "getKYCHash",
      "outputs": [
        {
          "internalType": "bytes32",
          "name": "",
          "type": "bytes32"
        }
      ],
      "stateMutability": "view",
      "type": "function"
    },
    {
      "inputs": [
        {
          "internalType": "address",
          "name": "wallet",
          "type": "address"
        }
      ],
      "name": "getTokenId",
      "outputs": [
        {
          "internalType": "uint256",
          "name": "",
          "type": "uint256"
        }
      ],
      "stateMutability": "view",
      "type": "function"
    },
    {
      "inputs": [
        {
          "internalType": "address",
          "name": "wallet",
          "type": "address"
        }
      ],
      "name": "hasVerificationToken",
      "outputs": [
        {
          "internalType": "bool",
          "name": "",
          "type": "bool"
        }
      ],
      "stateMutability": "view",
      "type": "function"
    },
    {
      "inputs": [
        {
          "internalType": "address",
          "name": "owner",
          "type": "address"
        },
        {
          "internalType": "address",
          "name": "operator",
          "type": "address"
        }
      ],
      "name": "isApprovedForAll",
      "outputs": [
        {
          "internalType": "bool",
          "name": "",
          "type": "bool"
        }
      ],
      "stateMutability": "view",
      "type": "function"
    },
    {
      "inputs": [],
      "name": "kycVerifierAddress",
      "outputs": [
        {
          "internalType": "address",
          "name": "",
          "type": "address"
        }
      ],
      "stateMutability": "view",
      "type": "function"
    },
    {
      "inputs": [
        {
          "internalType": "uint256",
          "name": "tokenId",
          "type": "uint256"
        }
      ],
      "name": "locked",
      "outputs": [
        {
          "internalType": "bool",
          "name": "",
          "type": "bool"
        }
      ],
      "stateMutability": "view",
      "type": "function"
    },
    {
      "inputs": [
        {
          "internalType": "address",
          "name": "to",
          "type": "address"
        },
        {
          "internalType": "bytes32",
          "name": "kycHash",
          "type": "bytes32"
        },
        {
          "internalType": "string",
          "name": "uri",
          "type": "string"
        }
      ],
      "name": "mintVerificationToken",
      "outputs": [
        {
          "internalType": "uint256",
          "name": "",
          "type": "uint256"
        }
      ],
      "stateMutability": "nonpayable",
      "type": "function"
    },
    {
      "inputs": [],
      "name": "name",
      "outputs": [
        {
          "internalType": "string",
          "name": "",
          "type": "string"
        }
      ],
      "stateMutability": "view",
      "type": "function"
    },
    {
      "inputs": [],
      "name": "owner",
      "outputs": [
        {
          "internalType": "address",
          "name": "",
          "type": "address"
        }
      ],
      "stateMutability": "view",
      "type": "function"
    },
    {
      "inputs": [
        {
          "internalType": "uint256",
          "name": "tokenId",
          "type": "uint256"
        }
      ],
      "name": "ownerOf",
      "outputs": [
        {
          "internalType": "address",
          "name": "",
          "type": "address"
        }
      ],
      "stateMutability": "view",
      "type": "function"
    },
    {
      "inputs": [],
      "name": "renounceOwnership",
      "outputs": [],
      "stateMutability": "nonpayable",
      "type": "function"
    },
    {
      "inputs": [
        {
          "internalType": "address",
          "name": "from",
          "type": "address"
        },
        {
          "internalType": "address",
          "name": "to",
          "type": "address"
        },
        {
          "internalType": "uint256",
          "name": "tokenId",
          "type": "uint256"
        }
      ],
      "name": "safeTransferFrom",
      "outputs": [],
      "stateMutability": "nonpayable",
      "type": "function"
    },
    {
      "inputs": [
        {
          "internalType": "address",
          "name": "from",
          "type": "address"
        },
        {
          "internalType": "address",
          "name": "to",
          "type": "address"
        },
        {
          "internalType": "uint256",
          "name": "tokenId",
          "type": "uint256"
        },
        {
          "internalType": "bytes",
          "name": "data",
          "type": "bytes"
        }
      ],
      "name": "safeTransferFrom",
      "outputs": [],
      "stateMutability": "nonpayable",
      "type": "function"
    },
    {
      "inputs": [
        {
          "internalType": "address",
          "name": "operator",
          "type": "address"
        },
        {
          "internalType": "bool",
          "name": "approved",
          "type": "bool"
        }
      ],
      "name": "setApprovalForAll",
      "outputs": [],
      "stateMutability": "nonpayable",
      "type": "function"
    },
    {
      "inputs": [
        {
          "internalType": "address",
          "name": "_kycVerifierAddress",
          "type": "address"
        }
      ],
      "name": "setKYCVerifierAddress",
      "outputs": [],
      "stateMutability": "nonpayable",
      "type": "function"
    },
    {
      "inputs": [
        {
          "internalType": "bytes4",
          "name": "interfaceId",
          "type": "bytes4"
        }
      ],
      "name": "supportsInterface",
      "outputs": [
        {
          "internalType": "bool",
          "name": "",
          "type": "bool"
        }
      ],
      "stateMutability": "view",
      "type": "function"
    },
    {
      "inputs": [],
      "name": "symbol",
      "outputs": [
        {
          "internalType": "string",
          "name": "",
          "type": "string"
        }
      ],
      "stateMutability": "view",
      "type": "function"
    },
    {
      "inputs": [
        {
          "internalType": "uint256",
          "name": "tokenId",
          "type": "uint256"
        }
      ],
      "name": "tokenURI",
      "outputs": [
        {
          "internalType": "string",
          "name": "",
          "type": "string"
        }
      ],
      "stateMutability": "view",
      "type": "function"
    },
    {
      "inputs": [
        {
          "internalType": "address",
          "name": "from",
          "type": "address"
        },
        {
          "internalType": "address",
          "name": "to",
          "type": "address"
        },
        {
          "internalType": "uint256",
          "name": "tokenId",
          "type": "uint256"
        }
      ],
      "name": "transferFrom",
      "outputs": [],
      "stateMutability": "nonpayable",
      "type": "function"
    },
    {
      "inputs": [
        {
          "internalType": "address",
          "name": "newOwner",
          "type": "address"
        }
      ],
      "name": "transferOwnership",
      "outputs": [],
      "stateMutability": "nonpayable",
      "type": "function"
    }
  ],
  "bytecode": "0x608034620003b457601f906001600160401b0390601f1990620018953881900385810184168301858111848210176200039e57839282916040528339602092839181010312620003b457516001600160a01b03948582169491859003620003b4576200006a620003b9565b92601684527f4b594320566572696669636174696f6e20546f6b656e00000000000000000000818501526200009e620003b9565b90600582526425aca196ab60d91b818301528451958487116200039e576000968754966001978881811c9116801562000393575b858210146200037f579081878493116200032c575b508490878311600114620002cb578a92620002bf575b5050600019600383901b1c191690871b1787555b8251948511620002ab5785548681811c91168015620002a0575b838210146200028c5790818587969594931162000233575b5081938511600114620001ce5750508592620001c2575b5050600019600383901b1c191690821b1790555b60075460018060a01b03199133838316176007557f8be0079c531659141344cd1fd0a4f28419497f9722a3daafe3b4186f6b6457e0604051953393169180a360095416176009556114bb9081620003da8239f35b0151905038806200015a565b869593929193168588528388209388905b828210620002195750508411620001ff575b505050811b0190556200016e565b015160001960f88460031b161c19169055388080620001f1565b8484015186558897909501949384019390810190620001df565b9091929394508688528288208580880160051c82019285891062000282575b9188978a9297969594930160051c01915b8281106200027357505062000143565b8a815588975089910162000263565b9250819262000252565b634e487b7160e01b88526022600452602488fd5b90607f16906200012b565b634e487b7160e01b87526041600452602487fd5b015190503880620000fd565b90848a9416918b8052868c20928c5b88828210620003155750508411620002fb575b505050811b01875562000111565b015160001960f88460031b161c19169055388080620002ed565b8385015186558d97909501949384019301620002da565b909150898052848a208780850160051c82019287861062000375575b918b91869594930160051c01915b82811062000366575050620000e7565b8c81558594508b910162000356565b9250819262000348565b634e487b7160e01b8a52602260045260248afd5b90607f1690620000d2565b634e487b7160e01b600052604160045260246000fd5b600080fd5b60408051919082016001600160401b038111838210176200039e5760405256fe6080604081815260048036101561001557600080fd5b600092833560e01c90816301ffc9a714610f535750806306fdde0314610eab578063081812fc14610e58578063095ea7b314610ceb57806323b872dd14610cac578063259342d814610cb157806342842e0e14610cac5780636352211e14610c7b57806370a0823114610be5578063715018a614610b885780638da5cb5b14610b5f57806395d89b4114610a7c5780639f87dd5714610a33578063a22cb46514610964578063b45a3c0e1461091f578063b88d4fde146108c4578063c87b56dd146107b1578063c9fb5f2314610788578063cd6f04dd146102c0578063db13455b14610278578063e985e9c51461022a578063f1537686146101ee5763f2fde38b1461012057600080fd5b346101ea5760203660031901126101ea57610139611033565b9061014261113f565b6001600160a01b03918216928315610198575050600754826bffffffffffffffffffffffff60a01b821617600755167f8be0079c531659141344cd1fd0a4f28419497f9722a3daafe3b4186f6b6457e08380a380f35b906020608492519162461bcd60e51b8352820152602660248201527f4f776e61626c653a206e6577206f776e657220697320746865207a65726f206160448201526564647265737360d01b6064820152fd5b8280fd5b5050346102265760203660031901126102265760209181906001600160a01b03610216611033565b168152600a845220549051908152f35b5080fd5b50503461022657806003193601126102265760ff8160209361024a611033565b61025261104e565b6001600160a01b0391821683526005875283832091168252855220549151911615158152f35b83346102bd5760203660031901126102bd57610292611033565b61029a61113f565b60018060a01b03166bffffffffffffffffffffffff60a01b600954161760095580f35b80fd5b50919034610226576060366003190112610226576102dc611033565b916024908135906044359567ffffffffffffffff968781116101ea57366023820112156101ea5761031590369086818501359101611108565b9660018060a01b0380600954163314801561077b575b1561072d57871694858452602098600a8a52878520546106da576001918260085401998a60085589519061035e82611098565b878252891561069a57908b61040e9260028f8e8e61039a61039487600052600260205260018060a01b0360406000205416151590565b15611296565b6000868152600260205260409020546103bd906001600160a01b03161515610394565b8d52600382528c2080548a019055838c52528c8a2080546001600160a01b0319168d179055818c8b7fddf252ad1be2c89b69c2b068fc378daa952ba7f163c4a11628f55a4df523b3ef8180a46112e2565b1561067f5760008a8152600260205260409020546001600160a01b0316156106275789865260068b528886209482519485116106165750509083929161045689969554611209565b601f81116105c1575b508a90601f84116001146105345792808087948a98948a977f4f534b26bdfebdf1fb63078d4156dfc9bd1e1f96202171da5964a5fe795507b99c999694610529575b50501b916000199060031b1c19161790555b7ff8e1a15aba9398e019f0b49df1a4fde98ee17ae345cb5f6b5e2c27f5033e8ce78a83518b8152a1868152600a8a528882822055888152600b8a5220557f032bc66be43dbccb7487781d168eb7bda224628a3b2c3388bdf69b532a3a1611878351888152a181519086825287820152a251908152f35b0151925038806104a1565b8486528b86209293929190601f198416878e5b8282106105a95750509288959285928b99967f4f534b26bdfebdf1fb63078d4156dfc9bd1e1f96202171da5964a5fe795507b99c999610610590575b505050811b0190556104b3565b015160001960f88460031b161c19169055388080610583565b8484015186558d9a509487019493840193018e610547565b909192938581969750528a8620601f850160051c8101918c861061060c575b90601f8b989796959493920160051c01905b8181106105ff575061045f565b8681558a975083016105f2565b90915081906105e0565b634e487b7160e01b87526041905285fd5b84602e6084928d8c519362461bcd60e51b85528401528201527f45524337323155524953746f726167653a2055524920736574206f66206e6f6e60448201526d32bc34b9ba32b73a103a37b5b2b760911b6064820152fd5b885162461bcd60e51b815280610696818801611243565b0390fd5b6064878e85818f519362461bcd60e51b85528401528201527f4552433732313a206d696e7420746f20746865207a65726f20616464726573736044820152fd5b875162461bcd60e51b81528085018b90526028818401527f4164647265737320616c7265616479206861732061207665726966696361746960448201526737b7103a37b5b2b760c11b6064820152608490fd5b865162461bcd60e51b81526020818501526023818801527f4f6e6c79204b5943207665726966696572206f72206f776e65722063616e206d6044820152621a5b9d60ea1b6064820152608490fd5b508060075416331461032b565b50503461022657816003193601126102265760095490516001600160a01b039091168152602090f35b5090346101ea57602091826003193601126108c057356000818152600260205260409020546107ef906001600160a01b03161515611197565b611197565b83526006825280832092815180948290805461080a81611209565b9182855260019188838216918260001461089957505060011461085b575b50505061085793929161083c9103866110ca565b815161084781611098565b5251928284938452830190610ff3565b0390f35b8552868520879350859291905b828410610881575050508201018161083c610857610828565b8054848b018601528995508894909301928101610868565b60ff19168782015293151560051b8601909301935084925061083c91506108579050610828565b8380fd5b838234610226576080366003190112610226576108df611033565b506108e861104e565b5060643567ffffffffffffffff81116101ea57366023820112156101ea576109199250602481369301359101611108565b50611441565b5091346102bd5760203660031901126102bd575061095d61095860209335600052600260205260018060a01b0360406000205416151590565b6113fe565b5160018152f35b5090346101ea57806003193601126101ea5761097e611033565b9060243591821515809303610a2f576001600160a01b0316923384146109ed5750338452600560205280842083855260205280842060ff1981541660ff8416179055519081527f17307eab39ab6107e8899845ad3d59bd9653f200f220920489ca2b5937696c3160203392a380f35b6020606492519162461bcd60e51b8352820152601960248201527f4552433732313a20617070726f766520746f2063616c6c6572000000000000006044820152fd5b8480fd5b50346101ea5760203660031901126101ea57602092829135610a6d61095882600052600260205260018060a01b0360406000205416151590565b8152600b845220549051908152f35b505034610226578160031936011261022657805190826001805491610aa083611209565b80865292828116908115610b375750600114610adb575b505050610ac9826108579403836110ca565b51918291602083526020830190610ff3565b94508085527fb10e2d527612073b26eecdfd717e6a320cf44b4afac2b0732d9fcbe2b7fa0cf65b828610610b1f57505050610ac98260206108579582010194610ab7565b80546020878701810191909152909501948101610b02565b610857975086935060209250610ac994915060ff191682840152151560051b82010194610ab7565b50503461022657816003193601126102265760075490516001600160a01b039091168152602090f35b83346102bd57806003193601126102bd57610ba161113f565b600780546001600160a01b0319811690915581906001600160a01b03167f8be0079c531659141344cd1fd0a4f28419497f9722a3daafe3b4186f6b6457e08280a380f35b50829034610226576020366003190112610226576001600160a01b03610c09611033565b16908115610c265760208480858581526003845220549051908152f35b608490602085519162461bcd60e51b8352820152602960248201527f4552433732313a2061646472657373207a65726f206973206e6f7420612076616044820152683634b21037bbb732b960b91b6064820152fd5b5091346102bd5760203660031901126102bd5750610c9b602092356111e3565b90516001600160a01b039091168152f35b611064565b5050346102265760203660031901126102265760209181906001600160a01b03610cd9611033565b168152600a8452205415159051908152f35b50346101ea57816003193601126101ea57610d04611033565b6024359290916001600160a01b0391908280610d1f876111e3565b16941693808514610e0b57803314908115610dec575b5015610d8457848652602052842080546001600160a01b03191683179055610d5c836111e3565b167f8c5be1e5ebec7d5bd14f71427d1e84f3dd0314c0f7b2291e5b200ac8c7c3b9258480a480f35b6020608492519162461bcd60e51b8352820152603d60248201527f4552433732313a20617070726f76652063616c6c6572206973206e6f7420746f60448201527f6b656e206f776e6572206f7220617070726f76656420666f7220616c6c0000006064820152fd5b90508652600560205281862033875260205260ff828720541638610d35565b506020608492519162461bcd60e51b8352820152602160248201527f4552433732313a20617070726f76616c20746f2063757272656e74206f776e656044820152603960f91b6064820152fd5b50346101ea5760203660031901126101ea57918260209335610e926107ea82600052600260205260018060a01b0360406000205416151590565b825283528190205490516001600160a01b039091168152f35b505034610226578160031936011261022657805190828054610ecc81611209565b80855291600191808316908115610b375750600114610ef757505050610ac9826108579403836110ca565b80809650527f290decd9548b62a8d60345a988386fc84ba6bc95484008f6362f93160ef3e5635b828610610f3b57505050610ac98260206108579582010194610ab7565b80546020878701810191909152909501948101610f1e565b925050346101ea5760203660031901126101ea573563ffffffff60e01b81168091036101ea5760209250635a2d1e0760e11b8114908115610f96575b5015158152f35b632483248360e11b811491508115610fb0575b5038610f8f565b6380ac58cd60e01b811491508115610fe2575b8115610fd1575b5038610fa9565b6301ffc9a760e01b14905038610fca565b635b5e139f60e01b81149150610fc3565b919082519283825260005b84811061101f575050826000602080949584010152601f8019910116010190565b602081830181015184830182015201610ffe565b600435906001600160a01b038216820361104957565b600080fd5b602435906001600160a01b038216820361104957565b34611049576060366003190112611049576001600160a01b0360043581811603611049576024359081161461144157600080fd5b6020810190811067ffffffffffffffff8211176110b457604052565b634e487b7160e01b600052604160045260246000fd5b90601f8019910116810190811067ffffffffffffffff8211176110b457604052565b67ffffffffffffffff81116110b457601f01601f191660200190565b929192611114826110ec565b9161112260405193846110ca565b829481845281830111611049578281602093846000960137010152565b6007546001600160a01b0316330361115357565b606460405162461bcd60e51b815260206004820152602060248201527f4f776e61626c653a2063616c6c6572206973206e6f7420746865206f776e65726044820152fd5b1561119e57565b60405162461bcd60e51b815260206004820152601860248201527f4552433732313a20696e76616c696420746f6b656e20494400000000000000006044820152606490fd5b6000908152600260205260409020546001600160a01b0316611206811515611197565b90565b90600182811c92168015611239575b602083101461122357565b634e487b7160e01b600052602260045260246000fd5b91607f1691611218565b60809060208152603260208201527f4552433732313a207472616e7366657220746f206e6f6e20455243373231526560408201527131b2b4bb32b91034b6b83632b6b2b73a32b960711b60608201520190565b1561129d57565b60405162461bcd60e51b815260206004820152601c60248201527f4552433732313a20746f6b656e20616c7265616479206d696e746564000000006044820152606490fd5b9192600092909190803b156113f457611330946040518092630a85bd0160e11b9485835233600484015287602484015260448301526080606483015281878160209a8b966084830190610ff3565b03926001600160a01b03165af18491816113b4575b506113a3575050503d60001461139b573d61135f816110ec565b9061136d60405192836110ca565b81528091833d92013e5b805191826113985760405162461bcd60e51b81528061069660048201611243565b01fd5b506060611377565b6001600160e01b0319161492509050565b9091508581813d83116113ed575b6113cc81836110ca565b81010312610a2f57516001600160e01b031981168103610a2f579038611345565b503d6113c2565b5050915050600190565b1561140557565b60405162461bcd60e51b8152602060048201526014602482015273151bdad95b88191bd95cc81b9bdd08195e1a5cdd60621b6044820152606490fd5b606460405162461bcd60e51b815260206004820152602060248201527f5342543a20546f6b656e2063616e6e6f74206265207472616e736665727265646044820152fdfea26469706673582212208b9ca9cac268c54ef10d8d0f93bac4643a84c00b61550f5c539b4277c67f9a1f64736f6c63430008130033",
  "linkReferences": {},
  "deployedLinkReferences": {}
}