{
  "_format": "hh-sol-artifact-1",
  "contractName": "VerificationSBT",
  "sourceName": "contracts/VerificationSBT.sol",
  "abi": [
    {
      "inputs": [
        {
          "internalType": "address",
          "name": "_kycVerifierAddress",
          "type": "address"
        }
      ],
      "stateMutability": "nonpayable",
      "type": "constructor"
    },
    {
      "anonymous": false,
      "inputs": [
        {
          "indexed": true,
          "internalType": "address",
          "name": "owner",
          "type": "address"
        },
        {
          "indexed": true,
          "internalType": "address",
          "name": "approved",
          "type": "address"
        },
        {
          "indexed": true,
          "internalType": "uint256",
          "name": "tokenId",
          "type": "uint256"
        }
      ],
      "name": "Approval",
      "type": "event"
    },
    {
      "anonymous": false,
      "inputs": [
        {
          "indexed": true,
          "internalType": "address",
          "name": "owner",
          "type": "address"
        },
        {
          "indexed": true,
          "internalType": "address",
          "name": "operator",
          "type": "address"
        },
        {
          "indexed": false,
          "internalType": "bool",
          "name": "approved",
          "type": "bool"
        }
      ],
      "name": "ApprovalForAll",
      "type": "event"
    },
    {
      "anonymous": false,
      "inputs": [
        {
          "indexed": false,
          "internalType": "uint256",
          "name": "_fromTokenId",
          "type": "uint256"
        },
        {
          "indexed": false,
          "internalType": "uint256",
          "name": "_toTokenId",
          "type": "uint256"
        }
      ],
      "name": "BatchMetadataUpdate",
      "type": "event"
    },
    {
      "anonymous": false,
      "inputs": [
        {
          "indexed": false,
          "internalType": "uint256",
          "name": "tokenId",
          "type": "uint256"
        }
      ],
      "name": "Locked",
      "type": "event"
    },
    {
      "anonymous": false,
      "inputs": [
        {
          "indexed": false,
          "internalType": "uint256",
          "name": "_tokenId",
          "type": "uint256"
        }
      ],
      "name": "MetadataUpdate",
      "type": "event"
    },
    {
      "anonymous": false,
      "inputs": [
        {
          "indexed": true,
          "internalType": "address",
          "name": "previousOwner",
          "type": "address"
        },
        {
          "indexed": true,
          "internalType": "address",
          "name": "newOwner",
          "type": "address"
        }
      ],
      "name": "OwnershipTransferred",
      "type": "event"
    },
    {
      "anonymous": false,
      "inputs": [
        {
          "indexed": true,
          "internalType": "address",
          "name": "from",
          "type": "address"
        },
        {
          "indexed": true,
          "internalType": "address",
          "name": "to",
          "type": "address"
        },
        {
          "indexed": true,
          "internalType": "uint256",
          "name": "tokenId",
          "type": "uint256"
        }
      ],
      "name": "Transfer",
      "type": "event"
    },
    {
      "anonymous": false,
      "inputs": [
        {
          "indexed": true,
          "internalType": "address",
          "name": "to",
          "type": "address"
        },
        {
          "indexed": false,
          "internalType": "uint256",
          "name": "tokenId",
          "type": "uint256"
        },
        {
          "indexed": false,
          "internalType": "bytes32",
          "name": "kycHash",
          "type": "bytes32"
        }
      ],
      "name": "VerificationTokenMinted",
      "type": "event"
    },
    {
      "inputs": [
        {
          "internalType": "address",
          "name": "to",
          "type": "address"
        },
        {
          "internalType": "uint256",
          "name": "tokenId",
          "type": "uint256"
        }
      ],
      "name": "approve",
      "outputs": [],
      "stateMutability": "nonpayable",
      "type": "function"
    },
    {
      "inputs": [
        {
          "internalType": "address",
          "name": "owner",
          "type": "address"
        }
      ],
      "name": "balanceOf",
      "outputs": [
        {
          "internalType": "uint256",
          "name": "",
          "type": "uint256"
        }
      ],
      "stateMutability": "view",
      "type": "function"
    },
    {
      "inputs": [
        {
          "internalType": "uint256",
          "name": "tokenId",
          "type": "uint256"
        }
      ],
      "name": "getApproved",
      "outputs": [
        {
          "internalType": "address",
          "name": "",
          "type": "address"
        }
      ],
      "stateMutability": "view",
      "type": "function"
    },
    {
      "inputs": [
        {
          "internalType": "uint256",
          "name": "tokenId",
          "type": "uint256"
        }
      ],
      "name": "getKYCHash",
      "outputs": [
        {
          "internalType": "bytes32",
          "name": "",
          "type": "bytes32"
        }
      ],
      "stateMutability": "view",
      "type": "function"
    },
    {
      "inputs": [
        {
          "internalType": "address",
          "name": "wallet",
          "type": "address"
        }
      ],
      "name": "getTokenId",
      "outputs": [
        {
          "internalType": "uint256",
          "name": "",
          "type": "uint256"
        }
      ],
      "stateMutability": "view",
      "type": "function"
    },
    {
      "inputs": [
        {
          "internalType": "address",
          "name": "wallet",
          "type": "address"
        }
      ],
      "name": "hasVerificationToken",
      "outputs": [
        {
          "internalType": "bool",
          "name": "",
          "type": "bool"
        }
      ],
      "stateMutability": "view",
      "type": "function"
    },
    {
      "inputs": [
        {
          "internalType": "address",
          "name": "owner",
          "type": "address"
        },
        {
          "internalType": "address",
          "name": "operator",
          "type": "address"
        }
      ],
      "name": "isApprovedForAll",
      "outputs": [
        {
          "internalType": "bool",
          "name": "",
          "type": "bool"
        }
      ],
      "stateMutability": "view",
      "type": "function"
    },
    {
      "inputs": [],
      "name": "kycVerifierAddress",
      "outputs": [
        {
          "internalType": "address",
          "name": "",
          "type": "address"
        }
      ],
      "stateMutability": "view",
      "type": "function"
    },
    {
      "inputs": [
        {
          "internalType": "uint256",
          "name": "tokenId",
          "type": "uint256"
        }
      ],
      "name": "locked",
      "outputs": [
        {
          "internalType": "bool",
          "name": "",
          "type": "bool"
        }
      ],
      "stateMutability": "view",
      "type": "function"
    },
    {
      "inputs": [
        {
          "internalType": "address",
          "name": "to",
          "type": "address"
        },
        {
          "internalType": "bytes32",
          "name": "kycHash",
          "type": "bytes32"
        },
        {
          "internalType": "string",
          "name": "uri",
          "type": "string"
        }
      ],
      "name": "mintVerificationToken",
      "outputs": [
        {
          "internalType": "uint256",
          "name": "",
          "type": "uint256"
        }
      ],
      "stateMutability": "nonpayable",
      "type": "function"
    },
    {
      "inputs": [],
      "name": "name",
      "outputs": [
        {
          "internalType": "string",
          "name": "",
          "type": "string"
        }
      ],
      "stateMutability": "view",
      "type": "function"
    },
    {
      "inputs": [],
      "name": "owner",
      "outputs": [
        {
          "internalType": "address",
          "name": "",
          "type": "address"
        }
      ],
      "stateMutability": "view",
      "type": "function"
    },
    {
      "inputs": [
        {
          "internalType": "uint256",
          "name": "tokenId",
          "type": "uint256"
        }
      ],
      "name": "ownerOf",
      "outputs": [
        {
          "internalType": "address",
          "name": "",
          "type": "address"
        }
      ],
      "stateMutability": "view",
      "type": "function"
    },
    {
      "inputs": [],
      "name": "renounceOwnership",
      "outputs": [],
      "stateMutability": "nonpayable",
      "type": "function"
    },
    {
      "inputs": [
        {
          "internalType": "address",
          "name": "from",
          "type": "address"
        },
        {
          "internalType": "address",
          "name": "to",
          "type": "address"
        },
        {
          "internalType": "uint256",
          "name": "tokenId",
          "type": "uint256"
        }
      ],
      "name": "safeTransferFrom",
      "outputs": [],
      "stateMutability": "nonpayable",
      "type": "function"
    },
    {
      "inputs": [
        {
          "internalType": "address",
          "name": "from",
          "type": "address"
        },
        {
          "internalType": "address",
          "name": "to",
          "type": "address"
        },
        {
          "internalType": "uint256",
          "name": "tokenId",
          "type": "uint256"
        },
        {
          "internalType": "bytes",
          "name": "data",
          "type": "bytes"
        }
      ],
      "name": "safeTransferFrom",
      "outputs": [],
      "stateMutability": "nonpayable",
      "type": "function"
    },
    {
      "inputs": [
        {
          "internalType": "address",
          "name": "operator",
          "type": "address"
        },
        {
          "internalType": "bool",
          "name": "approved",
          "type": "bool"
        }
      ],
      "name": "setApprovalForAll",
      "outputs": [],
      "stateMutability": "nonpayable",
      "type": "function"
    },
    {
      "inputs": [
        {
          "internalType": "address",
          "name": "_kycVerifierAddress",
          "type": "address"
        }
      ],
      "name": "setKYCVerifierAddress",
      "outputs": [],
      "stateMutability": "nonpayable",
      "type": "function"
    },
    {
      "inputs": [
        {
          "internalType": "bytes4",
          "name": "interfaceId",
          "type": "bytes4"
        }
      ],
      "name": "supportsInterface",
      "outputs": [
        {
          "internalType": "bool",
          "name": "",
          "type": "bool"
        }
      ],
      "stateMutability": "view",
      "type": "function"
    },
    {
      "inputs": [],
      "name": "symbol",
      "outputs": [
        {
          "internalType": "string",
          "name": "",
          "type": "string"
        }
      ],
      "stateMutability": "view",
      "type": "function"
    },
    {
      "inputs": [
        {
          "internalType": "uint256",
          "name": "tokenId",
          "type": "uint256"
        }
      ],
      "name": "tokenURI",
      "outputs": [
        {
          "internalType": "string",
          "name": "",
          "type": "string"
        }
      ],
      "stateMutability": "view",
      "type": "function"
    },
    {
      "inputs": [
        {
          "internalType": "address",
          "name": "from",
          "type": "address"
        },
        {
          "internalType": "address",
          "name": "to",
          "type": "address"
        },
        {
          "internalType": "uint256",
          "name": "tokenId",
          "type": "uint256"
        }
      ],
      "name": "transferFrom",
      "outputs": [],
      "stateMutability": "nonpayable",
      "type": "function"
    },
    {
      "inputs": [
        {
          "internalType": "address",
          "name": "newOwner",
          "type": "address"
        }
      ],
      "name": "transferOwnership",
      "outputs": [],
      "stateMutability": "nonpayable",
      "type": "function"
    }
  ],
  "bytecode": "0x60806040523480156200001157600080fd5b506040516200373438038062003734833981810160405281019062000037919062000269565b6040518060400160405280601681526020017f4b594320566572696669636174696f6e20546f6b656e000000000000000000008152506040518060400160405280600581526020017f4b59432d560000000000000000000000000000000000000000000000000000008152508160009081620000b4919062000515565b508060019081620000c6919062000515565b505050620000e9620000dd6200013160201b60201c565b6200013960201b60201c565b80600960006101000a81548173ffffffffffffffffffffffffffffffffffffffff021916908373ffffffffffffffffffffffffffffffffffffffff16021790555050620005fc565b600033905090565b6000600760009054906101000a900473ffffffffffffffffffffffffffffffffffffffff16905081600760006101000a81548173ffffffffffffffffffffffffffffffffffffffff021916908373ffffffffffffffffffffffffffffffffffffffff1602179055508173ffffffffffffffffffffffffffffffffffffffff168173ffffffffffffffffffffffffffffffffffffffff167f8be0079c531659141344cd1fd0a4f28419497f9722a3daafe3b4186f6b6457e060405160405180910390a35050565b600080fd5b600073ffffffffffffffffffffffffffffffffffffffff82169050919050565b6000620002318262000204565b9050919050565b620002438162000224565b81146200024f57600080fd5b50565b600081519050620002638162000238565b92915050565b600060208284031215620002825762000281620001ff565b5b6000620002928482850162000252565b91505092915050565b600081519050919050565b7f4e487b7100000000000000000000000000000000000000000000000000000000600052604160045260246000fd5b7f4e487b7100000000000000000000000000000000000000000000000000000000600052602260045260246000fd5b600060028204905060018216806200031d57607f821691505b602082108103620003335762000332620002d5565b5b50919050565b60008190508160005260206000209050919050565b60006020601f8301049050919050565b600082821b905092915050565b6000600883026200039d7fffffffffffffffffffffffffffffffffffffffffffffffffffffffffffffffff826200035e565b620003a986836200035e565b95508019841693508086168417925050509392505050565b6000819050919050565b6000819050919050565b6000620003f6620003f0620003ea84620003c1565b620003cb565b620003c1565b9050919050565b6000819050919050565b6200041283620003d5565b6200042a6200042182620003fd565b8484546200036b565b825550505050565b600090565b6200044162000432565b6200044e81848462000407565b505050565b5b8181101562000476576200046a60008262000437565b60018101905062000454565b5050565b601f821115620004c5576200048f8162000339565b6200049a846200034e565b81016020851015620004aa578190505b620004c2620004b9856200034e565b83018262000453565b50505b505050565b600082821c905092915050565b6000620004ea60001984600802620004ca565b1980831691505092915050565b6000620005058383620004d7565b9150826002028217905092915050565b62000520826200029b565b67ffffffffffffffff8111156200053c576200053b620002a6565b5b62000548825462000304565b620005558282856200047a565b600060209050601f8311600181146200058d576000841562000578578287015190505b620005848582620004f7565b865550620005f4565b601f1984166200059d8662000339565b60005b82811015620005c757848901518255600182019150602085019450602081019050620005a0565b86831015620005e75784890151620005e3601f891682620004d7565b8355505b6001600288020188555050505b505050505050565b613128806200060c6000396000f3fe608060405234801561001057600080fd5b506004361061014d5760003560e01c806395d89b41116100c3578063c9fb5f231161007c578063c9fb5f23146103c2578063cd6f04dd146103e0578063db13455b14610410578063e985e9c51461042c578063f15376861461045c578063f2fde38b1461048c5761014d565b806395d89b41146102dc5780639f87dd57146102fa578063a22cb4651461032a578063b45a3c0e14610346578063b88d4fde14610376578063c87b56dd146103925761014d565b8063259342d811610115578063259342d81461020857806342842e0e146102385780636352211e1461025457806370a0823114610284578063715018a6146102b45780638da5cb5b146102be5761014d565b806301ffc9a71461015257806306fdde0314610182578063081812fc146101a0578063095ea7b3146101d057806323b872dd146101ec575b600080fd5b61016c60048036038101906101679190611e37565b6104a8565b6040516101799190611e7f565b60405180910390f35b61018a610509565b6040516101979190611f2a565b60405180910390f35b6101ba60048036038101906101b59190611f82565b61059b565b6040516101c79190611ff0565b60405180910390f35b6101ea60048036038101906101e59190612037565b6105e1565b005b61020660048036038101906102019190612077565b6106f8565b005b610222600480360381019061021d91906120ca565b610733565b60405161022f9190611e7f565b60405180910390f35b610252600480360381019061024d9190612077565b61077e565b005b61026e60048036038101906102699190611f82565b6107b9565b60405161027b9190611ff0565b60405180910390f35b61029e600480360381019061029991906120ca565b61083f565b6040516102ab9190612106565b60405180910390f35b6102bc6108f6565b005b6102c661090a565b6040516102d39190611ff0565b60405180910390f35b6102e4610934565b6040516102f19190611f2a565b60405180910390f35b610314600480360381019061030f9190611f82565b6109c6565b604051610321919061213a565b60405180910390f35b610344600480360381019061033f9190612181565b610a2b565b005b610360600480360381019061035b9190611f82565b610a41565b60405161036d9190611e7f565b60405180910390f35b610390600480360381019061038b91906122f6565b610a94565b005b6103ac60048036038101906103a79190611f82565b610acf565b6040516103b99190611f2a565b60405180910390f35b6103ca610ae1565b6040516103d79190611ff0565b60405180910390f35b6103fa60048036038101906103f59190612446565b610b07565b6040516104079190612106565b60405180910390f35b61042a600480360381019061042591906120ca565b610d72565b005b610446600480360381019061044191906124b5565b610dbe565b6040516104539190611e7f565b60405180910390f35b610476600480360381019061047191906120ca565b610e52565b6040516104839190612106565b60405180910390f35b6104a660048036038101906104a191906120ca565b610e9b565b005b600063b45a3c0e60e01b7bffffffffffffffffffffffffffffffffffffffffffffffffffffffff1916827bffffffffffffffffffffffffffffffffffffffffffffffffffffffff19161480610502575061050182610f1e565b5b9050919050565b60606000805461051890612524565b80601f016020809104026020016040519081016040528092919081815260200182805461054490612524565b80156105915780601f1061056657610100808354040283529160200191610591565b820191906000526020600020905b81548152906001019060200180831161057457829003601f168201915b5050505050905090565b60006105a682610f7f565b6004600083815260200190815260200160002060009054906101000a900473ffffffffffffffffffffffffffffffffffffffff169050919050565b60006105ec826107b9565b90508073ffffffffffffffffffffffffffffffffffffffff168373ffffffffffffffffffffffffffffffffffffffff160361065c576040517f08c379a0000000000000000000000000000000000000000000000000000000008152600401610653906125c7565b60405180910390fd5b8073ffffffffffffffffffffffffffffffffffffffff1661067b610fca565b73ffffffffffffffffffffffffffffffffffffffff1614806106aa57506106a9816106a4610fca565b610dbe565b5b6106e9576040517f08c379a00000000000000000000000000000000000000000000000000000000081526004016106e090612659565b60405180910390fd5b6106f38383610fd2565b505050565b6040517f08c379a000000000000000000000000000000000000000000000000000000000815260040161072a906126c5565b60405180910390fd5b600080600a60008473ffffffffffffffffffffffffffffffffffffffff1673ffffffffffffffffffffffffffffffffffffffff16815260200190815260200160002054119050919050565b6040517f08c379a00000000000000000000000000000000000000000000000000000000081526004016107b0906126c5565b60405180910390fd5b6000806107c58361108b565b9050600073ffffffffffffffffffffffffffffffffffffffff168173ffffffffffffffffffffffffffffffffffffffff1603610836576040517f08c379a000000000000000000000000000000000000000000000000000000000815260040161082d90612731565b60405180910390fd5b80915050919050565b60008073ffffffffffffffffffffffffffffffffffffffff168273ffffffffffffffffffffffffffffffffffffffff16036108af576040517f08c379a00000000000000000000000000000000000000000000000000000000081526004016108a6906127c3565b60405180910390fd5b600360008373ffffffffffffffffffffffffffffffffffffffff1673ffffffffffffffffffffffffffffffffffffffff168152602001908152602001600020549050919050565b6108fe6110c8565b6109086000611146565b565b6000600760009054906101000a900473ffffffffffffffffffffffffffffffffffffffff16905090565b60606001805461094390612524565b80601f016020809104026020016040519081016040528092919081815260200182805461096f90612524565b80156109bc5780601f10610991576101008083540402835291602001916109bc565b820191906000526020600020905b81548152906001019060200180831161099f57829003601f168201915b5050505050905090565b60006109d18261120c565b610a10576040517f08c379a0000000000000000000000000000000000000000000000000000000008152600401610a079061282f565b60405180910390fd5b600b6000838152602001908152602001600020549050919050565b610a3d610a36610fca565b838361124d565b5050565b6000610a4c8261120c565b610a8b576040517f08c379a0000000000000000000000000000000000000000000000000000000008152600401610a829061282f565b60405180910390fd5b60019050919050565b6040517f08c379a0000000000000000000000000000000000000000000000000000000008152600401610ac6906126c5565b60405180910390fd5b6060610ada826113b9565b9050919050565b600960009054906101000a900473ffffffffffffffffffffffffffffffffffffffff1681565b6000600960009054906101000a900473ffffffffffffffffffffffffffffffffffffffff1673ffffffffffffffffffffffffffffffffffffffff163373ffffffffffffffffffffffffffffffffffffffff161480610b975750610b6861090a565b73ffffffffffffffffffffffffffffffffffffffff163373ffffffffffffffffffffffffffffffffffffffff16145b610bd6576040517f08c379a0000000000000000000000000000000000000000000000000000000008152600401610bcd906128c1565b60405180910390fd5b6000600a60008673ffffffffffffffffffffffffffffffffffffffff1673ffffffffffffffffffffffffffffffffffffffff1681526020019081526020016000205414610c58576040517f08c379a0000000000000000000000000000000000000000000000000000000008152600401610c4f90612953565b60405180910390fd5b610c6260086114cb565b6000610c6e60086114e1565b9050610c7a85826114ef565b610c84818461150d565b80600a60008773ffffffffffffffffffffffffffffffffffffffff1673ffffffffffffffffffffffffffffffffffffffff1681526020019081526020016000208190555083600b6000838152602001908152602001600020819055507f032bc66be43dbccb7487781d168eb7bda224628a3b2c3388bdf69b532a3a161181604051610d0f9190612106565b60405180910390a18473ffffffffffffffffffffffffffffffffffffffff167f4f534b26bdfebdf1fb63078d4156dfc9bd1e1f96202171da5964a5fe795507b98286604051610d5f929190612973565b60405180910390a2809150509392505050565b610d7a6110c8565b80600960006101000a81548173ffffffffffffffffffffffffffffffffffffffff021916908373ffffffffffffffffffffffffffffffffffffffff16021790555050565b6000600560008473ffffffffffffffffffffffffffffffffffffffff1673ffffffffffffffffffffffffffffffffffffffff16815260200190815260200160002060008373ffffffffffffffffffffffffffffffffffffffff1673ffffffffffffffffffffffffffffffffffffffff16815260200190815260200160002060009054906101000a900460ff16905092915050565b6000600a60008373ffffffffffffffffffffffffffffffffffffffff1673ffffffffffffffffffffffffffffffffffffffff168152602001908152602001600020549050919050565b610ea36110c8565b600073ffffffffffffffffffffffffffffffffffffffff168173ffffffffffffffffffffffffffffffffffffffff1603610f12576040517f08c379a0000000000000000000000000000000000000000000000000000000008152600401610f0990612a0e565b60405180910390fd5b610f1b81611146565b50565b6000634906490660e01b7bffffffffffffffffffffffffffffffffffffffffffffffffffffffff1916827bffffffffffffffffffffffffffffffffffffffffffffffffffffffff19161480610f785750610f77826115b1565b5b9050919050565b610f888161120c565b610fc7576040517f08c379a0000000000000000000000000000000000000000000000000000000008152600401610fbe90612731565b60405180910390fd5b50565b600033905090565b816004600083815260200190815260200160002060006101000a81548173ffffffffffffffffffffffffffffffffffffffff021916908373ffffffffffffffffffffffffffffffffffffffff160217905550808273ffffffffffffffffffffffffffffffffffffffff16611045836107b9565b73ffffffffffffffffffffffffffffffffffffffff167f8c5be1e5ebec7d5bd14f71427d1e84f3dd0314c0f7b2291e5b200ac8c7c3b92560405160405180910390a45050565b60006002600083815260200190815260200160002060009054906101000a900473ffffffffffffffffffffffffffffffffffffffff169050919050565b6110d0610fca565b73ffffffffffffffffffffffffffffffffffffffff166110ee61090a565b73ffffffffffffffffffffffffffffffffffffffff1614611144576040517f08c379a000000000000000000000000000000000000000000000000000000000815260040161113b90612a7a565b60405180910390fd5b565b6000600760009054906101000a900473ffffffffffffffffffffffffffffffffffffffff16905081600760006101000a81548173ffffffffffffffffffffffffffffffffffffffff021916908373ffffffffffffffffffffffffffffffffffffffff1602179055508173ffffffffffffffffffffffffffffffffffffffff168173ffffffffffffffffffffffffffffffffffffffff167f8be0079c531659141344cd1fd0a4f28419497f9722a3daafe3b4186f6b6457e060405160405180910390a35050565b60008073ffffffffffffffffffffffffffffffffffffffff1661122e8361108b565b73ffffffffffffffffffffffffffffffffffffffff1614159050919050565b8173ffffffffffffffffffffffffffffffffffffffff168373ffffffffffffffffffffffffffffffffffffffff16036112bb576040517f08c379a00000000000000000000000000000000000000000000000000000000081526004016112b290612ae6565b60405180910390fd5b80600560008573ffffffffffffffffffffffffffffffffffffffff1673ffffffffffffffffffffffffffffffffffffffff16815260200190815260200160002060008473ffffffffffffffffffffffffffffffffffffffff1673ffffffffffffffffffffffffffffffffffffffff16815260200190815260200160002060006101000a81548160ff0219169083151502179055508173ffffffffffffffffffffffffffffffffffffffff168373ffffffffffffffffffffffffffffffffffffffff167f17307eab39ab6107e8899845ad3d59bd9653f200f220920489ca2b5937696c31836040516113ac9190611e7f565b60405180910390a3505050565b60606113c482610f7f565b60006006600084815260200190815260200160002080546113e490612524565b80601f016020809104026020016040519081016040528092919081815260200182805461141090612524565b801561145d5780601f106114325761010080835404028352916020019161145d565b820191906000526020600020905b81548152906001019060200180831161144057829003601f168201915b50505050509050600061146e611693565b905060008151036114835781925050506114c6565b6000825111156114b85780826040516020016114a0929190612b42565b604051602081830303815290604052925050506114c6565b6114c1846116aa565b925050505b919050565b6001816000016000828254019250508190555050565b600081600001549050919050565b611509828260405180602001604052806000815250611712565b5050565b6115168261120c565b611555576040517f08c379a000000000000000000000000000000000000000000000000000000000815260040161154c90612bd8565b60405180910390fd5b806006600084815260200190815260200160002090816115759190612da4565b507ff8e1a15aba9398e019f0b49df1a4fde98ee17ae345cb5f6b5e2c27f5033e8ce7826040516115a59190612106565b60405180910390a15050565b60007f80ac58cd000000000000000000000000000000000000000000000000000000007bffffffffffffffffffffffffffffffffffffffffffffffffffffffff1916827bffffffffffffffffffffffffffffffffffffffffffffffffffffffff1916148061167c57507f5b5e139f000000000000000000000000000000000000000000000000000000007bffffffffffffffffffffffffffffffffffffffffffffffffffffffff1916827bffffffffffffffffffffffffffffffffffffffffffffffffffffffff1916145b8061168c575061168b8261176d565b5b9050919050565b606060405180602001604052806000815250905090565b60606116b582610f7f565b60006116bf611693565b905060008151116116df576040518060200160405280600081525061170a565b806116e9846117d7565b6040516020016116fa929190612b42565b6040516020818303038152906040525b915050919050565b61171c83836118a5565b6117296000848484611ac2565b611768576040517f08c379a000000000000000000000000000000000000000000000000000000000815260040161175f90612ee8565b60405180910390fd5b505050565b60007f01ffc9a7000000000000000000000000000000000000000000000000000000007bffffffffffffffffffffffffffffffffffffffffffffffffffffffff1916827bffffffffffffffffffffffffffffffffffffffffffffffffffffffff1916149050919050565b6060600060016117e684611c49565b01905060008167ffffffffffffffff811115611805576118046121cb565b5b6040519080825280601f01601f1916602001820160405280156118375781602001600182028036833780820191505090505b509050600082602001820190505b60011561189a578080600190039150507f3031323334353637383961626364656600000000000000000000000000000000600a86061a8153600a858161188e5761188d612f08565b5b04945060008503611845575b819350505050919050565b600073ffffffffffffffffffffffffffffffffffffffff168273ffffffffffffffffffffffffffffffffffffffff1603611914576040517f08c379a000000000000000000000000000000000000000000000000000000000815260040161190b90612f83565b60405180910390fd5b61191d8161120c565b1561195d576040517f08c379a000000000000000000000000000000000000000000000000000000000815260040161195490612fef565b60405180910390fd5b61196b600083836001611d9c565b6119748161120c565b156119b4576040517f08c379a00000000000000000000000000000000000000000000000000000000081526004016119ab90612fef565b60405180910390fd5b6001600360008473ffffffffffffffffffffffffffffffffffffffff1673ffffffffffffffffffffffffffffffffffffffff16815260200190815260200160002060008282540192505081905550816002600083815260200190815260200160002060006101000a81548173ffffffffffffffffffffffffffffffffffffffff021916908373ffffffffffffffffffffffffffffffffffffffff160217905550808273ffffffffffffffffffffffffffffffffffffffff16600073ffffffffffffffffffffffffffffffffffffffff167fddf252ad1be2c89b69c2b068fc378daa952ba7f163c4a11628f55a4df523b3ef60405160405180910390a4611abe600083836001611da2565b5050565b6000611ae38473ffffffffffffffffffffffffffffffffffffffff16611da8565b15611c3c578373ffffffffffffffffffffffffffffffffffffffff1663150b7a02611b0c610fca565b8786866040518563ffffffff1660e01b8152600401611b2e9493929190613064565b6020604051808303816000875af1925050508015611b6a57506040513d601f19601f82011682018060405250810190611b6791906130c5565b60015b611bec573d8060008114611b9a576040519150601f19603f3d011682016040523d82523d6000602084013e611b9f565b606091505b506000815103611be4576040517f08c379a0000000000000000000000000000000000000000000000000000000008152600401611bdb90612ee8565b60405180910390fd5b805181602001fd5b63150b7a0260e01b7bffffffffffffffffffffffffffffffffffffffffffffffffffffffff1916817bffffffffffffffffffffffffffffffffffffffffffffffffffffffff191614915050611c41565b600190505b949350505050565b600080600090507a184f03e93ff9f4daa797ed6e38ed64bf6a1f0100000000000000008310611ca7577a184f03e93ff9f4daa797ed6e38ed64bf6a1f0100000000000000008381611c9d57611c9c612f08565b5b0492506040810190505b6d04ee2d6d415b85acef81000000008310611ce4576d04ee2d6d415b85acef81000000008381611cda57611cd9612f08565b5b0492506020810190505b662386f26fc100008310611d1357662386f26fc100008381611d0957611d08612f08565b5b0492506010810190505b6305f5e1008310611d3c576305f5e1008381611d3257611d31612f08565b5b0492506008810190505b6127108310611d61576127108381611d5757611d56612f08565b5b0492506004810190505b60648310611d845760648381611d7a57611d79612f08565b5b0492506002810190505b600a8310611d93576001810190505b80915050919050565b50505050565b50505050565b6000808273ffffffffffffffffffffffffffffffffffffffff163b119050919050565b6000604051905090565b600080fd5b600080fd5b60007fffffffff0000000000000000000000000000000000000000000000000000000082169050919050565b611e1481611ddf565b8114611e1f57600080fd5b50565b600081359050611e3181611e0b565b92915050565b600060208284031215611e4d57611e4c611dd5565b5b6000611e5b84828501611e22565b91505092915050565b60008115159050919050565b611e7981611e64565b82525050565b6000602082019050611e946000830184611e70565b92915050565b600081519050919050565b600082825260208201905092915050565b60005b83811015611ed4578082015181840152602081019050611eb9565b60008484015250505050565b6000601f19601f8301169050919050565b6000611efc82611e9a565b611f068185611ea5565b9350611f16818560208601611eb6565b611f1f81611ee0565b840191505092915050565b60006020820190508181036000830152611f448184611ef1565b905092915050565b6000819050919050565b611f5f81611f4c565b8114611f6a57600080fd5b50565b600081359050611f7c81611f56565b92915050565b600060208284031215611f9857611f97611dd5565b5b6000611fa684828501611f6d565b91505092915050565b600073ffffffffffffffffffffffffffffffffffffffff82169050919050565b6000611fda82611faf565b9050919050565b611fea81611fcf565b82525050565b60006020820190506120056000830184611fe1565b92915050565b61201481611fcf565b811461201f57600080fd5b50565b6000813590506120318161200b565b92915050565b6000806040838503121561204e5761204d611dd5565b5b600061205c85828601612022565b925050602061206d85828601611f6d565b9150509250929050565b6000806000606084860312156120905761208f611dd5565b5b600061209e86828701612022565b93505060206120af86828701612022565b92505060406120c086828701611f6d565b9150509250925092565b6000602082840312156120e0576120df611dd5565b5b60006120ee84828501612022565b91505092915050565b61210081611f4c565b82525050565b600060208201905061211b60008301846120f7565b92915050565b6000819050919050565b61213481612121565b82525050565b600060208201905061214f600083018461212b565b92915050565b61215e81611e64565b811461216957600080fd5b50565b60008135905061217b81612155565b92915050565b6000806040838503121561219857612197611dd5565b5b60006121a685828601612022565b92505060206121b78582860161216c565b9150509250929050565b600080fd5b600080fd5b7f4e487b7100000000000000000000000000000000000000000000000000000000600052604160045260246000fd5b61220382611ee0565b810181811067ffffffffffffffff82111715612222576122216121cb565b5b80604052505050565b6000612235611dcb565b905061224182826121fa565b919050565b600067ffffffffffffffff821115612261576122606121cb565b5b61226a82611ee0565b9050602081019050919050565b82818337600083830152505050565b600061229961229484612246565b61222b565b9050828152602081018484840111156122b5576122b46121c6565b5b6122c0848285612277565b509392505050565b600082601f8301126122dd576122dc6121c1565b5b81356122ed848260208601612286565b91505092915050565b600080600080608085870312156123105761230f611dd5565b5b600061231e87828801612022565b945050602061232f87828801612022565b935050604061234087828801611f6d565b925050606085013567ffffffffffffffff81111561236157612360611dda565b5b61236d878288016122c8565b91505092959194509250565b61238281612121565b811461238d57600080fd5b50565b60008135905061239f81612379565b92915050565b600067ffffffffffffffff8211156123c0576123bf6121cb565b5b6123c982611ee0565b9050602081019050919050565b60006123e96123e4846123a5565b61222b565b905082815260208101848484011115612405576124046121c6565b5b612410848285612277565b509392505050565b600082601f83011261242d5761242c6121c1565b5b813561243d8482602086016123d6565b91505092915050565b60008060006060848603121561245f5761245e611dd5565b5b600061246d86828701612022565b935050602061247e86828701612390565b925050604084013567ffffffffffffffff81111561249f5761249e611dda565b5b6124ab86828701612418565b9150509250925092565b600080604083850312156124cc576124cb611dd5565b5b60006124da85828601612022565b92505060206124eb85828601612022565b9150509250929050565b7f4e487b7100000000000000000000000000000000000000000000000000000000600052602260045260246000fd5b6000600282049050600182168061253c57607f821691505b60208210810361254f5761254e6124f5565b5b50919050565b7f4552433732313a20617070726f76616c20746f2063757272656e74206f776e6560008201527f7200000000000000000000000000000000000000000000000000000000000000602082015250565b60006125b1602183611ea5565b91506125bc82612555565b604082019050919050565b600060208201905081810360008301526125e0816125a4565b9050919050565b7f4552433732313a20617070726f76652063616c6c6572206973206e6f7420746f60008201527f6b656e206f776e6572206f7220617070726f76656420666f7220616c6c000000602082015250565b6000612643603d83611ea5565b915061264e826125e7565b604082019050919050565b6000602082019050818103600083015261267281612636565b9050919050565b7f5342543a20546f6b656e2063616e6e6f74206265207472616e73666572726564600082015250565b60006126af602083611ea5565b91506126ba82612679565b602082019050919050565b600060208201905081810360008301526126de816126a2565b9050919050565b7f4552433732313a20696e76616c696420746f6b656e2049440000000000000000600082015250565b600061271b601883611ea5565b9150612726826126e5565b602082019050919050565b6000602082019050818103600083015261274a8161270e565b9050919050565b7f4552433732313a2061646472657373207a65726f206973206e6f74206120766160008201527f6c6964206f776e65720000000000000000000000000000000000000000000000602082015250565b60006127ad602983611ea5565b91506127b882612751565b604082019050919050565b600060208201905081810360008301526127dc816127a0565b9050919050565b7f546f6b656e20646f6573206e6f74206578697374000000000000000000000000600082015250565b6000612819601483611ea5565b9150612824826127e3565b602082019050919050565b600060208201905081810360008301526128488161280c565b9050919050565b7f4f6e6c79204b5943207665726966696572206f72206f776e65722063616e206d60008201527f696e740000000000000000000000000000000000000000000000000000000000602082015250565b60006128ab602383611ea5565b91506128b68261284f565b604082019050919050565b600060208201905081810360008301526128da8161289e565b9050919050565b7f4164647265737320616c7265616479206861732061207665726966696361746960008201527f6f6e20746f6b656e000000000000000000000000000000000000000000000000602082015250565b600061293d602883611ea5565b9150612948826128e1565b604082019050919050565b6000602082019050818103600083015261296c81612930565b9050919050565b600060408201905061298860008301856120f7565b612995602083018461212b565b9392505050565b7f4f776e61626c653a206e6577206f776e657220697320746865207a65726f206160008201527f6464726573730000000000000000000000000000000000000000000000000000602082015250565b60006129f8602683611ea5565b9150612a038261299c565b604082019050919050565b60006020820190508181036000830152612a27816129eb565b9050919050565b7f4f776e61626c653a2063616c6c6572206973206e6f7420746865206f776e6572600082015250565b6000612a64602083611ea5565b9150612a6f82612a2e565b602082019050919050565b60006020820190508181036000830152612a9381612a57565b9050919050565b7f4552433732313a20617070726f766520746f2063616c6c657200000000000000600082015250565b6000612ad0601983611ea5565b9150612adb82612a9a565b602082019050919050565b60006020820190508181036000830152612aff81612ac3565b9050919050565b600081905092915050565b6000612b1c82611e9a565b612b268185612b06565b9350612b36818560208601611eb6565b80840191505092915050565b6000612b4e8285612b11565b9150612b5a8284612b11565b91508190509392505050565b7f45524337323155524953746f726167653a2055524920736574206f66206e6f6e60008201527f6578697374656e7420746f6b656e000000000000000000000000000000000000602082015250565b6000612bc2602e83611ea5565b9150612bcd82612b66565b604082019050919050565b60006020820190508181036000830152612bf181612bb5565b9050919050565b60008190508160005260206000209050919050565b60006020601f8301049050919050565b600082821b905092915050565b600060088302612c5a7fffffffffffffffffffffffffffffffffffffffffffffffffffffffffffffffff82612c1d565b612c648683612c1d565b95508019841693508086168417925050509392505050565b6000819050919050565b6000612ca1612c9c612c9784611f4c565b612c7c565b611f4c565b9050919050565b6000819050919050565b612cbb83612c86565b612ccf612cc782612ca8565b848454612c2a565b825550505050565b600090565b612ce4612cd7565b612cef818484612cb2565b505050565b5b81811015612d1357612d08600082612cdc565b600181019050612cf5565b5050565b601f821115612d5857612d2981612bf8565b612d3284612c0d565b81016020851015612d41578190505b612d55612d4d85612c0d565b830182612cf4565b50505b505050565b600082821c905092915050565b6000612d7b60001984600802612d5d565b1980831691505092915050565b6000612d948383612d6a565b9150826002028217905092915050565b612dad82611e9a565b67ffffffffffffffff811115612dc657612dc56121cb565b5b612dd08254612524565b612ddb828285612d17565b600060209050601f831160018114612e0e5760008415612dfc578287015190505b612e068582612d88565b865550612e6e565b601f198416612e1c86612bf8565b60005b82811015612e4457848901518255600182019150602085019450602081019050612e1f565b86831015612e615784890151612e5d601f891682612d6a565b8355505b6001600288020188555050505b505050505050565b7f4552433732313a207472616e7366657220746f206e6f6e20455243373231526560008201527f63656976657220696d706c656d656e7465720000000000000000000000000000602082015250565b6000612ed2603283611ea5565b9150612edd82612e76565b604082019050919050565b60006020820190508181036000830152612f0181612ec5565b9050919050565b7f4e487b7100000000000000000000000000000000000000000000000000000000600052601260045260246000fd5b7f4552433732313a206d696e7420746f20746865207a65726f2061646472657373600082015250565b6000612f6d602083611ea5565b9150612f7882612f37565b602082019050919050565b60006020820190508181036000830152612f9c81612f60565b9050919050565b7f4552433732313a20746f6b656e20616c7265616479206d696e74656400000000600082015250565b6000612fd9601c83611ea5565b9150612fe482612fa3565b602082019050919050565b6000602082019050818103600083015261300881612fcc565b9050919050565b600081519050919050565b600082825260208201905092915050565b60006130368261300f565b613040818561301a565b9350613050818560208601611eb6565b61305981611ee0565b840191505092915050565b60006080820190506130796000830187611fe1565b6130866020830186611fe1565b61309360408301856120f7565b81810360608301526130a5818461302b565b905095945050505050565b6000815190506130bf81611e0b565b92915050565b6000602082840312156130db576130da611dd5565b5b60006130e9848285016130b0565b9150509291505056fea2646970667358221220adb84ab4a63ac923603e4c662555eb3fa6ec0a31b35117233f0059001c2e668064736f6c63430008110033",
  "linkReferences": {},
  "deployedLinkReferences": {}
}