{
  "_format": "hh-sol-artifact-1",
  "contractName": "SecurityTokenFactory",
  "sourceName": "contracts/SecurityTokenFactory.sol",
  "abi": [
    {
      "anonymous": false,
      "inputs": [
        {
          "indexed": true,
          "internalType": "address",
          "name": "previousOwner",
          "type": "address"
        },
        {
          "indexed": true,
          "internalType": "address",
          "name": "newOwner",
          "type": "address"
        }
      ],
      "name": "OwnershipTransferred",
      "type": "event"
    },
    {
      "anonymous": false,
      "inputs": [
        {
          "indexed": true,
          "internalType": "uint256",
          "name": "id",
          "type": "uint256"
        },
        {
          "indexed": true,
          "internalType": "address",
          "name": "tokenAddress",
          "type": "address"
        },
        {
          "indexed": false,
          "internalType": "string",
          "name": "name",
          "type": "string"
        },
        {
          "indexed": false,
          "internalType": "string",
          "name": "symbol",
          "type": "string"
        },
        {
          "indexed": false,
          "internalType": "uint256",
          "name": "totalSupply",
          "type": "uint256"
        },
        {
          "indexed": true,
          "internalType": "address",
          "name": "creator",
          "type": "address"
        }
      ],
      "name": "TokenCreated",
      "type": "event"
    },
    {
      "inputs": [
        {
          "internalType": "string",
          "name": "name",
          "type": "string"
        },
        {
          "internalType": "string",
          "name": "symbol",
          "type": "string"
        },
        {
          "internalType": "uint256",
          "name": "totalSupply",
          "type": "uint256"
        },
        {
          "internalType": "string",
          "name": "documentURI",
          "type": "string"
        },
        {
          "internalType": "string",
          "name": "industry",
          "type": "string"
        },
        {
          "internalType": "string",
          "name": "assetType",
          "type": "string"
        },
        {
          "internalType": "uint256",
          "name": "tokenValue",
          "type": "uint256"
        },
        {
          "internalType": "uint256",
          "name": "offeringSize",
          "type": "uint256"
        },
        {
          "internalType": "string",
          "name": "dividendFrequency",
          "type": "string"
        },
        {
          "internalType": "string",
          "name": "maturityDate",
          "type": "string"
        }
      ],
      "name": "createSecurityToken",
      "outputs": [
        {
          "internalType": "address",
          "name": "",
          "type": "address"
        }
      ],
      "stateMutability": "nonpayable",
      "type": "function"
    },
    {
      "inputs": [],
      "name": "getAllTokens",
      "outputs": [
        {
          "internalType": "address[]",
          "name": "",
          "type": "address[]"
        }
      ],
      "stateMutability": "view",
      "type": "function"
    },
    {
      "inputs": [
        {
          "internalType": "uint256",
          "name": "index",
          "type": "uint256"
        }
      ],
      "name": "getTokenAt",
      "outputs": [
        {
          "internalType": "address",
          "name": "",
          "type": "address"
        }
      ],
      "stateMutability": "view",
      "type": "function"
    },
    {
      "inputs": [
        {
          "internalType": "uint256",
          "name": "tokenId",
          "type": "uint256"
        }
      ],
      "name": "getTokenById",
      "outputs": [
        {
          "internalType": "address",
          "name": "",
          "type": "address"
        }
      ],
      "stateMutability": "view",
      "type": "function"
    },
    {
      "inputs": [],
      "name": "getTokenCount",
      "outputs": [
        {
          "internalType": "uint256",
          "name": "",
          "type": "uint256"
        }
      ],
      "stateMutability": "view",
      "type": "function"
    },
    {
      "inputs": [
        {
          "internalType": "address",
          "name": "tokenAddress",
          "type": "address"
        }
      ],
      "name": "getTokenData",
      "outputs": [
        {
          "components": [
            {
              "internalType": "uint256",
              "name": "id",
              "type": "uint256"
            },
            {
              "internalType": "string",
              "name": "name",
              "type": "string"
            },
            {
              "internalType": "string",
              "name": "symbol",
              "type": "string"
            },
            {
              "internalType": "uint256",
              "name": "totalSupply",
              "type": "uint256"
            },
            {
              "internalType": "string",
              "name": "documentURI",
              "type": "string"
            },
            {
              "internalType": "string",
              "name": "industry",
              "type": "string"
            },
            {
              "internalType": "string",
              "name": "assetType",
              "type": "string"
            },
            {
              "internalType": "uint256",
              "name": "tokenValue",
              "type": "uint256"
            },
            {
              "internalType": "uint256",
              "name": "offeringSize",
              "type": "uint256"
            },
            {
              "internalType": "string",
              "name": "dividendFrequency",
              "type": "string"
            },
            {
              "internalType": "string",
              "name": "maturityDate",
              "type": "string"
            },
            {
              "internalType": "address",
              "name": "creator",
              "type": "address"
            },
            {
              "internalType": "uint256",
              "name": "createdAt",
              "type": "uint256"
            }
          ],
          "internalType": "struct SecurityTokenFactory.TokenData",
          "name": "",
          "type": "tuple"
        }
      ],
      "stateMutability": "view",
      "type": "function"
    },
    {
      "inputs": [],
      "name": "owner",
      "outputs": [
        {
          "internalType": "address",
          "name": "",
          "type": "address"
        }
      ],
      "stateMutability": "view",
      "type": "function"
    },
    {
      "inputs": [],
      "name": "renounceOwnership",
      "outputs": [],
      "stateMutability": "nonpayable",
      "type": "function"
    },
    {
      "inputs": [
        {
          "internalType": "uint256",
          "name": "",
          "type": "uint256"
        }
      ],
      "name": "tokenById",
      "outputs": [
        {
          "internalType": "address",
          "name": "",
          "type": "address"
        }
      ],
      "stateMutability": "view",
      "type": "function"
    },
    {
      "inputs": [
        {
          "internalType": "address",
          "name": "",
          "type": "address"
        }
      ],
      "name": "tokenData",
      "outputs": [
        {
          "internalType": "uint256",
          "name": "id",
          "type": "uint256"
        },
        {
          "internalType": "string",
          "name": "name",
          "type": "string"
        },
        {
          "internalType": "string",
          "name": "symbol",
          "type": "string"
        },
        {
          "internalType": "uint256",
          "name": "totalSupply",
          "type": "uint256"
        },
        {
          "internalType": "string",
          "name": "documentURI",
          "type": "string"
        },
        {
          "internalType": "string",
          "name": "industry",
          "type": "string"
        },
        {
          "internalType": "string",
          "name": "assetType",
          "type": "string"
        },
        {
          "internalType": "uint256",
          "name": "tokenValue",
          "type": "uint256"
        },
        {
          "internalType": "uint256",
          "name": "offeringSize",
          "type": "uint256"
        },
        {
          "internalType": "string",
          "name": "dividendFrequency",
          "type": "string"
        },
        {
          "internalType": "string",
          "name": "maturityDate",
          "type": "string"
        },
        {
          "internalType": "address",
          "name": "creator",
          "type": "address"
        },
        {
          "internalType": "uint256",
          "name": "createdAt",
          "type": "uint256"
        }
      ],
      "stateMutability": "view",
      "type": "function"
    },
    {
      "inputs": [
        {
          "internalType": "address",
          "name": "newOwner",
          "type": "address"
        }
      ],
      "name": "transferOwnership",
      "outputs": [],
      "stateMutability": "nonpayable",
      "type": "function"
    }
  ],
  "bytecode": "0x6080806040523461005b5760008054336001600160a01b0319821681178355916001600160a01b03909116907f8be0079c531659141344cd1fd0a4f28419497f9722a3daafe3b4186f6b6457e09080a36147e390816100618239f35b600080fdfe60808060405260043610156200001457600080fd5b60003560e01c90816313ff7e9f146200127d5750806327e45c2c14620011065780632a5c792a1462000ff05780636b6af2d51462000fba578063715018a61462000f5d578063742c88a314620002df57806378a8956714620002bf5780637bdc60d9146200022757806389f7352014620001a55780638da5cb5b146200017a5763f2fde38b14620000a457600080fd5b346200017557602036600319011262000175576004356001600160a01b03818116918290036200017557620000d862001720565b81156200012157600054826bffffffffffffffffffffffff60a01b821617600055167f8be0079c531659141344cd1fd0a4f28419497f9722a3daafe3b4186f6b6457e0600080a3005b60405162461bcd60e51b815260206004820152602660248201527f4f776e61626c653a206e6577206f776e657220697320746865207a65726f206160448201526564647265737360d01b6064820152608490fd5b600080fd5b346200017557600036600319011262000175576000546040516001600160a01b039091168152602090f35b34620001755760203660031901126200017557600435600254811015620001ec57620001d360209162001779565b905460405160039290921b1c6001600160a01b03168152f35b60405162461bcd60e51b8152602060048201526013602482015272496e646578206f7574206f6620626f756e647360681b6044820152606490fd5b3462000175576020366003190112620001755760043580151580620002b2575b156200026d576000526004602052602060018060a01b0360406000205416604051908152f35b60405162461bcd60e51b815260206004820152601760248201527f546f6b656e20494420646f6573206e6f742065786973740000000000000000006044820152606490fd5b5060015481111562000247565b346200017557600036600319011262000175576020600154604051908152f35b34620001755761014036600319011262000175576004356001600160401b038111620001755762000315903690600401620016c5565b6024356001600160401b038111620001755762000337903690600401620016c5565b6064356001600160401b038111620001755762000359903690600401620016c5565b916084356001600160401b03811162000175576200037c903690600401620016c5565b60a4356001600160401b03811162000175576200039e903690600401620016c5565b92610104356001600160401b0381116200017557620003c2903690600401620016c5565b610124356001600160401b0381116200017557620003e5903690600401620016c5565b9060405180612f448101106001600160401b03612f448301111762000a1e5780620004e8620004d0620004a762000490620004798d620004566200043f8e612f446200186a8b39610160612f448b01818152019062001555565b612f44890181036020612f448b0101528c62001555565b906044356040612f448a010152612f44880182036060612f448a01015262001555565b612f44860181036080612f44880101528a62001555565b612f448501810360a0612f44870101528b62001555565b60c435612f44850160c081019190915260e43560e0820152808203610100909101528562001555565b612f4483018103610120612f44850101528562001555565b33610140612f448401015203906000f095861562000f515760018054019485600155856000526004602052604060002060018060a01b0389166bffffffffffffffffffffffff60a01b82541617905560405198620005468a620015d4565b868a528760208b01528560408b015260443560608b015260808a015260a089015260c088015260c43560e088015260e435610100880152610120870152610140860152336101608601524261018086015260018060a01b038416600052600560205260406000208551815560208601518051906001600160401b03821162000a1e578190620005d9600185015462001597565b601f811162000ef9575b50602090601f831160011462000e825760009262000e76575b50508160011b916000199060031b1c19161760018201555b60408601518051906001600160401b03821162000a1e5781906200063c600285015462001597565b601f811162000e1e575b50602090601f831160011462000da75760009262000d9b575b50508160011b916000199060031b1c19161760028201555b6060860151600382015560808601518051906001600160401b03821162000a1e578190620006a9600485015462001597565b601f811162000d43575b50602090601f831160011462000ccc5760009262000cc0575b50508160011b916000199060031b1c19161760048201555b60a08601518051906001600160401b03821162000a1e5781906200070c600585015462001597565b601f811162000c68575b50602090601f831160011462000bf15760009262000be5575b50508160011b916000199060031b1c19161760058201555b60c08601518051906001600160401b03821162000a1e5781906200076f600685015462001597565b601f811162000b8d575b50602090601f831160011462000b165760009262000b0a575b50508160011b916000199060031b1c19161760068201555b60e0860151600782015561010086015160088201556101208601518051906001600160401b03821162000a1e578190620007e8600985015462001597565b601f811162000ab2575b50602090601f831160011462000a405760009262000a34575b50508160011b916000199060031b1c19161760098201555b6101408601519586516001600160401b03811162000a1e576200084a600a84015462001597565b97601f8911620009d2575b602098508890601f831160011462000953579282600c9361018093620008f798979660009262000947575b50508160011b916000199060031b1c191617600a8501555b610160810151600b850180546001600160a01b0319166001600160a01b039283161790559101519190920155620008d1908616620017b1565b50620008e96040519460608652606086019062001555565b908482038786015262001555565b604435604084015233926001600160a01b03851692917fed745dedcc2bcb260c27171c8d084fca692755e07f0d07377eaedf386c31ab17919081900390a46040516001600160a01b039091168152f35b015190508c8062000880565b90600a8501600052896000209160005b601f1985168110620009ba57508361018093620008f798979693600193600c97601f19811610620009a0575b505050811b01600a85015562000898565b015160001960f88460031b161c191690558c80806200098f565b91928b60018192868501518155019401920162000963565b600a84016000526020600020601f830160051c81016020841062000a16575b601f8b0160051c8201811062000a0957505062000855565b60008155600101620009f1565b5080620009f1565b634e487b7160e01b600052604160045260246000fd5b0151905088806200080b565b600985016000908152602081209350601f198516905b81811062000a99575090846001959493921062000a7f575b505050811b01600982015562000823565b015160001960f88460031b161c1916905588808062000a6e565b9293602060018192878601518155019501930162000a56565b909150600984016000526020600020601f840160051c81016020851062000b02575b90849392915b601f830160051c8201811062000af2575050620007f2565b6000815585945060010162000ada565b508062000ad4565b01519050888062000792565b9250600684016000526020600020906000935b601f198416851062000b71576001945083601f1981161062000b57575b505050811b016006820155620007aa565b015160001960f88460031b161c1916905588808062000b46565b8181015183556020948501946001909301929091019062000b29565b909150600684016000526020600020601f840160051c81016020851062000bdd575b90849392915b601f830160051c8201811062000bcd57505062000779565b6000815585945060010162000bb5565b508062000baf565b0151905088806200072f565b9250600584016000526020600020906000935b601f198416851062000c4c576001945083601f1981161062000c32575b505050811b01600582015562000747565b015160001960f88460031b161c1916905588808062000c21565b8181015183556020948501946001909301929091019062000c04565b909150600584016000526020600020601f840160051c81016020851062000cb8575b90849392915b601f830160051c8201811062000ca857505062000716565b6000815585945060010162000c90565b508062000c8a565b015190508880620006cc565b9250600484016000526020600020906000935b601f198416851062000d27576001945083601f1981161062000d0d575b505050811b016004820155620006e4565b015160001960f88460031b161c1916905588808062000cfc565b8181015183556020948501946001909301929091019062000cdf565b909150600484016000526020600020601f840160051c81016020851062000d93575b90849392915b601f830160051c8201811062000d83575050620006b3565b6000815585945060010162000d6b565b508062000d65565b0151905088806200065f565b9250600284016000526020600020906000935b601f198416851062000e02576001945083601f1981161062000de8575b505050811b01600282015562000677565b015160001960f88460031b161c1916905588808062000dd7565b8181015183556020948501946001909301929091019062000dba565b909150600284016000526020600020601f840160051c81016020851062000e6e575b90849392915b601f830160051c8201811062000e5e57505062000646565b6000815585945060010162000e46565b508062000e40565b015190508880620005fc565b9250600184016000526020600020906000935b601f198416851062000edd576001945083601f1981161062000ec3575b505050811b01600182015562000614565b015160001960f88460031b161c1916905588808062000eb2565b8181015183556020948501946001909301929091019062000e95565b909150600184016000526020600020601f840160051c81016020851062000f49575b90849392915b601f830160051c8201811062000f39575050620005e3565b6000815585945060010162000f21565b508062000f1b565b6040513d6000823e3d90fd5b3462000175576000366003190112620001755762000f7a62001720565b600080546001600160a01b0319811682556001600160a01b03167f8be0079c531659141344cd1fd0a4f28419497f9722a3daafe3b4186f6b6457e08280a3005b346200017557602036600319011262000175576004356000526004602052602060018060a01b0360406000205416604051908152f35b34620001755760003660031901126200017557600254620010118162001851565b620010206040519182620015f1565b8181526200102e8262001851565b6020928383019291601f190136843760005b8181106200109657505090604051928392818401908285525180915260408401929160005b8281106200107557505050500390f35b83516001600160a01b03168552869550938101939281019260010162001065565b620010a18162001779565b90548451831015620010f05760039190911b1c6001600160a01b0316600582901b84018601526000198114620010da5760010162001040565b634e487b7160e01b600052601160045260246000fd5b634e487b7160e01b600052603260045260246000fd5b346200017557602036600319011262000175576001600160a01b0360043581811690819003620001755760005260056020526040600020805490600181016200114f9062001613565b926200115e6002830162001613565b90600383015460048401620011739062001613565b620011816005860162001613565b90620011906006870162001613565b60078701549260088801549260098901620011ab9062001613565b95620011ba600a8b0162001613565b97600b8b01541699600c0154986040519c8d9c8d528c6101a06020819201528d01620011e69162001555565b8c810360408e0152620011f99162001555565b9060608c01528a810360808c0152620012129162001555565b89810360a08b0152620012259162001555565b88810360c08a0152620012389162001555565b9160e0880152610100870152858103610120870152620012589162001555565b8481036101408601526200126c9162001555565b916101608401526101808301520390f35b346200017557602036600319011262000175576004356001600160a01b0381169190829003620001755761018081620012b8600093620015d4565b828152606060208201526060604082015282606082015260606080820152606060a0820152606060c08201528260e0820152826101008201526060610120820152606061014082015282610160820152015280600052600360205260406000205415620015195760005260056020526040600020600c604051916200133d83620015d4565b805483526200134f6001820162001613565b6020840152620013626002820162001613565b6040840152600381015460608401526200137f6004820162001613565b6080840152620013926005820162001613565b60a0840152620013a56006820162001613565b60c0840152600781015460e08401526008810154610100840152620013cd6009820162001613565b610120840152620013e1600a820162001613565b61014084015260018060a01b03600b82015416610160840152015461018082015260405180916020825280516020830152610180620014f9620014e0620014b06200149962001482620014616200144a60208901516101a060408c01526101c08b019062001555565b60408901518a8203601f190160608c015262001555565b606088015160808a01526080880151601f198a83030160a08b015262001555565b60a0870151888203601f190160c08a015262001555565b60c0860151878203601f190160e089015262001555565b60e0850151610100870152610100850151610120870152610120850151601f198783030161014088015262001555565b610140840151858203601f190161016087015262001555565b6101608301516001600160a01b0316848301529101516101a08301520390f35b60405162461bcd60e51b8152602060048201526014602482015273151bdad95b88191bd95cc81b9bdd08195e1a5cdd60621b6044820152606490fd5b919082519283825260005b84811062001582575050826000602080949584010152601f8019910116010190565b60208183018101518483018201520162001560565b90600182811c92168015620015c9575b6020831014620015b357565b634e487b7160e01b600052602260045260246000fd5b91607f1691620015a7565b6101a081019081106001600160401b0382111762000a1e57604052565b90601f801991011681019081106001600160401b0382111762000a1e57604052565b9060405191826000825492620016298462001597565b908184526001948581169081600014620016a0575060011462001659575b50506200165792500383620015f1565b565b9093915060005260209081600020936000915b81831062001687575050620016579350820101388062001647565b855488840185015294850194879450918301916200166c565b9150506200165794506020925060ff191682840152151560051b820101388062001647565b81601f8201121562000175578035906001600160401b03821162000a1e5760405192620016fd601f8401601f191660200185620015f1565b828452602083830101116200017557816000926020809301838601378301015290565b6000546001600160a01b031633036200173557565b606460405162461bcd60e51b815260206004820152602060248201527f4f776e61626c653a2063616c6c6572206973206e6f7420746865206f776e65726044820152fd5b600254811015620010f05760026000527f405787fa12a823e0f2b7631cc41b3ba8828b3321ca811111fa75cd3aa3bb5ace0190600090565b6000818152600360205260408120546200184c576002546801000000000000000081101562001838576001810180600255811015620018245790826040927f405787fa12a823e0f2b7631cc41b3ba8828b3321ca811111fa75cd3aa3bb5ace015560025492815260036020522055600190565b634e487b7160e01b82526032600452602482fd5b634e487b7160e01b82526041600452602482fd5b905090565b6001600160401b03811162000a1e5760051b6020019056fe608060405234620010015762002f44803803806200001d8162001006565b92833981019061016081830312620010015780516001600160401b0381116200100157826200004e9183016200102c565b60208201516001600160401b038111620010015783620000709184016200102c565b604083015160608401519091906001600160401b0381116200100157856200009a9186016200102c565b60808501516001600160401b038111620010015786620000bc9187016200102c565b60a08601516001600160401b038111620010015787620000de9188016200102c565b9060c08701519260e08801519461010089015160018060401b03811162001001578a6200010d918b016200102c565b6101208a0151909a906001600160401b03811162001001576101409162000136918c016200102c565b990151976001600160a01b0389168903620010015780516001600160401b0381116200082157600354600181811c9116801562000ff6575b60208210146200080057601f811162000f90575b50806020601f821160011462000f065760009162000efa575b508160011b916000199060031b1c1916176003555b81516001600160401b0381116200082157600454600181811c9116801562000eef575b60208210146200080057601f811162000e89575b50806020601f821160011462000dff5760009162000df3575b508160011b916000199060031b1c1916176004555b62000220336200109e565b6010805460ff191660011790558051906001600160401b038211620008215760085490600182811c9216801562000de8575b6020831014620008005781601f84931162000d87575b50602090601f831160011462000d095760009262000cfd575b50508160011b916000199060031b1c1916176008555b8051906001600160401b038211620008215760065490600182811c9216801562000cf2575b6020831014620008005781601f84931162000c91575b50602090601f831160011462000c135760009262000c07575b50508160011b916000199060031b1c1916176006555b8051906001600160401b038211620008215760075490600182811c9216801562000bfc575b6020831014620008005781601f84931162000b9b575b50602090601f831160011462000b1d5760009262000b11575b50508160011b916000199060031b1c1916176007555b8051906001600160401b038211620008215760095490600182811c9216801562000b06575b6020831014620008005781601f84931162000aa5575b50602090601f831160011462000a275760009262000a1b575b50508160011b916000199060031b1c1916176009555b8051906001600160401b0382116200082157600a5490600182811c9216801562000a10575b6020831014620008005781601f849311620009af575b50602090601f8311600114620009315760009262000925575b50508160011b916000199060031b1c191617600a555b600b55600c5583516001600160401b0381116200082157600d54600181811c911680156200091a575b60208210146200080057601f8111620008b0575b50602094601f8211600114620008435794819293949560009262000837575b50508160011b916000199060031b1c191617600d555b82516001600160401b0381116200082157600e54600181811c9116801562000816575b60208210146200080057601f8111620007a7575b506020601f82116001146200072e578192939460009262000722575b50508160011b916000199060031b1c191617600e555b6001600160a01b0382166000818152600f60205260409020805460ff191660011790556200054890620010e7565b50604051600181526001600160a01b038316907f3a620c3544f4661f38b303e51ff3c4cc552da5a80ec55d4e3875af78775e1a8290602090a26001600160a01b03821615620006dd576001600160a01b0382166000908152600f602052604090205460ff1615620006985760025481810180911162000682576002556001600160a01b03821660008181526020818152604080832080548601905551938452919290917fddf252ad1be2c89b69c2b068fc378daa952ba7f163c4a11628f55a4df523b3ef91a3600554336001600160a01b03909116036200063e576200062e906200109e565b604051611cfc9081620011888239f35b606460405162461bcd60e51b815260206004820152602060248201527f4f776e61626c653a2063616c6c6572206973206e6f7420746865206f776e65726044820152fd5b634e487b7160e01b600052601160045260246000fd5b60405162461bcd60e51b815260206004820152601d60248201527f526563697069656e74206973206e6f74204b59432076657269666965640000006044820152606490fd5b60405162461bcd60e51b815260206004820152601f60248201527f45524332303a206d696e7420746f20746865207a65726f2061646472657373006044820152606490fd5b01519050388062000504565b600e600090815260008051602062002e848339815191529190601f198416905b8181106200078e5750958360019596971062000774575b505050811b01600e556200051a565b015160001960f88460031b161c1916905538808062000765565b9192602060018192868b0151815501940192016200074e565b600e60005260008051602062002e84833981519152601f830160051c81019160208410620007f5575b601f0160051c01905b818110620007e85750620004e8565b60008155600101620007d9565b9091508190620007d0565b634e487b7160e01b600052602260045260246000fd5b90607f1690620004d4565b634e487b7160e01b600052604160045260246000fd5b0151905038806200049b565b601f19821695600d60005260206000209160005b88811062000897575083600195969798106200087d575b505050811b01600d55620004b1565b015160001960f88460031b161c191690553880806200086e565b9192602060018192868501518155019401920162000857565b600d6000527fd7b6990105719101dabeb77144f2a3385c8033acd3af97e9423a695e81ad1eb5601f830160051c810191602084106200090f575b601f0160051c01905b8181106200090257506200047c565b60008155600101620008f3565b9091508190620008ea565b90607f169062000468565b01519050388062000429565b600a6000908152935060008051602062002ea483398151915291905b601f198416851062000993576001945083601f1981161062000979575b505050811b01600a556200043f565b015160001960f88460031b161c191690553880806200096a565b818101518355602094850194600190930192909101906200094d565b600a60005290915060008051602062002ea4833981519152601f840160051c81016020851062000a08575b90849392915b601f830160051c82018110620009f857505062000410565b60008155859450600101620009e0565b5080620009da565b91607f1691620003fa565b015190503880620003bf565b60096000908152935060008051602062002f0483398151915291905b601f198416851062000a89576001945083601f1981161062000a6f575b505050811b01600955620003d5565b015160001960f88460031b161c1916905538808062000a60565b8181015183556020948501946001909301929091019062000a43565b600960005290915060008051602062002f04833981519152601f840160051c81016020851062000afe575b90849392915b601f830160051c8201811062000aee575050620003a6565b6000815585945060010162000ad6565b508062000ad0565b91607f169162000390565b01519050388062000355565b60076000908152935060008051602062002ec483398151915291905b601f198416851062000b7f576001945083601f1981161062000b65575b505050811b016007556200036b565b015160001960f88460031b161c1916905538808062000b56565b8181015183556020948501946001909301929091019062000b39565b600760005290915060008051602062002ec4833981519152601f840160051c81016020851062000bf4575b90849392915b601f830160051c8201811062000be45750506200033c565b6000815585945060010162000bcc565b508062000bc6565b91607f169162000326565b015190503880620002eb565b60066000908152935060008051602062002f2483398151915291905b601f198416851062000c75576001945083601f1981161062000c5b575b505050811b0160065562000301565b015160001960f88460031b161c1916905538808062000c4c565b8181015183556020948501946001909301929091019062000c2f565b600660005290915060008051602062002f24833981519152601f840160051c81016020851062000cea575b90849392915b601f830160051c8201811062000cda575050620002d2565b6000815585945060010162000cc2565b508062000cbc565b91607f1691620002bc565b01519050388062000281565b60086000908152935060008051602062002ee483398151915291905b601f198416851062000d6b576001945083601f1981161062000d51575b505050811b0160085562000297565b015160001960f88460031b161c1916905538808062000d42565b8181015183556020948501946001909301929091019062000d25565b600860005290915060008051602062002ee4833981519152601f840160051c81016020851062000de0575b90849392915b601f830160051c8201811062000dd057505062000268565b6000815585945060010162000db8565b508062000db2565b91607f169162000252565b90508301513862000200565b6004600090815292507f8a35acfbc15ff81a39ae7d344fd709f28e8600b4aa8c65c6b64bfe7fe36bd19b905b601f198316841062000e70576001935082601f1981161062000e56575b5050811b0160045562000215565b85015160001960f88460031b161c19169055388062000e48565b8581015182556020938401936001909201910162000e2b565b60046000527f8a35acfbc15ff81a39ae7d344fd709f28e8600b4aa8c65c6b64bfe7fe36bd19b601f830160051c81016020841062000ee7575b601f830160051c8201811062000eda575050620001e7565b6000815560010162000ec2565b508062000ec2565b90607f1690620001d3565b9050820151386200019b565b6003600090815292507fc2575a0e9e593c00f959f8c92f12db2869c3395a3b0502d05e2516446f71f85b905b601f198316841062000f77576001935082601f1981161062000f5d575b5050811b01600355620001b0565b84015160001960f88460031b161c19169055388062000f4f565b8481015182556020938401936001909201910162000f32565b60036000527fc2575a0e9e593c00f959f8c92f12db2869c3395a3b0502d05e2516446f71f85b601f830160051c81016020841062000fee575b601f830160051c8201811062000fe157505062000182565b6000815560010162000fc9565b508062000fc9565b90607f16906200016e565b600080fd5b6040519190601f01601f191682016001600160401b038111838210176200082157604052565b919080601f84011215620010015782516001600160401b038111620008215760209062001062601f8201601f1916830162001006565b92818452828287010111620010015760005b8181106200108a57508260009394955001015290565b858101830151848201840152820162001074565b600580546001600160a01b039283166001600160a01b0319821681179092559091167f8be0079c531659141344cd1fd0a4f28419497f9722a3daafe3b4186f6b6457e0600080a3565b6000818152601260205260408120546200118257601154680100000000000000008110156200116e5760018101806011558110156200115a577f31ecc21a745e3968a04e9570e4425bc18fa8019c68028196b546d1669c200c680182905560115491815260126020526040902055600190565b634e487b7160e01b82526032600452602482fd5b634e487b7160e01b82526041600452602482fd5b90509056fe608060408181526004918236101561001657600080fd5b600092833560e01c91826306fdde03146114e75750816308aa62c41461143d578163095ea7b31461141357816318160ddd146113f45781631ec7e345146113d557816323b872dd1461130b57816326b9ce13146112a85781632a62807a146111fe578163313ce567146111e2578163395093511461117b5781633fe3347a146110d1578163428c2e13146110275781636c02a93114610f7d57816370a0823114610f46578163715018a614610ee95781637b61c32014610e3f5781638da5cb5b14610e1657816395d89b4114610d41578163960524e314610d22578163a3f569ae14610c82578163a457c2d714610bdd578163a5410a6614610b9f578163a9059cbb14610b6e578163bba91ff014610a0d578163bef97c87146109e9578163d0a2f2c4146108f5578163d59624b41461080c578163db2a45701461033f578163dd62ed3e146102f6578163f2fde38b14610226578163f6450293146101a6575063f86c118b1461018557600080fd5b346101a257816003193601126101a257602090600c549051908152f35b5080fd5b9050823461022357602036600319011261022357508035906011548210156101ea576020836101d484611ac0565b905491519160018060a01b039160031b1c168152f35b606490602084519162461bcd60e51b83528201526013602482015272496e646578206f7574206f6620626f756e647360681b6044820152fd5b80fd5b9050346102f25760203660031901126102f257610241611641565b9061024a6116fa565b6001600160a01b039182169283156102a0575050600554826bffffffffffffffffffffffff60a01b821617600555167f8be0079c531659141344cd1fd0a4f28419497f9722a3daafe3b4186f6b6457e08380a380f35b906020608492519162461bcd60e51b8352820152602660248201527f4f776e61626c653a206e6577206f776e657220697320746865207a65726f206160448201526564647265737360d01b6064820152fd5b8280fd5b5050346101a257806003193601126101a25780602092610314611641565b61031c61165c565b6001600160a01b0391821683526001865283832091168252845220549051908152f35b8383346101a25760603660031901126101a25767ffffffffffffffff9083358281116108085761037290369086016116a3565b916024358181116108045761038a90369087016116a3565b604435828111610800576103a190369088016116a3565b916103aa6116fa565b845196818811610600576103bf6008546115cf565b97601f988981116107a0575b508060208a821160011461071d578991610712575b508160011b916000199060031b1c1916176008555b82518281116106ff576104096006546115cf565b89811161069f575b508060208a821160011461061e578991610613575b508160011b916000199060031b1c1916176006555b835191821161060057506104506007546115cf565b8781116105a0575b5060209681116001146104f257916104d46104c6959492846104e195899a7f61b45807b5528344b8b2c26433a3aabead6c9dc6239e146e7ba7c812fded07d09a916104e7575b508160011b916000199060031b1c1916176007555b835196879660608852606088019061158f565b90868203602088015261158f565b918483039085015261158f565b0390a180f35b90508401518b61049e565b600786527fa66cc928b5edb82af9bd49922954155ab7b0942694bea4ce44661d9a8736c688601f198216875b8181106105885750926001836104d4937f61b45807b5528344b8b2c26433a3aabead6c9dc6239e146e7ba7c812fded07d09a9b6104e198966104c69b9a981061056f575b5050811b016007556104b3565b86015160001960f88460031b161c191690558b80610562565b858a015183556020998a01996001909301920161051e565b600787527fa66cc928b5edb82af9bd49922954155ab7b0942694bea4ce44661d9a8736c6888880840160051c820192602085106105f7575b0160051c01905b8181106105ec5750610458565b8781556001016105df565b925081926105d8565b634e487b7160e01b875260419052602486fd5b90508401518a610426565b60068a527ff652222313e28459528d920b65115c16c04f3efc82aaedc97be59f3f377c0d3f9150601f1983168a5b8181106106875750908360019493921061066e575b5050811b0160065561043b565b86015160001960f88460031b161c191690558a80610661565b9192602060018192868b01518155019401920161064c565b600689527ff652222313e28459528d920b65115c16c04f3efc82aaedc97be59f3f377c0d3f8a80840160051c820192602085106106f6575b0160051c01905b8181106106eb5750610411565b8981556001016106de565b925081926106d7565b634e487b7160e01b885260418252602488fd5b90508701518a6103e0565b60088a527ff3f7a9fe364faab93b216da50a3214154f22a0a2b415b23a84c8169e8b636ee39150601f1983168a5b8a828210610788575050908360019493921061076f575b5050811b016008556103f5565b89015160001960f88460031b161c191690558a80610762565b6001849560209395849301518155019401920161074b565b600889527ff3f7a9fe364faab93b216da50a3214154f22a0a2b415b23a84c8169e8b636ee38a80840160051c820192602085106107f7575b0160051c01905b8181106107ec57506103cb565b8981556001016107df565b925081926107d8565b8580fd5b8480fd5b8380fd5b5050346101a257816003193601126101a25780519082600e5461082e816115cf565b808552916001918083169081156108cd5750600114610870575b50505061085a8261086c940383611609565b5191829160208352602083019061158f565b0390f35b9450600e85527fbb7b4a454dc3493923482f07822329ed19e8244eff582cc204f8554c3620c3fd5b8286106108b55750505061085a82602061086c9582010194610848565b80546020878701810191909152909501948101610898565b61086c97508693506020925061085a94915060ff191682840152151560051b82010194610848565b9050823461022357806003193601126102235791906011549261091784611cae565b61092384519182611609565b84815261092f85611cae565b6020958287019491601f1901368637835b81811061098e5750505083519485948186019282875251809352850193925b82811061096e57505050500390f35b83516001600160a01b03168552869550938101939281019260010161095f565b61099d81989594969798611ac0565b905487518310156109d65760039190911b1c6001600160a01b0316600582901b87018601526109cb90611c79565b969594929396610940565b634e487b7160e01b865260328552602486fd5b5050346101a257816003193601126101a25760209060ff6010541690519015158152f35b9050346102f257816003193601126102f25767ffffffffffffffff91813583811161080457610a3f9036908401611672565b909360243590811161080057610a589036908501611672565b919093610a636116fa565b828203610b325750855b818110610a78578680f35b610a83818388611c9e565b356001600160a01b0381169190829003610b2e57610aa2818588611c9e565b3591821515928984820361022357610b1a947f3a620c3544f4661f38b303e51ff3c4cc552da5a80ec55d4e3875af78775e1a8292610ade6116fa565b848352610aff818b602095600f8752209060ff801983541691151516179055565b15610b1f57610b0d84611b0d565b505b8851908152a2611c79565b610a6d565b610b2884611b8f565b50610b0f565b8780fd5b606490602085519162461bcd60e51b83528201526016602482015275082e4e4c2f2e640d8cadccee8d040dad2e6dac2e8c6d60531b6044820152fd5b5050346101a257806003193601126101a257602090610b98610b8e611641565b6024359033611752565b5160018152f35b5050346101a25760203660031901126101a25760209160ff9082906001600160a01b03610bca611641565b168152600f855220541690519015158152f35b90508234610223578260031936011261022357610bf8611641565b918360243592338152600160205281812060018060a01b0386168252602052205490828210610c3157602085610b9885850387336119be565b608490602086519162461bcd60e51b8352820152602560248201527f45524332303a2064656372656173656420616c6c6f77616e63652062656c6f77604482015264207a65726f60d81b6064820152fd5b5050346101a257806003193601126101a257610c9c611641565b9060243591821515808403610804577f3a620c3544f4661f38b303e51ff3c4cc552da5a80ec55d4e3875af78775e1a8292602092610cd86116fa565b6001600160a01b0316808752600f8452818720805460ff191660ff881515161790559415610d1357610d0985611b0d565b505b51908152a280f35b610d1c85611b8f565b50610d0b565b5050346101a257816003193601126101a2576020906011549051908152f35b919050346102f257826003193601126102f25780519183815490610d64826115cf565b80865292600192808416908115610deb5750600114610d8f575b61086c868661085a828b0383611609565b815294507f8a35acfbc15ff81a39ae7d344fd709f28e8600b4aa8c65c6b64bfe7fe36bd19b5b828610610dd35750505061085a82602061086c958201019438610d7e565b80546020878701810191909152909501948101610db5565b905061086c97508693506020925061085a94915060ff191682840152151560051b8201019438610d7e565b5050346101a257816003193601126101a25760055490516001600160a01b039091168152602090f35b5050346101a257816003193601126101a25780519082600654610e61816115cf565b808552916001918083169081156108cd5750600114610e8c5750505061085a8261086c940383611609565b9450600685527ff652222313e28459528d920b65115c16c04f3efc82aaedc97be59f3f377c0d3f5b828610610ed15750505061085a82602061086c9582010194610848565b80546020878701810191909152909501948101610eb4565b8334610223578060031936011261022357610f026116fa565b600580546001600160a01b0319811690915581906001600160a01b03167f8be0079c531659141344cd1fd0a4f28419497f9722a3daafe3b4186f6b6457e08280a380f35b5050346101a25760203660031901126101a25760209181906001600160a01b03610f6e611641565b16815280845220549051908152f35b5050346101a257816003193601126101a25780519082600854610f9f816115cf565b808552916001918083169081156108cd5750600114610fca5750505061085a8261086c940383611609565b9450600885527ff3f7a9fe364faab93b216da50a3214154f22a0a2b415b23a84c8169e8b636ee35b82861061100f5750505061085a82602061086c9582010194610848565b80546020878701810191909152909501948101610ff2565b5050346101a257816003193601126101a25780519082600754611049816115cf565b808552916001918083169081156108cd57506001146110745750505061085a8261086c940383611609565b9450600785527fa66cc928b5edb82af9bd49922954155ab7b0942694bea4ce44661d9a8736c6885b8286106110b95750505061085a82602061086c9582010194610848565b8054602087870181019190915290950194810161109c565b5050346101a257816003193601126101a25780519082600a546110f3816115cf565b808552916001918083169081156108cd575060011461111e5750505061085a8261086c940383611609565b9450600a85527fc65a7bb8d6351c1cf70c95a316cc6a92839c986682d98bc35f958f4883f9d2a85b8286106111635750505061085a82602061086c9582010194610848565b80546020878701810191909152909501948101611146565b828434610223578160031936011261022357611195611641565b338252600160209081528383206001600160a01b03831684529052828220546024358101929083106111cf57602084610b988585336119be565b634e487b7160e01b815260118552602490fd5b5050346101a257816003193601126101a2576020905160128152f35b5050346101a257816003193601126101a25780519082600d54611220816115cf565b808552916001918083169081156108cd575060011461124b5750505061085a8261086c940383611609565b9450600d85527fd7b6990105719101dabeb77144f2a3385c8033acd3af97e9423a695e81ad1eb55b8286106112905750505061085a82602061086c9582010194610848565b80546020878701810191909152909501948101611273565b9050346102f25760203660031901126102f25735908115158092036102f2577f3f0522fb4345c29729658df56a8b87c4360593a277942cc15cdf041866058690916020916112f46116fa565b60ff196010541660ff83161760105551908152a180f35b839150346101a25760603660031901126101a257611327611641565b61132f61165c565b91846044359460018060a01b038416815260016020528181203382526020522054906000198203611369575b602086610b98878787611752565b848210611392575091839161138760209695610b98950333836119be565b91939481935061135b565b606490602087519162461bcd60e51b8352820152601d60248201527f45524332303a20696e73756666696369656e7420616c6c6f77616e63650000006044820152fd5b5050346101a257816003193601126101a257602090600b549051908152f35b5050346101a257816003193601126101a2576020906002549051908152f35b5050346101a257806003193601126101a257602090610b98611433611641565b60243590336119be565b5050346101a257816003193601126101a2578051908260095461145f816115cf565b808552916001918083169081156108cd575060011461148a5750505061085a8261086c940383611609565b9450600985527f6e1540171b6c0c960b71a7020d9f60077f6af931a8bbf590da0223dacf75c7af5b8286106114cf5750505061085a82602061086c9582010194610848565b805460208787018101919091529095019481016114b2565b849084346102f257826003193601126102f25782600354611507816115cf565b808552916001918083169081156108cd57506001146115325750505061085a8261086c940383611609565b9450600385527fc2575a0e9e593c00f959f8c92f12db2869c3395a3b0502d05e2516446f71f85b5b8286106115775750505061085a82602061086c9582010194610848565b8054602087870181019190915290950194810161155a565b919082519283825260005b8481106115bb575050826000602080949584010152601f8019910116010190565b60208183018101518483018201520161159a565b90600182811c921680156115ff575b60208310146115e957565b634e487b7160e01b600052602260045260246000fd5b91607f16916115de565b90601f8019910116810190811067ffffffffffffffff82111761162b57604052565b634e487b7160e01b600052604160045260246000fd5b600435906001600160a01b038216820361165757565b600080fd5b602435906001600160a01b038216820361165757565b9181601f840112156116575782359167ffffffffffffffff8311611657576020808501948460051b01011161165757565b81601f820112156116575780359067ffffffffffffffff821161162b57604051926116d8601f8401601f191660200185611609565b8284526020838301011161165757816000926020809301838601378301015290565b6005546001600160a01b0316330361170e57565b606460405162461bcd60e51b815260206004820152602060248201527f4f776e61626c653a2063616c6c6572206973206e6f7420746865206f776e65726044820152fd5b6001600160a01b0390811691821561196b571691821561191a5760ff60105416156118d657600090828252602091600f835260409060ff82822054161561189257858152600f845260ff82822054161561184e57848152808452818120548381106117fb579181847fddf252ad1be2c89b69c2b068fc378daa952ba7f163c4a11628f55a4df523b3ef9695948884955282875203828220558781522082815401905551908152a3565b825162461bcd60e51b815260048101869052602660248201527f45524332303a207472616e7366657220616d6f756e7420657863656564732062604482015265616c616e636560d01b6064820152608490fd5b815162461bcd60e51b815260048101859052601d60248201527f526563697069656e74206973206e6f74204b59432076657269666965640000006044820152606490fd5b815162461bcd60e51b815260048101859052601a60248201527f53656e646572206973206e6f74204b59432076657269666965640000000000006044820152606490fd5b606460405162461bcd60e51b815260206004820152602060248201527f5472616e7366657273206172652063757272656e746c792064697361626c65646044820152fd5b60405162461bcd60e51b815260206004820152602360248201527f45524332303a207472616e7366657220746f20746865207a65726f206164647260448201526265737360e81b6064820152608490fd5b60405162461bcd60e51b815260206004820152602560248201527f45524332303a207472616e736665722066726f6d20746865207a65726f206164604482015264647265737360d81b6064820152608490fd5b6001600160a01b03908116918215611a6f5716918215611a1f5760207f8c5be1e5ebec7d5bd14f71427d1e84f3dd0314c0f7b2291e5b200ac8c7c3b925918360005260018252604060002085600052825280604060002055604051908152a3565b60405162461bcd60e51b815260206004820152602260248201527f45524332303a20617070726f766520746f20746865207a65726f206164647265604482015261737360f01b6064820152608490fd5b60405162461bcd60e51b8152602060048201526024808201527f45524332303a20617070726f76652066726f6d20746865207a65726f206164646044820152637265737360e01b6064820152608490fd5b601154811015611af75760116000527f31ecc21a745e3968a04e9570e4425bc18fa8019c68028196b546d1669c200c680190600090565b634e487b7160e01b600052603260045260246000fd5b600081815260126020526040812054611b8a5760115468010000000000000000811015611b76579082611b62611b4b84600160409601601155611ac0565b819391549060031b91821b91600019901b19161790565b905560115492815260126020522055600190565b634e487b7160e01b82526041600452602482fd5b905090565b6000818152601260205260408120549091908015611c745760001990808201818111611c605760115490838201918211611c4c57808203611c18575b5050506011548015611c0457810190611be382611ac0565b909182549160031b1b19169055601155815260126020526040812055600190565b634e487b7160e01b84526031600452602484fd5b611c36611c27611b4b93611ac0565b90549060031b1c928392611ac0565b9055845260126020526040842055388080611bcb565b634e487b7160e01b86526011600452602486fd5b634e487b7160e01b85526011600452602485fd5b505090565b6000198114611c885760010190565b634e487b7160e01b600052601160045260246000fd5b9190811015611af75760051b0190565b67ffffffffffffffff811161162b5760051b6020019056fea2646970667358221220864a5446e28f5bbc263674f159f68675d16b48206cde286d2e15b133a23cba4764736f6c63430008130033bb7b4a454dc3493923482f07822329ed19e8244eff582cc204f8554c3620c3fdc65a7bb8d6351c1cf70c95a316cc6a92839c986682d98bc35f958f4883f9d2a8a66cc928b5edb82af9bd49922954155ab7b0942694bea4ce44661d9a8736c688f3f7a9fe364faab93b216da50a3214154f22a0a2b415b23a84c8169e8b636ee36e1540171b6c0c960b71a7020d9f60077f6af931a8bbf590da0223dacf75c7aff652222313e28459528d920b65115c16c04f3efc82aaedc97be59f3f377c0d3fa264697066735822122010a82eec7954c7761d4d1477879b7c1284f172eefd92e4aaa1c49ef7aefe62ff64736f6c63430008130033",
  "linkReferences": {},
  "deployedLinkReferences": {}
}