{
  "_format": "hh-sol-artifact-1",
  "contractName": "CeloStakingPool",
  "sourceName": "contracts/CeloStakingPool.sol",
  "abi": [
    {
      "inputs": [
        {
          "internalType": "address",
          "name": "_stakingToken",
          "type": "address"
        }
      ],
      "stateMutability": "nonpayable",
      "type": "constructor"
    },
    {
      "anonymous": false,
      "inputs": [
        {
          "indexed": true,
          "internalType": "address",
          "name": "previousOwner",
          "type": "address"
        },
        {
          "indexed": true,
          "internalType": "address",
          "name": "newOwner",
          "type": "address"
        }
      ],
      "name": "OwnershipTransferred",
      "type": "event"
    },
    {
      "anonymous": false,
      "inputs": [
        {
          "indexed": true,
          "internalType": "address",
          "name": "by",
          "type": "address"
        }
      ],
      "name": "Paused",
      "type": "event"
    },
    {
      "anonymous": false,
      "inputs": [
        {
          "indexed": true,
          "internalType": "address",
          "name": "user",
          "type": "address"
        },
        {
          "indexed": false,
          "internalType": "uint256",
          "name": "reward",
          "type": "uint256"
        }
      ],
      "name": "RewardPaid",
      "type": "event"
    },
    {
      "anonymous": false,
      "inputs": [
        {
          "indexed": true,
          "internalType": "address",
          "name": "user",
          "type": "address"
        },
        {
          "indexed": false,
          "internalType": "uint256",
          "name": "amount",
          "type": "uint256"
        }
      ],
      "name": "Staked",
      "type": "event"
    },
    {
      "anonymous": false,
      "inputs": [
        {
          "indexed": true,
          "internalType": "address",
          "name": "by",
          "type": "address"
        }
      ],
      "name": "Unpaused",
      "type": "event"
    },
    {
      "anonymous": false,
      "inputs": [
        {
          "indexed": true,
          "internalType": "address",
          "name": "user",
          "type": "address"
        },
        {
          "indexed": false,
          "internalType": "uint256",
          "name": "amount",
          "type": "uint256"
        }
      ],
      "name": "Withdrawn",
      "type": "event"
    },
    {
      "inputs": [
        {
          "internalType": "address",
          "name": "account",
          "type": "address"
        }
      ],
      "name": "balanceOf",
      "outputs": [
        {
          "internalType": "uint256",
          "name": "",
          "type": "uint256"
        }
      ],
      "stateMutability": "view",
      "type": "function"
    },
    {
      "inputs": [
        {
          "internalType": "address",
          "name": "account",
          "type": "address"
        }
      ],
      "name": "earned",
      "outputs": [
        {
          "internalType": "uint256",
          "name": "",
          "type": "uint256"
        }
      ],
      "stateMutability": "view",
      "type": "function"
    },
    {
      "inputs": [],
      "name": "emergencyWithdraw",
      "outputs": [],
      "stateMutability": "nonpayable",
      "type": "function"
    },
    {
      "inputs": [
        {
          "internalType": "uint256",
          "name": "amount",
          "type": "uint256"
        }
      ],
      "name": "fundRewards",
      "outputs": [],
      "stateMutability": "nonpayable",
      "type": "function"
    },
    {
      "inputs": [],
      "name": "getReward",
      "outputs": [],
      "stateMutability": "nonpayable",
      "type": "function"
    },
    {
      "inputs": [],
      "name": "lastUpdateTime",
      "outputs": [
        {
          "internalType": "uint256",
          "name": "",
          "type": "uint256"
        }
      ],
      "stateMutability": "view",
      "type": "function"
    },
    {
      "inputs": [],
      "name": "lockPeriod",
      "outputs": [
        {
          "internalType": "uint256",
          "name": "",
          "type": "uint256"
        }
      ],
      "stateMutability": "view",
      "type": "function"
    },
    {
      "inputs": [],
      "name": "owner",
      "outputs": [
        {
          "internalType": "address",
          "name": "",
          "type": "address"
        }
      ],
      "stateMutability": "view",
      "type": "function"
    },
    {
      "inputs": [],
      "name": "pause",
      "outputs": [],
      "stateMutability": "nonpayable",
      "type": "function"
    },
    {
      "inputs": [],
      "name": "paused",
      "outputs": [
        {
          "internalType": "bool",
          "name": "",
          "type": "bool"
        }
      ],
      "stateMutability": "view",
      "type": "function"
    },
    {
      "inputs": [],
      "name": "renounceOwnership",
      "outputs": [],
      "stateMutability": "nonpayable",
      "type": "function"
    },
    {
      "inputs": [],
      "name": "rewardPerToken",
      "outputs": [
        {
          "internalType": "uint256",
          "name": "",
          "type": "uint256"
        }
      ],
      "stateMutability": "view",
      "type": "function"
    },
    {
      "inputs": [],
      "name": "rewardPerTokenStored",
      "outputs": [
        {
          "internalType": "uint256",
          "name": "",
          "type": "uint256"
        }
      ],
      "stateMutability": "view",
      "type": "function"
    },
    {
      "inputs": [],
      "name": "rewardRate",
      "outputs": [
        {
          "internalType": "uint256",
          "name": "",
          "type": "uint256"
        }
      ],
      "stateMutability": "view",
      "type": "function"
    },
    {
      "inputs": [
        {
          "internalType": "address",
          "name": "",
          "type": "address"
        }
      ],
      "name": "rewards",
      "outputs": [
        {
          "internalType": "uint256",
          "name": "",
          "type": "uint256"
        }
      ],
      "stateMutability": "view",
      "type": "function"
    },
    {
      "inputs": [
        {
          "internalType": "uint256",
          "name": "_lockPeriod",
          "type": "uint256"
        }
      ],
      "name": "setLockPeriod",
      "outputs": [],
      "stateMutability": "nonpayable",
      "type": "function"
    },
    {
      "inputs": [
        {
          "internalType": "uint256",
          "name": "_rewardRate",
          "type": "uint256"
        }
      ],
      "name": "setRewardRate",
      "outputs": [],
      "stateMutability": "nonpayable",
      "type": "function"
    },
    {
      "inputs": [
        {
          "internalType": "uint256",
          "name": "amount",
          "type": "uint256"
        }
      ],
      "name": "stake",
      "outputs": [],
      "stateMutability": "nonpayable",
      "type": "function"
    },
    {
      "inputs": [
        {
          "internalType": "address",
          "name": "",
          "type": "address"
        }
      ],
      "name": "stakingTime",
      "outputs": [
        {
          "internalType": "uint256",
          "name": "",
          "type": "uint256"
        }
      ],
      "stateMutability": "view",
      "type": "function"
    },
    {
      "inputs": [],
      "name": "stakingToken",
      "outputs": [
        {
          "internalType": "contract IERC20",
          "name": "",
          "type": "address"
        }
      ],
      "stateMutability": "view",
      "type": "function"
    },
    {
      "inputs": [],
      "name": "totalSupply",
      "outputs": [
        {
          "internalType": "uint256",
          "name": "",
          "type": "uint256"
        }
      ],
      "stateMutability": "view",
      "type": "function"
    },
    {
      "inputs": [
        {
          "internalType": "address",
          "name": "newOwner",
          "type": "address"
        }
      ],
      "name": "transferOwnership",
      "outputs": [],
      "stateMutability": "nonpayable",
      "type": "function"
    },
    {
      "inputs": [],
      "name": "unpause",
      "outputs": [],
      "stateMutability": "nonpayable",
      "type": "function"
    },
    {
      "inputs": [
        {
          "internalType": "address",
          "name": "",
          "type": "address"
        }
      ],
      "name": "userRewardPerTokenPaid",
      "outputs": [
        {
          "internalType": "uint256",
          "name": "",
          "type": "uint256"
        }
      ],
      "stateMutability": "view",
      "type": "function"
    },
    {
      "inputs": [
        {
          "internalType": "uint256",
          "name": "amount",
          "type": "uint256"
        }
      ],
      "name": "withdraw",
      "outputs": [],
      "stateMutability": "nonpayable",
      "type": "function"
    }
  ],
  "bytecode": "0x6080346100cc57601f610fe638819003918201601f19168301916001600160401b038311848410176100d1578084926020946040528339810103126100cc57516001600160a01b0390818116908190036100cc57600160005560015460018060a01b0319903382821617600155604051933391167f8be0079c531659141344cd1fd0a4f28419497f9722a3daafe3b4186f6b6457e0600080a366038d7ea4c6800060035562015180600a5560ff19600c5416600c55600254161760025542600455610efe90816100e88239f35b600080fd5b634e487b7160e01b600052604160045260246000fdfe60406080815260048036101561001457600080fd5b600091823560e01c80628cc26214610c635780630700037d14610c2957806318160ddd14610c0a5780632e1a7d4d14610a175780633d18b912146109155780633f4ba83a146108ca5780633fd8b02f146108ab578063583d42fd146108715780635c975abb1461084d57806370a0823114610813578063715018a6146107b657806372f702f31461078d578063779972da1461076b5780637b0a47ee1461074c5780638456cb59146106fb5780638b876347146106c15780638da5cb5b1461069857806393707a19146105c25780639e447fc614610592578063a694fc3a146103d1578063c8f33c91146103b3578063cd3daf9d1461038f578063db2e21bc1461022a578063df136d65146102075763f2fde38b1461013257600080fd5b34610203576020366003190112610203576001600160a01b038235818116939192908490036101ff57610163610c94565b83156101ad575050600154826bffffffffffffffffffffffff60a01b821617600155167f8be0079c531659141344cd1fd0a4f28419497f9722a3daafe3b4186f6b6457e08380a380f35b906020608492519162461bcd60e51b8352820152602660248201527f4f776e61626c653a206e6577206f776e657220697320746865207a65726f206160448201526564647265737360d01b6064820152fd5b8480fd5b8280fd5b8382346102265781600319360112610226576020906005549051908152f35b5080fd5b509034610203578260031936011261020357610244610c94565b60025482516370a0823160e01b8152308184015260209290916001600160a01b0390811691908484602481865afa938415610385578794610352575b50831561031757600154865163a9059cbb60e01b815291166001600160a01b031691810191825260208201939093528391839182908890829060400103925af191821561030a576102da935084926102dd575b5050610e34565b80f35b6102fc9250803d10610303575b6102f48183610ddf565b810190610e17565b38806102d3565b503d6102ea565b50505051903d90823e3d90fd5b855162461bcd60e51b815280830186905260156024820152744e6f20746f6b656e7320746f20776974686472617760581b6044820152606490fd5b9093508481813d831161037e575b61036a8183610ddf565b8101031261037a57519238610280565b8680fd5b503d610360565b86513d89823e3d90fd5b8382346102265781600319360112610226576020906103ac610d2f565b9051908152f35b50903461020357826003193601126102035760209250549051908152f35b5090346102035760208060031936011261058e578135916103f0610e72565b6103f8610d2f565b6005554281553361056a575b60ff600c541661053457821561050257818361048d9261042682600854610d22565b6008553388526009835286882061043e838254610d22565b905533808952600b845287892042905560025488516323b872dd60e01b81529283019182523060208301526040820193909352909384926001600160a01b03169183918a918391606090910190565b03925af19081156104f8577f9e71bc8eea02a63969f509818f2dafb9254532904319f9dbda79b67bd34a5f3d9394916104cd9187916104db575b50610e34565b519283523392a26001815580f35b6104f29150843d8611610303576102f48183610ddf565b386104c7565b84513d87823e3d90fd5b60649184519162461bcd60e51b8352820152600e60248201526d043616e6e6f74207374616b6520360941b6044820152fd5b60649184519162461bcd60e51b8352820152601260248201527110dbdb9d1c9858dd081a5cc81c185d5cd95960721b6044820152fd5b61057333610d83565b33865260078352848620556005546006835284862055610404565b8380fd5b505034610226576020366003190112610226576105ad610c94565b6105b5610d2f565b6005554281553560035580f35b509034610203576020366003190112610203578035906105e0610c94565b81156106655760025483516323b872dd60e01b815233928101928352306020848101919091526040840194909452929183916001600160a01b03169082908790829060600103925af1908115610659576102da925083916106415750610e34565b6104f2915060203d8111610303576102f48183610ddf565b505051903d90823e3d90fd5b606490602084519162461bcd60e51b8352820152600d60248201526c043616e6e6f742066756e64203609c1b6044820152fd5b83823461022657816003193601126102265760015490516001600160a01b039091168152602090f35b50903461020357602036600319011261020357356001600160a01b0381169081900361020357828291602094526006845220549051908152f35b8334610749578060031936011261074957610714610c94565b600160ff19600c541617600c55337f62e78cea01bee320cd4e420270b5ea74000d11b0c9f74754ebdbfc544b05a2588280a280f35b80fd5b8382346102265781600319360112610226576020906003549051908152f35b50503461022657602036600319011261022657610786610c94565b35600a5580f35b83823461022657816003193601126102265760025490516001600160a01b039091168152602090f35b83346107495780600319360112610749576107cf610c94565b600180546001600160a01b0319811690915581906001600160a01b03167f8be0079c531659141344cd1fd0a4f28419497f9722a3daafe3b4186f6b6457e08280a380f35b50903461020357602036600319011261020357356001600160a01b0381169081900361020357828291602094526009845220549051908152f35b83823461022657816003193601126102265760209060ff600c541690519015158152f35b50903461020357602036600319011261020357356001600160a01b038116908190036102035782829160209452600b845220549051908152f35b838234610226578160031936011261022657602090600a549051908152f35b83346107495780600319360112610749576108e3610c94565b60ff19600c5416600c55337f5db9ee0a495bf2e6ff9c91a7834c1ba4fdd244a5e8aa4e537bd38aeae4b073aa8280a280f35b503461020357826003193601126102035761092e610e72565b610936610d2f565b600555428255336109f1575b3383526007602052808320918383549384610960575b506001815580f35b55600254825163a9059cbb60e01b815233928101928352602080840186905290929091839182900360400190829088906001600160a01b03165af19081156109e757906109b39185916106415750610e34565b519081527fe2403640ba68fed3a2f88b7557551d1993f84b99bb10ff833f0cf8db0c5e048660203392a23880808381610958565b82513d86823e3d90fd5b6109fa33610d83565b338452600760205281842055600554600660205281842055610942565b5090346102035760208060031936011261058e57813591610a36610e72565b610a3e610d2f565b60055542815533610be6575b8215610bb15733855260098252828486205410610b7057818360ff600c541615610b12575b610ad392610a7f82600854610cec565b60085533885260098352868820610a97838254610cec565b9055600254875163a9059cbb60e01b8152339281019283526020830193909352919384926001600160a01b03169183918a918391604090910190565b03925af19081156104f8577f7084f5476618d8e60b11ef0d7d3f06914655adb8793e28ff7f018d4c76d505d59394916104cd9187916104db5750610e34565b5050338552600b8252610b2b84862054600a5490610d22565b4210610b38578183610a6f565b60649184519162461bcd60e51b8352820152601460248201527314dd1a5b1b081a5b881b1bd8dac81c195c9a5bd960621b6044820152fd5b60649184519162461bcd60e51b8352820152601860248201527f4e6f7420656e6f756768207374616b656420746f6b656e7300000000000000006044820152fd5b60649184519162461bcd60e51b83528201526011602482015270043616e6e6f74207769746864726177203607c1b6044820152fd5b610bef33610d83565b33865260078352848620556005546006835284862055610a4a565b8382346102265781600319360112610226576020906008549051908152f35b50903461020357602036600319011261020357356001600160a01b0381169081900361020357828291602094526007845220549051908152f35b5090346102035760203660031901126102035735916001600160a01b038316830361074957506103ac602092610d83565b6001546001600160a01b03163303610ca857565b606460405162461bcd60e51b815260206004820152602060248201527f4f776e61626c653a2063616c6c6572206973206e6f7420746865206f776e65726044820152fd5b91908203918211610cf957565b634e487b7160e01b600052601160045260246000fd5b81810292918115918404141715610cf957565b91908201809211610cf957565b6008548015610d7c57600554610d53610d4a60045442610cec565b60035490610d0f565b91670de0b6b3a764000092838102938185041490151715610cf957610d79920490610d22565b90565b5060055490565b610d799060018060a01b0316604060008281526009602052670de0b6b3a7640000610dce83832054610dc8610db6610d2f565b87865260066020528686205490610cec565b90610d0f565b049281526007602052205490610d22565b90601f8019910116810190811067ffffffffffffffff821117610e0157604052565b634e487b7160e01b600052604160045260246000fd5b90816020910312610e2f57518015158103610e2f5790565b600080fd5b15610e3b57565b60405162461bcd60e51b815260206004820152600f60248201526e151c985b9cd9995c8819985a5b1959608a1b6044820152606490fd5b600260005414610e83576002600055565b60405162461bcd60e51b815260206004820152601f60248201527f5265656e7472616e637947756172643a207265656e7472616e742063616c6c006044820152606490fdfea264697066735822122026a3e9face38db27ad3630a22e10282c0910ad35211d5c1ad7ca6d3e30a4684964736f6c63430008130033",
  "linkReferences": {},
  "deployedLinkReferences": {}
}