{
  "_format": "hh-sol-artifact-1",
  "contractName": "PropertyPriceOracle",
  "sourceName": "contracts/PropertyPriceOracle.sol",
  "abi": [
    {
      "inputs": [],
      "stateMutability": "nonpayable",
      "type": "constructor"
    },
    {
      "anonymous": false,
      "inputs": [
        {
          "indexed": true,
          "internalType": "address",
          "name": "previousOwner",
          "type": "address"
        },
        {
          "indexed": true,
          "internalType": "address",
          "name": "newOwner",
          "type": "address"
        }
      ],
      "name": "OwnershipTransferred",
      "type": "event"
    },
    {
      "anonymous": false,
      "inputs": [
        {
          "indexed": true,
          "internalType": "bytes32",
          "name": "locationHash",
          "type": "bytes32"
        },
        {
          "indexed": false,
          "internalType": "string",
          "name": "location",
          "type": "string"
        },
        {
          "indexed": false,
          "internalType": "uint256",
          "name": "price",
          "type": "uint256"
        }
      ],
      "name": "PriceUpdated",
      "type": "event"
    },
    {
      "inputs": [
        {
          "internalType": "string",
          "name": "location",
          "type": "string"
        }
      ],
      "name": "getPropertyPrice",
      "outputs": [
        {
          "internalType": "uint256",
          "name": "",
          "type": "uint256"
        }
      ],
      "stateMutability": "view",
      "type": "function"
    },
    {
      "inputs": [],
      "name": "owner",
      "outputs": [
        {
          "internalType": "address",
          "name": "",
          "type": "address"
        }
      ],
      "stateMutability": "view",
      "type": "function"
    },
    {
      "inputs": [],
      "name": "renounceOwnership",
      "outputs": [],
      "stateMutability": "nonpayable",
      "type": "function"
    },
    {
      "inputs": [
        {
          "internalType": "string[]",
          "name": "locations",
          "type": "string[]"
        },
        {
          "internalType": "uint256[]",
          "name": "prices",
          "type": "uint256[]"
        }
      ],
      "name": "setBatchPropertyPrices",
      "outputs": [],
      "stateMutability": "nonpayable",
      "type": "function"
    },
    {
      "inputs": [
        {
          "internalType": "string",
          "name": "location",
          "type": "string"
        },
        {
          "internalType": "uint256",
          "name": "price",
          "type": "uint256"
        }
      ],
      "name": "setPropertyPrice",
      "outputs": [],
      "stateMutability": "nonpayable",
      "type": "function"
    },
    {
      "inputs": [
        {
          "internalType": "address",
          "name": "newOwner",
          "type": "address"
        }
      ],
      "name": "transferOwnership",
      "outputs": [],
      "stateMutability": "nonpayable",
      "type": "function"
    }
  ],
  "bytecode": "0x608060405234801561001057600080fd5b5061002d61002261003260201b60201c565b61003a60201b60201c565b6100fe565b600033905090565b60008060009054906101000a900473ffffffffffffffffffffffffffffffffffffffff169050816000806101000a81548173ffffffffffffffffffffffffffffffffffffffff021916908373ffffffffffffffffffffffffffffffffffffffff1602179055508173ffffffffffffffffffffffffffffffffffffffff168173ffffffffffffffffffffffffffffffffffffffff167f8be0079c531659141344cd1fd0a4f28419497f9722a3daafe3b4186f6b6457e060405160405180910390a35050565b610dc28061010d6000396000f3fe608060405234801561001057600080fd5b50600436106100625760003560e01c8063369fea7a14610067578063715018a6146100835780638da5cb5b1461008d578063b4e0065c146100ab578063ea87abba146100db578063f2fde38b146100f7575b600080fd5b610081600480360381019061007c91906106d5565b610113565b005b61008b61019d565b005b6100956101b1565b6040516100a29190610772565b60405180910390f35b6100c560048036038101906100c0919061078d565b6101da565b6040516100d291906107e5565b60405180910390f35b6100f560048036038101906100f091906109a9565b610222565b005b610111600480360381019061010c9190610a4d565b610378565b005b61011b6103fb565b60008260405160200161012e9190610aeb565b604051602081830303815290604052805190602001209050816001600083815260200190815260200160002081905550807f5d4cfa8e83d61e06a2c292c83e7551f9080debe4161d4e5847c2f6dab80c471b8484604051610190929190610b4c565b60405180910390a2505050565b6101a56103fb565b6101af6000610479565b565b60008060009054906101000a900473ffffffffffffffffffffffffffffffffffffffff16905090565b600080826040516020016101ee9190610aeb565b6040516020818303038152906040528051906020012090506001600082815260200190815260200160002054915050919050565b61022a6103fb565b805182511461026e576040517f08c379a000000000000000000000000000000000000000000000000000000000815260040161026590610bc8565b60405180910390fd5b60005b825181101561037357600083828151811061028f5761028e610be8565b5b60200260200101516040516020016102a79190610aeb565b6040516020818303038152906040528051906020012090508282815181106102d2576102d1610be8565b5b60200260200101516001600083815260200190815260200160002081905550807f5d4cfa8e83d61e06a2c292c83e7551f9080debe4161d4e5847c2f6dab80c471b85848151811061032657610325610be8565b5b602002602001015185858151811061034157610340610be8565b5b6020026020010151604051610357929190610b4c565b60405180910390a250808061036b90610c46565b915050610271565b505050565b6103806103fb565b600073ffffffffffffffffffffffffffffffffffffffff168173ffffffffffffffffffffffffffffffffffffffff16036103ef576040517f08c379a00000000000000000000000000000000000000000000000000000000081526004016103e690610d00565b60405180910390fd5b6103f881610479565b50565b61040361053d565b73ffffffffffffffffffffffffffffffffffffffff166104216101b1565b73ffffffffffffffffffffffffffffffffffffffff1614610477576040517f08c379a000000000000000000000000000000000000000000000000000000000815260040161046e90610d6c565b60405180910390fd5b565b60008060009054906101000a900473ffffffffffffffffffffffffffffffffffffffff169050816000806101000a81548173ffffffffffffffffffffffffffffffffffffffff021916908373ffffffffffffffffffffffffffffffffffffffff1602179055508173ffffffffffffffffffffffffffffffffffffffff168173ffffffffffffffffffffffffffffffffffffffff167f8be0079c531659141344cd1fd0a4f28419497f9722a3daafe3b4186f6b6457e060405160405180910390a35050565b600033905090565b6000604051905090565b600080fd5b600080fd5b600080fd5b600080fd5b6000601f19601f8301169050919050565b7f4e487b7100000000000000000000000000000000000000000000000000000000600052604160045260246000fd5b6105ac82610563565b810181811067ffffffffffffffff821117156105cb576105ca610574565b5b80604052505050565b60006105de610545565b90506105ea82826105a3565b919050565b600067ffffffffffffffff82111561060a57610609610574565b5b61061382610563565b9050602081019050919050565b82818337600083830152505050565b600061064261063d846105ef565b6105d4565b90508281526020810184848401111561065e5761065d61055e565b5b610669848285610620565b509392505050565b600082601f83011261068657610685610559565b5b813561069684826020860161062f565b91505092915050565b6000819050919050565b6106b28161069f565b81146106bd57600080fd5b50565b6000813590506106cf816106a9565b92915050565b600080604083850312156106ec576106eb61054f565b5b600083013567ffffffffffffffff81111561070a57610709610554565b5b61071685828601610671565b9250506020610727858286016106c0565b9150509250929050565b600073ffffffffffffffffffffffffffffffffffffffff82169050919050565b600061075c82610731565b9050919050565b61076c81610751565b82525050565b60006020820190506107876000830184610763565b92915050565b6000602082840312156107a3576107a261054f565b5b600082013567ffffffffffffffff8111156107c1576107c0610554565b5b6107cd84828501610671565b91505092915050565b6107df8161069f565b82525050565b60006020820190506107fa60008301846107d6565b92915050565b600067ffffffffffffffff82111561081b5761081a610574565b5b602082029050602081019050919050565b600080fd5b600061084461083f84610800565b6105d4565b905080838252602082019050602084028301858111156108675761086661082c565b5b835b818110156108ae57803567ffffffffffffffff81111561088c5761088b610559565b5b8086016108998982610671565b85526020850194505050602081019050610869565b5050509392505050565b600082601f8301126108cd576108cc610559565b5b81356108dd848260208601610831565b91505092915050565b600067ffffffffffffffff82111561090157610900610574565b5b602082029050602081019050919050565b6000610925610920846108e6565b6105d4565b905080838252602082019050602084028301858111156109485761094761082c565b5b835b81811015610971578061095d88826106c0565b84526020840193505060208101905061094a565b5050509392505050565b600082601f8301126109905761098f610559565b5b81356109a0848260208601610912565b91505092915050565b600080604083850312156109c0576109bf61054f565b5b600083013567ffffffffffffffff8111156109de576109dd610554565b5b6109ea858286016108b8565b925050602083013567ffffffffffffffff811115610a0b57610a0a610554565b5b610a178582860161097b565b9150509250929050565b610a2a81610751565b8114610a3557600080fd5b50565b600081359050610a4781610a21565b92915050565b600060208284031215610a6357610a6261054f565b5b6000610a7184828501610a38565b91505092915050565b600081519050919050565b600081905092915050565b60005b83811015610aae578082015181840152602081019050610a93565b60008484015250505050565b6000610ac582610a7a565b610acf8185610a85565b9350610adf818560208601610a90565b80840191505092915050565b6000610af78284610aba565b915081905092915050565b600082825260208201905092915050565b6000610b1e82610a7a565b610b288185610b02565b9350610b38818560208601610a90565b610b4181610563565b840191505092915050565b60006040820190508181036000830152610b668185610b13565b9050610b7560208301846107d6565b9392505050565b7f417272617973206d75737420686176652073616d65206c656e67746800000000600082015250565b6000610bb2601c83610b02565b9150610bbd82610b7c565b602082019050919050565b60006020820190508181036000830152610be181610ba5565b9050919050565b7f4e487b7100000000000000000000000000000000000000000000000000000000600052603260045260246000fd5b7f4e487b7100000000000000000000000000000000000000000000000000000000600052601160045260246000fd5b6000610c518261069f565b91507fffffffffffffffffffffffffffffffffffffffffffffffffffffffffffffffff8203610c8357610c82610c17565b5b600182019050919050565b7f4f776e61626c653a206e6577206f776e657220697320746865207a65726f206160008201527f6464726573730000000000000000000000000000000000000000000000000000602082015250565b6000610cea602683610b02565b9150610cf582610c8e565b604082019050919050565b60006020820190508181036000830152610d1981610cdd565b9050919050565b7f4f776e61626c653a2063616c6c6572206973206e6f7420746865206f776e6572600082015250565b6000610d56602083610b02565b9150610d6182610d20565b602082019050919050565b60006020820190508181036000830152610d8581610d49565b905091905056fea26469706673582212200f6fc7e6887892be119a0c67d995bacc14839a30a5fcfab1db48ff00838a983464736f6c63430008110033",
  "linkReferences": {},
  "deployedLinkReferences": {}
}