{
  "_format": "hh-sol-artifact-1",
  "contractName": "PropertyPriceOracle",
  "sourceName": "contracts/PropertyPriceOracle.sol",
  "abi": [
    {
      "inputs": [],
      "stateMutability": "nonpayable",
      "type": "constructor"
    },
    {
      "anonymous": false,
      "inputs": [
        {
          "indexed": true,
          "internalType": "address",
          "name": "previousOwner",
          "type": "address"
        },
        {
          "indexed": true,
          "internalType": "address",
          "name": "newOwner",
          "type": "address"
        }
      ],
      "name": "OwnershipTransferred",
      "type": "event"
    },
    {
      "anonymous": false,
      "inputs": [
        {
          "indexed": true,
          "internalType": "bytes32",
          "name": "locationHash",
          "type": "bytes32"
        },
        {
          "indexed": false,
          "internalType": "string",
          "name": "location",
          "type": "string"
        },
        {
          "indexed": false,
          "internalType": "uint256",
          "name": "price",
          "type": "uint256"
        }
      ],
      "name": "PriceUpdated",
      "type": "event"
    },
    {
      "inputs": [
        {
          "internalType": "string",
          "name": "location",
          "type": "string"
        }
      ],
      "name": "getPropertyPrice",
      "outputs": [
        {
          "internalType": "uint256",
          "name": "",
          "type": "uint256"
        }
      ],
      "stateMutability": "view",
      "type": "function"
    },
    {
      "inputs": [],
      "name": "owner",
      "outputs": [
        {
          "internalType": "address",
          "name": "",
          "type": "address"
        }
      ],
      "stateMutability": "view",
      "type": "function"
    },
    {
      "inputs": [],
      "name": "renounceOwnership",
      "outputs": [],
      "stateMutability": "nonpayable",
      "type": "function"
    },
    {
      "inputs": [
        {
          "internalType": "string[]",
          "name": "locations",
          "type": "string[]"
        },
        {
          "internalType": "uint256[]",
          "name": "prices",
          "type": "uint256[]"
        }
      ],
      "name": "setBatchPropertyPrices",
      "outputs": [],
      "stateMutability": "nonpayable",
      "type": "function"
    },
    {
      "inputs": [
        {
          "internalType": "string",
          "name": "location",
          "type": "string"
        },
        {
          "internalType": "uint256",
          "name": "price",
          "type": "uint256"
        }
      ],
      "name": "setPropertyPrice",
      "outputs": [],
      "stateMutability": "nonpayable",
      "type": "function"
    },
    {
      "inputs": [
        {
          "internalType": "address",
          "name": "newOwner",
          "type": "address"
        }
      ],
      "name": "transferOwnership",
      "outputs": [],
      "stateMutability": "nonpayable",
      "type": "function"
    }
  ],
  "bytecode": "0x6080806040523461005b5760008054336001600160a01b0319821681178355916001600160a01b03909116907f8be0079c531659141344cd1fd0a4f28419497f9722a3daafe3b4186f6b6457e09080a361069890816100618239f35b600080fdfe60406080815260048036101561001457600080fd5b600091823560e01c8063369fea7a1461043d578063715018a6146103e35780638da5cb5b146103bb578063b4e0065c14610355578063ea87abba1461012e5763f2fde38b1461006257600080fd5b3461012a57602036600319011261012a576001600160a01b038235818116939192908490036101265761009361058a565b83156100d457505082546001600160a01b0319811683178455167f8be0079c531659141344cd1fd0a4f28419497f9722a3daafe3b4186f6b6457e08380a380f35b906020608492519162461bcd60e51b8352820152602660248201527f4f776e61626c653a206e6577206f776e657220697320746865207a65726f206160448201526564647265737360d01b6064820152fd5b8480fd5b8280fd5b50913461035257826003193601126103525767ffffffffffffffff91803583811161012a573660238201121561012a57808201359461016c86610572565b94610179825196876104de565b8686526020928387016024809960051b8301019136831161032457898101915b8383106103285750505050863590811161012657366023820112156101265780840135906101c682610572565b916101d3845193846104de565b808352888584019160051b830101913683116103245789869101915b838310610314575050505061020261058a565b85518151036102d257845b86518110156102ce576102208188610638565b51835161024986828161023c81830196878151938492016105e2565b81010380845201826104de565b5190206102568284610638565b5181885260018652848820557f5d4cfa8e83d61e06a2c292c83e7551f9080debe4161d4e5847c2f6dab80c471b61028d838a610638565b516102988486610638565b51906102a8875192839283610605565b0390a260001981146102bc5760010161020d565b634e487b7160e01b8652601185528786fd5b8580f35b815162461bcd60e51b8152808501849052601c818901527f417272617973206d75737420686176652073616d65206c656e677468000000006044820152606490fd5b82358152918101918691016101ef565b8780fd5b823585811161034e57879161034383928e3691870101610516565b815201920191610199565b8980fd5b80fd5b50823461035257602092836003193601126103b757803567ffffffffffffffff811161012a5783929161038a91369101610516565b82516103a586828161023c81830196878151938492016105e2565b51902081526001845220549051908152f35b5080fd5b8382346103b757816003193601126103b757905490516001600160a01b039091168152602090f35b83346103525780600319360112610352576103fc61058a565b80546001600160a01b03198116825581906001600160a01b03167f8be0079c531659141344cd1fd0a4f28419497f9722a3daafe3b4186f6b6457e08280a380f35b50903461012a578160031936011261012a57803567ffffffffffffffff81116104da577f5d4cfa8e83d61e06a2c292c83e7551f9080debe4161d4e5847c2f6dab80c471b9161048e91369101610516565b6024359061049a61058a565b6104d4845160208101906104b9602082865161023c8187858b016105e2565b51902094858752600160205283818820555192839283610605565b0390a280f35b8380fd5b90601f8019910116810190811067ffffffffffffffff82111761050057604052565b634e487b7160e01b600052604160045260246000fd5b81601f8201121561056d5780359067ffffffffffffffff8211610500576040519261054b601f8401601f1916602001856104de565b8284526020838301011161056d57816000926020809301838601378301015290565b600080fd5b67ffffffffffffffff81116105005760051b60200190565b6000546001600160a01b0316330361059e57565b606460405162461bcd60e51b815260206004820152602060248201527f4f776e61626c653a2063616c6c6572206973206e6f7420746865206f776e65726044820152fd5b60005b8381106105f55750506000910152565b81810151838201526020016105e5565b929190606060209160408652610629815180928160408a015285858a0191016105e2565b601f8019910116850101930152565b805182101561064c5760209160051b010190565b634e487b7160e01b600052603260045260246000fdfea264697066735822122099f1fde9ad25a837ae3dcc4f7506ef165c33bf44ddf6cc989b1b1b36e0c53e2a64736f6c63430008130033",
  "linkReferences": {},
  "deployedLinkReferences": {}
}